:100000000C9424010C9441010C9441010C94410185
:100010000C9441010C9441010C9441010C94410158
:100020000C9441010C9441010C9441010C94410148
:100030000C9441010C94B2100C94E5100C94680ED1
:100040000C94E60F0C9419100C944C100C947F1027
:100050000C94220E0C94800F0C94B30F0C94C90DC9
:100060000C9441010C94EF090C9441010C94430948
:100070000C9441010C9441020C9441010C94181110
:100080000C944B110C947E110C94B1110C94AE0E87
:100090000C941A0A0C9441010C946E090C944101C1
:1000A0000C9441010C94E4110C9417120C944A1214
:1000B0000C947D120C94F40E0C94B0120C94E31278
:1000C0000C9416130C9449130C943A0F0C94450A93
:1000D0000C9441010C9499090C94700A0C94410100
:1000E0000C94C40907634236B79BD8A71A396856DF
:1000F00018AEBAAB558C1D3CB7CC5763BD6DEDFD4A
:10010000753EF6177231BF000000803F0800000006
:10011000BE922449123EABAAAA2ABECDCCCC4C3EFC
:1001200000000080BEABAAAAAA3E00000000BF00EB
:100130000000803F0000000000084178D3BB4387E7
:10014000D1133D190E3CC3BD4282AD2B3E68EC82FB
:1001500076BED98FE1A93E4C80EFFFBE01C4FF7F80
:100160003F00000000000000010008004000000106
:100170000004000001000800200040008000000191
:1001800000044241445F766563742063616C6C6572
:100190006421003031323334353637383941424307
:1001A00044454600256420256420256420256420DC
:1001B00025642025642025642025642025642025CD
:1001C000642025642025642025642025642025647E
:1001D0002025642025642025640D0A0025640D0A6D
:1001E000004C5F53656E736F723D25642C204C5F2D
:1001F000776865656C3D256425642C20525F5365E6
:100200006E736F723D25642C20525F776865656C54
:100210003D256425640D0A00496E697469616C6945
:100220007A6174696F6E20436F6D706C65746520C0
:100230000D0A002E000D0A53797374656D20576105
:10024000726D65642055700011241FBECFEFD1E29E
:10025000DEBFCDBF12E0A0E0B2E0ECEEF3E502C0FD
:1002600005900D92A639B107D9F715E0A6E9B2E0DD
:1002700001C01D92A538B107E1F70E9418250C9422
:10028000F4290C947C13DF93CF93CDB7DEB7AAE7A4
:10029000B0E0EAE7F0E0808180688C93AAE7B0E004
:1002A000EAE7F0E080818F7D8C9386E00E948401F4
:1002B00081E00E949801ACE7B0E0ECE7F0E08081DB
:1002C0008F7D8C93AAE7B0E0EAE7F0E08081886058
:1002D0008C93109218057894CF91DF910895DF9355
:1002E000CF93CDB7DEB7AAE7B0E0EAE7F0E08081D0
:1002F000877F8C93AAE7B0E0EAE7F0E080818F7710
:100300008C93CF91DF910895DF93CF930F92CDB768
:10031000DEB78983AAE7B0E0EAE7F0E08081982FB2
:10032000987F8981892B8C930F90CF91DF910895CD
:10033000DF93CF930F92CDB7DEB78983ACE7B0E000
:10034000ECE7F0E08081282F2F738981882F90E0DF
:100350000024969587950794969587950794982FEE
:10036000802D822B8C930F90CF91DF910895DF9396
:10037000CF930F92CDB7DEB78983ACE7B0E0ECE75F
:10038000F0E08081982F907E89818F71892B8C93EA
:100390000F90CF91DF910895DF93CF93CDB7DEB764
:1003A000AAE7B0E0EAE7F0E0808180618C93AAE7F9
:1003B000B0E0EAE7F0E0808180648C93CF91DF9138
:1003C0000895DF93CF93CDB7DEB7EAE7F0E0808101
:1003D0008074CF91DF910895DF93CF930F92CDB7C3
:1003E000DEB78983109218058981883040F0ABE729
:1003F000B0E0EBE7F0E0808188608C9307C0ABE76A
:10040000B0E0EBE7F0E08081877F8C93ACE7B0E071
:10041000ECE7F0E08081982F987F89818770892BA5
:100420008C93AAE7B0E0EAE7F0E0808180618C93EA
:10043000AAE7B0E0EAE7F0E0808180648C93EAE725
:10044000F0E08081882F90E0807490700097B9F779
:10045000E8E7F0E0808191810F90CF91DF910895DE
:10046000DF93CF930F92CDB7DEB7898389810E9446
:10047000EC0196958795969587950F90CF91DF9192
:1004800008951F920F920FB60F9211248F93DF934E
:10049000CF93CDB7DEB78FEF80931805CF91DF9163
:1004A0008F910F900FBE0F901F901895DF93CF93F1
:1004B000CDB7DEB727970FB6F894DEBF0FBECDBF1E
:1004C0009B838A837D836C835F834E83EFE5F0E0BB
:1004D00080818983F894EA81FB818C819D8191835D
:1004E0008083EA81FB818E819F8193838283EA816D
:1004F000FB8117821682EA81FB8115821482EFE567
:10050000F0E08981808327960FB6F894DEBF0FBE96
:10051000CDBFCF91DF910895DF93CF9300D000D06E
:10052000CDB7DEB79C838B831A82EFE5F0E0808144
:100530008983F894EB81FC81848195810097D1F1C6
:10054000EB81FC8120813181EB81FC818681978167
:10055000F901E80FF91F80818A83EB81FC81868194
:1005600097810196EB81FC8197838683EB81FC81E7
:1005700026813781EB81FC8182819381281739079D
:1005800080F0EB81FC8126813781EB81FC818281C7
:100590009381A901481B590BCA01EB81FC81978308
:1005A0008683EB81FC81848195810197EB81FC81BD
:1005B00095838483EFE5F0E0898180838A810F90C1
:1005C0000F900F900F90CF91DF910895DF93CF930D
:1005D00000D000D00F92CDB7DEB79B838A837D8396
:1005E0006C83EFE5F0E080818983F894EA81FB81F8
:1005F000248135818C819D8182179307B0F5EA8132
:10060000FB81268137818C819D81820F931FEA8136
:10061000FB8197838683EA81FB8126813781EA818A
:10062000FB81828193812817390780F0EA81FB8161
:1006300026813781EA81FB8182819381A901481B50
:10064000590BCA01EA81FB8197838683EA81FB818A
:10065000248135818C819D81A901481B590BCA01D8
:10066000EA81FB819583848304C0EA81FB81158242
:100670001482EFE5F0E0898180830F900F900F9056
:100680000F900F90CF91DF9108950F931F93DF93F9
:10069000CF9300D000D000D0CDB7DEB79C838B8342
:1006A0007E836D83EFE5F0E080818A83F894EB81AF
:1006B000FC8100811181EB81FC81268137818D8154
:1006C0009E81820F931FEB81FC8122813381B901CE
:1006D0000E949029F801E80FF91F80818983EFE5D6
:1006E000F0E08A818083898126960FB6F894DEBF78
:1006F0000FBECDBFCF91DF911F910F9108950F9342
:100700001F93DF93CF9300D000D00F92CDB7DEB709
:100710009B838A836C83EFE5F0E080818983F89482
:10072000EA81FB8124813581EA81FB818281938189
:100730002817390750F5EA81FB8100811181EA8190
:10074000FB8126813781EA81FB8184819581820F3B
:10075000931FEA81FB8122813381B9010E94902994
:10076000F801E80FF91F8C818083EA81FB81848185
:1007700095810196EA81FB8195838483EFE5F0E022
:10078000898180838FEF8D8305C0EFE5F0E089815B
:1007900080831D828D810F900F900F900F900F908E
:1007A000CF91DF911F910F910895DF93CF9300D0E8
:1007B00000D00F92CDB7DEB79D838C83EFE5F0E0DC
:1007C00080818B83F894EC81FD8122813381EC81DF
:1007D000FD8184819581A901481B590BCA019A8327
:1007E0008983EFE5F0E08B81808389819A810F9086
:1007F0000F900F900F900F90CF91DF910895DF939E
:10080000CF9300D00F92CDB7DEB79B838A83EFE5FD
:10081000F0E080818983F894EA81FB81158214825B
:10082000EFE5F0E0898180830F900F900F90CF91DA
:10083000DF910895DF93CF93CDB7DEB70E942904EF
:100840000E944B040E946D040E948F04CF91DF919F
:100850000895DF93CF93CDB7DEB70E94B104109215
:10086000D7041092D604E1ECF0E088ED808380E0BC
:1008700040E855E260E070E00E9433058FEF80931E
:10088000190510923D051092620510926105789449
:10089000CF91DF910895DF93CF93CDB7DEB70E945C
:1008A000CA041092D9041092D804E9ECF0E088ED63
:1008B000808381E040E855E260E070E00E9433050B
:1008C0008FEF80931A0510923E05109264051092E6
:1008D00063057894CF91DF910895DF93CF93CDB7DF
:1008E000DEB70E94E3041092DB041092DA04E1ED1B
:1008F000F0E088ED808382E040E855E260E070E05F
:100900000E9433058FEF80931B0510923F051092D4
:100910006605109265057894CF91DF910895DF9375
:10092000CF93CDB7DEB70E94FC041092DD04109285
:10093000DC04E1E3F1E088ED808383E040E855E208
:1009400060E070E00E9433058FEF80931C051092E9
:10095000400510926805109267057894CF91DF9159
:100960000895DF93CF93CDB7DEB78DE195E026E90B
:1009700032E0B90140E850E00E94560281E495E07F
:1009800026E133E0B90140E150E00E945602CF91E8
:10099000DF910895DF93CF93CDB7DEB785E295E081
:1009A00026E233E0B90140E850E00E94560289E4B3
:1009B00095E026EA33E0B90140E150E00E9456029A
:1009C000CF91DF910895DF93CF93CDB7DEB78DE25E
:1009D00095E026EB33E0B90140E850E00E94560272
:1009E00081E595E026E334E0B90140E150E00E9462
:1009F0005602CF91DF910895DF93CF93CDB7DEB745
:100A000085E395E026E434E0B90140E850E00E9437
:100A1000560289E595E026EC34E0B90140E150E06A
:100A20000E945602CF91DF910895DF93CF9300D0BB
:100A30000F92CDB7DEB789837B836A838981843047
:100A400060F48981882F90E0880F991FFC01EA5299
:100A5000FB4F8A819B81918380830F900F900F9031
:100A6000CF91DF910895EF92FF920F931F93DF9341
:100A7000CF93CDB7DEB727970FB6F894DEBF0FBE82
:100A8000CDBF8B834C835D836E837F838C819D81FF
:100A9000AE81BF8180589B47A14EBF4F880F991FE1
:100AA000AA1FBB1F880F991FAA1FBB1F880F991F62
:100AB000AA1FBB1F7C018D018C819D81AE81BF81EE
:100AC000880F991FAA1FBB1F880F991FAA1FBB1F42
:100AD000880F991FAA1FBB1F880F991FAA1FBB1F32
:100AE0009C01AD01C801B7010E94B729DA01C90113
:100AF00001979A8389838B81833061F4E4E3F1E089
:100B000089818083E5E3F1E089819A81892F9927A2
:100B1000808329C08B81823061F4E4EDF0E089812B
:100B20008083E5EDF0E089819A81892F9927808380
:100B30001AC08B81813061F4ECECF0E08981808314
:100B4000EDECF0E089819A81892F992780830BC091
:100B5000E4ECF0E089818083E5ECF0E089819A8122
:100B6000892F9927808327960FB6F894DEBF0FBE92
:100B7000CDBFCF91DF911F910F91FF90EF9008951E
:100B8000DF93CF930F92CDB7DEB789838981882F0A
:100B900090E0880F991F880F991F880F991F835E17
:100BA0009A4F0F90CF91DF910895DF93CF930F92DB
:100BB000CDB7DEB789838981882F90E0880F991F90
:100BC000880F991F880F991F8F5B9A4F0F90CF91B5
:100BD000DF910895DF93CF9300D0CDB7DEB789833F
:100BE0006A838981833071F4E0E3F1E08081882FAA
:100BF00090E0807290700097B9F3E6E3F1E08A81AB
:100C000080832FC08981823071F4E0EDF0E0808133
:100C1000882F90E0807290700097B9F3E6EDF0E0D5
:100C20008A8180831EC08981813071F4E8ECF0E014
:100C30008081882F90E0807290700097B9F3EEEC7D
:100C4000F0E08A8180830DC0E0ECF0E08081882FA5
:100C500090E0807290700097B9F3E6ECF0E08A8142
:100C600080838981882F90E0FC01E75EFA4F108233
:100C70000F900F90CF91DF910895DF93CF930F9254
:100C8000CDB7DEB7898380E069810E94EA050F90C5
:100C9000CF91DF910895DF93CF930F92CDB7DEB759
:100CA000898381E069810E94EA050F90CF91DF91ED
:100CB0000895DF93CF930F92CDB7DEB7898382E09B
:100CC00069810E94EA050F90CF91DF910895DF932B
:100CD000CF930F92CDB7DEB7898383E069810E94FD
:100CE000EA050F90CF91DF910895DF93CF9300D065
:100CF0000F92CDB7DEB780E09E012F5F3F4FB90165
:100D00000E94F906882331F08981282F30E03B8347
:100D10002A8304C08FEF9FEF9B838A838A819B8104
:100D20000F900F900F90CF91DF910895DF93CF93A5
:100D300000D00F92CDB7DEB781E09E012F5F3F4F0D
:100D4000B9010E94F906882331F08981282F30E00B
:100D50003B832A8304C08FEF9FEF9B838A838A8122
:100D60009B810F900F900F90CF91DF910895DF93AB
:100D7000CF9300D00F92CDB7DEB782E09E012F5FF8
:100D80003F4FB9010E94F906882331F08981282F4D
:100D900030E03B832A8304C08FEF9FEF9B838A83DD
:100DA0008A819B810F900F900F90CF91DF910895D2
:100DB000DF93CF9300D00F92CDB7DEB783E09E01D3
:100DC0002F5F3F4FB9010E94F906882331F08981D6
:100DD000282F30E03B832A8304C08FEF9FEF9B8353
:100DE0008A838A819B810F900F900F90CF91DF9122
:100DF0000895DF93CF9300D000D0CDB7DEB78983BD
:100E00007B836A838981882F90E0880F991F880FE0
:100E1000991F880F991FFC01E15EFA4F8081918133
:100E2000009729F18981882F90E0880F991F880FFA
:100E3000991F880F991FFC01EF5DFA4F8081918106
:100E4000009799F08981882F90E0880F991F880F6B
:100E5000991F880F991F835E9A4F0E948C02EA8126
:100E6000FB8180838FEF8C8303C01C8201C01C82B6
:100E70008C810F900F900F900F90CF91DF9108957C
:100E8000DF93CF930F92CDB7DEB789838981882F07
:100E900090E0880F991F880F991F880F991F835E14
:100EA0009A4F0E94FF030F90CF91DF910895DF9337
:100EB000CF9300D0CDB7DEB789838981882F90E0AA
:100EC000880F991F880F991F880F991FFC01EF5DEC
:100ED000FA4F808191811A82009711F481E08A8310
:100EE0008A810F900F90CF91DF910895DF93CF9378
:100EF00000D0CDB7DEB789836A838981882F90E0DF
:100F0000880F991F880F991F880F991F8F5B9A4F21
:100F10006A810E947F030F900F90CF91DF91089517
:100F2000DF93CF930F92CDB7DEB7898380E06981DD
:100F30000E9476070F90CF91DF910895DF93CF93B2
:100F40000F92CDB7DEB7898381E069810E94760771
:100F50000F90CF91DF910895DF93CF930F92CDB78C
:100F6000DEB7898382E069810E9476070F90CF9176
:100F7000DF910895DF93CF930F92CDB7DEB78983CA
:100F800083E069810E9476070F90CF91DF910895E9
:100F9000DF93CF930F92CDB7DEB789838981882FF6
:100FA00090E0FC01E35CFA4F8FEF80838981882F0A
:100FB00090E0880F991F880F991F880F991F8F5BEA
:100FC0009A4F0E948C02982F8981692F0E94EA050E
:100FD0000F90CF91DF910895DF93CF93CDB7DEB718
:100FE00029970FB6F894DEBF0FBECDBF89837B83F0
:100FF0006A835D834C838981882F90E0880F991FD5
:10100000880F991F880F991FFC01EB5BFA4F208115
:1010100031818C819D81280F391F8981882F90E033
:10102000880F991F880F991F880F991FFC01ED5B8E
:10103000FA4F808191812817390708F045C08C81CB
:101040009D81009709F440C0EA81FB8120812887B7
:101050008A819B8101969B838A831F821E821DC089
:101060008981882F90E0880F991F880F991F880F1A
:10107000991F9C012F5B3A4FEA81FB8140818A8155
:101080009B8101969B838A83C901642F0E947F0301
:101090008E819F8101969F838E838C819D81019794
:1010A0002E813F8128173907D8F28981882F90E057
:1010B000FC01E35CFA4F8FEF8083898168850E9491
:1010C000EA053FEF398701C01986898529960FB651
:1010D000F894DEBF0FBECDBFCF91DF9108950F937F
:1010E0001F93DF93CF930F92CDB7DEB789838981AA
:1010F000882F90E0FC01E35CFA4F8081882309F49B
:101100004DC08981882F90E0880F991F880F991F03
:10111000880F991FFC01EB5BFA4F8081918100974A
:1011200069F18981833049F406E311E089E595E0AE
:101130000E948C02F801808339C08981823049F491
:1011400006ED10E081E595E00E948C02F8018083B5
:101150002DC08981813049F40EEC10E089E495E0DE
:101160000E948C02F801808321C006EC10E081E42B
:1011700095E00E948C02F801808318C08981882F35
:1011800090E0FC01E35CFA4F10828981882F90E0A7
:10119000FC01E75EFA4F8FEF808308C08981882FBA
:1011A00090E0FC01E75EFA4F8FEF80830F90CF91C4
:1011B000DF911F910F910895DF93CF9300D0CDB7AA
:1011C000DEB78A838A81833029F4E6E3F1E0808107
:1011D000898314C08A81823029F4E6EDF0E08081B1
:1011E00089830CC08A81813029F4EEECF0E08081A3
:1011F000898304C0E6ECF0E0808189838A81882FAE
:1012000090E0880F991FFC01EA52FB4F8081918189
:10121000009771F08A81882F90E0880F991FFC0158
:10122000EA52FB4F0190F081E02D8981099526C09B
:101230008A81882F90E0880F991F880F991F880F47
:10124000991F835E9A4F69810E947F038823B1F4BE
:101250008A81282F30E0C901880F991FFC01EF59BE
:10126000FA4F80819181AC014F5F5F4FC901880FB8
:10127000991FFC01EF59FA4F518340830F900F9053
:10128000CF91DF9108951F920F920FB60F92112404
:101290002F933F934F935F936F937F938F939F937E
:1012A000AF93BF93EF93FF93DF93CF93CDB7DEB7A9
:1012B00080E00E946F08CF91DF91FF91EF91BF9185
:1012C000AF919F918F917F916F915F914F913F91DE
:1012D0002F910F900FBE0F901F9018951F920F9295
:1012E0000FB60F9211242F933F934F935F936F93F9
:1012F0007F938F939F93AF93BF93EF93FF93DF936E
:10130000CF93CDB7DEB781E00E946F08CF91DF9118
:10131000FF91EF91BF91AF919F918F917F916F91CD
:101320005F914F913F912F910F900FBE0F901F90A3
:1013300018951F920F920FB60F9211242F933F937F
:101340004F935F936F937F938F939F93AF93BF93CD
:10135000EF93FF93DF93CF93CDB7DEB782E00E9488
:101360006F08CF91DF91FF91EF91BF91AF919F9166
:101370008F917F916F915F914F913F912F910F903E
:101380000FBE0F901F9018951F920F920FB60F92DD
:1013900011242F933F934F935F936F937F938F937A
:1013A0009F93AF93BF93EF93FF93DF93CF93CDB70B
:1013B000DEB783E00E946F08CF91DF91FF91EF913C
:1013C000BF91AF919F918F917F916F915F914F915D
:1013D0003F912F910F900FBE0F901F9018951F9265
:1013E0000F920FB60F9211242F933F934F935F9359
:1013F0006F937F938F939F93AF93BF93EF93FF93DD
:10140000DF93CF93CDB7DEB780E00E94DC08CF91A9
:10141000DF91FF91EF91BF91AF919F918F917F915C
:101420006F915F914F913F912F910F900FBE0F9051
:101430001F9018951F920F920FB60F9211242F93A1
:101440003F934F935F936F937F938F939F93AF934C
:10145000BF93EF93FF93DF93CF93CDB7DEB781E0D8
:101460000E94DC08CF91DF91FF91EF91BF91AF9186
:101470009F918F917F916F915F914F913F912F91AC
:101480000F900FBE0F901F9018951F920F920FB6DE
:101490000F9211242F933F934F935F936F937F93FA
:1014A0008F939F93AF93BF93EF93FF93DF93CF936C
:1014B000CDB7DEB782E00E94DC08CF91DF91FF91CB
:1014C000EF91BF91AF919F918F917F916F915F91BC
:1014D0004F913F912F910F900FBE0F901F90189535
:1014E0001F920F920FB60F9211242F933F934F9399
:1014F0005F936F937F938F939F93AF93BF93EF937C
:10150000FF93DF93CF93CDB7DEB783E00E94DC0873
:10151000CF91DF91FF91EF91BF91AF919F918F910B
:101520007F916F915F914F913F912F910F900FBEDF
:101530000F901F901895DF93CF9300D000D00F929B
:10154000CDB7DEB78D838D81882F90E08770907046
:10155000880F991F8A599E4F9C838B838B819C8116
:10156000FC01859194919A838983FC83EB83898123
:101570009A810F900F900F900F900F90CF91DF9165
:101580000895DF93CF9300D000D00F92CDB7DEB790
:101590008D838D81882F90E087709070880F991FC0
:1015A0008E589E4F9C838B838B819C81FC018591FF
:1015B00094919A838983FC83EB8389819A810F902C
:1015C0000F900F900F900F90CF91DF910895DF93C0
:1015D000CF93CDB7DEB7E5E4F0E080810E949B0AAF
:1015E000CF91DF910895DF93CF93CDB7DEB7E1E8D8
:1015F000F0E080810E949B0ACF91DF910895DF93F4
:10160000CF93CDB7DEB7E1EBF0E080810E94C10A55
:10161000CF91DF910895DF93CF93CDB7DEB7E1E9A6
:10162000F0E080810E949B0ACF91DF910895DF93C3
:10163000CF93CDB7DEB7E1EAF0E080810E949B0A4C
:10164000CF91DF910895DF93CF93CDB7DEB7E1E27D
:10165000F1E080810E949B0ACF91DF910895DF9392
:10166000CF93CDB7DEB78091710590917205A091AF
:101670007305B0917405BC01CD01CF91DF91089540
:10168000DF93CF93CDB7DEB780916D0590916E0556
:10169000A0916F05B0917005BC01CD01CF91DF9194
:1016A0000895DF93CF93CDB7DEB780917505909104
:1016B0007605A0917705B0917805BC01CD01CF9159
:1016C000DF910895DF93CF93CDB7DEB780917D058D
:1016D00090917E05A0917F05B0918005BC01CD0160
:1016E000CF91DF910895DF93CF93CDB7DEB780918F
:1016F000690590916A05A0916B05B0916C05BC01DC
:10170000CD01CF91DF910895DF93CF93CDB7DEB7B1
:101710008091810590918205A0918305B091840507
:10172000BC01CD01CF91DF910895DF93CF93CDB769
:10173000DEB7E6E4F0E08081CF91DF910895DF939A
:10174000CF93CDB7DEB7E4E8F0E080819181CF910F
:10175000DF910895DF93CF93CDB7DEB7E2EBF0E0F2
:101760008081CF91DF910895DF93CF93CDB7DEB71E
:10177000E4E9F0E080819181CF91DF910895DF93DA
:10178000CF93CDB7DEB7E4EAF0E080819181CF91CD
:10179000DF910895DF93CF93CDB7DEB7E4E2F1E0B8
:1017A00080819181CF91DF910895DF93CF93CDB761
:1017B000DEB71092710510927205109273051092A7
:1017C0007405E6E4F0E01082CF91DF910895DF9395
:1017D000CF93CDB7DEB710926D0510926E051092C3
:1017E0006F0510927005E4E8F0E011821082CF914D
:1017F000DF910895DF93CF93CDB7DEB710927505D3
:10180000109276051092770510927805E2EBF0E0E1
:101810001082CF91DF910895DF93CF93CDB7DEB7DC
:1018200010927D0510927E0510927F051092800522
:10183000E4E9F0E011821082CF91DF910895DF9307
:10184000CF93CDB7DEB71092690510926A0510925A
:101850006B0510926C05E4EAF0E011821082CF91E2
:10186000DF910895DF93CF93CDB7DEB71092810556
:10187000109282051092830510928405E4E2F1E053
:1018800011821082CF91DF910895DF93CF9300D022
:1018900000D000D0CDB7DEB79C838B838B819C8139
:1018A000CC01A0E0B0E0880F991FAA1FBB1F880FD2
:1018B000991FAA1FBB1F880F991FAA1FBB1F880F44
:1018C000991FAA1FBB1F0396A11DB11D25E030E083
:1018D00040E050E0BC01CD010E94D929DA01C901E4
:1018E0009A8389831E821D8206C02D813E812F5FCF
:1018F0003F4F3E832D8389819A812D813E81281718
:10190000390798F326960FB6F894DEBF0FBECDBF09
:10191000CF91DF910895DF93CF930F92CDB7DEB7CC
:101920008983E5E4F0E089818083EEE6F0E081E000
:1019300080830E94D50B0F90CF91DF910895DF93A4
:10194000CF930F92CDB7DEB78983E1E8F0E08981CC
:101950008083EFE6F0E081E080830E94E70B0F9048
:10196000CF91DF910895DF93CF930F92CDB7DEB77C
:101970008983E1EBF0E089818083E0E7F0E081E0BA
:1019800080830E94FA0B0F90CF91DF910895DF932F
:10199000CF930F92CDB7DEB78983E1E9F0E089817B
:1019A0008083E1E7F0E081E080830E940C0C0F90DF
:1019B000CF91DF910895DF93CF930F92CDB7DEB72C
:1019C0008983E1EAF0E089818083E2E7F0E081E069
:1019D00080830E941F0C0F90CF91DF910895DF93B9
:1019E000CF930F92CDB7DEB78983E1E2F1E0898131
:1019F0008083E3E7F0E081E080830E94320C0F9067
:101A0000CF91DF910895DF93CF9300D00F92CDB7A0
:101A1000DEB789837B836A838981882F90E0880F72
:101A2000991FFC01E252FB4F8A819B819183808345
:101A30000F900F900F90CF91DF910895DF93CF9388
:101A40000F92CDB7DEB789838981882F90E0880F08
:101A5000991FFC01E252FB4F118210820F90CF912F
:101A6000DF910895DF93CF9300D0CDB7DEB79A838F
:101A7000898389819A810197F1F79A8389830F90ED
:101A80000F90CF91DF910895DF93CF93CDB7DEB75D
:101A900028970FB6F894DEBF0FBECDBF98878F830F
:101AA0008F819885CC01A0E0B0E0BC01CD010E94FF
:101AB000F326DC01CB01BC01CD0120E030E04AE798
:101AC00055E40E94A927DC01CB0189839A83AB836B
:101AD000BC8369817A818B819C8120E030E040E881
:101AE0005FE30E94562688232CF481E090E09E83D9
:101AF0008D8342C069817A818B819C8120E03FEF98
:101B00004FE757E40E94A527181664F58F81988542
:101B1000CC01A0E0B0E0BC01CD010E94F326DC01C5
:101B2000CB01BC01CD0120E030E040E251E40E9455
:101B3000A927DC01CB01BC01CD010E94C726DC0135
:101B4000CB019E838D8309C080E991E00E94320D14
:101B50008D819E8101979E838D838D819E810097CB
:101B600099F70EC069817A818B819C810E94C7267A
:101B7000DC01CB019E838D838D819E810E94320D7D
:101B800028960FB6F894DEBF0FBECDBFCF91DF9180
:101B900008951F920F920FB60F9211242F933F9327
:101BA0004F935F936F937F938F939F93AF93BF9365
:101BB000EF93FF93DF93CF93CDB7DEB7809171059D
:101BC00090917205A0917305B09174050196A11DC5
:101BD000B11D8093710590937205A0937305B09326
:101BE00074058091790590917A05A0917B05B0915B
:101BF0007C050196A11DB11D8093790590937A050E
:101C0000A0937B05B0937C058091E2049091E3045E
:101C1000009729F0E091E204F091E3040995CF9157
:101C2000DF91FF91EF91BF91AF919F918F917F9144
:101C30006F915F914F913F912F910F900FBE0F9039
:101C40001F9018951F920F920FB60F9211242F9389
:101C50003F934F935F936F937F938F939F93AF9334
:101C6000BF93EF93FF93DF93CF93CDB7DEB7809110
:101C70006D0590916E05A0916F05B091700501966C
:101C8000A11DB11D80936D0590936E05A0936F0506
:101C9000B09370058091EC049091ED04009729F0C9
:101CA000E091EC04F091ED040995CF91DF91FF9163
:101CB000EF91BF91AF919F918F917F916F915F91C4
:101CC0004F913F912F910F900FBE0F901F9018953D
:101CD0001F920F920FB60F9211242F933F934F93A1
:101CE0005F936F937F938F939F93AF93BF93EF9384
:101CF000FF93DF93CF93CDB7DEB7809175059091B9
:101D00007605A0917705B09178050196A11DB11DCA
:101D10008093750590937605A0937705B093780529
:101D20008091F2049091F304009729F0E091F2047D
:101D3000F091F3040995CF91DF91FF91EF91BF915D
:101D4000AF919F918F917F916F915F914F913F9153
:101D50002F910F900FBE0F901F9018951F920F920A
:101D60000FB60F9211242F933F934F935F936F936E
:101D70007F938F939F93AF93BF93EF93FF93DF93E3
:101D8000CF93CDB7DEB780917D0590917E05A09170
:101D90007F05B09180050196A11DB11D80937D0541
:101DA00090937E05A0937F05B09380058091FC04FD
:101DB0009091FD04009729F0E091FC04F091FD045E
:101DC0000995CF91DF91FF91EF91BF91AF919F91D5
:101DD0008F917F916F915F914F913F912F910F90D4
:101DE0000FBE0F901F9018951F920F920FB60F9273
:101DF00011242F933F934F935F936F937F938F9310
:101E00009F93AF93BF93EF93FF93DF93CF93CDB7A0
:101E1000DEB78091690590916A05A0916B05B0913C
:101E20006C050196A11DB11D8093690590936A050B
:101E3000A0936B05B0936C05809106059091070502
:101E4000009729F0E0910605F09107050995CF91DB
:101E5000DF91FF91EF91BF91AF919F918F917F9112
:101E60006F915F914F913F912F910F900FBE0F9007
:101E70001F9018951F920F920FB60F9211242F9357
:101E80003F934F935F936F937F938F939F93AF9302
:101E9000BF93EF93FF93DF93CF93CDB7DEB78091DE
:101EA000810590918205A0918305B09184050196EA
:101EB000A11DB11D8093810590938205A093830598
:101EC000B09384058091100590911105009729F039
:101ED000E0911005F09111050995CF91DF91FF91E7
:101EE000EF91BF91AF919F918F917F916F915F9192
:101EF0004F913F912F910F900FBE0F901F9018950B
:101F00001F920F920FB60F9211242F933F934F936E
:101F10005F936F937F938F939F93AF93BF93EF9351
:101F2000FF93DF93CF93CDB7DEB78091DE0490911E
:101F3000DF04009729F0E091DE04F091DF040995B9
:101F4000CF91DF91FF91EF91BF91AF919F918F91D1
:101F50007F916F915F914F913F912F910F900FBEA5
:101F60000F901F9018951F920F920FB60F92112489
:101F70002F933F934F935F936F937F938F939F9391
:101F8000AF93BF93EF93FF93DF93CF93CDB7DEB7BC
:101F90008091E0049091E104009729F0E091E00441
:101FA000F091E1040995CF91DF91FF91EF91BF91FD
:101FB000AF919F918F917F916F915F914F913F91E1
:101FC0002F910F900FBE0F901F9018951F920F9298
:101FD0000FB60F9211242F933F934F935F936F93FC
:101FE0007F938F939F93AF93BF93EF93FF93DF9371
:101FF000CF93CDB7DEB78091E4049091E5040097CC
:1020000029F0E091E404F091E5040995CF91DF9186
:10201000FF91EF91BF91AF919F918F917F916F91C0
:102020005F914F913F912F910F900FBE0F901F9096
:1020300018951F920F920FB60F9211242F933F9372
:102040004F935F936F937F938F939F93AF93BF93C0
:10205000EF93FF93DF93CF93CDB7DEB78091E60484
:102060009091E704009729F0E091E604F091E704ED
:102070000995CF91DF91FF91EF91BF91AF919F9122
:102080008F917F916F915F914F913F912F910F9021
:102090000FBE0F901F9018951F920F920FB60F92C0
:1020A00011242F933F934F935F936F937F938F935D
:1020B0009F93AF93BF93EF93FF93DF93CF93CDB7EE
:1020C000DEB78091E8049091E904009729F0E0914F
:1020D000E804F091E9040995CF91DF91FF91EF9128
:1020E000BF91AF919F918F917F916F915F914F9130
:1020F0003F912F910F900FBE0F901F9018951F9238
:102100000F920FB60F9211242F933F934F935F932B
:102110006F937F938F939F93AF93BF93EF93FF93AF
:10212000DF93CF93CDB7DEB78091EA049091EB04B3
:10213000009729F0E091EA04F091EB040995CF9122
:10214000DF91FF91EF91BF91AF919F918F917F911F
:102150006F915F914F913F912F910F900FBE0F9014
:102160001F9018951F920F920FB60F9211242F9364
:102170003F934F935F936F937F938F939F93AF930F
:10218000BF93EF93FF93DF93CF93CDB7DEB78091EB
:10219000EE049091EF04009729F0E091EE04F091A5
:1021A000EF040995CF91DF91FF91EF91BF91AF912E
:1021B0009F918F917F916F915F914F913F912F915F
:1021C0000F900FBE0F901F9018951F920F920FB691
:1021D0000F9211242F933F934F935F936F937F93AD
:1021E0008F939F93AF93BF93EF93FF93DF93CF931F
:1021F000CDB7DEB78091F0049091F104009729F0FB
:10220000E091F004F091F1040995CF91DF91FF91F5
:10221000EF91BF91AF919F918F917F916F915F915E
:102220004F913F912F910F900FBE0F901F901895D7
:102230001F920F920FB60F9211242F933F934F933B
:102240005F936F937F938F939F93AF93BF93EF931E
:10225000FF93DF93CF93CDB7DEB78091F4049091D5
:10226000F504009729F0E091F404F091F504099544
:10227000CF91DF91FF91EF91BF91AF919F918F919E
:102280007F916F915F914F913F912F910F900FBE72
:102290000F901F9018951F920F920FB60F92112456
:1022A0002F933F934F935F936F937F938F939F935E
:1022B000AF93BF93EF93FF93DF93CF93CDB7DEB789
:1022C0008091F6049091F704009729F0E091F604CC
:1022D000F091F7040995CF91DF91FF91EF91BF91B4
:1022E000AF919F918F917F916F915F914F913F91AE
:1022F0002F910F900FBE0F901F9018951F920F9265
:102300000FB60F9211242F933F934F935F936F93C8
:102310007F938F939F93AF93BF93EF93FF93DF933D
:10232000CF93CDB7DEB78091F8049091F904009770
:1023300029F0E091F804F091F9040995CF91DF912B
:10234000FF91EF91BF91AF919F918F917F916F918D
:102350005F914F913F912F910F900FBE0F901F9063
:1023600018951F920F920FB60F9211242F933F933F
:102370004F935F936F937F938F939F93AF93BF938D
:10238000EF93FF93DF93CF93CDB7DEB78091FA043D
:102390009091FB04009729F0E091FA04F091FB047E
:1023A0000995CF91DF91FF91EF91BF91AF919F91EF
:1023B0008F917F916F915F914F913F912F910F90EE
:1023C0000FBE0F901F9018951F920F920FB60F928D
:1023D00011242F933F934F935F936F937F938F932A
:1023E0009F93AF93BF93EF93FF93DF93CF93CDB7BB
:1023F000DEB78091FE049091FF04009729F0E091F0
:10240000FE04F091FF040995CF91DF91FF91EF91C8
:10241000BF91AF919F918F917F916F915F914F91FC
:102420003F912F910F900FBE0F901F9018951F9204
:102430000F920FB60F9211242F933F934F935F93F8
:102440006F937F938F939F93AF93BF93EF93FF937C
:10245000DF93CF93CDB7DEB7809100059091010552
:10246000009729F0E0910005F09101050995CF91C1
:10247000DF91FF91EF91BF91AF919F918F917F91EC
:102480006F915F914F913F912F910F900FBE0F90E1
:102490001F9018951F920F920FB60F9211242F9331
:1024A0003F934F935F936F937F938F939F93AF93DC
:1024B000BF93EF93FF93DF93CF93CDB7DEB78091B8
:1024C000020590910305009729F0E0910205F09133
:1024D00003050995CF91DF91FF91EF91BF91AF91E6
:1024E0009F918F917F916F915F914F913F912F912C
:1024F0000F900FBE0F901F9018951F920F920FB65E
:102500000F9211242F933F934F935F936F937F9379
:102510008F939F93AF93BF93EF93FF93DF93CF93EB
:10252000CDB7DEB78091040590910505009729F09D
:10253000E0910405F09105050995CF91DF91FF9198
:10254000EF91BF91AF919F918F917F916F915F912B
:102550004F913F912F910F900FBE0F901F901895A4
:102560001F920F920FB60F9211242F933F934F9308
:102570005F936F937F938F939F93AF93BF93EF93EB
:10258000FF93DF93CF93CDB7DEB78091080590918D
:102590000905009729F0E0910805F09109050995D2
:1025A000CF91DF91FF91EF91BF91AF919F918F916B
:1025B0007F916F915F914F913F912F910F900FBE3F
:1025C0000F901F9018951F920F920FB60F92112423
:1025D0002F933F934F935F936F937F938F939F932B
:1025E000AF93BF93EF93FF93DF93CF93CDB7DEB756
:1025F00080910A0590910B05009729F0E0910A055A
:10260000F0910B050995CF91DF91FF91EF91BF916B
:10261000AF919F918F917F916F915F914F913F917A
:102620002F910F900FBE0F901F9018951F920F9231
:102630000FB60F9211242F933F934F935F936F9395
:102640007F938F939F93AF93BF93EF93FF93DF930A
:10265000CF93CDB7DEB780910C0590910D05009713
:1026600029F0E0910C05F0910D050995CF91DF91CE
:10267000FF91EF91BF91AF919F918F917F916F915A
:102680005F914F913F912F910F900FBE0F901F9030
:1026900018951F920F920FB60F9211242F933F930C
:1026A0004F935F936F937F938F939F93AF93BF935A
:1026B000EF93FF93DF93CF93CDB7DEB780910E05F5
:1026C00090910F05009729F0E0910E05F0910F050C
:1026D0000995CF91DF91FF91EF91BF91AF919F91BC
:1026E0008F917F916F915F914F913F912F910F90BB
:1026F0000FBE0F901F9018951F920F920FB60F925A
:1027000011242F933F934F935F936F937F938F93F6
:102710009F93AF93BF93EF93FF93DF93CF93CDB787
:10272000DEB782E891E000D00F92EDB7FEB73196A8
:1027300021E02083928381830E9450170F900F9095
:102740000F90CF91DF91FF91EF91BF91AF919F914A
:102750008F917F916F915F914F913F912F910F904A
:102760000FBE0F901F901895DF93CF9300D0CDB779
:10277000DEB79A83898389819A8190931305809328
:1027800012050F900F90CF91DF910895DF93CF93B3
:102790000F92CDB7DEB7898389818A3031F4E09119
:1027A0001205F09113058DE00995E0911205F09165
:1027B0001305898109950F90CF91DF910895DF93DB
:1027C000CF9300D0CDB7DEB79A83898389819A8170
:1027D000009789F00BC0E981FA81208189819A8173
:1027E00001969A838983822F0E94C613E981FA8118
:1027F0008081882381F70F900F90CF91DF9108950A
:10280000DF93CF93CDB7DEB72A970FB6F894DEBF2C
:102810000FBECDBF9A8389837C836B835E834D8398
:1028200018861F8289819A81009709F449C02F81F7
:10283000388519868B819C812817390710F481E02F
:1028400089878F819885019698878F8381E0998504
:102850008927882391F4E981FA8180818A878A8592
:10286000882311F091E09A878A8529813A812F5F28
:102870003F4F3A8329838823D1F618861F8219C0D7
:10288000E981FA818081882361F0E981FA812081E0
:1028900089819A8101969A838983822F0E94C61327
:1028A00003C080E20E94C6138F81988501969887A5
:1028B0008F832F8138858D819E812817390700F3FA
:1028C0002A960FB6F894DEBF0FBECDBFCF91DF9131
:1028D0000895DF93CF9300D000D000D0CDB7DEB7FE
:1028E0009D838C838C819D810097B1F003C08E8184
:1028F0000E94C6138C819D819B838A838C819D81DC
:1029000001969D838C83EA81FB81849189838981EF
:102910008E838E81882359F726960FB6F894DEBFF2
:102920000FBECDBFCF91DF910895DF93CF93CDB789
:10293000DEB78AE00E94C613CF91DF910895DF933E
:10294000CF9300D000D0CDB7DEB78C838C81882F99
:1029500090E08F7090708D569E4F9B838A83EA81A2
:10296000FB818491898389810E94C6130F900F9007
:102970000F900F90CF91DF910895DF93CF930F9237
:10298000CDB7DEB78983898182958F700E949F14AD
:1029900089810E949F140F90CF91DF910895DF935A
:1029A000CF9300D0CDB7DEB79A83898389819A818E
:1029B000892F99270E94BD1489810E94BD140F9010
:1029C0000F90CF91DF910895DF93CF9300D000D087
:1029D000CDB7DEB769837A838B839C8389819A81A3
:1029E000AB81BC81CD01AA27BB270E94CF1489816E
:1029F0009A810E94CF140F900F900F900F90CF915B
:102A0000DF910895EF92FF920F931F93DF93CF937F
:102A1000CDB7DEB7E8970FB6F894DEBF0FBECDBFD7
:102A20008EA76FA748AB29ABEAAAFBAA0CAB1DABDC
:102A300088A98823B1F08AA99BA9ACA9BDA9BB2309
:102A400084F48AA99BA9ACA9BDA9B095A09590953D
:102A500081959F4FAF4FBF4F88879987AA87BB87C4
:102A600008C08AA99BA9ACA9BDA988879987AA870C
:102A7000BB8788A98EAB8EA9882311F081E08EAB2D
:102A80009EA98FA5891B81508F83CE010E968096BB
:102A90009D878C878C859D8501979D878C87EC858C
:102AA000FD8510828C859D8501979D878C878EA5DD
:102AB000282F30E040E050E088859985AA85BB85C5
:102AC000BC01CD010E94B729DC01CB018F70907051
:102AD0008D569E4F9E838D83ED81FE8184918C83E4
:102AE0008C81EC85FD8580838EA5282F30E040E029
:102AF00050E088859985AA85BB85BC01CD010E94DF
:102B0000B729DA01C90188879987AA87BB8747C097
:102B100088859985AA85BB850097A105B105B1F186
:102B20008C859D8501979D878C878EA5282F30E009
:102B300040E050E088859985AA85BB85BC01CD0120
:102B40000E94B729DC01CB018F7090708D569E4F8B
:102B50009B838A83EA81FB81849189838981EC85C7
:102B6000FD8580838EA5282F30E040E050E08885E9
:102B70009985AA85BB85BC01CD010E94B729DA01E0
:102B8000C90188879987AA87BB8709C08C859D85DD
:102B900001979D878C87EC85FD8589A980838F812E
:102BA0008FAB8FA9882311F081E08FAB8FA99F8114
:102BB00091509F83882309F0ABCF88A9882361F1C6
:102BC0008AA99BA9ACA9BDA9BB2354F48C859D857A
:102BD00001979D878C87EC85FD858DE280831CC0E5
:102BE0008AA99BA9ACA9BDA9181619061A061B0625
:102BF00054F48C859D8501979D878C87EC85FD8598
:102C00008BE2808309C08C859D8501979D878C8789
:102C1000EC85FD8580E280838FA58F830BC0EC85DA
:102C2000FD8520818C859D8501969D878C87822FCF
:102C30000E94C6138F8188AF88AD882311F081E090
:102C400088AF88AD9F8191509F83882341F7E89694
:102C50000FB6F894DEBF0FBECDBFCF91DF911F91AD
:102C60000F91FF90EF900895DF93CF93CDB7DEB72C
:102C700065970FB6F894DEBF0FBECDBF89874A8730
:102C80005B876C877D87188680E090E0A0E8BFE3D3
:102C900089839A83AB83BC831F826A857B858C85FD
:102CA0009D8520E030E040E050E00E9456268823D9
:102CB00014F481E08F836A857B858C859D8520E077
:102CC00030E040E050E00E94A52718164CF42A8519
:102CD0003B854C855D852A8B3B8B4C8B5D8B0BC07C
:102CE0008A859B85AC85BD859C01AD0150582A8B9A
:102CF0003B8B4C8B5D8B8A899B89AC89BD898A878C
:102D00009B87AC87BD871E8229C06A857B858C85A1
:102D10009D8529813A814B815C810E945A26DC0184
:102D2000CB01BC01CD0120E030E040E251E40E9443
:102D300056268823B4F069817A818B819C8120E0BA
:102D400030E040E251E40E94A927DC01CB018983F5
:102D50009A83AB83BC838E818F5F8E838E818F300D
:102D6000A0F28F81882321F08DE20E94C61303C058
:102D70008BE20E94C6131E8285C06A857B858C8586
:102D80009D8529813A814B815C810E945A26DC0114
:102D9000CB01BC01CD010E94C726DC01CB018D8394
:102DA0009D818885892BA82FB0E0B98BA88B1F86C1
:102DB0001E8669817A818B819C8120E030E040E829
:102DC0005FE30E945626882321F421E030E03F870C
:102DD0002E87888999894E855F85842B952B00974E
:102DE00039F08FEF88878D81805D0E94C61303C004
:102DF00080E20E94C61369817A818B819C8120E0E8
:102E000030E040E85FE30E945626882319F48EE202
:102E10000E94C6138D81882F90E0AA2797FDA09568
:102E2000BA2FBC01CD010E94F526DC01CB01BC010B
:102E3000CD0129813A814B815C810E94A927DC0167
:102E4000CB019C01AD016A857B858C859D850E94A7
:102E5000F125DC01CB018A879B87AC87BD8769811F
:102E60007A818B819C8120E030E040E251E40E9435
:102E70005A26DC01CB0189839A83AB83BC838E8184
:102E80008F5F8E839E818985981708F476CF65962B
:102E90000FB6F894DEBF0FBECDBFCF91DF9108957E
:102EA000DF93CF93CDB7DEB763970FB6F894DEBF4D
:102EB0000FBECDBFCE014B969F878E8711C08D85EB
:102EC000882359F480E090E063960FB6F894DEBF53
:102ED0000FBECDBFCF91DF9108958D850E94C6139F
:102EE000888D882381F0898D9A8D9E838D83898D2D
:102EF0009A8D01969A8F898FED81FE8184918C83C2
:102F00008C818B8B09C0E98DFA8D20812B8B898D6B
:102F10009A8D01969A8F898F3B893D878D85853261
:102F200071F6888D882381F0898D9A8D9B838A83A1
:102F3000898D9A8D01969A8F898FEA81FB81849180
:102F4000898389818A8B09C0E98DFA8D80818A8B7A
:102F5000898D9A8D01969A8F898F9A899D878D8503
:102F6000282F30E0398B288B888999898436910500
:102F7000C1F02889398928373105E1F08889998994
:102F80008336910551F42E853F85C90102969F87AE
:102F90008E87F901808191818D878D850E94C6136E
:102FA0009FCF8AE090E098878F8380E197E29A87AD
:102FB000898708C080E190E098878F8380E090E166
:102FC0009A8789872E853F85C90102969F878E87BC
:102FD000F901808191819C878B878D85843629F5C5
:102FE0008B859C859923ACF48B859C8590958195E8
:102FF0009F4F9C878B878DE20E94C6130AC08985EC
:103000009A852AE030E0B9010E949029CB019A8785
:10301000898789859A858230910538F029853A8596
:103020008B859C858217930750F38B859C8529851A
:103030003A85B9010E949029CB010E949F148B858B
:103040009C8529853A85B9010E9490299C878B87A8
:1030500089859A852F813885B9010E949029CB01F5
:103060009A87898789859A850097F9F639CFDF9302
:10307000CF930F92CDB7DEB789838981893079F4F8
:10308000A0E8B0E0E0E8F0E0808182608C93A0E806
:10309000B0E0E0E8F0E080818E7F8C9320C08981F1
:1030A0008A3079F4A0E8B0E0E0E8F0E08081826066
:1030B0008C93A0E8B0E0E0E8F0E0808181608C9340
:1030C0000EC0A0E8B0E0E0E8F0E080818D7F8C9356
:1030D000A0E8B0E0E0E8F0E0808181608C93EAE86D
:1030E000F0E0118210820F90CF91DF910895DF936D
:1030F000CF930F92CDB7DEB789838981893079F478
:10310000A0EBB0E0E0EBF0E0808182608C93A0EB7C
:10311000B0E0E0EBF0E080818E7F8C9320C089816D
:103120008A3079F4A0EBB0E0E0EBF0E080818260DF
:103130008C93A0EBB0E0E0EBF0E0808181608C93B9
:103140000EC0A0EBB0E0E0EBF0E080818D7F8C93CF
:10315000A0EBB0E0E0EBF0E0808181608C93E4EBE9
:10316000F0E010820F90CF91DF910895DF93CF931D
:103170000F92CDB7DEB789838981893079F4A0E9D0
:10318000B0E0E0E9F0E0808182608C93A0E9B0E0FB
:10319000E0E9F0E080818E7F8C9320C089818A30C5
:1031A00079F4A0E9B0E0E0E9F0E0808182608C93FE
:1031B000A0E9B0E0E0E9F0E0808181608C930EC08E
:1031C000A0E9B0E0E0E9F0E080818D7F8C93A0E998
:1031D000B0E0E0E9F0E0808181608C93E8E9F0E024
:1031E000118210820F90CF91DF910895DF93CF93DA
:1031F0000F92CDB7DEB789838981893079F4A1E94F
:10320000B0E0E1E9F0E0808182608C93A1E9B0E078
:10321000E1E9F0E080818E7F8C9320C089818A3043
:1032200079F4A1E9B0E0E1E9F0E0808182608C937B
:10323000A1E9B0E0E1E9F0E0808181608C930EC00B
:10324000A1E9B0E0E1E9F0E080818D7F8C93A1E914
:10325000B0E0E1E9F0E0808181608C93EAE9F0E0A0
:10326000118210820F90CF91DF910895DF93CF9359
:103270000F92CDB7DEB789838981893079F4A2E9CD
:10328000B0E0E2E9F0E0808182608C93A2E9B0E0F6
:10329000E2E9F0E080818E7F8C9320C089818A30C2
:1032A00079F4A2E9B0E0E2E9F0E0808182608C93F9
:1032B000A2E9B0E0E2E9F0E0808181608C930EC089
:1032C000A2E9B0E0E2E9F0E080818D7F8C93A2E991
:1032D000B0E0E2E9F0E0808181608C93ECE9F0E01D
:1032E000118210820F90CF91DF910895DF93CF93D9
:1032F0000F92CDB7DEB789838981893079F4A0EA4E
:10330000B0E0E0EAF0E0808182608C93A0EAB0E077
:10331000E0EAF0E080818E7F8C9320C089818A3042
:1033200079F4A0EAB0E0E0EAF0E0808182608C937A
:10333000A0EAB0E0E0EAF0E0808181608C930EC00A
:10334000A0EAB0E0E0EAF0E080818D7F8C93A0EA13
:10335000B0E0E0EAF0E0808181608C93E8EAF0E0A0
:10336000118210820F90CF91DF910895DF93CF9358
:103370000F92CDB7DEB789838981893079F4A1EACC
:10338000B0E0E1EAF0E0808182608C93A1EAB0E0F5
:10339000E1EAF0E080818E7F8C9320C089818A30C1
:1033A00079F4A1EAB0E0E1EAF0E0808182608C93F8
:1033B000A1EAB0E0E1EAF0E0808181608C930EC088
:1033C000A1EAB0E0E1EAF0E080818D7F8C93A1EA90
:1033D000B0E0E1EAF0E0808181608C93EAEAF0E01D
:1033E000118210820F90CF91DF910895DF93CF93D8
:1033F0000F92CDB7DEB789838981893079F4A0EA4D
:10340000B0E0E0EAF0E0808182608C93A0EAB0E076
:10341000E0EAF0E080818E7F8C9320C089818A3041
:1034200079F4A0EAB0E0E0EAF0E0808182608C9379
:10343000A0EAB0E0E0EAF0E0808181608C930EC009
:10344000A0EAB0E0E0EAF0E080818D7F8C93A0EA12
:10345000B0E0E0EAF0E0808181608C93ECEAF0E09B
:10346000118210820F90CF91DF910895DF93CF9357
:1034700000D0CDB7DEB79A838983A0E8B0E0E0E85A
:10348000F0E080818E7F8C93A0E8B0E0E0E8F0E08F
:10349000808182608C93A1E8B0E0E1E8F0E0808177
:1034A00088608C93A1E8B0E0E1E8F0E08081806181
:1034B0008C93E6E8F0E089819A8191838083E8E843
:1034C000F0E011821082EAE8F0E011821082ECE86C
:1034D000F0E0118210820F900F90CF91DF9108954C
:1034E000DF93CF9300D0CDB7DEB79A838983A0E96D
:1034F000B0E0E0E9F0E080818E7F8C93A0E9B0E05D
:10350000E0E9F0E0808182608C93A1E9B0E0E1E93C
:10351000F0E0808188608C93A1E9B0E0E1E9F0E01F
:10352000808180618C93E6E9F0E089819A819183C2
:103530008083E8E9F0E011821082EAE9F0E011828C
:103540001082ECE9F0E0118210820F900F90CF9181
:10355000DF910895DF93CF9300D0CDB7DEB79A8384
:103560008983A0EAB0E0E0EAF0E080818E7F8C936E
:10357000A0EAB0E0E0EAF0E0808182608C93A1EA0A
:10358000B0E0E1EAF0E0808188608C93A1EAB0E0ED
:10359000E1EAF0E0808180618C93E6EAF0E08981E5
:1035A0009A8191838083E8EAF0E011821082EAEA4E
:1035B000F0E011821082ECEAF0E0118210820F90AC
:1035C0000F90CF91DF910895DF93CF93CDB7DEB702
:1035D000A0E8B0E0E0E8F0E0808180628C93A0E8B1
:1035E000B0E0E0E8F0E080818F7E8C93CF91DF91B6
:1035F0000895DF93CF93CDB7DEB7A0EBB0E0E0EB5B
:10360000F0E0808180628C93A0EBB0E0E0EBF0E032
:1036100080818F7E8C93CF91DF910895DF93CF933C
:10362000CDB7DEB7A0E9B0E0E0E9F0E080818068E6
:103630008C93A0E9B0E0E0E9F0E080818F7B8C938F
:10364000CF91DF910895DF93CF93CDB7DEB7A0E997
:10365000B0E0E0E9F0E0808180628C93A0E9B0E026
:10366000E0E9F0E080818F7E8C93CF91DF91089527
:10367000DF93CF93CDB7DEB7A0E9B0E0E0E9F0E0AB
:10368000808188608C93A0E9B0E0E0E9F0E080817F
:103690008B7F8C93CF91DF910895DF93CF93CDB73C
:1036A000DEB7A0EAB0E0E0EAF0E0808180688C93C9
:1036B000A0EAB0E0E0EAF0E080818F7B8C93CF91CC
:1036C000DF910895DF93CF93CDB7DEB7A0EAB0E0E6
:1036D000E0EAF0E0808180628C93A0EAB0E0E0EA6A
:1036E000F0E080818F7E8C93CF91DF910895DF93FE
:1036F000CF93CDB7DEB7A0EAB0E0E0EAF0E080819A
:1037000088608C93A0EAB0E0E0EAF0E080818B7FF3
:103710008C93CF91DF910895DF93CF93CDB7DEB730
:10372000A0E8B0E0E0E8F0E080818F7D8C93A0E835
:10373000B0E0E0E8F0E080818F7E8C93CF91DF9164
:103740000895DF93CF93CDB7DEB7A0EBB0E0E0EB09
:10375000F0E080818F7D8C93A0EBB0E0E0EBF0E0B7
:1037600080818F7E8C93CF91DF910895DF93CF93EB
:10377000CDB7DEB7A0E9B0E0E0E9F0E080818F7777
:103780008C93A0E9B0E0E0E9F0E080818F7B8C933E
:10379000CF91DF910895DF93CF93CDB7DEB7A0E946
:1037A000B0E0E0E9F0E080818F7D8C93A0E9B0E0AB
:1037B000E0E9F0E080818F7E8C93CF91DF910895D6
:1037C000DF93CF93CDB7DEB7A0E9B0E0E0E9F0E05A
:1037D0008081877F8C93A0E9B0E0E0E9F0E0808110
:1037E0008B7F8C93CF91DF910895DF93CF93CDB7EB
:1037F000DEB7A0EAB0E0E0EAF0E080818F778C935A
:10380000A0EAB0E0E0EAF0E080818F7B8C93CF917A
:10381000DF910895DF93CF93CDB7DEB7A0EAB0E094
:10382000E0EAF0E080818F7D8C93A0EAB0E0E0EAEE
:10383000F0E080818F7E8C93CF91DF910895DF93AC
:10384000CF93CDB7DEB7A0EAB0E0E0EAF0E0808148
:10385000877F8C93A0EAB0E0E0EAF0E080818B7F84
:103860008C93CF91DF910895DF93CF93CDB7DEB7DF
:10387000A0E8B0E0E0E8F0E080818D7F8C93A0E8E4
:10388000B0E0E0E8F0E080818E7F8C930E948C1B9A
:10389000CF91DF910895DF93CF93CDB7DEB7A0EB43
:1038A000B0E0E0EBF0E080818D7F8C93A0EBB0E0A6
:1038B000E0EBF0E080818E7F8C930E94A11BCF9182
:1038C000DF910895DF93CF93CDB7DEB7A0E9B0E0E5
:1038D000E0E9F0E080818D7F8C93A0E9B0E0E0E941
:1038E000F0E080818E7F8C930E94B61B0E94CB1BE0
:1038F0000E94E01BCF91DF910895DF93CF93CDB766
:10390000DEB7A0EAB0E0E0EAF0E080818D7F8C9342
:10391000A0EAB0E0E0EAF0E080818E7F8C930E9424
:10392000F51B0E940A1C0E941F1CCF91DF91089575
:10393000DF93CF9300D0CDB7DEB79A838983EAE8CF
:10394000F0E089819A81918380830F900F90CF91CD
:10395000DF910895DF93CF9300D0CDB7DEB79A8380
:103960008983E4EBF0E0898180830F900F90CF9101
:10397000DF910895DF93CF9300D0CDB7DEB79A8360
:103980008983E8E9F0E089819A81918380830F90AF
:103990000F90CF91DF910895DF93CF9300D0CDB7F3
:1039A000DEB79A838983EAE9F0E089819A8191837D
:1039B00080830F900F90CF91DF910895DF93CF9385
:1039C00000D0CDB7DEB79A838983ECE9F0E0898136
:1039D0009A81918380830F900F90CF91DF9108950A
:1039E000DF93CF9300D0CDB7DEB79A838983E8EA1F
:1039F000F0E089819A81918380830F900F90CF911D
:103A0000DF910895DF93CF9300D0CDB7DEB79A83CF
:103A10008983EAEAF0E089819A81918380830F901B
:103A20000F90CF91DF910895DF93CF9300D0CDB762
:103A3000DEB79A838983ECEAF0E089819A819183E9
:103A400080830F900F90CF91DF910895DF93CF93F4
:103A5000CDB7DEB7E0E3F0E01082E1E3F0E0108202
:103A6000E7E0F1E01082E8E0F1E01082E1E2F0E06E
:103A70008FEF8083E4E2F0E080E48083E7E2F0E02F
:103A80008FEF8083ABE2B0E0EBE2F0E08081816019
:103A90008C93ABE2B0E0EBE2F0E0808182608C934B
:103AA000EAE2F0E083EF8083EDE2F0E08EEF8083E6
:103AB000A4E3B0E0E4E3F0E0808180628C93A3E3D0
:103AC000B0E0E3E3F0E080818F7D8C93E1E0F1E012
:103AD0008EEF8083E4E0F1E08EEF8083CF91DF9181
:103AE0000895DF93CF9300D000D0CDB7DEB76983C0
:103AF0007A838B839C830BC089819A81AB81BC8143
:103B00000197A109B10989839A83AB83BC83898119
:103B10009A81AB81BC810097A105B10569F70F902F
:103B20000F900F900F90CF91DF910895DF93CF9377
:103B3000CDB7DEB7A5E2B0E0E5E2F0E080818064D9
:103B40008C93CF91DF910895DF93CF93CDB7DEB7FC
:103B5000A5E2B0E0E5E2F0E080818F7B8C93CF912D
:103B6000DF910895DF93CF9300D0CDB7DEB7E2E3C6
:103B7000F0E08081882F90E0807290701A82198224
:103B8000009721F481E090E09A83898389819A816A
:103B90000F900F90CF91DF910895DF93CF9300D0D6
:103BA00000D000D0CDB7DEB769837A838B839C8346
:103BB00089819A81AB81BC81BB23C4F089819A81C0
:103BC000AB81BC8125E030E040E050E0BC01CD019C
:103BD0000E94D929DA01C901880F991FFC01E05020
:103BE000FE4F208131813E832D832CC089819A81B3
:103BF000AB81BC81B095A095909581959F4FAF4FBB
:103C0000BF4F25E030E040E050E0BC01CD010E9414
:103C1000D929DA01C9019C01AD0188E490E0A0E056
:103C2000B0E0821B930BA40BB50B880F991FFC010E
:103C3000E050FE4F8081918122273327281B390BCA
:103C40003E832D838D819E8126960FB6F894DEBF2C
:103C50000FBECDBFCF91DF910895DF93CF9300D0FA
:103C600000D000D0CDB7DEB769837A838B839C8385
:103C700089819A81AB81BC818A559040A040B04037
:103C800089839A83AB83BC8389819A81AB81BC8110
:103C9000BB23C4F089819A81AB81BC8125E030E0EF
:103CA00040E050E0BC01CD010E94D929DA01C901F0
:103CB000880F991FFC01E050FE4F208131813E8327
:103CC0002D832CC089819A81AB81BC81B095A09550
:103CD000909581959F4FAF4FBF4F25E030E040E07A
:103CE00050E0BC01CD010E94D929DA01C9019C0133
:103CF000AD0188E490E0A0E0B0E0821B930BA40B40
:103D0000B50B880F991FFC01E050FE4F8081918117
:103D100022273327281B390B3E832D838D819E81DB
:103D200026960FB6F894DEBF0FBECDBFCF91DF91C0
:103D300008950F931F93DF93CF9300D000D000D04E
:103D4000CDB7DEB769837A838B839C8389819A811F
:103D5000AB81BC818A359105A105B10521F189812D
:103D60009A81AB81BC81863A2FEF92072FEFA20791
:103D70002FEFB207C1F089819A81AB81BC818E306F
:103D800041E0940740E0A40740E0B40761F0898176
:103D90009A81AB81BC81823F5EEF95075FEFA507FB
:103DA0005FEFB50719F41E821D8224C089819A81B4
:103DB000AB81BC81BC01CD010E942D1E8C0189818B
:103DC0009A81AB81BC81BC01CD010E94CD1D9C01BB
:103DD000C801B9010E94A429CB019C01220F331F05
:103DE000C901880F991F880F991FA901480F591FF2
:103DF0005E834D838D819E8126960FB6F894DEBF3B
:103E00000FBECDBFCF91DF911F910F910895DF932A
:103E1000CF9300D0CDB7DEB79A83898389819A8109
:103E2000AA2797FDA095BA2FBC01CD010E94F526C7
:103E3000DC01CB01BC01CD012BE531EB4FE75FEBA2
:103E40000E940C28DC01CB01BC01CD012DEC3CE033
:103E50004DEA54E40E94A927DC01CB01BC01CD014D
:103E60000E94C226DC01CB010F900F90CF91DF9111
:103E70000895DF93CF9300D0CDB7DEB79A838983BF
:103E800089819A81AA2797FDA095BA2FBC01CD01FF
:103E90000E94F526DC01CB01BC01CD012AE037ED03
:103EA00043E65FEB0E940C28DC01CB01BC01CD0195
:103EB00020E030E14EEE54E40E94A927DC01CB0162
:103EC000BC01CD010E94C226DC01CB010F900F90F6
:103ED000CF91DF910895DF93CF9300D0CDB7DEB7B8
:103EE0009A83898389819A81AA2797FDA095BA2F01
:103EF000BC01CD010E94F526DC01CB01BC01CD0146
:103F00002EEE3CE74FE45FEB0E940C28DC01CB0176
:103F1000BC01CD0122E538ED48E354E40E94A92715
:103F2000DC01CB01BC01CD010E94C226DC01CB012A
:103F30000F900F90CF91DF910895DF93CF9300D032
:103F4000CDB7DEB79A83898389819A81AA2797FDA5
:103F5000A095BA2FBC01CD010E94F526DC01CB0152
:103F6000BC01CD0128EA37E54AE65FEB0E940C2848
:103F7000DC01CB01BC01CD0124EA30EF4EEF53E46C
:103F80000E94A927DC01CB01BC01CD010E94C22601
:103F9000DC01CB010F900F90CF91DF910895DF935B
:103FA000CF9300D0CDB7DEB79A83898389819A8178
:103FB000AA2797FDA095BA2FBC01CD010E94F52636
:103FC000DC01CB01BC01CD012FE93DEC4AE45FEB04
:103FD0000E940C28DC01CB01BC01CD0121E73DE0B2
:103FE00048E354E40E94A927DC01CB01BC01CD01C8
:103FF0000E94C226DC01CB010F900F90CF91DF9180
:104000000895DF93CF9300D0CDB7DEB79A8389832D
:1040100089819A81AA2797FDA095BA2FBC01CD016D
:104020000E94F526DC01CB01BC01CD0127EA38EE68
:1040300042E051E40E94A927DC01CB01BC01CD0183
:1040400027EA38EE42E051E40E94F125DC01CB0181
:10405000BC01CD010E94C226DC01CB010F900F9064
:10406000CF91DF910895DF93CF9300D0CDB7DEB726
:104070009A83898389819A81AA2797FDA095BA2F6F
:10408000BC01CD010E94F526DC01CB01BC01CD01B4
:1040900027EA38EE42E051E40E94A927DC01CB0177
:1040A000BC01CD0127EA38EE42E051E40E94F1253F
:1040B000DC01CB01BC01CD010E94C226DC01CB0199
:1040C0000F900F90CF91DF910895DF93CF9300D0A1
:1040D000CDB7DEB79A83898329813A81C901880FD8
:1040E000991F820F931F9C01220F331F220F331F32
:1040F000820F931F845B90400F900F90CF91DF91C0
:104100000895DF93CF9300D0CDB7DEB79A8389832C
:1041100089819A81AA2797FDA095BA2FBC01CD016C
:104120000E94F526DC01CB01BC01CD012DE33AE074
:1041300048E452E40E94A927DC01CB01BC01CD0177
:104140002BE734E14CE452E40E94F125DC01CB0181
:10415000BC01CD010E94C226DC01CB010F900F9063
:10416000CF91DF910895DF93CF93CDB7DEB7A1E272
:10417000B0E0E1E2F0E0808188608C93A2E2B0E000
:10418000E2E2F0E08081877F8C9382E090E00E9401
:10419000450CA2E2B0E0E2E2F0E0808188608C931E
:1041A00085E090E00E94450CA2E2B0E0E2E2F0E09F
:1041B0008081877F8C93A1E2B0E0E1E2F0E0908122
:1041C00088E089278C93E0E2F0E08081882F90E0FE
:1041D000887090700097B9F30E94D50BE0E2F0E090
:1041E0008081882F90E0887090700097B9F70E94C6
:1041F0002F0BDC01CB012FEF30E040E050E0BC01A1
:10420000CD010E9471299B01AC01E6E4F0E08081C0
:10421000882F90E0A0E0B0E0820F931FA41FB51F8D
:10422000BC01CD010E94F326DC01CB01BC01CD0114
:104230002EEE39E644E050E40E94A927DC01CB01D0
:10424000BC01CD010E94C226DC01CB01CF91DF91E0
:104250000895DF93CF9300D0CDB7DEB79A838983DB
:1042600089819A81AA2797FDA095BA2FBC01CD011B
:104270000E94F526DC01CB01BC01CD0120E030E03D
:1042800040E85EE30E94A927DC01CB01BC01CD011F
:1042900020E030E040E251E40E94F225DC01CB0155
:1042A000BC01CD010E94C226DC01CB010F900F9012
:1042B000CF91DF910895DF93CF9300D0CDB7DEB7D4
:1042C0009A83898389819A81845F9140AA2797FD87
:1042D000A095BA2FBC01CD010E94F526DC01CB01CF
:1042E000BC01CD012FE832EC45E75DE30E94A92730
:1042F000DC01CB01BC01CD010E94C226DC01CB0157
:104300000F900F90CF91DF910895DF93CF9300D05E
:10431000CDB7DEB79A83898324EF31E089819A8112
:10432000A901481B590BCA010F900F90CF91DF9143
:104330000895DF93CF9300D000D0CDB7DEB79A8336
:10434000898389819A81885C90409C838B838B814F
:104350009C8199232CF48B819C8103969C838B8375
:104360008B819C8195958795959587950F900F905A
:104370000F900F90CF91DF910895DF93CF9300D0EE
:10438000CDB7DEB79A83898389819A81845F914012
:10439000AA2797FDA095BA2FBC01CD010E94F52652
:1043A000DC01CB01BC01CD0120E030E040E05EE368
:1043B0000E94A927DC01CB01BC01CD010E94C226CD
:1043C000DC01CB010F900F90CF91DF910895DF9327
:1043D000CF9300D0CDB7DEB79A83898389819A8144
:1043E000AA2797FDA095BA2FBC01CD010E94F52602
:1043F000DC01CB01BC01CD0120E030E040E85DE311
:104400000E94A927DC01CB01BC01CD010E94C2267C
:10441000DC01CB010F900F90CF91DF910895DF93D6
:10442000CF9300D0CDB7DEB79A83898389819A81F3
:10443000845F9140AA2797FDA095BA2FBC01CD01BA
:104440000E94F526DC01CB01BC01CD012DEC3CEC3A
:104450004CE45DE30E94A927DC01CB01BC01CD0146
:104460000E94C226DC01CB010F900F90CF91DF910B
:104470000895DF93CF9300D0CDB7DEB79A838983B9
:1044800089819A81AA2797FDA095BA2FBC01CD01F9
:104490000E94F526DC01CB01BC01CD012DEC3CECEA
:1044A0004CEC5CE30E94A927DC01CB01BC01CD01EF
:1044B0000E94C226DC01CB010F900F90CF91DF91BB
:1044C0000895DF93CF9300D0CDB7DEB79A83898369
:1044D00089819A81AA2797FDA095BA2FBC01CD01A9
:1044E0000E94F526DC01CB01BC01CD0129E335E4B6
:1044F00047E45EE30E94A927DC01CB01BC01CD01AA
:1045000025E83BEE47E252E40E94F125DC01CB01B5
:10451000BC01CD010E94C226DC01CB010F900F909F
:10452000CF91DF910895DF93CF9300D000D0CDB726
:10453000DEB79A8389837C836B8382E040E056E90F
:1045400060E070E00E94330589810E9459068B81EA
:104550000E9459060F900F900F900F90CF91DF910E
:104560000895DF93CF9300D0CDB7DEB79A838983C8
:1045700082E040E056E960E070E00E943305898106
:104580000E9459060F900F90CF91DF9108950F93DD
:104590001F93DF93CF93CDB7DEB7A0970FB6F894F4
:1045A000DEBF0FBECDBF85E00E9484010E94FA0BE2
:1045B00080E00E943002882F90E098A38F8F81E0E6
:1045C0000E943002882F90E09E8F8D8F82E00E94A3
:1045D0003002882F90E09C8F8B8F83E00E94300206
:1045E000882F90E09A8F898F84E00E943002882F74
:1045F00090E0988F8F8B85E00E943002882F90E0AA
:104600009E8B8D8B86E00E943002882F90E09C8BE1
:104610008B8B87E00E943002882F90E09A8B898BE9
:1046200088E00E943002882F90E0988B8F8789E085
:104630000E943002882F90E09E878D878AE00E943A
:104640003002882F90E09C878B878BE00E9430029D
:10465000882F90E09A8789878CE00E943002882F0B
:1046600090E098878F838DE00E943002882F90E041
:104670009E838D838EE00E943002882F90E09C8381
:104680008B838FE00E943002882F90E09A83898389
:1046900004EA11E00E94AA0B282F30E08DB79EB7E4
:1046A00085970FB6F8949EBF0FBE8DBFEDB7FEB7CE
:1046B000319681E08083128301838F8D98A194834A
:1046C00083838D8D9E8D968385838B8D9C8D908726
:1046D0008783898D9A8D928781878F89988D94871A
:1046E00083878D899E89968785878B899C89908B06
:1046F000878789899A89928B818B8F859889948BFA
:10470000838B8D859E85968B858B8B859C85908FE5
:10471000878B89859A85928F818F8F819885948FD9
:10472000838F8D819E81968F858F8B819C8190A3B5
:10473000878F89819A8192A381A334A323A30E94A6
:1047400050178DB79EB785960FB6F8949EBF0FBED3
:104750008DBF2CCFDF93CF9300D0CDB7DEB782E0F3
:104760000E94840189E00E943002882F90E09A83A1
:1047700089832CED31E000D000D00F92EDB7FEB769
:10478000319681E080833283218389819A81948369
:1047900083830E9450170F900F900F900F900F90EF
:1047A000E1CFDF93CF93CDB7DEB70E94FF23CF9148
:1047B000DF910895DF93CF93CDB7DEB782E00E94FB
:1047C0003002282F30E08091160590911705820F56
:1047D000931F90939502809394028EE00E94300282
:1047E000282F30E08091140590911505820F931FBA
:1047F0009093930280939202CF91DF910895DF937B
:10480000CF93CDB7DEB72A970FB6F894DEBF0FBEB1
:10481000CDBF84EF91E0A0E0B0E08F839887A987B7
:10482000BA8784EF91E0A0E0B0E08B839C83AD83F6
:10483000BE8388E090E09A8389830E94DA232091E6
:104840009202309193028091940290919502821786
:10485000930788F420919202309193028091940200
:1048600090919502A901481B590BCA019093170515
:104870008093160510C0209194023091950280918A
:10488000920290919302A901481B590BCA0190937F
:104890001505809314050E94DA232091920230912D
:1048A000930280919402909195028217930700F5EC
:1048B00020919202309193028091940290919502FE
:1048C000281B390B89819A818217930788F486E225
:1048D00092E0A0E0B0E08F839887A987BA8786E24C
:1048E00092E0A0E0B0E08B839C83AD83BE833BC0AD
:1048F00020919402309195028091920290919302BE
:104900008217930700F520919402309195028091CF
:10491000920290919302281B390B89819A81821708
:10492000930788F482E593E0A0E0B0E08F83988756
:10493000A987BA8782E593E0A0E0B0E08B839C83EF
:10494000AD83BE8310C088E592E0A0E0B0E08F8325
:104950009887A987BA8780E293E0A0E0B0E08B83D4
:104960009C83AD83BE8321EE31E040919202509151
:10497000930260919402709195028DB79EB70F9744
:104980000FB6F8949EBF0FBE8DBFEDB7FEB7319640
:1049900081E0808332832183548343838F81988590
:1049A000A985BA8585839683A783B0877287618737
:1049B0008B819C81AD81BE8183879487A587B687D3
:1049C0000E9450174DB75EB7415F5F4F0FB6F89426
:1049D0005EBF0FBE4DBFAEE2B0E0EEE2F0E0808120
:1049E00080648C938F819885A985BA85BC01CD019F
:1049F0000E94711DAEE2B0E0EEE2F0E080818F7BBC
:104A00008C93A8E2B0E0E8E2F0E0808180688C93CB
:104A10008B819C81AD81BE81BC01CD010E94711D45
:104A2000A8E2B0E0E8E2F0E080818F778C9333CFAA
:104A3000DF93CF9300D000D0CDB7DEB71C821B82AE
:104A40001A8219826FEF7FEF80E090E00E94711D63
:104A50006FEF7FEF80E090E00E94711D6FEF7FEFBE
:104A600080E090E00E94711D6FEF7FEF80E090E0AA
:104A70000E94711D6FEF7FEF80E090E00E94711D3A
:104A80006FEF7FEF80E090E00E94711D6FEF7FEF8E
:104A900080E090E00E94711D0E941A0480E040E0D6
:104AA00056E960E070E00E94330581E040E052EC9E
:104AB00061E070E00E94330582E040E056E960E08A
:104AC00070E00E94330583E040E056E960E070E06A
:104AD0000E9433058BE496E00E94B4130E94261DC9
:104AE0000E94A41D25E332E000D00F92EDB7FEB77F
:104AF000319681E08083328321830E9450170F908A
:104B00000F900F9085E00E948B0C83E00E949F0C19
:104B100084E00E94B30C83E00E94C70C83E00E94F3
:104B2000DB0C83E00E94EF0C0E94430185E00E94B1
:104B3000840181E00E9498011C821B8222C08B812B
:104B40000E943002882F90E09A83898368E873E19D
:104B500080E090E00E94711D23E332E000D00F92CC
:104B6000EDB7FEB7319681E08083328321830E94C6
:104B700050170F900F900F908B819C8101969C8312
:104B80008B838B819C8180319105CCF20E94961D94
:104B900088E192E000D00F92EDB7FEB7319621E0A8
:104BA0002083928381830E9450170F900F900F9063
:104BB0000E94B21D0097E1F30E94D50B0E94E70B03
:104BC0000E94FA0B0E940C0C0E941F0C0E94320CD7
:104BD0000E94D12364E670E080E090E00E94711DA5
:104BE000F7CF5058BB27AA270ED075C166D130F039
:104BF0006BD120F031F49F3F11F41EF45BC10EF431
:104C0000E095E7FB51C1E92F77D180F3BA1762072E
:104C100073078407950718F071F49EF58FC10EF4A1
:104C2000E0950B2EBA2FA02D0B01B90190010C01BC
:104C3000CA01A0011124FF27591B99F0593F50F4D4
:104C4000503E68F11A16F040A22F232F342F44272C
:104C5000585FF3CF469537952795A795F040539524
:104C6000C9F77EF41F16BA0B620B730B840BBAF0F4
:104C70009150A1F0FF0FBB1F661F771F881FC2F75F
:104C80000EC0BA0F621F731F841F48F48795779573
:104C90006795B795F7959E3F08F0B3CF9395880F2A
:104CA00008F09927EE0F979587950895D9D008F4C5
:104CB00081E008950CD00FC107D140F0FED030F054
:104CC00021F45F3F19F0F0C0511139C1F3C014D184
:104CD00098F39923C9F35523B1F3951B550BBB27C3
:104CE000AA2762177307840738F09F5F5F4F220F70
:104CF000331F441FAA1FA9F333D00E2E3AF0E0E869
:104D000030D091505040E695001CCAF729D0FE2FB4
:104D100027D0660F771F881FBB1F26173707480746
:104D2000AB07B0E809F0BB0B802DBF01FF279358FC
:104D30005F4F2AF09E3F510568F0B6C000C15F3F4B
:104D4000ECF3983EDCF3869577956795B795F795E4
:104D50009F5FC9F7880F911D9695879597F90895DC
:104D6000E1E0660F771F881FBB1F62177307840778
:104D7000BA0720F0621B730B840BBA0BEE1F88F787
:104D8000E095089504D06894B111D9C00895BCD0BD
:104D900088F09F5790F0B92F9927B751A0F0D1F024
:104DA000660F771F881F991F1AF0BA95C9F712C0AE
:104DB000B13081F0C3D0B1E00895C0C0672F782F23
:104DC0008827B85F39F0B93FCCF38695779567951A
:104DD000B395D9F73EF490958095709561957F4F86
:104DE0008F4F9F4F0895E89409C097FB3EF490952C
:104DF0008095709561957F4F8F4F9F4F9923A9F0B4
:104E0000F92F96E9BB279395F69587957795679542
:104E1000B795F111F8CFFAF4BB0F11F460FF1BC086
:104E20006F5F7F4F8F4F9F4F16C0882311F096E919
:104E300011C0772321F09EE8872F762F05C06623C7
:104E400071F096E8862F70E060E02AF09A95660F80
:104E5000771F881FDAF7880F9695879597F9089539
:104E6000990F0008550FAA0BE0E8FEEF161617067B
:104E7000E807F907C0F012161306E407F50798F0E3
:104E8000621B730B840B950B39F40A2661F0232BFC
:104E9000242B252B21F408950A2609F4A140A69578
:104EA0008FEF811D811D089597F99F6780E870E05D
:104EB00060E008959FEF80EC089500240A94161690
:104EC000170618060906089500240A9412161306F8
:104ED000140605060895092E0394000C11F4882386
:104EE00052F0BB0F40F4BF2B11F460FF04C06F5FA2
:104EF0007F4F8F4F9F4F089557FD9058440F551F78
:104F000059F05F3F71F04795880F97FB991F61F04B
:104F10009F3F79F087950895121613061406551FC2
:104F2000F2CF4695F1DF08C0161617061806991F2E
:104F3000F1CF86957105610508940895E894BB2723
:104F400066277727CB0197F908958ADF08F48FEF5A
:104F500008950BD0C0CFB1DF28F0B6DF18F095234D
:104F600009F0A2CFA7CF1124EACFC6DFA0F3959F07
:104F7000D1F3950F50E0551F629FF001729FBB2740
:104F8000F00DB11D639FAA27F00DB11DAA1F649FEC
:104F90006627B00DA11D661F829F2227B00DA11D9F
:104FA000621F739FB00DA11D621F839FA00D611D25
:104FB000221F749F3327A00D611D231F849F600D46
:104FC000211D822F762F6A2F11249F5750408AF07F
:104FD000E1F088234AF0EE0FFF1FBB1F661F771F0B
:104FE000881F91505040A9F79E3F510570F05CCF4B
:104FF000A6CF5F3FECF3983EDCF3869577956795F7
:10500000B795F795E7959F5FC1F7FE2B880F911D28
:105010009695879597F90895FA01EE0FFF1F309640
:105020002105310599F16115710561F48038BFE3FF
:105030009B0749F168949038810561F08038BFEF93
:105040009B0741F0992342F5FF3FE105310521051A
:1050500011F1E8940894E795D901AA2329F4AB2F1C
:10506000BE2FF85FD0F310C0FF5F70F4A695E0F795
:10507000F73950F019F0FF3A38F49F779F930CD02E
:105080000F9007FC905808953EF014CF60E070E058
:1050900080E89FE308954FE79F775F934F933F9397
:1050A0002F939ED02F913F914F915F9152DF05C07A
:1050B00019F40EF0F9CE42CFFDCE26DFC8F39638B4
:1050C000C0F707F80F92E8942BE33AEA48EB5FE762
:1050D0004EDF0F920F920F924DB75EB70F92C0D076
:1050E000E4EEF0E016D04F915F91EF91FF91E595DE
:1050F000EE1FFF1F49F0FE57E0684427EE0F441FE4
:10510000FA95E1F74195550B32D00F9007FE26C076
:105110000895DF93CF931F930F93FF92EF92DF9247
:105120007B018C01689405C0DA2EEF011EDFFE01C1
:10513000E894A5912591359145915591AEF3EF01F4
:1051400062DDFE019701A801DA9479F7DF90EF9014
:10515000FF900F911F91CF91DF9108959B01AC01BA
:1051600060E070E080E89FE3A5CD9ECEACC0CCDED1
:10517000E8F39923D9F3940F511DBBF3915050409C
:1051800094F059F0882332F0660F771F881F9150F2
:105190005040C1F79E3F510544F7880F911D9695E9
:1051A000879597F908955F3FACF0983E9CF0BB2738
:1051B000869577956795B79508F4B1609395C1F793
:1051C000BB0F58F711F460FFE8CF6F5F7F4F8F4F31
:1051D0009F4FE3CFB4CE0EF076C06CCE689464CE11
:1051E00093DEC8F39923D1F3C6F3DF93CF931F93D4
:1051F0000F93FF92C92FDD2788232AF02197660F8E
:10520000771F881FDAF720E030E040E85FEB9FE38C
:10521000883920F0803E30F021968F77E3DCECE097
:10522000F1E003C0DFDCE9E3F1E073DF8B01BE01F5
:10523000EC01FB2E6F5771097595771F880B990B41
:10524000D4DD28E132E741E35FE38FDEAF2D980143
:10525000AE01FF900F911F91CF91DF91D4DC3BCE37
:10526000FA01DC01AA0FBB1F9B01AC01BF5728F458
:1052700022273327442750781FC0B75188F4AB2F1B
:105280000024469537952795011CA395D2F300205D
:1052900069F0220F331F441FB395DAF30DD0A1CC70
:1052A00061307105A0E88A07B94630F49B01AC0172
:1052B0006627772788279078309621F020833183DE
:1052C0004283538308959F3F31F0915020F4879596
:1052D00077956795B795880F911D9695879597F95E
:1052E0000895629FD001739FF001829FE00DF11D30
:1052F000649FE00DF11D929FF00D839FF00D749F50
:10530000F00D659FF00D9927729FB00DE11DF91FFB
:10531000639FB00DE11DF91FBD01CF011124089558
:10532000AA1BBB1B51E107C0AA1FBB1FA617B707CB
:1053300010F0A61BB70B881F991F5A95A9F78095E7
:105340009095BC01CD01089597FB092E07260AD040
:1053500077FD04D0E5DF06D000201AF47095619542
:105360007F4F0895F6F7909581959F4F0895A1E29C
:105370001A2EAA1BBB1BFD010DC0AA1FBB1FEE1FCF
:10538000FF1FA217B307E407F50720F0A21BB30B1A
:10539000E40BF50B661F771F881F991F1A9469F796
:1053A00060957095809590959B01AC01BD01CF01F2
:1053B000089597FB092E05260ED057FD04D0D7DFA0
:1053C0000AD0001C38F450954095309521953F4FF8
:1053D0004F4F5F4F0895F6F79095809570956195C2
:0C53E0007F4F8F4F9F4F0895F894FFCF30
:1053EC0064006400620061005E005B0057005200C4
:1053FC004D0047004000390032002A0022001A00FC
:10540C00110009000000F7FFEFFFE6FFDEFFD6FFFB
:10541C00CEFFC7FFC0FFB9FFB3FFAEFFA9FFA5FFCB
:10542C00A2FF9FFF9EFF9CFF9CFF9CFF9EFF9FFF88
:10543C00A2FFA5FFA9FFAEFFB3FFB9FFC0FFC7FFD7
:10544C00CEFFD6FFDEFFE6FFEFFFF7FF00000900FF
:10545C0011001A0022002A003200390040004700D7
:10546C004D00520057005B005E006100620064005A
:06547C00640080008000C6
:00000001FF
