:100000000C9434000C9451000C9451000C94510049
:100010000C9451000C9451000C9451000C9451001C
:100020000C9451000C9451000C9451000C9451000C
:100030000C9451000C9451000C9451000C945100FC
:100040000C9451000C9451000C9451000C945100EC
:100050000C9451000C9451000C9451000C945100DC
:100060000C9451000C94510011241FBECFEFD4E02A
:10007000DEBFCDBF11E0A0E0B1E0EAE6F3E002C0F0
:1000800005900D92A030B107D9F711E0A0E0B1E0E2
:1000900001C01D92A830B107E1F70E9469000C94DD
:1000A0008E010C9400000E941A010E94230188E82E
:1000B00093E10E94CC00219A229A089582E08AB9A5
:1000C00083E00E94510183E00E945F010E9453007F
:1000D00008950E945E0088EC90E00E94300188EC58
:1000E00090E00E94350180E090E00895982F809183
:1000F0008100886080938100809181008F7E809351
:100100008100993049F48091800082608093800062
:10011000809180008E7F0EC09A3021F48091800003
:10012000826003C0809180008D7F809380008091E9
:100130008000816080938000109289001092880076
:100140000895982F80918100877F8093810080910E
:1001500081008F7E80938100993049F480918000E6
:10016000826080938000809180008E7F0EC09A30E4
:1001700021F480918000826003C0809180008D7F97
:100180008093800080918000816080938000109235
:100190008B0010928A000895E0E8F0E020812E7F25
:1001A0002083208122602083E1E8F0E02081286024
:1001B00020832081206120832FB7F89490938700BB
:1001C000809386002FBF10928900109288001092B1
:1001D0008B0010928A00089584B58F7D84BD84B50C
:1001E0008F7E84BD089584B58F7784BD84B58F7B61
:1001F00084BD0895E0E8F0E080818F7D8083808178
:100200008F7E80830895E0E8F0E080818F7780839F
:1002100080818F7B8083089584B5806284BD84B59E
:100220008F7E84BD089584B5806884BD84B58F7B3E
:1002300084BD0895E0E8F0E0808180628083808161
:100240008F7E80830895E0E8F0E08081806880837D
:1002500080818F7B8083089588BD089587BD089530
:1002600090938B0080938A000895909389008093E7
:100270008800089510920401109205011092060161
:100280001092070116BC089510920001109201010E
:1002900010920201109203011092850010928400C6
:1002A000089585BD81E080936E0010920401109244
:1002B0000501109206011092070116BC0895809363
:1002C000810081E080936F00109200011092010183
:1002D0001092020110920301109285001092840086
:1002E0000895A0E0B0E024E0880F991FAA1FBB1F6B
:1002F0002A95D1F70396A11DB11DBC01CD012AE0BD
:1003000030E040E050E00E94910180E090E002C0C7
:100310000000019682179307D8F30895F8940C947F
:10032000B301A1E21A2EAA1BBB1BFD010DC0AA1F1F
:10033000BB1FEE1FFF1FA217B307E407F50720F04E
:10034000A21BB30BE40BF50B661F771F881F991FC9
:100350001A9469F760957095809590959B01AC0112
:0A036000BD01CF010895F894FFCF0E
:00000001FF
