:100000000C943D000C945A000C945A000C94C60AAF
:100010000C945A000C94840A0C945A000C945A00C4
:100020000C945A000C945A000C945A000C945A00E8
:100030000C945A000C945A000C945A000C945A00D8
:100040000C94B6040C945A000C945A000C945A0068
:100050000C945A000C945A000C945A000C945A00B8
:100060000C945A000C945A00303132333435363700
:100070003839414243444546000011241FBECFEFAA
:10008000D4E0DEBFCDBF11E0A0E0B1E0E0EDFBE1E8
:1000900002C005900D92A030B107D9F712E0A0E0A0
:1000A000B1E001C01D92A230B107E1F70E946601E4
:1000B0000C94780B0C946E0BEF92FF920F931F939E
:1000C0007B018C0120E030E040E151E40E94E00B34
:1000D0008823ACF4C801B70120E030E040E151ECE6
:1000E0000E942A0D18165CF40F2EF0E0EF2EF0E0BF
:1000F000FF2EF0E00F2FF0E01F2FF02D29C0C801D8
:10010000B70120E030E040E052E40E942A0D1816CA
:100110005CF40F2EF0E0EF2EF0E0FF2EF0E00F2F5A
:10012000F2E41F2FF02D14C0C801B70120E030E029
:1001300040E052EC0E94E00B882354F40F2EF0E0D4
:10014000EF2EF0E0FF2EF0E00F2FF2EC1F2FF02D3E
:10015000C801B70122E43EE348E75FEB0E942E0DA1
:100160002CE832ED48EB53E40E947C0B0E944C0CCF
:10017000DC01CB010E944D041F910F91FF90EF9085
:100180000895EF92FF920F931F937B018C0120E063
:1001900030E040E051E40E94E00B8823ACF4C80159
:1001A000B70120E030E040E051EC0E942A0D181623
:1001B0005CF40F2EF0E0EF2EF0E0FF2EF0E00F2FBA
:1001C000F0E01F2FF02D29C0C801B70120E030E07A
:1001D00040E052E40E942A0D18165CF40F2EF0E065
:1001E000EF2EF0E0FF2EF0E00F2FF2E41F2FF02DA6
:1001F00014C0C801B70120E030E040E052EC0E949A
:10020000E00B882354F40F2EF0E0EF2EF0E0FF2EE9
:10021000F0E00F2FF2EC1F2FF02DC801B70124EFF3
:100220003CE64EE85FE30E942E0D27E03FE14BEBFA
:1002300053E40E947C0B0E944C0CDC01CB010E9419
:1002400052041F910F91FF90EF90089588E893E179
:100250000E94E903219A229A08955098519A0E9487
:10026000BF0980E040E052EC61E070E00E949E0730
:1002700083EE97E00E94DB045798209824982598F5
:100280005F9A289A2C9A2D9A83E00E946E0483E04C
:100290000E947C040E942601E8E6F0E080818460F0
:1002A0008083ADE6B0E08C9180688C938081816022
:1002B0008083EBE6F0E080818160808380818061D3
:1002C0008083808180628083789408952F923F920A
:1002D0004F925F926F927F928F929F92AF92BF9256
:1002E000CF92DF92EF92FF920F931F93DF93CF9302
:1002F000CDB7DEB7EC970FB6F894DEBF0FBECDBF1B
:100300000E942D010E9437040E94400460E070E0CA
:1003100080E090E00E945C0060E070E080E090E0AF
:100320000E94C10000E010E088EC90E00E94990477
:100330000F5F1F4F22E008351207B1F780E090E011
:10034000A0E0B0E08DA79EA7AFA7B8AB19A61AA6EC
:100350001BA61CA61DA21EA21FA218A689A39AA3B3
:10036000ABA3BCA38D8F9E8FAF8FB8A3898F9A8FBD
:10037000AB8FBC8F898B9A8BAB8BBC8B8D839E8311
:10038000AF83B88789839A83AB83BC830E948E0432
:1003900016B52FEF30E040E050E00E94910D610F64
:1003A000711D811D911D0E94780C2EE03DE242E3FB
:1003B0005DE30E942E0D20E030E44CE156E40E9403
:1003C000E40B69AB7AAB8BAB9CAB0E94720A7B01EE
:1003D0008C010E947B0A69AF7AAF8BAF9CAF29A5D5
:1003E0003AA54BA55CA5E216F3060407150709F428
:1003F0008FC00E94720A7B018C0169A97AA98BA91E
:100400009CA92DA53EA54FA558A90E947B0B5B0179
:100410006C01C801B70129A53AA54BA55CA5621BD3
:10042000730B840B950B0E947A0CA60195010E9418
:10043000E40B20E030E040E05CE30E942E0D6DAB69
:100440007EAB8FAB98AFC601B50120E030E040E253
:1004500051E40E942E0D5B016C0120E030E040E091
:1004600050E40E947C0B1B012C01C601B501A201C6
:1004700091010E94E40B3B014C016DA97EA98FA95B
:1004800098AD29A13AA14BA15CA10E947C0B9B01D4
:10049000AC01C401B3010E942E0D3B014C01C60109
:1004A000B50120E030E040E050E40E947B0BA20167
:1004B00091010E94E40B298D3A8D4B8D5C8D0E9439
:1004C0002E0D9B01AC01C401B3010E947B0B6D8F0B
:1004D0007E8F8F8F98A389A99AA9ABA9BCA98DA754
:1004E0009EA7AFA7B8ABE9A6FAA60BA71CA72DA994
:1004F0003EA94FA958AD29A33AA34BA35CA38D8D68
:100500009E8DAF8DB8A1898F9A8FAB8FBC8F1AC08B
:1005100069A97AA98BA99CA92DA53EA54FA558A983
:100520000E947B0B2AE939E949E15EE30E942A0D2A
:10053000181644F420E030E040E050E02D8F3E8F6C
:100540004F8F58A389AD9AADABADBCAD2DA13EA1E7
:100550004FA158A582179307A407B50749F00E9439
:100560007B0AAC01CB01DA018DA39EA3AFA3B8A790
:100570006D8D7E8D8F8D98A123EC33E54BEF51E48B
:100580000E942E0D6D8B7E8B8F8B988F60E070E0BC
:1005900080E991E42D893E894F89588D0E947B0B1B
:1005A0003B014C0129893A894B895C890E947C0B6B
:1005B0002DEC3CEC4CEC5CE30E942E0D29853A8539
:1005C0004B855C850E947C0B5B016C01C401B3010F
:1005D00029893A894B895C890E947B0B29E638EC92
:1005E0004CEC5BE30E942E0D2D813E814F8158859E
:1005F0000E947B0B6D877E878F87988B2EE534ED6D
:100600004FE75FE30E942E0D7B018C016D817E819F
:100610008F8198852EE534ED4FE75FE30E942E0D24
:100620009B01AC01C801B7010E947C0B7B018C01CE
:1006300069817A818B819C812CEB38EA4FE75FE3FB
:100640000E942E0D9B01AC01C801B7010E947B0BDB
:100650001B012C01C401B3012DEC3CEC4CEC5CE320
:100660000E942E0DA60195010E947C0BA201910112
:100670000E947C0B7B018C0120E030E040EF51E4D4
:100680000E942A0D18167CF4A984BA84CB84DC84D9
:100690000F2EF0E0EF2EF0E0FF2EF0EF0F2FF1E441
:1006A0001F2FF02D18C0C801B70120E030E040EF47
:1006B00051EC0E94E00B882374F4A984BA84CB84A3
:1006C000DC840F2EF0E0EF2EF0E0FF2EF0EF0F2F86
:1006D000F1EC1F2FF02DC801B7010E945C0060E013
:1006E00070E080E090E00E94C10085E04D895E8965
:1006F0006F89788D0E9436060E943F0529823A82D2
:100700004B825C828D859E85AF85B8898D839E8363
:10071000AF83B887A986BA86CB86DC86698A7A8A4F
:100720008B8A9C8A33CE982F809181008860809339
:100730008100809181008F7E80938100993049F4FF
:1007400080918000826080938000809180008E7F05
:100750000EC09A3021F480918000826003C08091A5
:1007600080008D7F809380008091800081608093E5
:10077000800010928900109288000895982F80912F
:100780008100877F80938100809181008F7E80939C
:100790008100993049F480918000826080938000CC
:1007A000809180008E7F0EC09A3021F4809180006D
:1007B000826003C0809180008D7F80938000809153
:1007C000800081608093800010928B0010928A00DC
:1007D0000895E0E8F0E020812E7F208320812260D0
:1007E0002083E1E8F0E020812860208320812061DF
:1007F00020832FB7F89490938700809386002FBFB3
:10080000109289001092880010928B0010928A003A
:10081000089584B58F7D84BD84B58F7E84BD089591
:1008200084B58F7784BD84B58F7B84BD0895E0E85F
:10083000F0E080818F7D808380818F7E808308952A
:10084000E0E8F0E080818F77808380818F7B8083F8
:10085000089584B5806284BD84B58F7E84BD08957B
:1008600084B5806884BD84B58F7B84BD0895E0E83D
:10087000F0E080818062808380818F7E8083089514
:10088000E0E8F0E080818068808380818F7B8083D6
:10089000089588BD089587BD089590938900809339
:1008A0008800089590938B0080938A000895109299
:1008B000AE011092AF011092B0011092B10116BCBE
:1008C00008951092AA011092AB011092AC011092FF
:1008D000AD011092850010928400089585BD81E0DD
:1008E00080936E001092AE011092AF011092B00191
:1008F0001092B10116BC08958093810081E080932D
:100900006F001092AA011092AB011092AC011092EC
:10091000AD01109285001092840008952091AE01DF
:100920003091AF014091B0015091B101B901CA01BC
:100930000895A0E0B0E024E0880F991FAA1FBB1F14
:100940002A95D1F70396A11DB11DBC01CD012AE066
:1009500030E040E050E00E94C40D80E090E002C032
:100960000000019682179307D8F308951F920F9203
:100970000FB60F9211248F939F93AF93BF938091E3
:10098000AE019091AF01A091B001B091B10101967B
:10099000A11DB11D8093AE019093AF01A093B00152
:1009A000B093B101BF91AF919F918F910F900FBE06
:1009B0000F901F9018959093010180930001089566
:1009C0001F93182F8A3031F4E0910001F09101015A
:1009D0008DE00995E0910001F0910101812F0995C9
:1009E0001F910895CF93DF93EC01009721F406C087
:1009F00021960E94E00488818823D1F7DF91CF916E
:100A00000895EF92FF920F931F93CF93DF938C0182
:100A10007A010097E9F020E030E02617370738F434
:100A2000F80181918F012F5F3F4F8823B1F7C0E01C
:100A3000D0E00BC0F8018081882319F00F5F1F4FB1
:100A400001C080E20E94E0042196CE15DF0590F3FC
:100A5000DF91CF911F910F91FF90EF900895CF9369
:100A6000DF93EC01009719F407C00E94E004FE0137
:100A7000219684918823C9F7DF91CF9108958AE068
:100A80000E94E0040895E82FF0E0EF70F070E8595C
:100A9000FF4FE4918E2F0E94E00408951F93182FBA
:100AA00082958F700E944305812F0E9443051F91FC
:100AB00008951F93182F892F0E944E05812F0E94A1
:100AC0004E051F910895EF92FF920F931F937B01A4
:100AD0008C01C801AA27BB270E945905C7010E94A3
:100AE00059051F910F91FF90EF9008952F923F921B
:100AF0004F925F926F927F928F929F92AF92BF922E
:100B0000CF92DF92EF92FF920F931F93DF93CF93D9
:100B1000CDB7DEB7A3970FB6F894DEBF0FBECDBF3B
:100B20006AA3242E2BA337014801442351F017FF59
:100B300008C0EE24FF248701E618F7080809190900
:100B400002C0840173012AA1215090E0211091E09C
:100B5000291B29A318A2A82EBB24CC24DD24C8015C
:100B6000B701A60195010E94C40DFB01EF70F07062
:100B7000E859FF4F64916F8FC801B701A601950135
:100B80000E94C40DC901DA017C018D019EE1492E4C
:100B9000512C4C0E5D1E39A025C0E114F104010555
:100BA0001105C9F0C801B701A60195010E94C40D45
:100BB000FB01EF70F070E859FF4F6491F201608320
:100BC000C801B701A60195010E94C40DC901DA014F
:100BD0007C018D0103C02BA1F20120833A9408947B
:100BE000410851083320C9F6CE014F968C01E9A186
:100BF0000E1B11092220F1F097FE05C08DE2F801CD
:100C000082938F0117C0C801019761147104810498
:100C1000910419F08C018BE202C08C0180E2F80192
:100C2000808308C0F80181918F010E94E004FAA13D
:100C3000F150FAA32AA12223A9F7A3960FB6F8949C
:100C4000DEBF0FBECDBFCF91DF911F910F91FF90FF
:100C5000EF90DF90CF90BF90AF909F908F907F905C
:100C60006F905F904F903F902F9008954F925F92BA
:100C70006F927F928F929F92AF92BF92CF92DF92AC
:100C8000EF92FF920F931F93CF93DF93482E5A0159
:100C90006B01CB01BA0120E030E040E050E00E945F
:100CA0002A0D18161CF43501460106C0350146010F
:100CB00097FA909497F890940F2EF0E0EF2EF0E0D2
:100CC000FF2EF0E80F2FFFE31F2FF02D5524C40156
:100CD000B301A80197010E94E40B20E030E040E25C
:100CE00051E40E94E00B87FD0EC0C801B70120E06F
:100CF00030E040E251E40E942E0D7B018C015394C0
:100D00008FE0581621F7C601B50120E030E040E041
:100D100050E00E94E00B882314F48DE201C08BE2C6
:100D20000E94E004DD24AA2456C0C401B301A80136
:100D300097010E94E40B0E944C0CB62ED62ACD2DB2
:100D4000D0E0CC24DD24C801B70120E030E040E849
:100D50005FE30E94E00B882319F421E0C22ED12C1E
:100D6000CC29DD29CD2B39F08B2D805D0E94E0044C
:100D7000DD24DA9404C080E20E94E004DD24C8018E
:100D8000B70120E030E040E85FE30E94E00B8823F9
:100D900019F48EE20E94E0046B2D70E0882777FD45
:100DA0008095982F0E947A0CA80197010E942E0D21
:100DB0009B01AC01C401B3010E947B0B3B014C01C0
:100DC000C801B70120E030E040E251E40E94E40BAA
:100DD0007B018C01A394A41408F4A7CFDF91CF91D9
:100DE0001F910F91FF90EF90DF90CF90BF90AF9049
:100DF0009F908F907F906F905F904F9008957F921B
:100E00008F929F92AF92BF92CF92DF92EF92FF921A
:100E10000F931F93DF93CF93CDB7DEB77888C98840
:100E2000DA8863E1E62EF12CEC0EFD1E14C0882357
:100E300081F480E090E0CF91DF911F910F91FF90BE
:100E4000EF90DF90CF90BF90AF909F908F907F906A
:100E500008950E94E00496012F5F3F4F772021F014
:100E6000F6016901849103C0F60180816901853230
:100E7000F1F62F5F3F4F772021F0F6016901849151
:100E800003C0F60180816901843629F0883781F03A
:100E90008336F9F606C000E117E25AE0A52EB12C20
:100EA0000CC0F701808122E030E0E20EF31ED1CFCA
:100EB00000E010E140E1A42EB12C32E0832E912C11
:100EC0008E0C9F1CF701E080F1808436B1F4F7FEB0
:100ED00011C0F094E194F108F3948DE20E94E004D3
:100EE00009C0C8016AE070E00E94B00D8B01623059
:100EF000710518F0E016F106A0F3C701B8010E94D1
:100F0000B00D862F0E944305C701B8010E94B00DA5
:100F10007C01C801B5010E94B00D8B0161157105FE
:100F200061F7740198CF843040F4E82FF0E0EE0FC1
:100F3000FF1FEE56FE4F7183608308959A01AB0147
:100F40008823E1F4CA01B90160587B47814E9F4F65
:100F5000F3E0660F771F881F991FFA95D1F7E4E039
:100F6000220F331F441F551FEA95D1F70E94C40D6D
:100F7000215030402093C4003093C5000895282F9D
:100F800030E0A3E0220F331FAA95E1F72A543E4F29
:100F9000C9010895282F30E0B3E0220F331FBA951E
:100FA000E1F726523E4FC9010895E82F882331F416
:100FB0008091C00085FFFCCF6093C600F0E0EE5446
:100FC000FE4F10820895982F8091C00085FFFCCFBE
:100FD0009093C6001092B201089520E0E82FF0E04F
:100FE00083E0EE0FFF1F8A95E1F7E654FE4F808104
:100FF0009181892B09F421E0822F0895CF93DF930B
:10100000882311F46091C600282F30E0E901CC0F4D
:10101000DD1FFE01EE56FE4F80819181892B31F05C
:101020000190F081E02D862F099514C093E0220FE6
:10103000331F9A95E1F7C9018A549E4F0E94380ADE
:10104000882341F4FE01E650FE4F80819181019694
:1010500091838083DF91CF9108951F920F920FB6F5
:101060000F9211242F933F934F935F936F937F932E
:101070008F939F93AF93BF93EF93FF9380E00E9472
:10108000FE07FF91EF91BF91AF919F918F917F915B
:101090006F915F914F913F912F910F900FBE0F90E5
:1010A0001F9018958F929F92AF92BF92CF92DF922E
:1010B000EF92FF920F931F93CF93DF93882EDB0164
:1010C000E82EFF24F70113E0EE0FFF1F1A95E1F75A
:1010D000E252FE4F20813181240F351FF70173E06A
:1010E000EE0FFF1F7A95E1F7E452FE4F8081918168
:1010F00028173907B0F54115510599F19C90670102
:1011000063E0CC0CDD1C6A95E1F78AED91E0C80E36
:10111000D91E8D01C0E0D0E05A010894A108B108A1
:1011200006C0C601F80160810E94380A21960F5F4F
:101130001F4FCA15DB05A8F3F701EA52FE4F8FEFE8
:101140008083882031F48091C00085FFFCCF90928D
:10115000C60082EB91E0E80EF91EF70110828FEFD6
:1011600001C080E0DF91CF911F910F91FF90EF9030
:10117000DF90CF90BF90AF909F908F90089590E0B8
:1011800023E0880F991F2A95E1F786529E4F0E940F
:10119000380A0895682F8AED91E00E94380A089570
:1011A000CF93DF93282FA82FB0E0ED01CA52DE4F76
:1011B00088818823B1F0FD0133E0EE0FFF1F3A95DF
:1011C000E1F7E252FE4F80819181892B49F0233073
:1011D00061F48AED91E00E94CF098093C60005C0BA
:1011E0001882AE54BE4F8FEF8C93DF91CF9108954C
:1011F0001F920F920FB60F9211242F933F934F938C
:101200005F936F937F938F939F93AF93BF93EF936E
:10121000FF9380E00E94D008FF91EF91BF91AF91C2
:101220009F918F917F916F915F914F913F912F91FE
:101230000F900FBE0F901F9018951F93CF93DF93C1
:10124000182FC82FD0E0FE01EA52FE4F8FEF8083A7
:10125000CE0143E0880F991F4A95E1F786529E4FD1
:101260000E94CF09982F112331F48091C00085FF8F
:10127000FCCF9093C600CE54DE4F1882DF91CF9101
:101280001F910895CF93DF93EB01282F30E0F901F0
:1012900073E0EE0FFF1F7A95E1F7E854FE4F80816F
:1012A0009181892BC9F0F90163E0EE0FFF1F6A9568
:1012B000E1F7E654FE4F80819181892B69F053E07C
:1012C000220F331F5A95E1F7C9018A549E4F0E949D
:1012D000CF0988838FEF01C080E0DF91CF9108951F
:1012E000DF93CF930F92CDB7DEB780E0BE016F5F83
:1012F0007F4F0E944209882319F42FEF3FEF03C06C
:101300008981282F30E0C9010F90CF91DF91089596
:1013100090E0E3E0880F991FEA95E1F78A549E4F29
:101320000E946B0A089586EB91E062E071E040E86C
:1013300050E00E94C2098AED91E062E871E040E16C
:1013400050E00E94C20908950E94930910929301EF
:101350001092920188ED8093C10080E040E855E250
:1013600060E070E00E949E078FEF8093B2011092C0
:10137000D6011092FB011092FA01789408950E9410
:10138000A4090895FC018FB7F89471836083538397
:10139000428317821682158214828FBF0895DC0162
:1013A0004FB7F89414968D919C911597892B11F451
:1013B000E0E025C016968D919C911797ED91FC91D8
:1013C0001197E80FF91FE081019617969C938E9371
:1013D000169712962D913C9113978217930730F030
:1013E000821B930B17969C938E93169714968D9150
:1013F0009C911597019715969C938E9314974FBFC8
:101400008E2F0895FC014FB7F89484819581681759
:101410007907B0F486819781860F971F978386831B
:10142000228133818217930720F0821B930B9783CD
:10143000868384819581861B970B9583848302C064
:10144000158214824FBF0895FC01CB012FB7F89489
:101450002FBF2681378162817381820F931F0E9483
:10146000B00D0190F081E02DE80FF91F8081089503
:101470001F93CF93DF93EC01162F4FB7F8942C8175
:101480003D816A817B812617370798F48E819F8181
:10149000820F931F0E94B00DE881F981E80FF91FB8
:1014A00010838C819D8101969D838C834FBF8FEF2C
:1014B00002C04FBF80E0DF91CF911F910895FC01E2
:1014C0008FB7F8948FBF2281338184819581281B47
:1014D000390BC9010895FC018FB7F8941582148265
:1014E0008FBF089560919A0170919B0180919C013A
:1014F00090919D01089560919E0170919F0180914E
:10150000A0019091A10108951F920F920FB60F9222
:1015100011242F938F939F93AF93BF9329B120787A
:101520002093A8018091A901821758F480919A0113
:1015300090919B01A0919C01B0919D01189B0BC0C3
:101540000EC080919A0190919B01A0919C01B09155
:101550009D01189B04C00196A11DB11D03C00197F8
:10156000A109B10980939A0190939B01A0939C01DA
:10157000B0939D012093A901BF91AF919F918F914D
:101580002F910F900FBE0F901F9018951F920F92E2
:101590000FB60F9211242F933F934F938F939F93E6
:1015A000AF93BF9333B131703093A60123B1207153
:1015B0002093A40143B140724093A2018091A701FE
:1015C000381749F1831758F480919A0190919B0143
:1015D000A0919C01B0919D014F9B0BC00EC08091CA
:1015E0009A0190919B01A0919C01B0919D014F9B0C
:1015F00004C00197A109B10903C00196A11DB11D45
:1016000080939A0190939B01A0939C01B0939D01BC
:101610003093A70157C08091A501281749F182177F
:1016200058F480919E0190919F01A091A001B091EA
:10163000A1011D9B0BC00EC080919E0190919F0146
:10164000A091A001B091A1011D9B04C00197A10927
:10165000B10903C00196A11DB11D80939E01909315
:101660009F01A093A001B093A1012093A5012AC0DE
:101670008091A301841758F480919E0190919F015D
:10168000A091A001B091A1011C9B0BC00EC0809144
:101690009E0190919F01A091A001B091A1011C9B7E
:1016A00004C00196A11DB11D03C00197A109B10994
:1016B00080939E0190939F01A093A001B093A101FC
:1016C0004093A301BF91AF919F918F914F913F9113
:1016D0002F910F900FBE0F901F9018951F920F9291
:1016E0000FB60F9211240F900FBE0F901F901895F8
:1016F000F8940C94E60D5058BB27AA270ED070C161
:1017000061D130F066D120F031F49F3F11F41EF426
:1017100056C10EF4E095E7FB4CC1E92F72D180F37E
:10172000BA17620773078407950718F071F49EF5DE
:101730008AC10EF4E0950B2EBA2FA02D0B01B90132
:1017400090010C01CA01A0011124FF27591B99F037
:10175000593F50F4503E68F11A16F040A22F232F43
:10176000342F4427585FF3CF469537952795A79593
:10177000F0405395C9F77EF41F16BA0B620B730B3A
:10178000840BBAF09150A1F0FF0FBB1F661F771FAB
:10179000881FC2F70EC0BA0F621F731F841F48F460
:1017A000879577956795B795F7959E3F08F0B3CFE6
:1017B0009395880F08F09927EE0F979587950895D0
:1017C000D4D008F481E008950CD00AC102D140F0D1
:1017D000F9D030F021F45F3F19F0EBC0511134C162
:1017E000EEC00FD198F39923C9F35523B1F3951B9C
:1017F000550BBB27AA2762177307840738F09F5F32
:101800005F4F220F331F441FAA1FA9F333D00E2EA0
:101810003AF0E0E830D091505040E695001CCAF70D
:1018200029D0FE2F27D0660F771F881FBB1F2617D2
:1018300037074807AB07B0E809F0BB0B802DBF01A5
:10184000FF2793585F4F2AF09E3F510568F0B1C0C3
:10185000FBC05F3FECF3983EDCF386957795679588
:10186000B795F7959F5FC9F7880F911D9695879556
:1018700097F90895E1E0660F771F881FBB1F621775
:1018800073078407BA0720F0621B730B840BBA0B33
:10189000EE1F88F7E0950895BCD088F09F5790F030
:1018A000B92F9927B751A0F0D1F0660F771F881F85
:1018B000991F1AF0BA95C9F712C0B13081F0C3D0A0
:1018C000B1E00895C0C0672F782F8827B85F39F03E
:1018D000B93FCCF3869577956795B395D9F73EF4E4
:1018E00090958095709561957F4F8F4F9F4F08958C
:1018F000E89409C097FB3EF49095809570956195AA
:101900007F4F8F4F9F4F9923A9F0F92F96E9BB275F
:101910009395F695879577956795B795F111F8CFDB
:10192000FAF4BB0F11F460FF1BC06F5F7F4F8F4F46
:101930009F4F16C0882311F096E911C0772321F03C
:101940009EE8872F762F05C0662371F096E8862FD4
:1019500070E060E02AF09A95660F771F881FDAF72B
:10196000880F9695879597F90895990F0008550F58
:10197000AA0BE0E8FEEF16161706E807F907C0F015
:1019800012161306E407F50798F0621B730B840B1D
:10199000950B39F40A2661F0232B242B252B21F4F7
:1019A00008950A2609F4A140A6958FEF811D811D97
:1019B000089597F99F6780E870E060E008959FEFD1
:1019C00080EC089500240A941616170618060906D6
:1019D000089500240A9412161306140605060895A5
:1019E000092E0394000C11F4882352F0BB0F40F42D
:1019F000BF2B11F460FF04C06F5F7F4F8F4F9F4F6D
:101A0000089557FD9058440F551F59F05F3F71F0EE
:101A10004795880F97FB991F61F09F3F79F0879555
:101A20000895121613061406551FF2CF4695F1DFDE
:101A300008C0161617061806991FF1CF869571056E
:101A4000610508940895E894BB2766277727CB01A2
:101A500097F908958ADF08F48FEF08950BD0C0CF6F
:101A6000B1DF28F0B6DF18F0952309F0A2CFA7CF99
:101A70001124EACFC6DFA0F3959FD1F3950F50E074
:101A8000551F629FF001729FBB27F00DB11D639F30
:101A9000AA27F00DB11DAA1F649F6627B00DA11DD6
:101AA000661F829F2227B00DA11D621F739FB00D7C
:101AB000A11D621F839FA00D611D221F749F3327EC
:101AC000A00D611D231F849F600D211D822F762F85
:101AD0006A2F11249F5750408AF0E1F088234AF082
:101AE000EE0FFF1FBB1F661F771F881F91505040CE
:101AF000A9F79E3F510570F05CCFA6CF5F3FECF396
:101B0000983EDCF3869577956795B795F795E795B9
:101B10009F5FC1F7FE2B880F911D9695879597F9CA
:101B20000895629FD001739FF001829FE00DF11D27
:101B3000649FE00DF11D929FF00D839FF00D749F47
:101B4000F00D659FF00D9927729FB00DE11DF91FF3
:101B5000639FB00DE11DF91FBD01CF011124089550
:101B6000AA1BBB1B51E107C0AA1FBB1FA617B707C3
:101B700010F0A61BB70B881F991F5A95A9F78095DF
:101B80009095BC01CD010895A1E21A2EAA1BBB1BA2
:101B9000FD010DC0AA1FBB1FEE1FFF1FA217B30739
:101BA000E407F50720F0A21BB30BE40BF50B661F4F
:101BB000771F881F991F1A9469F760957095809513
:101BC00090959B01AC01BD01CF010895F894FFCF22
:00000001FF
