:100000000C943D000C945A000C945A000C94F81077
:100010000C945A000C94B6100C945A000C945A008C
:100020000C945A000C945A000C945A000C945A00E8
:100030000C945A000C945A000C945A000C945A00D8
:100040000C94E80A0C945A000C945F0E0C945A001D
:100050000C942A0F0C945A000C945A000C945A00D9
:100060000C945A000C945A00303132333435363700
:100070003839414243444546000011241FBECFEFAA
:10008000D4E0DEBFCDBF11E0A0E0B1E0E2E7F8E2EE
:1000900002C005900D92AC30B107D9F713E0ACE087
:1000A000B1E001C01D92A233B107E1F70E940D0239
:1000B0000C94AA110C94A0118F3FB9F0E0910C019F
:1000C000F0910D01808380910C0190910D010196BA
:1000D00090930D0180930C018A55924030F082E597
:1000E00092E090930D0180930C01089582E592E0D7
:1000F00090930F0180930E0190930D0180930C015A
:10010000089504C08AE090E00E94CB0AE0910E01BD
:10011000F0910F0180910C0190910D01E817F90702
:1001200089F32191F0930F01E0930E01EA55F2401B
:1001300030F082E592E090930F0180930E01822FC0
:100140000895AF92BF92CF92DF92EF92FF920F93FA
:100150001F930E9481008A3FE1F50E948100E82EF2
:100160000E948100F82E0E948100082F0E948100C9
:10017000182F0E948100A82E0E948100B82E0E9494
:100180008100C82E0E948100D82E0E9481009F2DE0
:100190009E0D900F9A0D9B0D9C0D910F9D0D981724
:1001A000C1F49701A801C901DA0180936801909315
:1001B0006901A0936A01B0936B019501A601C90181
:1001C000DA0180936C0190936D01A0936E01B0935E
:1001D0006F011F910F91FF90EF90DF90CF90BF9034
:1001E000AF900895EF92FF920F931F937B018C01C4
:1001F00020E030E040E151E40E9412128823ACF488
:10020000C801B70120E030E040E151EC0E947B13CF
:1002100018165CF40F2EF0E0EF2EF0E0FF2EF0E069
:100220000F2FF0E01F2FF02D29C0C801B70120E0EB
:1002300030E040E052E40E947B1318165CF40F2E6D
:10024000F0E0EF2EF0E0FF2EF0E00F2FF2E41F2F92
:10025000F02D14C0C801B70120E030E040E052ECBE
:100260000E941212882354F40F2EF0E0EF2EF0E0DB
:10027000FF2EF0E00F2FF2EC1F2FF02DC801B70179
:1002800022E43EE348E75FEB0E947F132CE832ED67
:1002900048EB53E40E94AE110E947E12DC01CB01B8
:1002A0000E947F0A1F910F91FF90EF900895EF92A7
:1002B000FF920F931F937B018C0120E030E040E020
:1002C00051E40E9412128823ACF4C801B70120E067
:1002D00030E040E051EC0E947B1318165CF40F2EC6
:1002E000F0E0EF2EF0E0FF2EF0E00F2FF0E01F2FF8
:1002F000F02D29C0C801B70120E030E040E052E411
:100300000E947B1318165CF40F2EF0E0EF2EF0E045
:10031000FF2EF0E00F2FF2E41F2FF02D14C0C801C4
:10032000B70120E030E040E052EC0E941212882336
:1003300054F40F2EF0E0EF2EF0E0FF2EF0E00F2F40
:10034000F2EC1F2FF02DC801B70124EF3CE64EE878
:100350005FE30E947F1327E03FE14BEB53E40E94F1
:10036000AE110E947E12DC01CB010E94840A1F9113
:100370000F91FF90EF90089588E893E10E941B0A87
:10038000219A229A08955098519A0E94F10F80E084
:1003900040E056E960E070E00E94D00D85E19EE00B
:1003A0000E940D0B82E592E090930F0180930E0165
:1003B00090930D0180930C0180E06CE570E00E9449
:1003C000C50D57982098249825985F9A289A2C9ABA
:1003D0002D9A559A5D9883E00E94A00A83E00E94BE
:1003E000AE0A0E94BC01E8E6F0E080818460808370
:1003F000ADE6B0E08C9180688C93808181608083D1
:10040000EBE6F0E080818160808380818061808381
:10041000808180628083789408952F923F924F92DA
:100420005F926F927F928F929F92AF92BF92CF9284
:10043000DF92EF92FF920F931F93DF93CF93CDB78D
:10044000DEB768970FB6F894DEBF0FBECDBF20E0D1
:1004500030E040E050E02093C2023093C30240936A
:10046000C4025093C5022093460230934702409342
:100470004802509349022093B6023093B70240934A
:10048000B8025093B90220933A0230933B02409352
:100490003C0250933D022093D2023093D30240930A
:1004A000D4025093D5022093360230933702409302
:1004B0003802509339022093DE023093DF024093DA
:1004C000E0025093E102209366023093670240936A
:1004D0006802509369022093A2023093A3024093D2
:1004E000A4025093A50220938A0230938B0240937A
:1004F0008C0250938D0220939A0230939B0240937A
:100500009C0250939D0220936202309363024093B9
:100510006402509365020F2EF0E0EF2EF0E0FF2E04
:10052000F0E00F2FF0E41F2FF02DE0922E02F0925A
:100530002F0200933002109331022093BE023093B9
:10054000BF024093C0025093C10280E695EEA8E935
:10055000BFE38093260290932702A0932802B093D2
:10056000290289E192EEA8E9BEE38093820290938A
:100570008302A0938402B093850280E695EEA8E101
:10058000B0E480939E0290939F02A093A002B09348
:10059000A1028EEA97E4A1EEBDE38093D602909388
:1005A000D702A093D802B093D9028EEA97E4A1EEC5
:1005B000BCE38093860290938702A0938802B09355
:1005C00089028EEA97E4A1E6BEE380938E029093BF
:1005D0008F02A0939002B09391028AE999E9A9E968
:1005E000BFE380931E0290931F02A0932002B0935A
:1005F0002102E0925E02F0925F020093600210938B
:10060000610283E89AEFAFEFBEE380936A029093B2
:100610006B02A0936C02B0936D0220936E02309334
:100620006F0240937002509371022093B202309394
:10063000B3024093B4025093B5022093AE023093BC
:10064000AF024093B0025093B102609108017091E3
:10065000090180910A0190910B0120E635EE48E1F5
:1006600050E40E947F137B018C0120E030E040E0E9
:1006700050E40E94AE115B016C01C801B701A601F4
:1006800095010E941612DC019B01AC012093CE0261
:100690003093CF024093D0025093D102CB0180938C
:1006A000920290939302A0939402B0939502C80192
:1006B000B70120E030E040E050E40E94AD11A60117
:1006C00095010E9416126093A6027093A702809370
:1006D000A8029093A902609108017091090180918C
:1006E0000A0190910B012EEA37E441E65EE30E9495
:1006F0007F137B018C0120E030E040E050E40E9459
:10070000AE115B016C01C801B701A60195010E9401
:100710001612DC019B01AC012093DA023093DB025C
:100720004093DC025093DD02CB018093AA029093A8
:10073000AB02A093AC02B093AD02C801B70120E0B8
:1007400030E040E050E40E94AD11A60195010E9406
:10075000161260939602709397028093980290937A
:1007600099020E94C30160E070E080E090E00E9486
:10077000F20060E070E080E090E00E9457010E948B
:10078000690A0E94720A10E01FC05D9A88EC90E02E
:100790000E94CB0A0894E11CF11C22EEE21624E030
:1007A000F20699F7EE24FF245D9888EC90E00E9411
:1007B000CB0A0894E11CF11C32EEE31634E0F30698
:1007C00099F71F5F153019F0EE24FF24DECF0E9449
:1007D000C00A16B52FEF30E040E050E00E94E2136F
:1007E000610F711D811D911D0E94AA122EE03DE234
:1007F00042E35DE30E947F1320E030E44CE156E4E5
:100800000E941612DC019B01AC012093140130936D
:1008100015014093160150931701CB0180931001ED
:1008200090931101A0931201B09313010E94A410A0
:10083000609328017093290180932A0190932B01E2
:100840000E94AD10609330017093310180933201AA
:1008500090933301209128013091290140912A0180
:1008600050912B0180912C0190912D01A0912E018E
:10087000B0912F01281739074A075B0709F4E1C037
:100880000E94A4107B018C01E0922801F0922901C2
:1008900000932A0110932B016091100170911101B6
:1008A000809112019091130120911801309119014A
:1008B00040911A0150911B010E94AD115B016C0126
:1008C00060935C0170935D0180935E0190935F0182
:1008D00080912C0190912D01A0912E01B0912F01BA
:1008E000E81AF90A0A0B1B0BC801B7010E94AC12E7
:1008F000A60195010E9416126093200170932101B8
:10090000809322019093230120E030E040E05CE3FB
:100910000E947F133B014C0160934C0170934D0189
:1009200080934E0190934F016091040170910501F5
:100930008091060190910701A60195010E947F1305
:100940007B018C0120E030E040E050E40E94AE11D9
:100950001B012C01C801B701A20191010E941612CE
:100960005B016C01C401B301209150013091510130
:1009700040915201509153010E94AE119B01AC0174
:10098000C601B5010E947F135B016C01C801B7016C
:1009900020E030E040E050E40E94AD11A20191015E
:1009A0000E941612209158013091590140915A012C
:1009B00050915B010E947F139B01AC01C601B50100
:1009C0000E94AD11609354017093550180935601BC
:1009D00090935701609250017092510180925201A0
:1009E00090925301609358017093590180935A017A
:1009F00090935B015D9A88EC90E00E94CB0A5D9831
:100A00008091280190912901A0912A01B0912B0198
:100A100080932C0190932D01A0932E01B0932F0170
:100A20008091100190911101A0911201B0911301D8
:100A30008093180190931901A0931A01B0931B01A0
:100A400026C0609110017091110180911201909166
:100A50001301209118013091190140911A01509110
:100A60001B010E94AD112AE939E949E15EE30E94C8
:100A70007B13181664F480E090E0A0E0B0E080936F
:100A8000540190935501A0935601B09357012091C2
:100A90003001309131014091320150913301809108
:100AA000340190913501A0913601B091370128179A
:100AB00039074A075B0709F4DDC00E94AD107B01CE
:100AC0008C01E0923001F0923101009332011093D9
:100AD000330120911401309115014091160150917C
:100AE000170129873A874B875C87CA01B901209192
:100AF0001C0130911D0140911E0150911F010E9467
:100B0000AD115B016C0160934801709349018093C2
:100B10004A0190934B018091340190913501A0914D
:100B20003601B0913701A8019701281B390B4A0BF8
:100B30005B0BCA01B9010E94AC12A60195010E948B
:100B400016126093240170932501809326019093DF
:100B5000270120E030E040E05CE30E947F131B01AE
:100B60002C01609338017093390180933A0190937E
:100B70003B0160910001709101018091020190910F
:100B80000301A60195010E947F135B016C0120E027
:100B900030E040E050E40E94AE116D877E878F8781
:100BA000988BC601B5012D853E854F8558890E94D9
:100BB00016123B014C01C201B10120913C01309160
:100BC0003D0140913E0150913F010E94AE119B01B9
:100BD000AC01C401B3010E947F133B014C01C6016B
:100BE000B50120E030E040E050E40E94AD112D85D9
:100BF0003E854F8558890E941612209144013091FC
:100C0000450140914601509147010E947F139B018D
:100C1000AC01C401B3010E94AD1160934001709317
:100C20004101809342019093430120923C01309214
:100C30003D0140923E0150923F0160934401709308
:100C400045018093460190934701E0923401F09270
:100C50003501009336011093370189859A85AB855C
:100C6000BC8580931C0190931D01A0931E01B0933D
:100C70001F0126C060911401709115018091160129
:100C80009091170120911C0130911D0140911E018E
:100C900050911F010E94AD112AE939E949E15EE353
:100CA0000E947B13181664F420E030E040E050E02E
:100CB00020934001309341014093420150934301FE
:100CC00060915401709155018091560190915701A6
:100CD00023EC33E54BEF51E40E947F133B014C01C1
:100CE0006093220270932302809324029093250242
:100CF00060914001709141018091420190914301C6
:100D000023EC33E54BEF51E40E947F131B012C01D0
:100D100060937E0270937F028093800290938102A1
:100D20006091140170911501809116019091170145
:100D300020911C0130911D0140911E0150911F0115
:100D40000E94AD117B018C01609110017091110125
:100D50008091120190911301209118013091190195
:100D600040911A0150911B010E94AD119B01AC01F1
:100D7000C801B7010E94E71260932A0270932B0208
:100D800080932C0290932D0260916C0170916D0103
:100D900080916E0190916F0126E636E646E051ECB7
:100DA0000E947F139B01AC01609168017091690101
:100DB00080916A0190916B010E94AE115B016C0100
:100DC0006093C6027093C7028093C8029093C902D1
:100DD00060916C0170916D0180916E0190916F0135
:100DE00026E636E646E051E40E947F132091680132
:100DF0003091690140916A0150916B010E94AE11DE
:100E00007B018C0160937202709373028093740271
:100E100090937502C601B501A40193010E94AD1122
:100E20006D837E838F839887609346027093470219
:100E30008093480290934902C801B701A201910131
:100E40000E94AD1169837A838B839C836093D20265
:100E50007093D3028093D4029093D50260911E02C6
:100E600070911F0280912002909121022D813E817C
:100E70004F8158850E947F13698B7A8B8B8B9C8B5B
:100E80006093760270937702809378029093790250
:100E900060916E0270916F02809170029091710268
:100EA00029813A814B815C810E947F136D8B7E8BFF
:100EB0008F8B988F60934202709343028093440219
:100EC00090934502E090B602F090B7020091B8020C
:100ED0001091B9026D817E818F819885A80197015B
:100EE0000E94AE1120915E0230915F02409160023B
:100EF000509161020E947F13209160013091610145
:100F000040916201509163010E94AE1160933202E0
:100F1000709333028093340290933502A09036028E
:100F2000B0903702C0903802D090390269817A813E
:100F30008B819C81A60195010E94AE112091B20285
:100F40003091B3024091B4025091B5020E947F13D8
:100F500020916401309165014091660150916701D3
:100F60000E94AE1160931A0270931B0280931C02C0
:100F700090931D026090A2027090A3028090A40240
:100F80009090A5026D817E818F819885A80197013F
:100F90000E94AD1120916A0230916B0240916C0267
:100FA00050916D020E947F13A40193010E94AD1124
:100FB0007B018C016093CA027093CB028093CC02B8
:100FC0009093CD02209062023090630240906402C0
:100FD0005090650269817A818B819C81A60195017F
:100FE0000E94AD112091AE023091AF024091B0024B
:100FF0005091B1020E947F13A20191010E94AD1194
:101000005B016C0160937A0270937B0280937C0297
:1010100090937D026091CE027091CF028091D002B8
:101020009091D102A80197010E947F137B018C014E
:10103000C401B30120919202309193024091940235
:10104000509195020E947F139B01AC01C801B7012A
:101050000E94AE117B018C016091A6027091A702E3
:101060008091A8029091A9022091DE023091DF02C6
:101070004091E0025091E1020E947F139B01AC017C
:10108000C801B7010E94AD116093660270936702B8
:1010900080936802909369026091DA027091DB029A
:1010A0008091DC029091DD02A60195010E947F13E0
:1010B0007B018C01C201B1012091AA023091AB02E7
:1010C0004091AC025091AD020E947F139B01AC0194
:1010D000C801B7010E94AE117B018C01609196029C
:1010E00070919702809198029091990220918A02C2
:1010F00030918B0240918C0250918D020E947F139F
:101100009B01AC01C801B7010E94AD1160939A0226
:1011100070939B0280939C0290939D0289899A8987
:10112000AB89BC898093C2029093C302A093C4028E
:10113000B093C5022D893E894F89588D20933A027C
:1011400030933B0240933C0250933D02BC01CD01E1
:1011500020E030E040EF51E40E947B131816ACF41D
:101160008091600190916101A0916201B091630151
:101170008093320290933302A0933402B0933502ED
:1011800080E090E0A0EFB1E420C069897A898B8982
:101190009C8920E030E040EF51EC0E94121288233D
:1011A000E4F48091600190916101A0916201B0919D
:1011B00063018093320290933302A0933402B09380
:1011C000350280E090E0A0EFB1EC8093C2029093F2
:1011D000C302A093C402B093C5026D897E898F8932
:1011E000988D20E030E040EF51E40E947B13181608
:1011F000ACF48091640190916501A0916601B09179
:10120000670180931A0290931B02A0931C02B09373
:101210001D0280E090E0A0EFB1E420C06D897E89DE
:101220008F89988D20E030E040EF51EC0E9412123F
:101230008823E4F48091640190916501A091660196
:10124000B091670180931A0290931B02A0931C0235
:10125000B0931D0280E090E0A0EFB1EC80933A02E1
:1012600090933B02A0933C02B0933D028D819E81FE
:10127000AF81B8858093B6029093B702A093B8026D
:10128000B093B9028091320290913302A09134025E
:10129000B09135028093600190936101A093620147
:1012A000B09363018091CA029091CB02A091CC02CD
:1012B000B091CD028093A2029093A302A093A402C6
:1012C000B093A5028091660290916702A091680296
:1012D000B09169028093DE029093DF02A093E00256
:1012E000B093E10229813A814B815C8120933602DF
:1012F00030933702409338025093390280911A029A
:1013000090911B02A0911C02B0911D028093640178
:1013100090936501A0936601B093670180917A0272
:1013200090917B02A0917C02B0917D028093620239
:1013300090936302A0936402B093650280919A0235
:1013400090919B02A0919C02B0919D0280938A0291
:1013500090938B02A0938C02B0938D026091C20295
:101360007091C3028091C4029091C5020E94F20064
:1013700060913A0270913B0280913C0290913D0253
:101380000E9457010E94A10022CA982F80918100DB
:10139000886080938100809181008F7E809381009E
:1013A000993049F480918000826080938000809120
:1013B00080008E7F0EC09A3021F480918000826080
:1013C00003C0809180008D7F809380008091800099
:1013D00081608093800010928900109288000895A7
:1013E000982F80918100877F809381008091810078
:1013F0008F7E80938100993049F4809180008260D3
:1014000080938000809180008E7F0EC09A3021F4FE
:1014100080918000826003C0809180008D7F8093E6
:1014200080008091800081608093800010928B000A
:1014300010928A000895E0E8F0E020812E7F20835A
:10144000208122602083E1E8F0E020812860208371
:101450002081206120832FB7F89490938700809398
:1014600086002FBF109289001092880010928B0086
:1014700010928A00089584B58F7D84BD84B58F7ED7
:1014800084BD089584B58F7784BD84B58F7B84BD7A
:101490000895E0E8F0E080818F7D808380818F7EF9
:1014A00080830895E0E8F0E080818F7780838081F9
:1014B0008F7B8083089584B5806284BD84B58F7EE0
:1014C00084BD089584B5806884BD84B58F7B84BD58
:1014D0000895E0E8F0E080818062808380818F7EE3
:1014E00080830895E0E8F0E08081806880838081D7
:1014F0008F7B8083089588BD089587BD089590935C
:10150000890080938800089590938B0080938A00CF
:10151000089510924A0210924B0210924C021092BF
:101520004D0216BC089510923E0210923F02109296
:10153000400210924102109285001092840008959A
:1015400085BD81E080936E0010924A0210924B029A
:1015500010924C0210924D0216BC089580938100A7
:1015600081E080936F0010923E0210923F02109231
:10157000400210924102109285001092840008955A
:1015800020914A0230914B0240914C0250914D0201
:10159000B901CA010895A0E0B0E024E0880F991FC6
:1015A000AA1FBB1F2A95D1F70396A11DB11DBC012F
:1015B000CD012AE030E040E050E00E94151480E0C8
:1015C00090E002C00000019682179307D8F30895B7
:1015D0001F920F920FB60F9211248F939F93AF9388
:1015E000BF9380914A0290914B02A0914C02B0911E
:1015F0004D020196A11DB11D80934A0290934B02AA
:10160000A0934C02B0934D02BF91AF919F918F91E7
:101610000F900FBE0F901F901895909371018093BB
:10162000700108951F93182F8A3031F4E0917001F2
:10163000F09171018DE00995E0917001F0917101D7
:10164000812F09951F910895CF93DF93EC010097A7
:1016500021F406C021960E94120B88818823D1F7BD
:10166000DF91CF910895EF92FF920F931F93CF9345
:10167000DF938C017A010097E9F020E030E0261733
:10168000370738F4F80181918F012F5F3F4F88238E
:10169000B1F7C0E0D0E00BC0F8018081882319F0D9
:1016A0000F5F1F4F01C080E20E94120B2196CE15E2
:1016B000DF0590F3DF91CF911F910F91FF90EF9095
:1016C0000895CF93DF93EC01009719F407C00E94AF
:1016D000120BFE01219684918823C9F7DF91CF91E7
:1016E00008958AE00E94120B0895E82FF0E0EF7051
:1016F000F070E859FF4FE4918E2F0E94120B08956D
:101700001F93182F82958F700E94750B812F0E9456
:10171000750B1F9108951F93182F892F0E94800B1E
:10172000812F0E94800B1F910895EF92FF920F93DB
:101730001F937B018C01C801AA27BB270E948B0B3A
:10174000C7010E948B0B1F910F91FF90EF9008959E
:101750002F923F924F925F926F927F928F929F92C1
:10176000AF92BF92CF92DF92EF92FF920F931F93AF
:10177000DF93CF93CDB7DEB7A3970FB6F894DEBF54
:101780000FBECDBF6AA3242E2BA3370148014423EB
:1017900051F017FF08C0EE24FF248701E618F70870
:1017A0000809190902C0840173012AA1215090E09F
:1017B000211091E0291B29A318A2A82EBB24CC2418
:1017C000DD24C801B701A60195010E941514FB0193
:1017D000EF70F070E859FF4F64916F8FC801B70147
:1017E000A60195010E941514C901DA017C018D0141
:1017F0009EE1492E512C4C0E5D1E39A025C0E114EE
:10180000F10401051105C9F0C801B701A601950150
:101810000E941514FB01EF70F070E859FF4F6491BE
:10182000F2016083C801B701A60195010E94151459
:10183000C901DA017C018D0103C02BA1F2012083D3
:101840003A940894410851083320C9F6CE014F96C6
:101850008C01E9A10E1B11092220F1F097FE05C0B1
:101860008DE2F80182938F0117C0C80101976114BE
:1018700071048104910419F08C018BE202C08C0187
:1018800080E2F801808308C0F80181918F010E94F5
:10189000120BFAA1F150FAA32AA12223A9F7A396C9
:1018A0000FB6F894DEBF0FBECDBFCF91DF911F9171
:1018B0000F91FF90EF90DF90CF90BF90AF909F90EF
:1018C0008F907F906F905F904F903F902F900895F2
:1018D0004F925F926F927F928F929F92AF92BF9240
:1018E000CF92DF92EF92FF920F931F93CF93DF93EC
:1018F000482E5A016B01CB01BA0120E030E040E0F4
:1019000050E00E947B1318161CF43501460106C0F6
:101910003501460197FA909497F890940F2EF0E0D5
:10192000EF2EF0E0FF2EF0E80F2FFFE31F2FF02D3A
:101930005524C401B301A80197010E94161220E0AA
:1019400030E040E251E40E94121287FD0EC0C8014F
:10195000B70120E030E040E251E40E947F137B01B8
:101960008C0153948FE0581621F7C601B50120E091
:1019700030E040E050E00E941212882314F48DE21F
:1019800001C08BE20E94120BDD24AA2456C0C401C0
:10199000B301A80197010E9416120E947E12B62E72
:1019A000D62ACD2DD0E0CC24DD24C801B70120E01B
:1019B00030E040E85FE30E941212882319F421E02E
:1019C000C22ED12CCC29DD29CD2B39F08B2D805D79
:1019D0000E94120BDD24DA9404C080E20E94120BF4
:1019E000DD24C801B70120E030E040E85FE30E9459
:1019F0001212882319F48EE20E94120B6B2D70E0F4
:101A0000882777FD8095982F0E94AC12A801970136
:101A10000E947F139B01AC01C401B3010E94AD1170
:101A20003B014C01C801B70120E030E040E251E445
:101A30000E9416127B018C01A394A41408F4A7CF72
:101A4000DF91CF911F910F91FF90EF90DF90CF909A
:101A5000BF90AF909F908F907F906F905F904F90CE
:101A600008957F928F929F92AF92BF92CF92DF9212
:101A7000EF92FF920F931F93DF93CF93CDB7DEB713
:101A80007888C988DA8863E1E62EF12CEC0EFD1E19
:101A900014C0882381F480E090E0CF91DF911F9102
:101AA0000F91FF90EF90DF90CF90BF90AF909F90FD
:101AB0008F907F9008950E94120B96012F5F3F4FE9
:101AC000772021F0F6016901849103C0F60180813D
:101AD00069018532F1F62F5F3F4F772021F0F60143
:101AE0006901849103C0F60180816901843629F07F
:101AF000883781F08336F9F606C000E117E25AE034
:101B0000A52EB12C0CC0F701808122E030E0E20E5E
:101B1000F31ED1CF00E010E140E1A42EB12C32E061
:101B2000832E912C8E0C9F1CF701E080F18084366F
:101B3000B1F4F7FE11C0F094E194F108F3948DE252
:101B40000E94120B09C0C8016AE070E00E940114F3
:101B50008B016230710518F0E016F106A0F3C701A1
:101B6000B8010E940114862F0E94750BC701B801AD
:101B70000E9401147C01C801B5010E9401148B016F
:101B80006115710561F7740198CF843040F4E82F36
:101B9000F0E0EE0FFF1FEE5FFD4F7183608308954D
:101BA0009A01AB018823E1F4CA01B90160587B476F
:101BB000814E9F4FF3E0660F771F881F991FFA959C
:101BC000D1F7E4E0220F331F441F551FEA95D1F7E8
:101BD0000E941514215030402093C4003093C5005A
:101BE0000895282F30E0A3E0220F331FAA95E1F7D4
:101BF0002A513D4FC9010895282F30E0B3E0220F4C
:101C0000331FBA95E1F7265F3C4FC9010895E82FCD
:101C1000882331F48091C00085FFFCCF6093C6001B
:101C2000F0E0EE51FD4F10820895982F8091C00092
:101C300085FFFCCF9093C6001092E202089520E049
:101C4000E82FF0E083E0EE0FFF1F8A95E1F7E65101
:101C5000FD4F80819181892B09F421E0822F089525
:101C6000CF93DF93882311F46091C600282F30E0D2
:101C7000E901CC0FDD1FFE01EE5FFD4F80819181F8
:101C8000892B31F00190F081E02D862F099514C049
:101C900093E0220F331F9A95E1F7C9018A519D4FB6
:101CA0000E946A10882341F4FE01E65DFC4F8081AA
:101CB0009181019691838083DF91CF9108951F9246
:101CC0000F920FB60F9211242F933F934F935F9370
:101CD0006F937F938F939F93AF93BF93EF93FF93F4
:101CE00080E00E94300EFF91EF91BF91AF919F91E4
:101CF0008F917F916F915F914F913F912F910F90B5
:101D00000FBE0F901F9018958F929F92AF92BF9227
:101D1000CF92DF92EF92FF920F931F93CF93DF93B7
:101D2000882EDB01E82EFF24F70113E0EE0FFF1FE2
:101D30001A95E1F7E25FFC4F20813181240F351FB6
:101D4000F70173E0EE0FFF1F7A95E1F7E45FFC4FB8
:101D50008081918128173907B0F54115510599F116
:101D60009C90670163E0CC0CDD1C6A95E1F78AE08A
:101D700093E0C80ED91E8D01C0E0D0E05A0108944E
:101D8000A108B10806C0C601F80160810E946A106E
:101D900021960F5F1F4FCA15DB05A8F3F701EA5F15
:101DA000FC4F8FEF8083882031F48091C00085FF45
:101DB000FCCF9092C60082EE92E0E80EF91EF70189
:101DC00010828FEF01C080E0DF91CF911F910F91C2
:101DD000FF90EF90DF90CF90BF90AF909F908F904B
:101DE000089590E023E0880F991F2A95E1F7865F18
:101DF0009C4F0E946A100895682F8AE093E00E9429
:101E00006A100895CF93DF93282FA82FB0E0ED013B
:101E1000CA5FDC4F88818823B1F0FD0133E0EE0F0B
:101E2000FF1F3A95E1F7E25FFC4F80819181892B9A
:101E300049F0233061F48AE093E00E94011080931E
:101E4000C60005C01882AE51BD4F8FEF8C93DF9155
:101E5000CF9108951F920F920FB60F9211242F93D6
:101E60003F934F935F936F937F938F939F93AF9322
:101E7000BF93EF93FF9380E00E94020FFF91EF91D9
:101E8000BF91AF919F918F917F916F915F914F9192
:101E90003F912F910F900FBE0F901F9018951F9399
:101EA000CF93DF93182FC82FD0E0FE01EA5FFC4FDD
:101EB0008FEF8083CE0143E0880F991F4A95E1F7A9
:101EC000865F9C4F0E940110982F112331F480915E
:101ED000C00085FFFCCF9093C600CE51DD4F188225
:101EE000DF91CF911F910895CF93DF93EB01282FBE
:101EF00030E0F90173E0EE0FFF1F7A95E1F7E8514A
:101F0000FD4F80819181892BC9F0F90163E0EE0FCB
:101F1000FF1F6A95E1F7E651FD4F80819181892B82
:101F200069F053E0220F331F5A95E1F7C9018A5136
:101F30009D4F0E94011088838FEF01C080E0DF91E8
:101F4000CF910895DF93CF930F92CDB7DEB780E0A6
:101F5000BE016F5F7F4F0E94740F882319F42FEF2B
:101F60003FEF03C08981282F30E0C9010F90CF9146
:101F7000DF91089590E0E3E0880F991FEA95E1F77B
:101F80008A519D4F0E949D10089586EE92E062E76F
:101F900071E040E850E00E94F40F8AE093E062EFC5
:101FA00071E040E150E00E94F40F08950E94C50FD7
:101FB000109203021092020288ED8093C10080E02B
:101FC00040E855E260E070E00E94D00D8FEF809312
:101FD000E2021092060310922B0310922A037894C7
:101FE00008950E94D60F0895FC018FB7F89471836D
:101FF00060835383428317821682158214828FBFB7
:102000000895DC014FB7F89414968D919C91159723
:10201000892B11F4E0E025C016968D919C911797BD
:10202000ED91FC911197E80FF91FE0810196179649
:102030009C938E93169712962D913C91139782172D
:10204000930730F0821B930B17969C938E931697F1
:1020500014968D919C911597019715969C938E934C
:1020600014974FBF8E2F0895FC014FB7F8948481C9
:10207000958168177907B0F486819781860F971F3D
:1020800097838683228133818217930720F0821BF6
:10209000930B9783868384819581861B970B958309
:1020A000848302C0158214824FBF0895FC01CB01C6
:1020B0002FB7F8942FBF2681378162817381820FF9
:1020C000931F0E9401140190F081E02DE80FF91F89
:1020D000808108951F93CF93DF93EC01162F4FB7A4
:1020E000F8942C813D816A817B812617370798F40B
:1020F0008E819F81820F931F0E940114E881F981D4
:10210000E80FF91F10838C819D8101969D838C833C
:102110004FBF8FEF02C04FBF80E0DF91CF911F9183
:102120000895FC018FB7F8948FBF22813381848199
:102130009581281B390BC9010895FC018FB7F894CC
:10214000158214828FBF089560910A0270910B026C
:1021500080910C0290910D02089560910E02709191
:102160000F02809110029091110208951F920F9218
:102170000FB60F9211242F938F939F93AF93BF931A
:1021800029B120782093180280911902821758F4FF
:1021900080910A0290910B02A0910C02B0910D0265
:1021A000189B0BC00EC080910A0290910B02A09167
:1021B0000C02B0910D02189B04C00196A11DB11D27
:1021C00003C00197A109B10980930A0290930B0201
:1021D000A0930C02B0930D0220931902BF91AF910E
:1021E0009F918F912F910F900FBE0F901F90189578
:1021F0001F920F920FB60F9211242F933F934F937C
:102200008F939F93AF93BF9333B131703093160286
:1022100023B120712093140243B140724093120203
:1022200080911702381749F1831758F480910A02F8
:1022300090910B02A0910C02B0910D024F9B0BC02C
:102240000EC080910A0290910B02A0910C02B091F5
:102250000D024F9B04C00197A109B10903C001966B
:10226000A11DB11D80930A0290930B02A0930C0252
:10227000B0930D023093170257C0809115022817B2
:1022800049F1821758F480910E0290910F02A091AB
:102290001002B09111021D9B0BC00EC080910E0266
:1022A00090910F02A0911002B09111021D9B04C0E9
:1022B0000197A109B10903C00196A11DB11D809329
:1022C0000E0290930F02A0931002B093110220937C
:1022D00015022AC080911302841758F480910E02CF
:1022E00090910F02A0911002B09111021C9B0BC0A3
:1022F0000EC080910E0290910F02A0911002B09139
:1023000011021C9B04C00196A11DB11D03C00197C1
:10231000A109B10980930E0290930F02A0931002BD
:10232000B093110240931302BF91AF919F918F918F
:102330004F913F912F910F900FBE0F901F901895C6
:102340001F920F920FB60F9211240F900FBE0F9095
:102350001F901895F8940C9437145058BB27AA274F
:102360000ED08FC180D130F085D120F031F49F3F65
:1023700011F41EF475C10EF4E095E7FB6BC1E92F73
:1023800091D180F3BA17620773078407950718F095
:1023900071F49EF5A9C10EF4E0950B2EBA2FA02D75
:1023A0000B01B90190010C01CA01A0011124FF2702
:1023B000591B99F0593F50F4503E68F11A16F040FD
:1023C000A22F232F342F4427585FF3CF46953795FC
:1023D0002795A795F0405395C9F77EF41F16BA0BC1
:1023E000620B730B840BBAF09150A1F0FF0FBB1F6F
:1023F000661F771F881FC2F70EC0BA0F621F731FB8
:10240000841F48F4879577956795B795F7959E3F14
:1024100008F0B3CF9395880F08F09927EE0F9795A2
:1024200087950895F3D008F481E008950CD029C170
:1024300021D140F018D130F021F45F3F19F00AC1EA
:10244000511153C10DC12ED198F39923C9F35523CE
:10245000B1F3951B550BBB27AA2762177307840797
:1024600038F09F5F5F4F220F331F441FAA1FA9F34D
:1024700033D00E2E3AF0E0E830D091505040E6953F
:10248000001CCAF729D0FE2F27D0660F771F881FA0
:10249000BB1F261737074807AB07B0E809F0BB0B8F
:1024A000802DBF01FF2793585F4F2AF09E3F5105B3
:1024B00068F0D0C01AC15F3FECF3983EDCF386951C
:1024C00077956795B795F7959F5FC9F7880F911D29
:1024D0009695879597F90895E1E0660F771F881F15
:1024E000BB1F621773078407BA0720F0621B730BC8
:1024F000840BBA0BEE1F88F7E0950895DBD088F0C7
:102500009F5790F0B92F9927B751A0F0D1F0660FDF
:10251000771F881F991F1AF0BA95C9F712C0B130FA
:1025200081F0E2D0B1E00895DFC0672F782F8827CF
:10253000B85F39F0B93FCCF3869577956795B39539
:10254000D9F73EF490958095709561957F4F8F4FA8
:102550009F4F0895E89409C097FB3EF490958095AD
:10256000709561957F4F8F4F9F4F9923A9F0F92F59
:1025700096E9BB279395F695879577956795B795D7
:10258000F111F8CFFAF4BB0F11F460FF1BC06F5FBD
:102590007F4F8F4F9F4F16C0882311F096E911C0CF
:1025A000772321F09EE8872F762F05C0662371F0F0
:1025B00096E8862F70E060E02AF09A95660F771F04
:1025C000881FDAF7880F9695879597F90895990FE0
:1025D000BB0B550FAA0BE0E8FEEF16161706E8072F
:1025E000F90770F012161306E407F50760F0BA1742
:1025F00054F031F42617370748075907A7951BF4FD
:10260000B901CA01BA2FB69597950895990F000898
:10261000550FAA0BE0E8FEEF16161706E807F907B4
:10262000C0F012161306E407F50798F0621B730B4F
:10263000840B950B39F40A2661F0232B242B252BD0
:1026400021F408950A2609F4A140A6958FEF811D73
:10265000811D089597F99F6780E870E060E0089514
:102660009FEF80EC089500240A94161617061806AA
:102670000906089500240A94121613061406050686
:102680000895092E0394000C11F4882352F0BB0F17
:1026900040F4BF2B11F460FF04C06F5F7F4F8F4F7A
:1026A0009F4F089557FD9058440F551F59F05F3FB5
:1026B00071F04795880F97FB991F61F09F3F79F064
:1026C00087950895121613061406551FF2CF4695E6
:1026D000F1DF08C0161617061806991FF1CF869568
:1026E0007105610508940895E894BB27662777274C
:1026F000CB0197F908958ADF08F48FEF08950BD086
:10270000C0CFB1DF28F0B6DF18F0952309F0A2CFD3
:10271000A7CF1124EACFC6DFA0F3959FD1F3950F81
:1027200050E0551F629FF001729FBB27F00DB11D55
:10273000639FAA27F00DB11DAA1F649F6627B00DE5
:10274000A11D661F829F2227B00DA11D621F739FCE
:10275000B00DA11D621F839FA00D611D221F749FDC
:102760003327A00D611D231F849F600D211D822F23
:10277000762F6A2F11249F5750408AF0E1F088236A
:102780004AF0EE0FFF1FBB1F661F771F881F915077
:102790005040A9F79E3F510570F05CCFA6CF5F3F38
:1027A000ECF3983EDCF3869577956795B795F795AA
:1027B000E7959F5FC1F7FE2B880F911D9695879532
:1027C00097F90895629FD001739FF001829FE00DF9
:1027D000F11D649FE00DF11D929FF00D839FF00DA0
:1027E000749FF00D659FF00D9927729FB00DE11D4C
:1027F000F91F639FB00DE11DF91FBD01CF01112429
:102800000895AA1BBB1B51E107C0AA1FBB1FA61737
:10281000B70710F0A61BB70B881F991F5A95A9F789
:1028200080959095BC01CD010895A1E21A2EAA1BB6
:10283000BB1BFD010DC0AA1FBB1FEE1FFF1FA21770
:10284000B307E407F50720F0A21BB30BE40BF50B6D
:10285000661F771F881F991F1A9469F760957095F6
:10286000809590959B01AC01BD01CF010895F8942E
:02287000FFCF98
:0C2872000000C8410000204133139D44C9
:00000001FF
