:100000000C943D000C945A000C945A000C94720805
:100010000C945A000C9430080C945A000C945A001A
:100020000C945A000C945A000C945A000C945A00E8
:100030000C945A000C945A000C945A000C945A00D8
:100040000C9462020C945A000C945A000C945A00BE
:100050000C945A000C945A000C945A000C945A00B8
:100060000C945A000C945A00303132333435363700
:100070003839414243444546000011241FBECFEFAA
:10008000D4E0DEBFCDBF11E0A0E0B1E0E8E2F7E1EF
:1000900002C005900D92A030B107D9F712E0A0E0A0
:1000A000B1E001C01D92A230B107E1F70E94A000AB
:1000B0000C9424090C941A090E94E3010E94EC019B
:1000C00088E893E10E949501219A229A0895509818
:1000D000519A0E946B0780E040E052EC61E070E0D2
:1000E0000E944A058FE895E00E9487025798209861
:1000F000249825985F9A289A2C9A2D9A83E00E943A
:100100001A0283E00E9428020E945C00E8E6F0E008
:10011000808184608083ADE6B0E08C9180688C93B0
:10012000808181608083EBE6F0E080818160808364
:10013000808180618083808180628083789408954B
:100140002F923F924F925F926F927F928F929F92E7
:10015000AF92BF92CF92DF92EF92FF920F931F93D5
:10016000DF93CF93CDB7DEB728970FB6F894DEBFF5
:100170000FBECDBF0E94670084EF91E00E94F9019D
:1001800084EF91E00E94FE0180E090E0A0E0B0E00A
:100190008D839E83AF83B88719821A821B821C824B
:1001A0006624772443010E943A0216B52FEF30E00F
:1001B00040E050E00E943D0B610F711D811D911DBB
:1001C0000E94240A2EE03DE242E35DE30E94DA0A47
:1001D00020E030E44CE156E40E9490091B012C0120
:1001E0000E941E087B018C010E9427085B016C01A4
:1001F00089819A81AB81BC81E816F9060A071B0741
:1002000049F00E941E08AC01CB01DA0189839A8370
:10021000AB83BC83A614B704C804D90421F20E949E
:1002200027087B018C01C801B70166197709880985
:1002300099090E94260A5B016C01C201B1012D815E
:100240003E814F8158850E9427099B01AC01C60160
:10025000B5010E94900920E030E040E05CE30E949C
:10026000DA0AAB01BC0185E00E94E2030E94EB02C6
:100270002D823E824F8258863701480194CF982FB5
:1002800080918100886080938100809181008F7EC1
:1002900080938100993049F480918000826080933E
:1002A0008000809180008E7F0EC09A3021F4809172
:1002B0008000826003C0809180008D7F80938000E9
:1002C000809180008160809380001092890010925C
:1002D00088000895982F80918100877F8093810006
:1002E000809181008F7E80938100993049F48091C4
:1002F0008000826080938000809180008E7F0EC09D
:100300009A3021F480918000826003C08091800047
:100310008D7F809380008091800081608093800039
:1003200010928B0010928A000895E0E8F0E020819E
:100330002E7F2083208122602083E1E8F0E020816D
:10034000286020832081206120832FB7F894909328
:100350008700809386002FBF10928900109288003A
:1003600010928B0010928A00089584B58F7D84BD11
:1003700084B58F7E84BD089584B58F7784BD84B5A0
:100380008F7B84BD0895E0E8F0E080818F7D8083DD
:1003900080818F7E80830895E0E8F0E080818F7710
:1003A000808380818F7B8083089584B5806284BD43
:1003B00084B58F7E84BD089584B5806884BD84B57E
:1003C0008F7B84BD0895E0E8F0E0808180628083C7
:1003D00080818F7E80830895E0E8F0E080818068EE
:1003E000808380818F7B8083089588BD089587BD39
:1003F000089590938B0080938A00089590938900CC
:100400008093880008951092AE011092AF0110926F
:10041000B0011092B10116BC08951092AA01109279
:10042000AB011092AC011092AD01109285001092B8
:100430008400089585BD81E080936E001092AE0126
:100440001092AF011092B0011092B10116BC089544
:100450008093810081E080936F001092AA01109236
:10046000AB011092AC011092AD0110928500109278
:10047000840008952091AE013091AF014091B00108
:100480005091B101B901CA010895A0E0B0E024E0A3
:10049000880F991FAA1FBB1F2A95D1F70396A11D8C
:1004A000B11DBC01CD012AE030E040E050E00E94E7
:1004B000700B80E090E002C0000001968217930765
:1004C000D8F308951F920F920FB60F9211248F93B5
:1004D0009F93AF93BF938091AE019091AF01A09194
:1004E000B001B091B1010196A11DB11D8093AE0183
:1004F0009093AF01A093B001B093B101BF91AF91C0
:100500009F918F910F900FBE0F901F901895909311
:1005100001018093000108951F93182F8A3031F450
:10052000E0910001F09101018DE00995E091000159
:10053000F0910101812F09951F910895CF93DF93C9
:10054000EC01009721F406C021960E948C0288815C
:100550008823D1F7DF91CF910895EF92FF920F9307
:100560001F93CF93DF938C017A010097E9F020E08D
:1005700030E02617370738F4F80181918F012F5F9B
:100580003F4F8823B1F7C0E0D0E00BC0F801808175
:10059000882319F00F5F1F4F01C080E20E948C0278
:1005A0002196CE15DF0590F3DF91CF911F910F912A
:1005B000FF90EF900895CF93DF93EC01009719F42B
:1005C00007C00E948C02FE01219684918823C9F7FE
:1005D000DF91CF9108958AE00E948C020895E82F60
:1005E000F0E0EF70F070E859FF4FE4918E2F0E9419
:1005F0008C0208951F93182F82958F700E94EF022E
:10060000812F0E94EF021F9108951F93182F892FA9
:100610000E94FA02812F0E94FA021F910895EF9220
:10062000FF920F931F937B018C01C801AA27BB2760
:100630000E940503C7010E9405031F910F91FF90BF
:10064000EF9008952F923F924F925F926F927F9218
:100650008F929F92AF92BF92CF92DF92EF92FF92D2
:100660000F931F93DF93CF93CDB7DEB7A3970FB64A
:10067000F894DEBF0FBECDBF6AA3242E2BA3370193
:100680004801442351F017FF08C0EE24FF248701DE
:10069000E618F7080809190902C0840173012AA1A4
:1006A000215090E0211091E0291B29A318A2A82E27
:1006B000BB24CC24DD24C801B701A60195010E940A
:1006C000700BFB01EF70F070E859FF4F64916F8F72
:1006D000C801B701A60195010E94700BC901DA019A
:1006E0007C018D019EE1492E512C4C0E5D1E39A0DE
:1006F00025C0E114F10401051105C9F0C801B701D5
:10070000A60195010E94700BFB01EF70F070E85993
:10071000FF4F6491F2016083C801B701A601950102
:100720000E94700BC901DA017C018D0103C02BA16D
:10073000F20120833A940894410851083320C9F605
:10074000CE014F968C01E9A10E1B11092220F1F078
:1007500097FE05C08DE2F80182938F0117C0C80192
:100760000197611471048104910419F08C018BE2EA
:1007700002C08C0180E2F801808308C0F8018191F9
:100780008F010E948C02FAA1F150FAA32AA1222320
:10079000A9F7A3960FB6F894DEBF0FBECDBFCF91D9
:1007A000DF911F910F91FF90EF90DF90CF90BF905E
:1007B000AF909F908F907F906F905F904F903F9001
:1007C0002F9008954F925F926F927F928F929F9297
:1007D000AF92BF92CF92DF92EF92FF920F931F934F
:1007E000CF93DF93482E5A016B01CB01BA0120E071
:1007F00030E040E050E00E94D60A18161CF43501A3
:10080000460106C03501460197FA909497F89094F6
:100810000F2EF0E0EF2EF0E0FF2EF0E80F2FFFE3B9
:100820001F2FF02D5524C401B301A80197010E9488
:10083000900920E030E040E251E40E948C0987FDFD
:100840000EC0C801B70120E030E040E251E40E9450
:10085000DA0A7B018C0153948FE0581621F7C60108
:10086000B50120E030E040E050E00E948C09882390
:1008700014F48DE201C08BE20E948C02DD24AA24D4
:1008800056C0C401B301A80197010E9490090E94BB
:10089000F809B62ED62ACD2DD0E0CC24DD24C8010F
:1008A000B70120E030E040E85FE30E948C09882334
:1008B00019F421E0C22ED12CCC29DD29CD2B39F021
:1008C0008B2D805D0E948C02DD24DA9404C080E2CE
:1008D0000E948C02DD24C801B70120E030E040E82E
:1008E0005FE30E948C09882319F48EE20E948C0237
:1008F0006B2D70E0882777FD8095982F0E94260A3F
:10090000A80197010E94DA0A9B01AC01C401B3015E
:100910000E9427093B014C01C801B70120E030E0EB
:1009200040E251E40E9490097B018C01A394A4143D
:1009300008F4A7CFDF91CF911F910F91FF90EF9017
:10094000DF90CF90BF90AF909F908F907F906F90EF
:100950005F904F9008957F928F929F92AF92BF9237
:10096000CF92DF92EF92FF920F931F93DF93CF937B
:10097000CDB7DEB77888C988DA8863E1E62EF12C36
:10098000EC0EFD1E14C0882381F480E090E0CF912E
:10099000DF911F910F91FF90EF90DF90CF90BF906C
:1009A000AF909F908F907F9008950E948C02960147
:1009B0002F5F3F4F772021F0F6016901849103C03A
:1009C000F601808169018532F1F62F5F3F4F772074
:1009D00021F0F6016901849103C0F601808169016B
:1009E000843629F0883781F08336F9F606C000E1B5
:1009F00017E25AE0A52EB12C0CC0F701808122E04D
:100A000030E0E20EF31ED1CF00E010E140E1A42E71
:100A1000B12C32E0832E912C8E0C9F1CF701E080CC
:100A2000F1808436B1F4F7FE11C0F094E194F1083E
:100A3000F3948DE20E948C0209C0C8016AE070E064
:100A40000E945C0B8B016230710518F0E016F10614
:100A5000A0F3C701B8010E945C0B862F0E94EF0231
:100A6000C701B8010E945C0B7C01C801B5010E945E
:100A70005C0B8B016115710561F7740198CF8430AF
:100A800040F4E82FF0E0EE0FFF1FEE56FE4F7183AB
:100A9000608308959A01AB018823E1F4CA01B9018A
:100AA00060587B47814E9F4FF3E0660F771F881F8A
:100AB000991FFA95D1F7E4E0220F331F441F551F09
:100AC000EA95D1F70E94700B215030402093C4006A
:100AD0003093C5000895282F30E0A3E0220F331F84
:100AE000AA95E1F72A543E4FC9010895282F30E016
:100AF000B3E0220F331FBA95E1F726523E4FC901EA
:100B00000895E82F882331F48091C00085FFFCCF41
:100B10006093C600F0E0EE54FE4F10820895982FC7
:100B20008091C00085FFFCCF9093C6001092B20167
:100B3000089520E0E82FF0E083E0EE0FFF1F8A9594
:100B4000E1F7E654FE4F80819181892B09F421E081
:100B5000822F0895CF93DF93882311F46091C6000C
:100B6000282F30E0E901CC0FDD1FFE01EE56FE4FCD
:100B700080819181892B31F00190F081E02D862FC9
:100B8000099514C093E0220F331F9A95E1F7C9012C
:100B90008A549E4F0E94E407882341F4FE01E650E8
:100BA000FE4F80819181019691838083DF91CF9167
:100BB00008951F920F920FB60F9211242F933F9317
:100BC0004F935F936F937F938F939F93AF93BF9355
:100BD000EF93FF9380E00E94AA05FF91EF91BF91F0
:100BE000AF919F918F917F916F915F914F913F91C5
:100BF0002F910F900FBE0F901F9018958F929F927C
:100C0000AF92BF92CF92DF92EF92FF920F931F931A
:100C1000CF93DF93882EDB01E82EFF24F70113E04A
:100C2000EE0FFF1F1A95E1F7E252FE4F208131814E
:100C3000240F351FF70173E0EE0FFF1F7A95E1F7E0
:100C4000E452FE4F8081918128173907B0F5411594
:100C5000510599F19C90670163E0CC0CDD1C6A950D
:100C6000E1F78AED91E0C80ED91E8D01C0E0D0E019
:100C70005A010894A108B10806C0C601F8016081B4
:100C80000E94E40721960F5F1F4FCA15DB05A8F3EA
:100C9000F701EA52FE4F8FEF8083882031F4809174
:100CA000C00085FFFCCF9092C60082EB91E0E80E79
:100CB000F91EF70110828FEF01C080E0DF91CF9124
:100CC0001F910F91FF90EF90DF90CF90BF90AF906A
:100CD0009F908F90089590E023E0880F991F2A95A8
:100CE000E1F786529E4F0E94E4070895682F8AED2F
:100CF00091E00E94E4070895CF93DF93282FA82F57
:100D0000B0E0ED01CA52DE4F88818823B1F0FD01C9
:100D100033E0EE0FFF1F3A95E1F7E252FE4F80817C
:100D20009181892B49F0233061F48AED91E00E9492
:100D30007B078093C60005C01882AE54BE4F8FEF6C
:100D40008C93DF91CF9108951F920F920FB60F925F
:100D500011242F933F934F935F936F937F938F93C0
:100D60009F93AF93BF93EF93FF9380E00E947C0625
:100D7000FF91EF91BF91AF919F918F917F916F9173
:100D80005F914F913F912F910F900FBE0F901F9049
:100D900018951F93CF93DF93182FC82FD0E0FE0133
:100DA000EA52FE4F8FEF8083CE0143E0880F991FF8
:100DB0004A95E1F786529E4F0E947B07982F112398
:100DC00031F48091C00085FFFCCF9093C600CE54D3
:100DD000DE4F1882DF91CF911F910895CF93DF935B
:100DE000EB01282F30E0F90173E0EE0FFF1F7A9539
:100DF000E1F7E854FE4F80819181892BC9F0F90118
:100E000063E0EE0FFF1F6A95E1F7E654FE4F808125
:100E10009181892B69F053E0220F331F5A95E1F736
:100E2000C9018A549E4F0E947B0788838FEF01C0BF
:100E300080E0DF91CF910895DF93CF930F92CDB7EC
:100E4000DEB780E0BE016F5F7F4F0E94EE06882311
:100E500019F42FEF3FEF03C08981282F30E0C9013B
:100E60000F90CF91DF91089590E0E3E0880F991FF4
:100E7000EA95E1F78A549E4F0E941708089586EB81
:100E800091E062E071E040E850E00E946E078AED78
:100E900091E062E871E040E150E00E946E07089541
:100EA0000E943F07109293011092920188ED809367
:100EB000C10080E040E855E260E070E00E944A0531
:100EC0008FEF8093B2011092D6011092FB01109225
:100ED000FA01789408950E9450070895FC018FB795
:100EE000F89471836083538342831782168215823C
:100EF00014828FBF0895DC014FB7F89414968D913A
:100F00009C911597892B11F4E0E025C016968D91E0
:100F10009C911797ED91FC911197E80FF91FE081D3
:100F2000019617969C938E93169712962D913C914D
:100F300013978217930730F0821B930B17969C939D
:100F40008E93169714968D919C91159701971596EF
:100F50009C938E9314974FBF8E2F0895FC014FB72B
:100F6000F8948481958168177907B0F48681978118
:100F7000860F971F97838683228133818217930779
:100F800020F0821B930B9783868384819581861B37
:100F9000970B9583848302C0158214824FBF0895F6
:100FA000FC01CB012FB7F8942FBF268137816281D6
:100FB0007381820F931F0E945C0B0190F081E02DE2
:100FC000E80FF91F808108951F93CF93DF93EC0101
:100FD000162F4FB7F8942C813D816A817B812617AB
:100FE000370798F48E819F81820F931F0E945C0BBC
:100FF000E881F981E80FF91F10838C819D810196AA
:101000009D838C834FBF8FEF02C04FBF80E0DF9185
:10101000CF911F910895FC018FB7F8948FBF228163
:10102000338184819581281B390BC9010895FC0106
:101030008FB7F894158214828FBF089560919A013A
:1010400070919B0180919C0190919D010895609108
:101050009E0170919F018091A0019091A10108953E
:101060001F920F920FB60F9211242F938F939F937D
:10107000AF93BF9329B120782093A8018091A90153
:10108000821758F480919A0190919B01A0919C0144
:10109000B0919D01189B0BC00EC080919A01909158
:1010A0009B01A0919C01B0919D01189B04C00196E9
:1010B000A11DB11D03C00197A109B10980939A0137
:1010C00090939B01A0939C01B0939D012093A90153
:1010D000BF91AF919F918F912F910F900FBE0F9065
:1010E0001F9018951F920F920FB60F9211242F93F5
:1010F0003F934F938F939F93AF93BF9333B13170CF
:101100003093A60123B120712093A40143B1407212
:101110004093A2018091A701381749F1831758F431
:1011200080919A0190919B01A0919C01B0919D01A9
:101130004F9B0BC00EC080919A0190919B01A09192
:101140009C01B0919D014F9B04C00197A109B10979
:1011500003C00196A11DB11D80939A0190939B013C
:10116000A0939C01B0939D013093A70157C080913B
:10117000A501281749F1821758F480919E0190919A
:101180009F01A091A001B091A1011D9B0BC00EC0B9
:1011900080919E0190919F01A091A001B091A10129
:1011A0001D9B04C00197A109B10903C00196A11DAF
:1011B000B11D80939E0190939F01A093A001B093D5
:1011C000A1012093A5012AC08091A301841758F49E
:1011D00080919E0190919F01A091A001B091A101E9
:1011E0001C9B0BC00EC080919E0190919F01A0910D
:1011F000A001B091A1011C9B04C00196A11DB11DCD
:1012000003C00197A109B10980939E0190939F01AA
:10121000A093A001B093A1014093A301BF91AF910E
:101220009F918F914F913F912F910F900FBE0F90F3
:101230001F9018951F920F920FB60F9211240F90C6
:101240000FBE0F901F901895F8940C94920B505865
:10125000BB27AA270ED070C161D130F066D120F033
:1012600031F49F3F11F41EF456C10EF4E095E7FBF4
:101270004CC1E92F72D180F3BA1762077307840754
:10128000950718F071F49EF58AC10EF4E0950B2EC7
:10129000BA2FA02D0B01B90190010C01CA01A001C8
:1012A0001124FF27591B99F0593F50F4503E68F123
:1012B0001A16F040A22F232F342F4427585FF3CF64
:1012C000469537952795A795F0405395C9F77EF435
:1012D0001F16BA0B620B730B840BBAF09150A1F07E
:1012E000FF0FBB1F661F771F881FC2F70EC0BA0F04
:1012F000621F731F841F48F4879577956795B7958C
:10130000F7959E3F08F0B3CF9395880F08F0992783
:10131000EE0F979587950895D4D008F481E008954D
:101320000CD00AC102D140F0F9D030F021F45F3F77
:1013300019F0EBC0511134C1EEC00FD198F39923CD
:10134000C9F35523B1F3951B550BBB27AA27621789
:101350007307840738F09F5F5F4F220F331F441FCE
:10136000AA1FA9F333D00E2E3AF0E0E830D0915006
:101370005040E695001CCAF729D0FE2F27D0660FF3
:10138000771F881FBB1F261737074807AB07B0E832
:1013900009F0BB0B802DBF01FF2793585F4F2AF048
:1013A0009E3F510568F0B1C0FBC05F3FECF3983E33
:1013B000DCF3869577956795B795F7959F5FC9F7A5
:1013C000880F911D9695879597F90895E1E0660F2E
:1013D000771F881FBB1F621773078407BA0720F0A7
:1013E000621B730B840BBA0BEE1F88F7E095089510
:1013F000BCD088F09F5790F0B92F9927B751A0F033
:10140000D1F0660F771F881F991F1AF0BA95C9F798
:1014100012C0B13081F0C3D0B1E00895C0C0672FD1
:10142000782F8827B85F39F0B93FCCF38695779548
:101430006795B395D9F73EF4909580957095619531
:101440007F4F8F4F9F4F0895E89409C097FB3EF45C
:1014500090958095709561957F4F8F4F9F4F992301
:10146000A9F0F92F96E9BB279395F695879577957F
:101470006795B795F111F8CFFAF4BB0F11F460FF3F
:101480001BC06F5F7F4F8F4F9F4F16C0882311F097
:1014900096E911C0772321F09EE8872F762F05C0AB
:1014A000662371F096E8862F70E060E02AF09A9546
:1014B000660F771F881FDAF7880F9695879597F93B
:1014C0000895990F0008550FAA0BE0E8FEEF1616D5
:1014D0001706E807F907C0F012161306E407F50728
:1014E00098F0621B730B840B950B39F40A2661F09C
:1014F000232B242B252B21F408950A2609F4A1403F
:10150000A6958FEF811D811D089597F99F6780E84B
:1015100070E060E008959FEF80EC089500240A9445
:101520001616170618060906089500240A941216BE
:101530001306140605060895092E0394000C11F4F1
:10154000882352F0BB0F40F4BF2B11F460FF04C09E
:101550006F5F7F4F8F4F9F4F089557FD9058440FF7
:10156000551F59F05F3F71F04795880F97FB991F02
:1015700061F09F3F79F087950895121613061406BF
:10158000551FF2CF4695F1DF08C01616170618064C
:10159000991FF1CF86957105610508940895E89427
:1015A000BB2766277727CB0197F908958ADF08F4D0
:1015B0008FEF08950BD0C0CFB1DF28F0B6DF18F061
:1015C000952309F0A2CFA7CF1124EACFC6DFA0F35D
:1015D000959FD1F3950F50E0551F629FF001729FC8
:1015E000BB27F00DB11D639FAA27F00DB11DAA1FE7
:1015F000649F6627B00DA11D661F829F2227B00D34
:10160000A11D621F739FB00DA11D621F839FA00DBE
:10161000611D221F749F3327A00D611D231F849F0E
:10162000600D211D822F762F6A2F11249F57504065
:101630008AF0E1F088234AF0EE0FFF1FBB1F661F00
:10164000771F881F91505040A9F79E3F510570F0B9
:101650005CCFA6CF5F3FECF3983EDCF386957795A1
:101660006795B795F795E7959F5FC1F7FE2B880FB4
:10167000911D9695879597F90895629FD001739F64
:10168000F001829FE00DF11D649FE00DF11D929F1E
:10169000F00D839FF00D749FF00D659FF00D99275D
:1016A000729FB00DE11DF91F639FB00DE11DF91F81
:1016B000BD01CF0111240895AA1BBB1B51E107C036
:1016C000AA1FBB1FA617B70710F0A61BB70B881FD2
:1016D000991F5A95A9F780959095BC01CD01089561
:1016E000A1E21A2EAA1BBB1BFD010DC0AA1FBB1F26
:1016F000EE1FFF1FA217B307E407F50720F0A21B98
:10170000B30BE40BF50B661F771F881F991F1A9404
:1017100069F760957095809590959B01AC01BD012E
:08172000CF010895F894FFCFFA
:00000001FF
