:100000000C9434000C9451000C9451000C94620038
:100010000C9451000C9453000C9451000C9451001A
:100020000C9451000C9451000C9451000C9451000C
:100030000C9451000C9451000C9451000C945100FC
:100040000C9451000C9451000C9451000C945100EC
:100050000C9451000C9451000C9451000C945100DC
:100060000C9451000C94510011241FBECFEFD4E02A
:10007000DEBFCDBF11E0A0E0B1E0E8EFF3E002C0E9
:1000800005900D92A030B107D9F711E0A0E0B1E0E2
:1000900001C01D92A830B107E1F70E94B2000C9494
:1000A000D5010C9471001F920F920FB60F9211247C
:1000B0004F9B02C02C9A01C02C980F900FBE0F903E
:1000C0001F9018951F920F920FB60F9211241C9B30
:1000D00002C0289A01C028980F900FBE0F901F9061
:1000E00018951F920F920FB60F9211240F900FBE0A
:1000F0000F901F9018950E9461010E946A0188E884
:1001000093E10E941301219A229A08955098519ADE
:1001100057982098249825985F9A289A2C9A2D9A77
:1001200083E00E94980183E00E94A6010E947B0068
:10013000E8E6F0E0808184608083ADE6B0E08C91F9
:1001400080688C93808181608083EBE6F0E0808121
:1001500081608083808180618083808180628083F0
:10016000789408950E94860088EC90E00E947701C0
:1001700088EC90E00E947C01FFCF982F8091810055
:10018000886080938100809181008F7E80938100C0
:10019000993049F480918000826080938000809142
:1001A00080008E7F0EC09A3021F4809180008260A2
:1001B00003C0809180008D7F8093800080918000BB
:1001C00081608093800010928900109288000895C9
:1001D000982F80918100877F80938100809181009A
:1001E0008F7E80938100993049F4809180008260F5
:1001F00080938000809180008E7F0EC09A3021F421
:1002000080918000826003C0809180008D7F809308
:1002100080008091800081608093800010928B002C
:1002200010928A000895E0E8F0E020812E7F20837C
:10023000208122602083E1E8F0E020812860208393
:100240002081206120832FB7F894909387008093BA
:1002500086002FBF109289001092880010928B00A8
:1002600010928A00089584B58F7D84BD84B58F7EF9
:1002700084BD089584B58F7784BD84B58F7B84BD9C
:100280000895E0E8F0E080818F7D808380818F7E1B
:1002900080830895E0E8F0E080818F77808380811B
:1002A0008F7B8083089584B5806284BD84B58F7E02
:1002B00084BD089584B5806884BD84B58F7B84BD7A
:1002C0000895E0E8F0E080818062808380818F7E05
:1002D00080830895E0E8F0E08081806880838081F9
:1002E0008F7B8083089588BD089587BD089590937E
:1002F0008B0080938A0008959093890080938800F2
:1003000008951092040110920501109206011092B6
:10031000070116BC0895109200011092010110927D
:10032000020110920301109285001092840008953A
:1003300085BD81E080936E0010920401109205014A
:10034000109206011092070116BC08958093810057
:1003500081E080936F0010920001109201011092D1
:1003600002011092030110928500109284000895FA
:10037000A0E0B0E024E0880F991FAA1FBB1F2A95B8
:10038000D1F70396A11DB11DBC01CD012AE030E0DB
:1003900040E050E00E94D80180E090E002C0000000
:1003A000019682179307D8F30895F8940C94FA01F4
:1003B000A1E21A2EAA1BBB1BFD010DC0AA1FBB1F69
:1003C000EE1FFF1FA217B307E407F50720F0A21BDB
:1003D000B30BE40BF50B661F771F881F991F1A9448
:1003E00069F760957095809590959B01AC01BD0172
:0803F000CF010895F894FFCF3E
:00000001FF
