:100000000C94E6000C9403010C9403010C9403017E
:100010000C9403010C9403010C9403010C94030150
:100020000C9403010C9403010C9403010C94030140
:100030000C9403010C947A1D0C94A71D0C94991B2D
:100040000C94F31C0C94C7160C94201D0C944D1D9D
:100050000C94591B0C94991C0C94C61C0C94061BF4
:100060000C9403010C9470210C9403010C94CD2288
:100070000C9403010C9487250C9403010C94D41D5B
:100080000C94011E0C942E1E0C945B1E0C94D91B18
:100090000C944B210C9403010C94A8220C94A529D8
:1000A0000C9403010C94881E0C94B51E0C94E21E53
:1000B0000C940F1F0C94191C0C943C1F0C94691F7A
:1000C0000C94961F0C94C31F0C94591C0C9426215D
:1000D0000C9403010C9483220C9401210C940301D1
:1000E0000C945E22084AD73B3BCE016E84BCBFFD18
:1000F000C12F3D6C74319ABD56833DDA3D00C77FF8
:1001000011BED9E4BB4C3E916BAAAABE0000008090
:100110003F44454154480A00204F6D6567613A20CD
:100120000052656365697665642056656C6F636926
:1001300074793A2000636D645F616E676C653A2084
:1001400000636D645F616E676C653A20000A00258C
:10015000640025640A00496E697469616C697A619A
:1001600074696F6E20436F6D706C657465200D0A45
:10017000002E000D0A53797374656D205761726DFE
:1001800065642055700057520A0057520A0000005B
:100190000100080040000001000400000100080008
:1001A000200040008000000100044241445F766569
:1001B00063742063616C6C656421003031323334C8
:1001C00035363738394142434445460011241FBE75
:1001D000CFEFD1E2DEBFCDBF12E0A0E0B2E0E2EFB0
:1001E000FCE502C005900D92A63CB107D9F714E1D9
:1001F000A6ECB2E001C01D92A03CB107E1F70E945D
:10020000A70C0C94D12A0C94F01F893049F48091EA
:100210008000826080938000809180008E7F0EC07D
:100220008A3021F480918000826003C08091800038
:100230008D7F80938000809180008160809380001A
:1002400010928B0010928A000895893049F48091B1
:10025000B00082608093B0008091B0008E7F0EC0AD
:100260008A3021F48091B000826003C08091B00098
:100270008D7F8093B0008091B00081608093B0004A
:100280001092B4000895893049F480919000826002
:1002900080939000809190008E7F0EC08A3021F470
:1002A00080919000826003C0809190008D7F809348
:1002B000900080919000816080939000109299004E
:1002C000109298000895893049F4809191008260DD
:1002D00080939100809191008E7F0EC08A3021F42E
:1002E00080919100826003C0809191008D7F809306
:1002F00091008091910081608093910010929B0009
:1003000010929A000895893049F480919200826099
:1003100080939200809192008E7F0EC08A3021F4EB
:1003200080919200826003C0809192008D7F8093C3
:1003300092008091920081608093920010929D00C3
:1003400010929C000895893049F48091A000826049
:100350008093A0008091A0008E7F0EC08A3021F48F
:100360008091A000826003C08091A0008D7F809367
:10037000A0008091A00081608093A0001092A9004D
:100380001092A8000895893049F48091A1008260FC
:100390008093A1008091A1008E7F0EC08A3021F44D
:1003A0008091A100826003C08091A1008D7F809325
:1003B000A1008091A10081608093A1001092AB0008
:1003C0001092AA000895893049F48091A0008260BB
:1003D0008093A0008091A0008E7F0EC08A3021F40F
:1003E0008091A000826003C08091A0008D7F8093E7
:1003F000A0008091A00081608093A0001092AD00C9
:100400001092AC000895E0E8F0E020812E7F208378
:10041000208122602083E1E8F0E0208128602083B1
:100420002081206120839093870080938600109222
:1004300089001092880010928B0010928A0010920E
:100440008D0010928C000895E0E9F0E020812E7F6D
:100450002083208122602083E1E9F0E02081286070
:1004600020832081206120839093970080939600C1
:10047000109299001092980010929B0010929A008E
:1004800010929D0010929C000895E0EAF0E0208117
:100490002E7F2083208122602083E1EAF0E020810A
:1004A000286020832081206120839093A70080937F
:1004B000A6001092A9001092A8001092AB00109212
:1004C000AA001092AD001092AC000895E0E8F0E0B0
:1004D00080818062808380818F7E80830895E0EBBD
:1004E000F0E080818062808380818F7E80830895A8
:1004F000E0E9F0E080818068808380818F7B808369
:100500000895E0E9F0E080818062808380818F7EC1
:1005100080830895E0E9F0E08081886080838081B5
:100520008B7F80830895E0EAF0E08081806880839B
:1005300080818F7B80830895E0EAF0E08081806293
:10054000808380818F7E80830895E0EAF0E080815F
:100550008860808380818B7F80830895E0E8F0E06D
:1005600080818F7D808380818F7E80830895E0EB02
:10057000F0E080818F7D808380818F7E80830895ED
:10058000E0E9F0E080818F77808380818F7B8083BA
:100590000895E0E9F0E080818F7D808380818F7E07
:1005A00080830895E0E9F0E08081877F8083808107
:1005B0008B7F80830895E0EAF0E080818F778083ED
:1005C00080818F7B80830895E0EAF0E080818F7DD9
:1005D000808380818F7E80830895E0EAF0E08081CF
:1005E000877F808380818B7F80830895E0E8F0E0BF
:1005F00080818D7F808380818E7F808380818F7DCD
:10060000808380818F7E80830895E0EBF0E080819D
:100610008D7F808380818E7F808380818F7D8083AA
:1006200080818F7E80830895E0E9F0E080818D7F76
:10063000808380818E7F808380818F77808380819B
:100640008F7B808380818F7D808380818F7E80837C
:100650008081877F808380818B7F80830895E0EA1B
:10066000F0E080818D7F808380818E7F8083808198
:100670008F77808380818F7B808380818F7D808353
:1006800080818F7E80838081877F808380818B7F44
:100690008083089590938B0080938A0008958093BF
:1006A000B4000895909399008093980008959093D2
:1006B0009B0080939A00089590939D0080939C00E6
:1006C00008959093A9008093A80008959093AB009B
:1006D0008093AA0008959093AD008093AC00089594
:1006E00010BA11BA10920701109208019FEF91B948
:1006F00080E484B997B9589A599A83EF8AB98EEFF2
:100700008DB9A59A9D988093010180930401089565
:1007100008952E9A08952E98089522B330E085E02A
:10072000369527958A95E1F72095309521703070A0
:10073000C901089597FD10C025E030E040E050E089
:100740000E945C2EDA01C901880F991F845D9D4FBC
:10075000FC012081318117C025E030E040E050E00D
:100760000E945C2EDA01C901885B9F4FAF4FBF4FDB
:10077000880F991F845D9D4FFC0180819181222704
:100780003327281B390BC90108956A5570408040F2
:10079000904097FD10C025E030E040E050E00E941E
:1007A0005C2EDA01C901880F991F845D9D4FFC0101
:1007B0002081318117C025E030E040E050E00E9408
:1007C0005C2EDA01C901885B9F4FAF4FBF4F880F86
:1007D000991F845D9D4FFC018081918122273327E1
:1007E000281B390BC9010895CF92DF92EF92FF9237
:1007F0000F931F936B017C018AE5C816D104E104B5
:10080000F104A1F186EAC8168FEFD8068FEFE8064B
:100810008FEFF80659F18EE0C81681E0D80680E027
:10082000E80680E0F80611F182EFC8168EEFD806D0
:100830008FEFE8068FEFF806C9F0C701B6010E94F6
:10084000C5038C01C701B6010E949A03BC01C8010F
:100850000E94272ECB019B0173E0220F331F7A9554
:10086000E1F7880F991F280F391F02C020E030E000
:10087000C9011F910F91FF90EF90DF90CF900895E5
:100880008AE00E9463018AE00E9443018AE00E949C
:10089000A3018AE00E94C3010895982F80538A30F3
:1008A00038F08151863010F0892F0895892F8753B1
:1008B0000895FC019081218142815381892F8053C9
:1008C0008A3010F4982F05C0892F8154863008F49F
:1008D0009753822F80538A3010F4282F05C0822F1F
:1008E0008154863008F42753842F80538A3010F4C3
:1008F000482F05C0842F8154863008F44753852F34
:1009000080538A3010F4582F05C0852F81548630CB
:1009100008F4575330E0892F90E0A4E0880F991F26
:10092000AA95E1F7282B392BF4E0220F331FFA9513
:10093000E1F7842F90E0822B932BE4E0880F991F3E
:10094000EA95E1F7252F30E0282B392BC9010895CE
:10095000FF920F931F93FC0190812181628173812B
:1009600014810581F680E781892F80538A3010F445
:10097000982F05C0892F8154863008F49753822F11
:1009800080538A3010F4282F05C0822F815486307E
:1009900008F42753862F80538A3010F4682F05C03F
:1009A000862F8154863008F46753872F80538A300E
:1009B00010F4782F05C0872F8154863008F47753C0
:1009C000812F80538A3010F4182F05C0812F815455
:1009D000863008F41753802F80538A3010F4082F84
:1009E00005C0802F8154863008F407538F2D805323
:1009F0008A3010F4F82E06C08F2D8154863010F402
:100A000089ECF80E8E2F80538A3010F4E82F05C041
:100A10008E2F8154863008F4E75330E040E050E0F8
:100A2000892F90E0A0E0B0E0F4E0880F991FAA1FA2
:100A3000BB1FFA95D1F7282B392B4A2B5B2BA4E04F
:100A4000220F331F441F551FAA95D1F7862F90E020
:100A5000A0E0B0E0822B932BA42BB52BF4E0880F01
:100A6000991FAA1FBB1FFA95D1F7272F30E040E04E
:100A700050E0282B392B4A2B5B2B64E0220F331FCD
:100A8000441F551F6A95D1F7812F90E0A0E0B0E098
:100A9000822B932BA42BB52B24E0880F991FAA1F20
:100AA000BB1F2A95D1F7202F30E040E050E0282BE3
:100AB000392B4A2B5B2B04E0220F331F441F551F99
:100AC0000A95D1F78F2D90E0A0E0B0E0822B932B18
:100AD000A42BB52B14E0880F991FAA1FBB1F1A95D2
:100AE000D1F72E2F30E040E050E0282B392B4A2B55
:100AF0005B2BB901CA011F910F91FF9008958F3FA1
:100B0000B9F0E091F802F091F90280838091F80247
:100B10009091F90201969093F9028093F802805423
:100B2000944130F080E492E19093F9028093F802CE
:100B3000089580E492E19093FB028093FA029093EF
:100B4000F9028093F8020895EF92FF920F931F939A
:100B50007B018C0120E030E040E152E40E94832DD3
:100B600018165CF40F2EF0E0EF2EF0E0FF2EF0E10F
:100B70000F2FF2E41F2FF02D14C0C801B70120E0A1
:100B800030E040E152EC0E94BA2B882354F40F2E3F
:100B9000F0E0EF2EF0E0FF2EF0E10F2FF2EC1F2F30
:100BA000F02D0FB6F8940F92C801B70128E430E594
:100BB0004CEF5EEB0E948E2D2FE135E449E353E4C8
:100BC0000E94F42A0E94262C70939B0060939A0046
:100BD0000F900FBE1F910F91FF90EF900895EF922D
:100BE000FF920F931F937B018C0120E030E040E1E6
:100BF00052E40E94832D18165CF40F2EF0E0EF2EC5
:100C0000F0E0FF2EF0E10F2FF2E41F2FF02D14C0C3
:100C1000C801B70120E030E040E152EC0E94BA2B5D
:100C2000882354F40F2EF0E0EF2EF0E0FF2EF0E1D9
:100C30000F2FF2EC1F2FF02D0FB6F8940F92C80172
:100C4000B70121E137EC4AE05FEB0E948E2D26EFE1
:100C500038E64CE353E40E94F42A0E94262C709359
:100C60009900609398000F900FBE1F910F91FF9015
:100C7000EF900895982F8A3010F4905D04C08A5048
:100C8000873008F4995C892F0895AF92BF92CF9274
:100C9000DF92EF92FF920F931F936091E0027091A9
:100CA000E1028091E2029091E30220E030E044E32F
:100CB00053E40E948E2D2BED3FE049E450E40E9466
:100CC000BE2B5B016C018091C6029091C7022091FE
:100CD000D3023091D402821B930B62E070E00E9439
:100CE000272E882777FD8095982F0E94592C7B010D
:100CF0008C01C501D6018093401490934114A093B8
:100D00004214B0934314E0924414F09245140093BB
:100D1000461410934714EDCF982F8F3F09F47CC0F1
:100D20008A3021F481E08093140333C0809114034E
:100D3000882391F0963531F481E08093110310926D
:100D4000130307C0943441F481E0809310031092A0
:100D5000120310921403089580911103882359F00F
:100D600080911303E82FF0E0E45FFC4F90838F5FE6
:100D7000809313030EC080911003882351F080915B
:100D80001203E82FF0E0EC5FFC4F90838F5F8093BD
:100D9000120380911303843001F58CE093E00E94EC
:100DA0005904AA2797FDA095BA2FBC01CD010E9436
:100DB000592C20E030E040E85EE30E948E2D0E9436
:100DC000262C7093C7026093C602109211031092F2
:100DD000130381E08093C802089580911203883044
:100DE00051F584E093E00E94A8040E94592C20E071
:100DF00030E040E85EE30E948E2D0E94262C609336
:100E0000C9027093CA028093CB029093CC021092D5
:100E1000100310921203089500D00F9281E0EDB7F5
:100E2000FEB7818386E891E0938382830E94BA278C
:100E30000F900F900F900895982F8F3F09F47CC06A
:100E40008A3021F481E08093250333C0809125030B
:100E5000882391F0963531F481E08093220310923B
:100E6000240307C0943441F481E08093210310925D
:100E7000230310922503089580912203882359F0BB
:100E800080912403E82FF0E0E35EFC4F90838F5FB6
:100E9000809324030EC080912103882351F0809118
:100EA0002303E82FF0E0EB5EFC4F90838F5F80938D
:100EB000230380912403843001F58DE193E00E94A7
:100EC0005904AA2797FDA095BA2FBC01CD010E9415
:100ED000592C20E030E040E85EE30E948E2D0E9415
:100EE000262C7093D4026093D302109222031092A6
:100EF000240381E08093D5020895809123038830F4
:100F000051F585E193E00E94A8040E94592C20E04D
:100F100030E040E85EE30E948E2D0E94262C609314
:100F2000D6027093D7028093D8029093D902109280
:100F3000210310922303089500D00F9281E0EDB7B2
:100F4000FEB781838AE891E0938382830E94BA2767
:100F50000F900F900F9008953F924F925F926F9273
:100F60007F928F929F92AF92BF92CF92DF92EF9239
:100F7000FF920F931F93DF93CF9300D0CDB7DEB7CF
:100F80000F2EF0E0AF2EF0E0BF2EF0E0CF2EF0E01D
:100F9000DF2EF02D33243394B1E44B2EB1E05B2EE1
:100FA0004E010894811C911C0F2EFBEDEF2EFFE0EB
:100FB000FF2EF9EC0F2FFFE31F2FF02DA5E36A2E74
:100FC000A1E07A2EA092EC02B092ED02C092EE0265
:100FD000D092EF0200D00F92EDB7FEB7318253826C
:100FE00042820E94BA270F900F900F904091EC021E
:100FF0005091ED026091EE027091EF0285E00E9447
:10100000F1260E94FA25C40160E177E20E94B01344
:10101000E092EC02F092ED020093EE021093EF02E8
:1010200000D00F92EDB7FEB73182738262820E94C8
:10103000BA270F900F900F904091EC025091ED0263
:101040006091EE027091EF0285E00E94F1260E940D
:10105000FA25C40160E177E20E94B013B3CF0F9389
:101060001F93DF93CF9300D0CDB7DEB78E010F5F14
:101070001F4F2E98C80162E370E00E94B0132E9AB1
:10108000C80162E370E00E94B013F3CF0F931F9387
:10109000DF93CF9300D0CDB7DEB78E010F5F1F4F28
:1010A000109AC80162E370E00E94B0131098C80162
:1010B00062E370E00E94B013F3CFAF92BF92DF9271
:1010C000EF92FF920F931F93DF93CF9300D0CDB792
:1010D000DEB70E94EE195E010894A11CB11C80913C
:1010E000C802882329F48091D502882309F4A4C07A
:1010F0006091D3027091D402709561957F4F2091D9
:10110000C6023091C702621B730B882777FD80955A
:10111000982F0E94592C26E636E646E851E40E94B4
:10112000BE2B6093E4027093E5028093E6029093F5
:10113000E7020E948F197B018C01D6B40E94EE1940
:10114000C801B7012FEF30E040E050E00E94F42DDD
:101150006D0D711D811D911D0E94572C2EE633EAE5
:1011600041E85DE30E948E2D20E030E04AE754E440
:101170000E94BE2B2091E4023091E5024091E602EC
:101180005091E7020E948E2D2091E0023091E10201
:101190004091E2025091E3020E94F42A7B018C010B
:1011A0002BED3FE049E450E40E94F32A2BED3FE0B1
:1011B00049EC50E40E94BE2B0E94942C20E030E0C9
:1011C00040E85FE30E94F42A2BED3FE049EC50EC4D
:1011D0000E948E2D9B01AC01C801B7010E94F42A28
:1011E0006093E0027093E1028093E2029093E30245
:1011F0002091EC023091ED024091EE025091EF020D
:101200000E94F32A20E030E040E050E00E94F42AFF
:1012100020E030E040E85FE30E94672B20E030E010
:1012200040E05FEB0E948E2D6093F0027093F1021C
:101230008093F2029093F302C50162E370E00E9492
:10124000B0134DCFFF920F931F93CF93DF93EB011A
:101250000E94AF203FE0F32EFC2289E08F1518F0AA
:1012600090E3F90E06C08F2D8A50873010F487E383
:10127000F80ECE0124E0959587952A95E1F7082F81
:101280000F700A3010F4005D05C0802F8A5087303F
:1012900008F4095C8D2F992787FD9A95182F1F70E8
:1012A0001A3010F4105D05C0812F8A50873008F481
:1012B000195CC0E1DC02C12DDD0B1124CE018F7061
:1012C000682F8A3010F4605D04C08A50873008F4BB
:1012D000695C862F0E94AF20812F0E94AF20802F53
:1012E0000E94AF208F2D0E94AF208AE00E94AF2085
:1012F000DF91CF911F910F91FF9008957F928F9270
:101300009F92AF92BF92CF92DF92EF92FF920F9394
:101310001F93DF93CF9300D0CDB7DEB78091A000AD
:1013200080628093A0008091A0008F7E8093A000B7
:101330008091A00080688093A0008091A0008F7BA6
:101340008093A0000AE710E06CEC862E912C5E01E1
:101350000894A11CB11C772473945FE4C52E51E05E
:10136000D52E4DE4E42E41E0F42E84E00030180741
:1013700010F000E010E00FB6F8940F921093A9005F
:101380000093A8009092AB008092AA000F900FBE2D
:101390006091BE027091BF02C5010E94B0130E940D
:1013A0006723803719F40F5F1F4F04C08C3611F488
:1013B0000150104000D000D00F92EDB7FEB731962B
:1013C000ADB7BEB711967C92D282C18214830383DB
:1013D0000E94BA270F900F90EDB7FEB77182F3828B
:1013E000E2820E94BA270F5F1F4F0F900F900F905D
:1013F000BCCF1F93CF93DF9311E0C2E5D1E00E94F1
:101400006723803731F48091BE029091BF0201962C
:1014100007C08C3649F48091BE029091BF020197BB
:101420009093BF028093BE0200D000D00F92EDB720
:10143000FEB73196ADB7BEB711961C93D283C18368
:101440008091BE029091BF02948383830E94BA2749
:101450000F900F900F900F900F90D1CF2F923F923F
:101460004F925F926F927F928F929F92AF92BF92B4
:10147000CF92DF92EF92FF920F931F93DF93CF9360
:10148000CDB7DEB762970FB6F894DEBF0FBECDBF03
:1014900080919000806280939000809190008F7E78
:1014A000809390008091900080688093900080915C
:1014B00090008F7B809390000E94051A80E090E05E
:1014C000A0E0B0E08F87988BA98BBA8B8F83988729
:1014D000A987BA87A090E802B090E902C090EA021A
:1014E000D090EB02E090F002F090F1020091F20255
:1014F0001091F302C801B70123E333E343E051EC59
:101500000E948E2D9B01AC01C601B5010E94F42AF8
:101510001B012C01C801B70123E333E343E051E48D
:101520000E948E2D9B01AC01C601B5010E94F42AD8
:101530006B837C838D839E830E94A5191091B200DA
:101540002FEF30E040E050E00E94F42D610F711D5C
:10155000811D911D0E94572C2EE633EA41E85DE380
:101560000E948E2D20E030E04AE754E40E94BE2B1A
:101570003B014C010E94051A1092D5021092C8023C
:101580006091C6027091C702882777FD8095982FD9
:101590000E94592C9B01AC01C201B1010E94F32AA7
:1015A0005B016C016091D3027091D40270956195DA
:1015B0007F4F882777FD8095982F0E94592C9B019B
:1015C000AC016B817C818D819E810E94F32A6B87A7
:1015D0007C878D879E87C601B50122EF3CE546E6F4
:1015E0005DE30E948E2D7B018C016F85788989894E
:1015F0009A8928EB32E44FE05EE30E948E2D9B0136
:10160000AC01C801B7010E94F42A7B018C01C20120
:10161000B10120E030E040E050E00E948E2D9B01BF
:10162000AC01C801B7010E94F42A7B018C01C601FC
:10163000B501A40193010E948E2D9B01AC016F8521
:10164000788989899A890E94F42A6F87788B898B97
:101650009A8B6B857C858D859E85A40193010E9464
:101660008E2D9B01AC016F81788589859A850E94BA
:10167000F42AA62E672E282ED92E0FB6F8940F9294
:10168000C801B70120E030E040E152E40E94832D20
:1016900018165CF40F2EF0E0EF2EF0E0FF2EF0E1D4
:1016A0000F2FF2E41F2FF02D14C0C801B70120E066
:1016B00030E040E152EC0E94BA2B882354F40F2E04
:1016C000F0E0EF2EF0E0FF2EF0E10F2FF2EC1F2FF5
:1016D000F02D0FB6F8940F92C801B70128E430E559
:1016E0004CEF5EEB0E948E2D2FE135E449E353E48D
:1016F0000E94F42A0E94262C70939B0060939A000B
:101700000F900FBE6B857C858D859E8520EB34EB1D
:101710004AE25DE30E948E2D7B018C016F8178850A
:1017200089859A852CE536E540EA5DE30E948E2D99
:101730009B01AC01C801B7010E94F42A7B018C0116
:101740006B817C818D819E8120E030E040E050E023
:101750000E948E2D9B01AC01C801B7010E94F42AA2
:101760007B018C0117FB109517F91095C801B70183
:1017700020E030E040E152E40E94832D18165CF432
:101780000F2EF0E0EF2EF0E0FF2EF0E10F2FF2E44D
:101790001F2FF02D14C0C801B70120E030E040E158
:1017A00052EC0E94BA2B882354F40F2EF0E0EF2E57
:1017B000F0E0FF2EF0E10F2FF2EC1F2FF02D0FB60F
:1017C000F8940F92C801B70121E137EC4AE05FEBD2
:1017D0000E948E2D26EF38E64CE353E40E94F42A53
:1017E0000E94262C70939900609398000F900FBE72
:1017F0000F900FBECE01019661E070E00E94B01321
:101800002A2D362D422D5D2DC901DA015FCE0F93B1
:101810001F93CF93DF930E94522480E040E056E96B
:1018200060E070E00E942C2081E040E052EC61E03A
:1018300070E00E942C2082E040E056E960E070E019
:101840000E942C2083E040E052EC61E070E00E94B6
:101850002C2085EA90E20E9496250E94700380E485
:1018600092E19093FB028093FA029093F9028093A5
:10187000F80282E06CE876E00E94212080E06CE1D2
:1018800077E00E94212083E06FE775E00E9421202D
:101890002E9800D00F9281E0EDB7FEB7818383E7E9
:1018A00091E0938382830E94BA270F900F900F904C
:1018B00085E00E94381A87E00E94581A83E00E944F
:1018C000681A83E00E947A1A83E00E948C1A0E94B0
:1018D0000B2585E00E94302581E00E94372510E02D
:1018E00001E0C1E7D1E0812F0E94802500D00F9256
:1018F000EDB7FEB70183D383C2830E94BA271F5F6F
:101900000F900F900F90103171F72E9A00D00F9218
:10191000EDB7FEB7018386E591E0938382830E9451
:10192000BA270F900F900F900E94EE190E94F8199D
:101930000E94051A0E94101A0E941D1A0E942A1A5B
:101940000E944004DF91CF911F910F910895AF92B3
:10195000BF92CF92DF92EF92FF920F93CF93DF93DC
:101960000E94070C80E090E0A0E0B0E08093E802E5
:101970009093E902A093EA02B093EB028093F00205
:101980009093F102A093F202B093F30286E498E000
:1019900060E072E044E650E020E030E001E0EE2458
:1019A000FF24CC24DD24AA24BB240E949A148FE2B5
:1019B00098E067E072E044E650E020E030E00E940A
:1019C0009A1485E496E06EE072E044EF51E020E086
:1019D00030E00E949A148DE598E067E172E044EFF0
:1019E00051E020E030E00E949A148AE39DE060E23A
:1019F00072E044EF51E020E030E00E949A148EE261
:101A00009AE067E272E044EF51E020E030E00E94AB
:101A10009A140E94BE15C1E1D1E000D00F92EDB73B
:101A2000FEB70183D383C2830E94BA270F900F9021
:101A30000F90F3CF04C08AE090E00E94371AE09143
:101A4000FA02F091FB028091F8029091F902E817F6
:101A5000F90789F32191F093FB02E093FA02E05435
:101A6000F44130F080E492E19093FB028093FA021B
:101A7000822F08952F923F924F925F926F927F92A2
:101A80008F929F92AF92BF92CF92DF92EF92FF928E
:101A90000F931F93DF93CF9300D0CDB7DEB778E1DC
:101AA000272E71E0372E2E010894411C511C0E94F4
:101AB0001A0D8A3F09F07CC00E941A0DE82E0E9480
:101AC0001A0DF82E0E941A0D082F0E941A0D182FB9
:101AD0000E941A0D682E0E941A0D782E0E941A0D6F
:101AE000882E0E941A0D982E0E941A0D8E2D0E948B
:101AF00009268F2D0E940926802F0E940926812FFA
:101B00000E940926862D0E940926872D0E940926FB
:101B1000882D0E940926892D0E940926DE2CCF2CB3
:101B2000B02EA12E8E2D9F2DA02FB12F8093E802D5
:101B30009093E902A093EA02B093EB02862D972DD1
:101B4000A82DB92D8093F0029093F102A093F20298
:101B5000B093F3020E94FA2500D00F9281E0EDB716
:101B6000FEB7818381E291E0938382830E94BA274A
:101B70000F900F900F9085E04D2D5C2D6B2D7A2DE1
:101B80000E94F12600D00F9281E0EDB7FEB781836D
:101B9000338222820E94BA270F900F900F9085E027
:101BA000462D572D682D792D0E94F1260E94FA2589
:101BB000C20161E070E00E94B01379CFFC019C018A
:101BC0002D5F3F4F328321838FEF9FEF9483838379
:101BD000368325833087278310820895FC01118680
:101BE00010860895CF93DF93AC01DB01EC012981CE
:101BF0003A81F9018281938113969C938E93129777
:101C000089819A8115969C938E9314970280F38113
:101C1000E02D75836483E9017B836A83FA01728313
:101C2000618319965C934E93189780818F5F8083B0
:101C3000DF91CF910895CF93DF939C01EB01488111
:101C400059818FEF4F3F580721F4F901A781B085E3
:101C500010C0D901139604C012960D90BC91A02D0E
:101C60001296ED91FC911397808191814817590745
:101C700098F71296ED91FC911397FB83EA83D58335
:101C8000C483BD83AC831396DC93CE9312973987BC
:101C90002887F90180818F5F8083DF91CF9108953C
:101CA000CF93DF93DC011296ED91FC91139714967C
:101CB0008D919C911597958384831496CD91DC9199
:101CC0001597FB83EA831896ED91FC911997818112
:101CD00092818A179B0711F4D283C18319961C92B3
:101CE0001E921897808181508083DF91CF91089553
:101CF000FC010FB6F8940F92828D0F900FBE0895DD
:101D0000FC01828D0895FC01828D90E0882309F406
:101D100091E0892F0895FC01928D20E0838D981722
:101D200009F421E0822F08950F931F938C01FC0189
:101D3000808191810E94ED18C8010E94ED181F91C9
:101D40000F9108950F931F93CF93DF93EC01FB0145
:101D50008A018A8D882381F1488159814115510575
:101D6000A9F08C8D2E813F81280F311D3F832E835A
:101D70008A819B812817390710F05F834E834C8D31
:101D80006E817F81CF0150E00E94D42A8A8D8150DC
:101D90008A8F8D8D8F3F69F48885882361F0CE010D
:101DA00008960E940212882331F081E0F8018083B6
:101DB00003C08F5F8D8F81E0DF91CF911F910F91D5
:101DC0000895CF93DF93EC01842F4C8D4423A1F130
:101DD0008823B1F48C819D8150E00E94D42A8C8D9F
:101DE0002C813D81280F311D3D832C838A819B816D
:101DF0002817390708F1888199819D838C831CC03D
:101E00008E819F8150E00E94D42A8C8D90E04427DF
:101E10005527481B590B8E819F81840F951F9F83E7
:101E20008E83288139818217930730F48A819B81C0
:101E3000840F951F9F838E838A8D8F5F8A8FDF919A
:101E4000CF9108950F931F93CF93DF93EC018A01F5
:101E50009A8D8B8D981710F080E017C0CE01422F1D
:101E60000E94E10E8E8D8F3F69F48989882361F08D
:101E7000CE0141960E940212882331F081E0F801E0
:101E8000808303C08F5F8E8F81E0DF91CF911F91A0
:101E90000F9108950F931F93CF93DF93EC010FB62B
:101EA000F8940F928C010F5E1F4F0DC08989882313
:101EB00069F0C8010E940212882311F00E94FE11ED
:101EC0008E8D81508E8F8E8D181684F38FEF8E8FAE
:101ED0000F900FBE0FB6F8940F928E01085F1F4F40
:101EE0000DC08885882369F0C8010E9402128823EA
:101EF00011F00E94FE118D8D81508D8F8D8D1816E1
:101F000084F38FEF8D8F0F900FBEDF91CF911F91D4
:101F10000F9108957F928F929F92AF92BF92CF922E
:101F2000DF92EF92FF920F931F93DF93CF9300D036
:101F300000D00F92CDB7DEB78C01962E872E5D8331
:101F40004C83722E91E1C92ED12CC00ED11E20E0FF
:101F50007E010894E11CF11C84E0A82EB12CAC0E8B
:101F6000BD1E01C021E00FB6F8940F92F801828DDA
:101F7000882309F43EC0E680F780408151814115F5
:101F80005105B1F0848D9701280F311D37832683C9
:101F9000828193812817390710F057834683F8010F
:101FA000448D66817781892D982D50E00E94D42A36
:101FB000772071F4F801828D8150828F808588238B
:101FC000A1F0C80108960E940212813071F40BC082
:101FD000F801F782E6828189882339F0C6010E94E0
:101FE0000212882311F00E94CA160F900FBE81E0E2
:101FF0004AC08C819D81892B19F40F900FBE42C07D
:10200000222319F4C7010E94B9110F900FBE0E943C
:102010005D110FB6F8940F92F801858D8F3F09F48A
:10202000158EF801868D8F3F09F4168E0F900FBE26
:10203000C701B5010E94C4118823F9F40FB6F894C2
:102040000F92F801828D0F900FBE882381F46C816E
:102050007D81C6010E94BB12C8010E944A0F0E94E6
:10206000F412882309F07ECF0E94CA167BCFC801E4
:102070000E944A0F0E94F41275CFC8010E944A0FB5
:102080000E94F41280E00F900F900F900F900F902D
:10209000CF91DF911F910F91FF90EF90DF90CF9044
:1020A000BF90AF909F908F907F9008957F928F9276
:1020B0009F92AF92BF92CF92DF92EF92FF920F93D7
:1020C0001F93DF93CF9300D000D00F92CDB7DEB730
:1020D0008C016B015D834C83722E48E0E42EF12C61
:1020E000E80EF91E20E05E010894A11CB11C34E04A
:1020F000832E912C8C0E9D1E01C021E00FB6F8940A
:102100000F92F801928D838D9817A8F4C801B6013B
:10211000472D0E94E10EF8018189882341F0C80112
:1021200041960E940212813011F40E94CA160F904B
:102130000FBE81E04CC08C819D81892B19F40F90DA
:102140000FBE44C0222319F4C5010E94B9110F909B
:102150000FBE0E945D110FB6F8940F92F801858DA5
:102160008F3F09F4158EF801868D8F3F09F4168E86
:102170000F900FBEC501B4010E94C411882309F558
:102180000FB6F8940F92F801928D0F900FBEF801E0
:10219000838D981781F46C817D81C7010E94BB12E9
:1021A000C8010E944A0F0E94F412882309F0A5CFAB
:1021B0000E94CA16A2CFC8010E944A0F0E94F412C0
:1021C0009CCFC8010E944A0F0E94F41280E00F9039
:1021D0000F900F900F900F90CF91DF911F910F9163
:1021E000FF90EF90DF90CF90BF90AF909F908F9037
:1021F0007F9008958F929F92AF92BF92CF92DF927D
:10220000EF92FF920F931F93CF93DF93982E862E1A
:10221000882309F442C08FE190E00E94FD188C01F0
:10222000EC010097E1F1C92CDD24A82CBB24AC9C67
:102230007001AD9CF00CBC9CF00C1124C701019600
:102240000E94FD189C0199838883009719F1E80E7C
:10225000F91EFB82EA821A8E9D838C830894C10842
:10226000D108CA9CC001CB9C900DDA9C900D112422
:10227000280F391F3F832E839B8E8C8E8FEF8D8F7F
:102280008E8FC80108960E94DE0DC80141960E94FB
:10229000DE0D05C0C8010E94ED18C0E0D0E0CE01FF
:1022A000DF91CF911F910F91FF90EF90DF90CF9032
:1022B000BF90AF909F908F90089580912C038F5F77
:1022C00080932C0308950FB6F8940F9220912A035F
:1022D00030912B030F900FBEC901089520912A035E
:1022E00030912B03C901089580912F0308958091A7
:1022F0002C03882351F081E0809328030895809176
:102300002D03815080932D0301C099E0E0912D03AE
:10231000E99FF0011124EC5CFC4F8081882379F364
:1023200090912D0389E0989FD0011124AC5CBC4FA3
:102330001196ED91FC9112970280F381E02D129697
:10234000FC93EE931197CD010396E817F90731F44A
:102350008281938112969C938E9311971196ED91A1
:10236000FC9112978681978190932703809326038F
:102370000895FC0180912903808380912A03909124
:102380002B03928381830895FC01DB010FB6F8943F
:102390000F92909129038081981749F020912A0388
:1023A00030912B03818192812817390718F580918C
:1023B0002A0390912B03218132814D915C911197D9
:1023C000821B930B84179507A8F480912A039091A0
:1023D0002B03281B390B240F351F2D933C93809121
:1023E0002903808380912A0390912B039283818318
:1023F00080E001C081E00F900FBE089581E08093DE
:10240000280308950F931F93CF93DF93FC018081DE
:10241000882319F4C0E0D0E005C00580F681E02DE6
:10242000C681D7818E01045F1F4FC8010E94500EE4
:1024300080912C038823A1F48E010E5F1F4FC801E9
:102440000E94500E9E8980912D03891710F490935D
:102450002D0389E0989FC00111248C5C9C4F02C021
:102460008EE693E0B8010E94F20DE0912603F09110
:10247000270320E09E898689981708F021E0822FA3
:10248000DF91CF911F910F910895FF920F931F93AA
:10249000CF93DF9380912C03882309F061C0809152
:1024A0002A0390912B03019690932B0380932A0388
:1024B00080912A0390912B03892BE9F580916A037F
:1024C00090916B0320916C0330916D0330936B03FB
:1024D00020936A0390936D0380936C03809129038A
:1024E0008F5F8093290327C020912A0330912B030B
:1024F0008A819B8128173907C0F18E010E5F1F4F1B
:10250000C8010E94500E8C899D89892B21F0CE0133
:102510000C960E94500E9E8980912D03891710F40D
:1025200090932D039F9DC00111248C5C9C4FB8019A
:102530000E94F20D02C089E0F82EE0916A03F0914A
:102540006B038081882389F0E0916A03F0916B032B
:102550000580F681E02DC681D781209729F605C038
:1025600080912E038F5F80932E03DF91CF911F9177
:102570000F91FF9008950F931F938B016091260395
:1025800070912703645F7F4F0E941B0E809126038A
:102590009091270302960E94500E80912A039091F9
:1025A0002B03800F911FE0912603F0912703938363
:1025B000828320912A0330912B038217930728F4FA
:1025C00080916C0390916D0304C080916A03909197
:1025D0006B0360912603709127036E5F7F4F0E940B
:1025E0001B0E1F910F910895CF92DF92FF920F93D0
:1025F0001F93DF93CF930F92CDB7DEB70FB6F8944A
:102600000F9280912C03815080932C0380912C0396
:10261000882309F05BC080912F03882309F456C0FA
:10262000198299E0F92E27C0C6010C960E94500E1F
:1026300086010E5F1F4FC8010E94500ED6015696AC
:102640009C9180912D03891710F490932D039F9DE9
:10265000C00111248C5C9C4FB8010E94F20DE091E6
:102660002603F0912703D60156969C9186899817E8
:1026700010F0B1E0B98380916E03882349F0E091B6
:102680007303F0917403C680D780C114D10461F63E
:1026900080912E03882341F40CC00E944512809142
:1026A0002E03815080932E0380912E038823A9F757
:1026B00007C0E981E13021F080912803813031F4B5
:1026C000109228030E94CA1681E001C080E00F909A
:1026D0000FBE0F90CF91DF911F910F91FF90DF9070
:1026E000CF9008950F931F939C010097A1F18091C3
:1026F0002C038F5F80932C0300912A0310912B03EE
:10270000020F131F809126039091270302960E94C7
:10271000500EE0912603F0912703138302838091EA
:102720002A0390912B030817190728F480916C0352
:1027300090916D0304C080916A0390916B03609146
:102740002603709127036E5F7F4F0E941B0E0E942D
:10275000F412882311F40E94CA161F910F91089554
:10276000CF93DF93FC01EB0180912C038F5F80936B
:102770002C0320813181C20FD31F80912A039091B5
:102780002B038217930728F4C217D30728F020E001
:102790000CC0C217D30740F080912A0390912B03FD
:1027A00020E08C179D0708F421E0D183C083222309
:1027B00029F1809126039091270302960E94500EE2
:1027C000E0912603F0912703D383C28380912A03EB
:1027D00090912B03C817D90728F480916C0390912E
:1027E0006D0304C080916A0390916B03609126038E
:1027F000709127036E5F7F4F0E941B0E0E94F412A0
:10280000882311F40E94CA16DF91CF910895EF92A8
:10281000FF920F931F93CF93DF938C010FB6F89421
:102820000F9280912603909127030817190719F436
:1028300000E010E003C00115110529F4C091260342
:10284000D091270301C0E80122E0E22EF12CEC0E2A
:10285000FD1EC7010E94500E8C899D89892B21F095
:10286000CE010C960E94500E87E793E0B7010E94BC
:10287000F20D809131038F5F809331038091320399
:102880008F5F809332030F900FBE809130038823B7
:1028900021F0012B11F40E94CA16DF91CF911F91F4
:1028A0000F91FF90EF900895F894109230030E94DA
:1028B0006B1608951F93CF93DF9380913103882384
:1028C00091F180912C038F5F80932C0310917703FB
:1028D0000E94F412112339F10FB6F8940F928091EF
:1028E0007703882319F4C0E0D0E006C0E0917C03B0
:1028F000F0917D03C681D781CE0102960E94500ED1
:1029000080912F03815080932F0380913103815058
:10291000809331030F900FBE8F89988D0E94ED1820
:10292000CE010E94ED1880913403823030F20E9473
:10293000CA16C3CF2F923F925F926F927F928F926F
:102940009F92AF92BF92CF92DF92EF92FF920F933E
:102950001F93DF93CF9300D000D0CDB7DEB79A831B
:1029600089834B015A011901502E370181E290E011
:102970000E94FD188B839C838B819C81892B89F01D
:10298000C114D10421F4C5010E94FD186C01EB8132
:10299000FC81D08EC78AC114D10429F4CF010E94D2
:1029A000ED188FEFD5C0C60165EA70E0A5010E9461
:1029B000DD2A0894A108B108EB81FC81E788F08C3E
:1029C000EA0CFB1CCF014996B40148E050E00E949C
:1029D000E42AEB81FC8110A2052DF3E0F51508F443
:1029E00003E0EB81FC81068B42E0C42ED12CCE0E9D
:1029F000DF1EC6010E94EE0D8B819C810C960E9409
:102A0000EE0D8B819C81FC019187808784E090E0B2
:102A1000801B910995878487F38BE28BC7016981BD
:102A20007A81A1010E94E915EB81FC819183808369
:102A30006114710421F0CF01F301918380830FB6FB
:102A4000F8940F9280912F038F5F80932F038091D2
:102A5000260390912703892BB9F5EB81FC81F09334
:102A60002703E093260380912F038130F1F584E35F
:102A700093E00E94DE0D8DE393E00E94DE0D86E47C
:102A800093E00E94DE0D8FE493E00E94DE0D38E5B6
:102A9000E32E33E0F32EC7010E94DE0D01E613E0C2
:102AA000C8010E94DE0D8EE693E00E94DE0D87E7EE
:102AB00093E00E94DE0DF0926B03E0926A031093A4
:102AC0006D0300936C0311C080913003882369F477
:102AD000E0912603F09127038689581630F08B8108
:102AE0009C819093270380932603EB81FC81968938
:102AF00080913303891710F490933303809132034C
:102B00008F5F80933203EB81FC81968980912D0346
:102B1000891710F490932D03EB81FC81868929E0BD
:102B2000829FC00111248C5C9C4FB6010E94F20D63
:102B30000F900FBE80913003882349F0E091260367
:102B4000F09127038689851510F40E94CA1681E04A
:102B50000F900F900F900F90CF91DF911F910F91D9
:102B6000FF90EF90DF90CF90BF90AF909F908F90AD
:102B70007F906F905F903F902F900895AF92BF929B
:102B8000CF92DF92EF92FF920F938AE594E160EC8F
:102B900072E045E550E020E030E000E0EE24FF2464
:102BA000CC24DD24AA24BB240E949A14813049F449
:102BB000F8948093300310922B0310922A030E9402
:102BC00031160F91FF90EF90DF90CF90BF90AF90B4
:102BD0000895FC0191E1908322E2229383E38293A2
:102BE00062937293129280E88293129282E08293AF
:102BF00083E0829384E0829385E0829386E08293EF
:102C000087E0829388E0829389E0829380E18293D7
:102C1000929382E1829383E1829384E1829385E1BE
:102C2000829386E1829387E1829388E1829389E1AE
:102C3000829380E2829381E28293229383E2829361
:102C40004293529386E2829387E2829388E2829350
:102C500089E2829380E3829381E382933197CF016B
:102C600008951092890089EF809388008BE080930B
:102C70008100EFE6F0E0808182608083A0912603EE
:102C8000B0912703CD91CDBFDD91DEBFFF91EF91D4
:102C9000DF91CF91BF91AF919F918F917F916F9174
:102CA0005F914F913F912F911F910F91FF90EF9066
:102CB000DF90CF90BF90AF909F908F907F906F905C
:102CC0005F904F903F902F901F900F900FBE0F90EE
:102CD000089581E0089508950F920FB6F8940F9229
:102CE0001F9211242F923F924F925F926F927F9288
:102CF0008F929F92AF92BF92CF92DF92EF92FF920C
:102D00000F931F932F933F934F935F936F937F93F3
:102D10008F939F93AF93BF93CF93DF93EF93FF93E3
:102D2000A0912603B09127030DB60D920EB60D9219
:102D30000E9445120E947711A0912603B0912703AB
:102D4000CD91CDBFDD91DEBFFF91EF91DF91CF91AE
:102D5000BF91AF919F918F917F916F915F914F91B3
:102D60003F912F911F910F91FF90EF90DF90CF90A7
:102D7000BF90AF909F908F907F906F905F904F909B
:102D80003F902F901F900F900FBE0F9008950E94BC
:102D90006C1618950F920FB6F8940F921F9211248B
:102DA0002F923F924F925F926F927F928F929F925B
:102DB000AF92BF92CF92DF92EF92FF920F931F9349
:102DC0002F933F934F935F936F937F938F939F9333
:102DD000AF93BF93CF93DF93EF93FF93A09126031D
:102DE000B09127030DB60D920EB60D920E94771189
:102DF000A0912603B0912703CD91CDBFDD91DEBF19
:102E0000FF91EF91DF91CF91BF91AF919F918F9102
:102E10007F916F915F914F913F912F911F910F91F2
:102E2000FF90EF90DF90CF90BF90AF909F908F90EA
:102E30007F906F905F904F903F902F901F900F90DA
:102E40000FBE0F9008950F931F93CF93DF93FC0154
:102E50008081882319F4C0E0D0E005C00580F681A8
:102E6000E02DC681D7818E01045F1F4FC8010E94EB
:102E7000500E81EB93E0B8010E94F20D20E0E0914A
:102E80008003F09181039E898689981708F021E0DC
:102E9000822FDF91CF911F910F910895FF920F9391
:102EA0001F93CF93DF9399E0F92E28C0F894809177
:102EB000B103882319F4C0E0D0E006C0E091B60366
:102EC000F091B703C681D781CE010C960E94500EB7
:102ED00078948E010E5F1F4FC8010E94500E9E898C
:102EE00080918203891710F4909382039F9DC00103
:102EF000112487579C4FB8010E94F20D8091B103B5
:102F00008823A1F60E9463112091830330918403EA
:102F1000821B930B909386038093850389E0F82EA0
:102F200054C00196909388038093870321503040CA
:102F30003093860320938503892BC9F52091AD0337
:102F40003091AE038091AF039091B0039093AE03A4
:102F50008093AD033093B0032093AF0328C020913A
:102F60008703309188038A819B812817390768F18C
:102F7000F8948E010E5F1F4FC8010E94500E8C897D
:102F80009D89892B21F0CE010C960E94500E7894D9
:102F90009E8980918203891710F4909382039F9DEC
:102FA000C001112487579C4FB8010E94F20DE09197
:102FB000AD03F091AE038081882339F00580F6815E
:102FC000E02DC681D781209751F62091850330915D
:102FD000860380918703909188032115310509F0BC
:102FE000A0CF90938403809383039091820329E080
:102FF00006C0992319F41092820332C09150929F17
:10300000D0011124A757BC4F8C91882391F3909342
:1030100082031196ED91FC9112970280F381E02DCD
:103020001296FC93EE931197CD010396E817F907DA
:1030300031F48281938112969C938E93119711960D
:10304000ED91FC9112970680F781E02DF0938103BA
:10305000E093800320813181CF016789F9010995CF
:10306000DF91CF911F910F91FF9008950F931F93C0
:10307000CF93DF93EB010091870310918803080F32
:10308000191F809180039091810302960E94500E37
:10309000E0918003F0918103138302838091870381
:1030A00090918803BF016E5F7F4F0817190728F4BE
:1030B0008091AF039091B00304C08091AD039091D3
:1030C000AE030E941B0E209749F06091800370911F
:1030D0008103645F7F4FCE010E941B0EDF91CF9171
:1030E0001F910F910895AF92BF92CF92DF92EF920E
:1030F000FF920F931F93CF93DF936C01B62EA42EF4
:103100008AE190E00E94FD18EC01009711F48FEF26
:1031100059C08091800390918103892B21F5D09330
:103120008103C093800389E893E00E94DE0D82E969
:1031300093E00E94DE0D2BE9E22E23E0F22EC70180
:103140000E94DE0D04EA13E0C8010E94DE0D81EB4F
:1031500093E00E94DE0DF092AE03E092AD03109377
:10316000B0030093AF03EB2CBB2011F0EE24E394EB
:10317000198E188EEE8AAF8AFE01C192D1928F010C
:10318000CF010E94EE0DCE010C960E94EE0DD98764
:10319000C887DB8BCA8B84E090E08E1991099D87EC
:1031A0008C879E8980918203891710F49093820303
:1031B00089E0989FC001112487579C4FB8010E9455
:1031C000F20D81E0DF91CF911F910F91FF90EF9071
:1031D000DF90CF90BF90AF90089508951092BB03F9
:1031E0001092BA03089528EB3BE08091BA039091C6
:1031F000BB03281B390BC90108950F931F93CF936D
:10320000DF938C010E945D118091BA039091BB0302
:103210009801280F391F4BE0283B340758F48217D8
:10322000930740F4EC01C454DC4F3093BB0320936C
:10323000BA0302C0C0E0D0E00E94F412CE01DF91D8
:10324000CF911F910F910895E82FF0E0E770F07093
:10325000EE0FFF1FE257FE4F25913491C9010895EB
:10326000E82FF0E0E770F070EE0FFF1FE656FE4F1C
:1032700025913491C901089585B5E82FF0E0E770F4
:10328000F070EE0FFF1FE257FE4F25913491C901F8
:10329000089580918100E82FF0E0E770F070EE0F64
:1032A000FF1FE257FE4F25913491C9010895809187
:1032B000B100E82FF0E0E770F070EE0FFF1FE65668
:1032C000FE4F25913491C901089580919100E82F16
:1032D000F0E0E770F070EE0FFF1FE257FE4F259110
:1032E0003491C90108958091A100E82FF0E0E770C2
:1032F000F070EE0FFF1FE257FE4F25913491C90188
:10330000089580912101E82FF0E0E770F070EE0F52
:10331000FF1FE257FE4F25913491C9010895209176
:103320005B1430915C1440915D1450915E14B901AE
:10333000CA0108952091571430915814409159149E
:1033400050915A14B901CA01089520915F14309127
:1033500060144091611450916214B901CA0108953A
:1033600020916714309168144091691450916A1447
:10337000B901CA0108952091531430915414409119
:10338000551450915614B901CA01089520916B1437
:1033900030916C1440916D1450916E14B901CA01B2
:1033A000089586B508952091840030918500C90163
:1033B00008958091B2000895209194003091950075
:1033C000C90108952091A4003091A500C901089574
:1033D0002091240130912501C901089510925B14B8
:1033E00010925C1410925D1410925E1416BC089535
:1033F00010925714109258141092591410925A1493
:103400001092850010928400089510925F1410921B
:10341000601410926114109262141092B200089518
:1034200010926714109268141092691410926A1422
:1034300010929500109294000895109253141092D7
:10344000541410925514109256141092A500109214
:10345000A400089510926B1410926C1410926D14C5
:1034600010926E141092250110922401089508956F
:1034700085BD81E080936E0010925B1410925C1405
:1034800010925D1410925E1416BC08958093810012
:1034900081E080936F00109257141092581410928C
:1034A000591410925A1410928500109284000895B5
:1034B0008093B10081E08093700010925F141092AD
:1034C000601410926114109262141092B200089568
:1034D0008093910081E080937100109267141092A4
:1034E00068141092691410926A1410929500109248
:1034F000940008958093A10081E08093720010925F
:103500005314109254141092551410925614109291
:10351000A5001092A40008958093210181E080937A
:10352000730010926B1410926C1410926D14109220
:103530006E1410922501109224010895E82FF0E0F6
:10354000EE0FFF1FEC58F04F718360830895E82F52
:10355000F0E0EE0FFF1FEC58F04F1182108208953B
:103560000197F1F70895AF92BF92CF92DF92EF9259
:10357000FF920F931F93A0E0B0E0BC01CD010E9429
:10358000572C5B016C0120E030E04AE755E40E94D3
:103590008E2D7B018C0120E030E040E85FE30E944B
:1035A000BA2B88231CF461E070E024C0C801B70185
:1035B00020E03FEF4FE757E40E94832D1816B4F444
:1035C000C601B50120E030E040E251E40E948E2DBA
:1035D0000E942B2C80E991E005C0FC013197F1F7A6
:1035E0006150704061157105C1F707C0C801B7018E
:1035F0000E942B2CCB010197F1F71F910F91FF90A7
:10360000EF90DF90CF90BF90AF9008951F920F92F0
:103610000FB60F9211242F933F934F935F936F93A5
:103620007F938F939F93AF93BF93EF93FF9380917B
:103630005B1490915C14A0915D14B0915E1401969E
:10364000A11DB11D80935B1490935C14A0935D1435
:10365000B0935E148091631490916414A0916514EA
:10366000B09166140196A11DB11D809363149093CF
:103670006414A0936514B09366148091780F9091B0
:10368000790F892B29F0E091780FF091790F099546
:10369000FF91EF91BF91AF919F918F917F916F912A
:1036A0005F914F913F912F910F900FBE0F901F9000
:1036B00018951F920F920FB60F9211242F933F93DC
:1036C0004F935F936F937F938F939F93AF93BF932A
:1036D000EF93FF938091571490915814A09159142F
:1036E000B0915A140196A11DB11D80935714909367
:1036F0005814A0935914B0935A148091820F90914A
:10370000830F892B29F0E091820FF091830F0995A7
:10371000FF91EF91BF91AF919F918F917F916F91A9
:103720005F914F913F912F910F900FBE0F901F907F
:1037300018951F920F920FB60F9211242F933F935B
:103740004F935F936F937F938F939F93AF93BF93A9
:10375000EF93FF9380915F1490916014A091611496
:10376000B09162140196A11DB11D80935F149093D6
:103770006014A0936114B09362148091880F9091AB
:10378000890F892B29F0E091880FF091890F099515
:10379000FF91EF91BF91AF919F918F917F916F9129
:1037A0005F914F913F912F910F900FBE0F901F90FF
:1037B00018951F920F920FB60F9211242F933F93DB
:1037C0004F935F936F937F938F939F93AF93BF9329
:1037D000EF93FF938091671490916814A0916914FE
:1037E000B0916A140196A11DB11D80936714909346
:1037F0006814A0936914B0936A148091920F909109
:10380000930F892B29F0E091920FF091930F099576
:10381000FF91EF91BF91AF919F918F917F916F91A8
:103820005F914F913F912F910F900FBE0F901F907E
:1038300018951F920F920FB60F9211242F933F935A
:103840004F935F936F937F938F939F93AF93BF93A8
:10385000EF93FF938091531490915414A0915514B9
:10386000B09156140196A11DB11D809353149093ED
:103870005414A0935514B093561480919C0F9091BA
:103880009D0F892B29F0E0919C0FF0919D0F0995D8
:10389000FF91EF91BF91AF919F918F917F916F9128
:1038A0005F914F913F912F910F900FBE0F901F90FE
:1038B00018951F920F920FB60F9211242F933F93DA
:1038C0004F935F936F937F938F939F93AF93BF9328
:1038D000EF93FF9380916B1490916C14A0916D14F1
:1038E000B0916E140196A11DB11D80936B1490933D
:1038F0006C14A0936D14B0936E148091A60F9091E8
:10390000A70F892B29F0E091A60FF091A70F099539
:10391000FF91EF91BF91AF919F918F917F916F91A7
:103920005F914F913F912F910F900FBE0F901F907D
:1039300018951F920F920FB60F9211242F933F9359
:103940004F935F936F937F938F939F93AF93BF93A7
:10395000EF93FF938091740F9091750F892B29F04D
:10396000E091740FF091750F0995FF91EF91BF9160
:10397000AF919F918F917F916F915F914F913F9107
:103980002F910F900FBE0F901F9018951F920F92BE
:103990000FB60F9211242F933F934F935F936F9322
:1039A0007F938F939F93AF93BF93EF93FF938091F8
:1039B000760F9091770F892B29F0E091760FF09197
:1039C000770F0995FF91EF91BF91AF919F918F91E3
:1039D0007F916F915F914F913F912F910F900FBE0B
:1039E0000F901F9018951F920F920FB60F921124EF
:1039F0002F933F934F935F936F937F938F939F93F7
:103A0000AF93BF93EF93FF9380917A0F90917B0FC9
:103A1000892B29F0E0917A0FF0917B0F0995FF91A6
:103A2000EF91BF91AF919F918F917F916F915F9136
:103A30004F913F912F910F900FBE0F901F901895AF
:103A40001F920F920FB60F9211242F933F934F9313
:103A50005F936F937F938F939F93AF93BF93EF93F6
:103A6000FF9380917E0F90917F0F892B29F0E09139
:103A70007E0FF0917F0F0995FF91EF91BF91AF916C
:103A80009F918F917F916F915F914F913F912F9176
:103A90000F900FBE0F901F9018951F920F920FB6A8
:103AA0000F9211242F933F934F935F936F937F93C4
:103AB0008F939F93AF93BF93EF93FF938091800F6A
:103AC0009091810F892B29F0E091800FF091810F67
:103AD0000995FF91EF91BF91AF919F918F917F9148
:103AE0006F915F914F913F912F910F900FBE0F906B
:103AF0001F9018951F920F920FB60F9211242F93BB
:103B00003F934F935F936F937F938F939F93AF9365
:103B1000BF93EF93FF938091840F9091850F892B32
:103B200029F0E091840FF091850F0995FF91EF91B5
:103B3000BF91AF919F918F917F916F915F914F91C5
:103B40003F912F910F900FBE0F901F9018951F92CD
:103B50000F920FB60F9211242F933F934F935F93C1
:103B60006F937F938F939F93AF93BF93EF93FF9345
:103B70008091860F9091870F892B29F0E091860F15
:103B8000F091870F0995FF91EF91BF91AF919F91B0
:103B90008F917F916F915F914F913F912F910F90F6
:103BA0000FBE0F901F9018951F920F920FB60F9295
:103BB00011242F933F934F935F936F937F938F9332
:103BC0009F93AF93BF93EF93FF9380918A0F909150
:103BD0008B0F892B29F0E0918A0FF0918B0F0995BB
:103BE000FF91EF91BF91AF919F918F917F916F91D5
:103BF0005F914F913F912F910F900FBE0F901F90AB
:103C000018951F920F920FB60F9211242F933F9386
:103C10004F935F936F937F938F939F93AF93BF93D4
:103C2000EF93FF9380918C0F90918D0F892B29F04A
:103C3000E0918C0FF0918D0F0995FF91EF91BF915D
:103C4000AF919F918F917F916F915F914F913F9134
:103C50002F910F900FBE0F901F9018951F920F92EB
:103C60000FB60F9211242F933F934F935F936F934F
:103C70007F938F939F93AF93BF93EF93FF93809125
:103C80008E0F90918F0F892B29F0E0918E0FF0917C
:103C90008F0F0995FF91EF91BF91AF919F918F91F8
:103CA0007F916F915F914F913F912F910F900FBE38
:103CB0000F901F9018951F920F920FB60F9211241C
:103CC0002F933F934F935F936F937F938F939F9324
:103CD000AF93BF93EF93FF938091900F9091910FCB
:103CE000892B29F0E091900FF091910F0995FF91A8
:103CF000EF91BF91AF919F918F917F916F915F9164
:103D00004F913F912F910F900FBE0F901F901895DC
:103D10001F920F920FB60F9211242F933F934F9340
:103D20005F936F937F938F939F93AF93BF93EF9323
:103D3000FF938091940F9091950F892B29F0E0913A
:103D4000940FF091950F0995FF91EF91BF91AF916D
:103D50009F918F917F916F915F914F913F912F91A3
:103D60000F900FBE0F901F9018951F920F920FB6D5
:103D70000F9211242F933F934F935F936F937F93F1
:103D80008F939F93AF93BF93EF93FF938091960F81
:103D90009091970F892B29F0E091960FF091970F52
:103DA0000995FF91EF91BF91AF919F918F917F9175
:103DB0006F915F914F913F912F910F900FBE0F9098
:103DC0001F9018951F920F920FB60F9211242F93E8
:103DD0003F934F935F936F937F938F939F93AF9393
:103DE000BF93EF93FF938091980F9091990F892B38
:103DF00029F0E091980FF091990F0995FF91EF91BB
:103E0000BF91AF919F918F917F916F915F914F91F2
:103E10003F912F910F900FBE0F901F9018951F92FA
:103E20000F920FB60F9211242F933F934F935F93EE
:103E30006F937F938F939F93AF93BF93EF93FF9372
:103E400080919A0F90919B0F892B29F0E0919A0F06
:103E5000F0919B0F0995FF91EF91BF91AF919F91C9
:103E60008F917F916F915F914F913F912F910F9023
:103E70000FBE0F901F9018951F920F920FB60F92C2
:103E800011242F933F934F935F936F937F938F935F
:103E90009F93AF93BF93EF93FF9380919E0F909169
:103EA0009F0F892B29F0E0919E0FF0919F0F0995AC
:103EB000FF91EF91BF91AF919F918F917F916F9102
:103EC0005F914F913F912F910F900FBE0F901F90D8
:103ED00018951F920F920FB60F9211242F933F93B4
:103EE0004F935F936F937F938F939F93AF93BF9302
:103EF000EF93FF938091A00F9091A10F892B29F050
:103F0000E091A00FF091A10F0995FF91EF91BF9162
:103F1000AF919F918F917F916F915F914F913F9161
:103F20002F910F900FBE0F901F9018951F920F9218
:103F30000FB60F9211242F933F934F935F936F937C
:103F40007F938F939F93AF93BF93EF93FF93809152
:103F5000A20F9091A30F892B29F0E091A20FF0916D
:103F6000A30F0995FF91EF91BF91AF919F918F9111
:103F70007F916F915F914F913F912F910F900FBE65
:103F80000F901F9018951F920F920FB60F92112449
:103F90002F933F934F935F936F937F938F939F9351
:103FA000AF93BF93EF93FF938091A40F9091A50FD0
:103FB000892B29F0E091A40FF091A50F0995FF91AD
:103FC000EF91BF91AF919F918F917F916F915F9191
:103FD0004F913F912F910F900FBE0F901F9018950A
:103FE0001F920F920FB60F9211242F933F934F936E
:103FF0005F936F937F938F939F93AF93BF93EF9351
:10400000FF9300D00F9281E0EDB7FEB781838AEA7B
:1040100091E0938382830E94BA270F900F900F90B4
:10402000FF91EF91BF91AF919F918F917F916F9190
:104030005F914F913F912F910F900FBE0F901F9066
:104040001895843040F4E82FF0E0EE0FFF1FE851A0
:10405000FE4E7183608308951F93182F9A01AB0160
:10406000CA01B90160587B47814E9F4FF3E0660F4C
:10407000771F881F991FFA95D1F7E4E0220F331FAD
:10408000441F551FEA95D1F70E943A2E2150304027
:10409000133029F4209334013093350112C01230CB
:1040A00029F42093D4003093D5000BC0113029F4AB
:1040B0002093CC003093CD0004C02093C4003093F3
:1040C000C5001F910895282F30E0A3E0220F331F71
:1040D000AA95E1F72D583B4EC9010895282F30E0ED
:1040E000B3E0220F331FBA95E1F729563B4EC901C1
:1040F0000895E82F833039F48091300185FFFCCF9B
:104100006093360118C0823039F48091D00085FF69
:10411000FCCF6093D6000FC0813039F48091C80085
:1041200085FFFCCF6093CE0006C08091C00085FF64
:10413000FCCF6093C600F0E0E159FB4E1082089579
:10414000682F80E00E9479200895682F81E00E9406
:1041500079200895682F82E00E9479200895682FC1
:1041600083E00E947920089520E0E82FF0E083E0CA
:10417000EE0FFF1F8A95E1F7E958FB4E8081918190
:10418000892B09F421E0822F0895CF93DF938330A8
:1041900019F4609136010CC0823019F46091D60098
:1041A00007C0813019F46091CE0002C06091C60052
:1041B000282F30E0E901CC0FDD1FFE01E851FE4E53
:1041C00080819181892B31F00190F081E02D862F43
:1041D000099514C093E0220F331F9A95E1F7C901A6
:1041E0008D589B4E0E94D124882341F4FE01E9544E
:1041F000FB4E80819181019691838083DF91CF91E5
:1042000008951F920F920FB60F9211242F933F9390
:104210004F935F936F937F938F939F93AF93BF93CE
:10422000EF93FF9383E00E94C520FF91EF91BF9130
:10423000AF919F918F917F916F915F914F913F913E
:104240002F910F900FBE0F901F9018951F920F92F5
:104250000FB60F9211242F933F934F935F936F9359
:104260007F938F939F93AF93BF93EF93FF9382E0DE
:104270000E94C520FF91EF91BF91AF919F918F91C7
:104280007F916F915F914F913F912F910F900FBE52
:104290000F901F9018951F920F920FB60F92112436
:1042A0002F933F934F935F936F937F938F939F933E
:1042B000AF93BF93EF93FF9381E00E94C520FF91DE
:1042C000EF91BF91AF919F918F917F916F915F918E
:1042D0004F913F912F910F900FBE0F901F90189507
:1042E0001F920F920FB60F9211242F933F934F936B
:1042F0005F936F937F938F939F93AF93BF93EF934E
:10430000FF9380E00E94C520FF91EF91BF91AF9194
:104310009F918F917F916F915F914F913F912F91DD
:104320000F900FBE0F901F9018958F929F92AF9293
:10433000BF92CF92DF92EF92FF920F931F93CF9392
:10434000DF93882EDB01C82EDD24F60113E0EE0F8B
:10435000FF1F1A95E1F7E556FB4E20813181240FAE
:10436000351FF60173E0EE0FFF1F7A95E1F7E75670
:10437000FB4E808191812817390770F54115510551
:1043800059F19C90760163E0EE0CFF1C6A95E1F711
:1043900087E994E1E80EF91E8D01C0E0D0E05A01F2
:1043A0000894A108B10806C0C701F80160810E9405
:1043B000D12421960F5F1F4FCA15DB05A8F383E9AF
:1043C00094E1C80ED91E8FEFF6018083882D692DE8
:1043D0000E9479208FEF01C080E0DF91CF911F9183
:1043E0000F91FF90EF90DF90CF90BF90AF909F9094
:1043F0008F90089590E023E0880F991F2A95E1F7A8
:1044000089569B4E0E94D1240895682F8FEA94E12B
:104410000E94D1240895682F87EA94E10E94D12454
:104420000895682F8FE994E10E94D1240895682FA0
:1044300087E994E10E94D1240895CF93DF93282F38
:10444000A82FB0E0ED01CD56DB4E8881882379F1AD
:10445000FD0133E0EE0FFF1F3A95E1F7E556FB4E05
:1044600080819181892B11F1233039F48FEA94E115
:104470000E946824809336011EC0223039F487EAF6
:1044800094E10E9468248093D60015C0213039F44D
:104490008FE994E10E9468248093CE000CC087E9E4
:1044A00094E10E9468248093C60005C01882A15937
:1044B000BB4E8FEF8C93DF91CF9108951F920F9297
:1044C0000FB60F9211242F933F934F935F936F93E7
:1044D0007F938F939F93AF93BF93EF93FF9383E06B
:1044E0000E941D22FF91EF91BF91AF919F918F91FB
:1044F0007F916F915F914F913F912F910F900FBEE0
:104500000F901F9018951F920F920FB60F921124C3
:104510002F933F934F935F936F937F938F939F93CB
:10452000AF93BF93EF93FF9382E00E941D22FF9110
:10453000EF91BF91AF919F918F917F916F915F911B
:104540004F913F912F910F900FBE0F901F90189594
:104550001F920F920FB60F9211242F933F934F93F8
:104560005F936F937F938F939F93AF93BF93EF93DB
:10457000FF9381E00E941D22FF91EF91BF91AF91C7
:104580009F918F917F916F915F914F913F912F916B
:104590000F900FBE0F901F9018951F920F920FB69D
:1045A0000F9211242F933F934F935F936F937F93B9
:1045B0008F939F93AF93BF93EF93FF9380E00E94FD
:1045C0001D22FF91EF91BF91AF919F918F917F91AC
:1045D0006F915F914F913F912F910F900FBE0F9070
:1045E0001F9018951F93182F90E0FC01ED56FB4E7D
:1045F0002FEF208343E0880F991F4A95E1F78956F2
:104600009B4E0E946824682F812F0E9479201F9161
:104610000895CF93DF93EB01282F30E0F90173E089
:10462000EE0FFF1F7A95E1F7EB58FB4E80819181E9
:10463000892BC9F0F90163E0EE0FFF1F6A95E1F7DE
:10464000E958FB4E80819181892B69F053E0220F5C
:10465000331F5A95E1F7C9018D589B4E0E9468247B
:1046600088838FEF01C080E0DF91CF910895DF93C1
:10467000CF930F92CDB7DEB783E0BE016F5F7F4F60
:104680000E940923882319F42FEF3FEF03C089818B
:10469000282F30E0C9010F90CF91DF910895DF936B
:1046A000CF930F92CDB7DEB782E0BE016F5F7F4F31
:1046B0000E940923882319F42FEF3FEF03C089815B
:1046C000282F30E0C9010F90CF91DF910895DF933B
:1046D000CF930F92CDB7DEB781E0BE016F5F7F4F02
:1046E0000E940923882319F42FEF3FEF03C089812B
:1046F000282F30E0C9010F90CF91DF910895DF930B
:10470000CF930F92CDB7DEB780E0BE016F5F7F4FD2
:104710000E940923882319F42FEF3FEF03C08981FA
:10472000282F30E0C9010F90CF91DF91089590E0DC
:10473000E3E0880F991FEA95E1F78D589B4E0E94A0
:10474000042508958BE894E168E571E140E850E0C4
:104750000E945B248FEA94E168ED71E140E150E052
:104760000E945B2408950E94A2231092EF111092E0
:10477000EE1188ED8093310183E040E855E260E07E
:1047800070E00E942C208FEF809372141092961488
:104790001092BE141092BD147894089583E894E1A9
:1047A00068EC70E140E850E00E945B2487EA94E105
:1047B00068E471E140E150E00E945B2408950E94AA
:1047C000CE231092ED111092EC1188ED8093D10060
:1047D00082E040E855E260E070E00E942C208FEF1C
:1047E00080937114109295141092BC141092BB1403
:1047F000789408958BE794E168E370E140E850E035
:104800000E945B248FE994E168EB70E140E150E0A5
:104810000E945B2408950E94FA231092EB111092DB
:10482000EA1188ED8093C90081E040E855E260E03C
:1048300070E00E942C208FEF8093701410929414DB
:104840001092BA141092B9147894089583E794E101
:1048500068EA7FE040E850E00E945B2487E994E149
:1048600068E270E140E150E00E945B2408950E94FC
:1048700026241092E9111092E81188ED8093C1006E
:1048800080E040E855E260E070E00E942C208FEF6D
:1048900080936F14109293141092B8141092B7145E
:1048A000789408950E9437240E940B240E94DF23ED
:1048B0000E94B3230895FC018FB7F894718360833D
:1048C0005383428317821682158214828FBF089504
:1048D000DC014FB7F89414968D919C911597892B14
:1048E00011F4E0E025C016968D919C911797ED91FB
:1048F000FC911197E80FF91FE081019617969C93A0
:104900008E93169712962D913C91139782179307C9
:1049100030F0821B930B17969C938E9316971496E8
:104920008D919C911597019715969C938E93149752
:104930004FBF8E2F0895FC014FB7F8948481958165
:1049400068177907B0F486819781860F971F978340
:104950008683228133818217930720F0821B930B79
:104960009783868384819581861B970B95838483A7
:1049700002C0158214824FBF0895FC01CB012FB7EE
:10498000F8942FBF2681378162817381820F931F34
:104990000E94132E0190F081E02DE80FF91F808115
:1049A00008951F93CF93DF93EC01162F4FB7F89420
:1049B0002C813D816A817B812617370798F48E818F
:1049C0009F81820F931F0E94132EE881F981E80FC7
:1049D000F91F10838C819D8101969D838C834FBF2D
:1049E0008FEF02C04FBF80E0DF91CF911F910895FC
:1049F000FC018FB7F8948FBF228133818481958128
:104A0000281B390BC9010895FC018FB7F894158252
:104A100014828FBF0895AAE7B0E08C9180688C93D0
:104A20008C918F7D8C938C91887F86608C93ECE742
:104A3000F0E080818F738064808380818F7D8083AC
:104A40008C9188608C931092BF1478940895EAE753
:104A5000F0E08081877F808380818F7780830895D5
:104A6000EAE7F0E09081987F982B90830895ECE737
:104A7000F0E090818295880F880F807C9F73982B3F
:104A800090830895ECE7F0E090818F71907E892B00
:104A900080830895EAE7F0E08081806180838081EF
:104AA00080648083089580917A0080740895982F9F
:104AB0001092BF14883020F080917B00886003C082
:104AC00080917B00877F80937B0080917C00977032
:104AD000887F892B80937C0080917A00806180930D
:104AE0007A0080917A00806480937A0080917A00C5
:104AF00086FDFCCF2091780030917900C90108959E
:104B00000E945725969587959695879508951F92AB
:104B10000F920FB60F9211248F938FEF8093BF14D3
:104B20008F910F900FBE0F901F9018959093F111D9
:104B30008093F01108951F93182F8A3031F4E0917B
:104B4000F011F091F1118DE00995E091F011F091E3
:104B5000F111812F09951F910895CF93DF93EC01F7
:104B6000009721F406C021960E949B258881882306
:104B7000D1F7DF91CF910895EF92FF920F931F939A
:104B8000CF93DF938C017A010097E9F020E030E0C9
:104B90002617370738F4F80181918F012F5F3F4FB7
:104BA0008823B1F7C0E0D0E00BC0F80180818823F2
:104BB00019F00F5F1F4F01C080E20E949B252196D4
:104BC000CE15DF0590F3DF91CF911F910F91FF90EC
:104BD000EF900895CF93DF93EC01009719F407C08D
:104BE0000E949B25FE01219684918823C9F7DF91BD
:104BF000CF9108958AE00E949B250895E82FF0E068
:104C0000EF70F070E554FE4FE4918E2F0E949B25CB
:104C100008951F93182F82958F700E94FE25812F73
:104C20000E94FE251F9108951F93182F892F0E941F
:104C30000926812F0E9409261F910895EF92FF9265
:104C40000F931F937B018C01C801AA27BB270E94E9
:104C50001426C7010E9414261F910F91FF90EF9018
:104C600008952F923F924F925F926F927F928F9210
:104C70009F92AF92BF92CF92DF92EF92FF920F93EB
:104C80001F93DF93CF93CDB7DEB7A3970FB6F894FA
:104C9000DEBF0FBECDBF6AA3242E2BA33701480170
:104CA000442351F017FF08C0EE24FF248701E618C3
:104CB000F7080809190902C0840173012AA12150CB
:104CC00090E0211091E0291B29A318A2A82EBB2453
:104CD000CC24DD24C801B701A60195010E943A2E1B
:104CE000FB01EF70F070E554FE4F64916F8FC801C7
:104CF000B701A60195010E943A2EC901DA017C0193
:104D00008D019EE1492E512C4C0E5D1E39A025C00F
:104D1000E114F10401051105C9F0C801B701A601AC
:104D200095010E943A2EFB01EF70F070E554FE4FA2
:104D30006491F2016083C801B701A60195010E9448
:104D40003A2EC901DA017C018D0103C02BA1F201C9
:104D500020833A940894410851083320C9F6CE01C3
:104D60004F968C01E9A10E1B11092220F1F097FE4C
:104D700005C08DE2F80182938F0117C0C801019729
:104D8000611471048104910419F08C018BE202C05A
:104D90008C0180E2F801808308C0F80181918F01C5
:104DA0000E949B25FAA1F150FAA32AA12223A9F778
:104DB000A3960FB6F894DEBF0FBECDBFCF91DF91A3
:104DC0001F910F91FF90EF90DF90CF90BF90AF9029
:104DD0009F908F907F906F905F904F903F902F901B
:104DE00008954F925F926F927F928F929F92AF92AF
:104DF000BF92CF92DF92EF92FF920F931F93CF93C8
:104E0000DF93482E5A016B01CB01BA0120E030E05C
:104E100040E050E00E94832D18161CF43501460135
:104E200006C03501460197FA909497F890940F2E9A
:104E3000F0E0EF2EF0E0FF2EF0E80F2FFFE31F2F42
:104E4000F02D5524C401B301A80197010E94BE2B87
:104E500020E030E040E251E40E94BA2B87FD0EC012
:104E6000C801B70120E030E040E251E40E948E2DFD
:104E70007B018C0153948FE0581621F7C601B501D0
:104E800020E030E040E050E00E94BA2B882314F488
:104E90008DE201C08BE20E949B25DD24AA2456C02E
:104EA000C401B301A80197010E94BE2B0E942B2CC4
:104EB000B62ED62ACD2DD0E0CC24DD24C801B701F2
:104EC00020E030E040E85FE30E94BA2B882319F429
:104ED00021E0C22ED12CCC29DD29CD2B39F08B2D10
:104EE000805D0E949B25DD24DA9404C080E20E944C
:104EF0009B25DD24C801B70120E030E040E85FE3F6
:104F00000E94BA2B882319F48EE20E949B256B2DF8
:104F100070E0882777FD8095982F0E94592CA80172
:104F200097010E948E2D9B01AC01C401B3010E9428
:104F3000F32A3B014C01C801B70120E030E040E218
:104F400051E40E94BE2B7B018C01A394A41408F4AD
:104F5000A7CFDF91CF911F910F91FF90EF90DF903E
:104F6000CF90BF90AF909F908F907F906F905F9009
:104F70004F9008957F928F929F92AF92BF92CF925F
:104F8000DF92EF92FF920F931F93DF93CF93CDB7F2
:104F9000DEB77888C988DA8863E1E62EF12CEC0E5A
:104FA000FD1E14C0882381F480E090E0CF91DF9152
:104FB0001F910F91FF90EF90DF90CF90BF90AF9037
:104FC0009F908F907F9008950E949B2596012F5F60
:104FD0003F4F772021F0F6016901849103C0F6016B
:104FE000808169018532F1F62F5F3F4F772021F0F4
:104FF000F6016901849103C0F6018081690184365C
:1050000029F0883781F08336F9F606C000E117E20F
:105010005AE0A52EB12C0CC0F701808122E030E0CF
:10502000E20EF31ED1CF00E010E140E1A42EB12C3E
:1050300032E0832E912C8E0C9F1CF701E080F180D2
:105040008436B1F4F7FE11C0F094E194F108F394C2
:105050008DE20E949B2509C0C8016AE070E00E94B1
:10506000132E8B016230710518F0E016F106A0F3E3
:10507000C701B8010E94132E862F0E94FE25C7018A
:10508000B8010E94132E7C01C801B5010E94132EA5
:105090008B016115710561F7740198CF2091B900FA
:1050A0002E7F2093B9002091B9002D7F2093B90065
:1050B0009C0140E050E060E87EE380E090E00E94E8
:1050C0005C2E203130F0822F90E0409795958795A7
:1050D000282F2093B8000895589A599A109239129F
:1050E0001092381210923B1210923A1284E690E01D
:1050F0000E944E28ECEBF0E0808184608083109267
:10510000F2118081816080838081806480837894C3
:10511000089590E0611191E08E7F982B9093BA00F2
:1051200008959093391280933812089590933B120A
:1051300080933A120895ECEBF0E080818F70806AE2
:1051400080830895ECEBF0E080818F70806D808328
:1051500008958091BC0087FFFCCF08958093BB0029
:10516000ECEBF0E080818F70806880830895882365
:1051700029F08091BC008F70806C04C08091BC00CD
:105180008F7080688093BC0008958091BB00089563
:105190008091B9000895982F8091F2118823E1F74A
:1051A00082E08093F2119E7F9093F311A4EFB1E11E
:1051B000FA0102C081918D938E2F841B8617D0F344
:1051C00010921412609315128091BC008F70806A47
:1051D0008093BC000895982F8091F2118823E1F705
:1051E00083E08093F21191609093F3111092361244
:1051F000609337128091BC008F70806A8093BC00EE
:105200008091F2118823E1F7A6E1B2E1FA0102C030
:105210008D9181938E2F841B8617D0F30895982F3C
:10522000FA018091BC008E7F8093BC008091BC000D
:105230008F70806A8093BC008091BC0087FFFCCF98
:105240009E7F9093BB008091BC008F70806880939C
:10525000BC008091BC0087FFFCCF8091B9008831F1
:1052600089F091E012C080818093BB008091BC00E6
:105270008F7080688093BC008091BC0087FFFCCF5A
:1052800031966150662379F790E08091BC008F7071
:10529000806D8093BC008091BC0084FFFCCF809126
:1052A000BC0081608093BC00892F0895982FFA017B
:1052B0008091BC008E7F8093BC008091BC008F7079
:1052C000806A8093BC008091BC0087FFFCCF916016
:1052D0009093BB008091BC008F7080688093BC006D
:1052E0008091BC0087FFFCCF8091B900803481F0B1
:1052F00091E01EC08091BC008F70806C8093BC00D8
:105300008091BC0087FFFCCF8091BB0081936150EE
:10531000623080F78091BC008F7080688093BC0001
:105320008091BC0087FFFCCF8091BB00808390E020
:105330008091BC008F70806D8093BC008091BC0018
:1053400081608093BC00892F08951F920F920FB641
:105350000F9211242F933F934F935F936F937F93FB
:105360008F939F93AF93BF93EF93FF938091B90077
:10537000887F803609F4A0C0813670F5883209F440
:105380005FC0893298F4803109F457C0813138F414
:10539000882309F4EAC0883009F0EFC04EC0883194
:1053A00009F44EC0803209F0E8C0DFC0803409F44F
:1053B00077C0813438F4803309F4D7C0883309F0DA
:1053C000DCC05DC0803509F45FC0883509F44AC08F
:1053D000883409F0D2C0C9C0883909F4BAC0893903
:1053E000B0F4883709F468C0893738F4883609F48E
:1053F00063C0803709F0C1C05FC0883809F4A9C014
:10540000803909F45FC0803809F0B7C05BC0803BC9
:1054100009F479C0813B38F4803A09F462C0883AD3
:1054200009F0ABC070C0803C09F49AC0883C09F414
:1054300097C0883B09F0A1C077C08091F3110FC0DD
:105440009091141280911512981708F08EC0E92FD0
:10545000F0E0EC50FE4E80819F5F90931412809399
:10546000BB0077C0809136129091BB00E82FF0E02E
:10547000EA5EFD4E90838F5F8093361276C08091F6
:10548000BC008F70806875C0809136129091BB000F
:10549000E82FF0E0EA5EFD4E90838F5F8093361236
:1054A0002091361230E08091371290E00197281752
:1054B00039070CF04EC048C085E08093F21110927D
:1054C000361242C0809136129091BB00E82FF0E076
:1054D000EA5EFD4E90838F5F809336128032C8F56E
:1054E00033C08091BC008F70806C8093BC00E091D1
:1054F0003812F09139123097F1F18091361266E14D
:1055000072E1099538C084E08093F211E0913A127B
:10551000F0913B12309731F080E264EF71E1099530
:10552000809315121092141290911412E92FF0E04A
:10553000EC50FE4E80818093BB009F5F90931412CD
:1055400080911512981728F48091BC008F70806CA0
:1055500004C08091BC008F7080688093BC000DC037
:105560008091BC008F70806C04C08091BC008F70F3
:10557000806D8093BC001092F211FF91EF91BF916A
:10558000AF919F918F917F916F915F914F913F91DB
:105590002F910F900FBE0F901F9018958091F211D0
:1055A0000895F8940C94772EFB01DC0102C0019061
:1055B0000D9241505040D8F70895DC0101C06D9321
:1055C00041505040E0F70895FB01DC01415050404C
:1055D00048F001900D920020C9F701C01D92415082
:1055E0005040E0F708955058BB27AA270ED03AC282
:1055F0002BD230F030D220F031F49F3F11F41EF462
:10560000FBC10EF4E095E7FBC6C1E92F3CD280F365
:10561000BA17620773078407950718F071F49EF5AF
:105620006BC20EF4E0950B2EBA2FA02D0B01B90121
:1056300090010C01CA01A0011124FF27591B99F008
:10564000593F50F4503E68F11A16F040A22F232F14
:10565000342F4427585FF3CF469537952795A79564
:10566000F0405395C9F77EF41F16BA0B620B730B0B
:10567000840BBAF09150A1F0FF0FBB1F661F771F7C
:10568000881FC2F70EC0BA0F621F731F841F48F431
:10569000879577956795B795F7959E3F08F0B3CFB7
:1056A0009395880F08F09927EE0F979587950895A1
:1056B000CBD158F080E891E009F49EEFCCD128F0EE
:1056C00040E851E059F45EEF09C096C115C2E92FD8
:1056D000E078D9D168F3092E052AC1F326173707D8
:1056E0004807590738F00E2E07F8E02569F0E02545
:1056F000E0640AC0EF6307F8009407FADB01B90120
:105700009D01DC01CA01AD01EF9347D0ABD10AD0B6
:105710005F91552331F02BED3FE049E450FD49EC1A
:1057200063CF0895DF93DD27B92FBF7740E85FE3AC
:105730001616170648075B0710F4D92FE8D19F9378
:105740008F937F936F934DD2E4EEF0E058D18AD1DE
:105750002F913F914F915F91EDD1DD2349F090580A
:10576000A2EA2AED3FE049EC5FE3D0785D274DDF08
:10577000DF9178C1ECD008F481E008950CD072C1BB
:105780006AD140F061D130F021F45F3F19F003C1DC
:105790005111B3C131C177D198F39923C9F355237E
:1057A000B1F3951B550BBB27AA2762177307840714
:1057B00038F09F5F5F4F220F331F441FAA1FA9F3CA
:1057C00033D00E2E3AF0E0E830D091505040E695BC
:1057D000001CCAF729D0FE2F27D0660F771F881F1D
:1057E000BB1F261737074807AB07B0E809F0BB0B0C
:1057F000802DBF01FF2793585F4F2AF09E3F510530
:1058000068F0C9C07AC15F3FECF3983EDCF386953F
:1058100077956795B795F7959F5FC9F7880F911DA5
:105820009695879597F90895E1E0660F771F881F91
:10583000BB1F621773078407BA0720F0621B730B44
:10584000840BBA0BEE1F88F7E095089504D0689496
:10585000B11153C108951FD188F09F5790F0B92F0F
:105860009927B751A0F0D1F0660F771F881F991FB5
:105870001AF0BA95C9F712C0B13081F03DD1B1E04C
:1058800008953AC1672F782F8827B85F39F0B93F5C
:10589000CCF3869577956795B395D9F73EF49095B7
:1058A0008095709561957F4F8F4F9F4F0895E89435
:1058B00009C097FB3EF490958095709561957F4F58
:1058C0008F4F9F4F9923A9F0F92F96E9BB27939506
:1058D000F695879577956795B795F111F8CFFAF416
:1058E000BB0F11F460FF1BC06F5F7F4F8F4F9F4F47
:1058F00016C0882311F096E911C0772321F09EE8A5
:10590000872F762F05C0662371F096E8862F70E00A
:1059100060E02AF09A95660F771F881FDAF7880FE4
:105920009695879597F90895D0D080F09F3740F4E9
:1059300091110EF0E2C060E070E080E89FEB089506
:1059400026F41B16611D711D811D2BC045C0990FCA
:105950000008550FAA0BE0E8FEEF16161706E80739
:10596000F907C0F012161306E407F50798F0621B5A
:10597000730B840B950B39F40A2661F0232B242B2F
:10598000252B21F408950A2609F4A140A6958FEF4E
:10599000811D811D089597F99F6780E870E060E0A0
:1059A0000895882371F4772321F09850872B762F60
:1059B00007C0662311F499270DC09051862B70E023
:1059C00060E02AF09A95660F771F881FDAF7880F34
:1059D0009695879597F908959F3F49F0915028F43F
:1059E000869577956795B7959F5F80389F4F880F0D
:1059F0009695879597F908959FEF80EC0895DF932A
:105A0000CF931F930F93FF92EF92DF927B018C0154
:105A1000689405C0DA2EEF018DD0FE01E894A591BF
:105A20002591359145915591AEF3EF01EEDDFE01E3
:105A30009701A801DA9479F7DF90EF90FF900F912A
:105A40001F91CF91DF91089500240A94161617062E
:105A500018060906089500240A941216130614065F
:105A600005060895092E0394000C11F4882352F0C2
:105A7000BB0F40F4BF2B11F460FF04C06F5F7F4F7A
:105A80008F4F9F4F089557FD9058440F551F59F061
:105A90005F3F71F04795880F97FB991F61F09F3F1B
:105AA00079F087950895121613061406551FF2CF44
:105AB0004695F1DF08C0161617061806991FF1CF94
:105AC00086957105610508940895E5DFA0F0BEE7AD
:105AD000B91788F4BB279F3860F41616B11D672FDD
