:100000000C94D8000C94F5000C94F5000C94F500B9
:100010000C94F5000C94F5000C94F5000C94F5008C
:100020000C94F5000C94F5000C94F5000C94F5007C
:100030000C94F5000C94531D0C94801D0C94721BB1
:100040000C94CC1C0C94A0160C94F91C0C94261D3A
:100050000C94321B0C94721C0C949F1C0C94DF1A91
:100060000C94F5000C9449210C94F5000C94A622F4
:100070000C94F5000C9460250C94F5000C94AD1DC7
:100080000C94DA1D0C94071E0C94341E0C94B21BB5
:100090000C9424210C94F5000C9481220C947E295C
:1000A0000C94F5000C94611E0C948E1E0C94BB1ED7
:1000B0000C94E81E0C94F21B0C94151F0C94421F18
:1000C0000C946F1F0C949C1F0C94321C0C94FF20FA
:1000D0000C94F5000C945C220C94DA200C94F5003E
:1000E0000C943722084AD73B3BCE016E84BCBFFD3F
:1000F000C12F3D6C74319ABD56833DDA3D00C77FF8
:1001000011BED9E4BB4C3E916BAAAABE0000008090
:100110003F44454154480A00636D645F616E676CFB
:10012000653A2000636D645F616E676C653A20001C
:100130000A0025640025640A00496E697469616CCF
:10014000697A6174696F6E20436F6D706C65746558
:10015000200D0A002E000D0A53797374656D205727
:1001600061726D65642055700057520A0057520A3B
:100170000000000100080040000001000400000130
:1001800000080020004000800000010004424144BB
:100190005F766563742063616C6C65642100303147
:1001A000323334353637383941424344454600000E
:1001B00011241FBECFEFD1E2DEBFCDBF12E0A0E021
:1001C000B2E0E4EAFCE502C005900D92AE3BB10757
:1001D000D9F716E1AEEBB2E001C01D92A13CB10728
:1001E000E1F70E94420D0C94AA2A0C94C91F893091
:1001F00049F480918000826080938000809180002B
:100200008E7F0EC08A3021F480918000826003C00E
:10021000809180008D7F809380008091800081603C
:100220008093800010928B0010928A00089589308C
:1002300049F48091B00082608093B0008091B0005A
:100240008E7F0EC08A3021F48091B000826003C09E
:100250008091B0008D7F8093B0008091B00081606C
:100260008093B0001092B4000895893049F48091D1
:100270009000826080939000809190008E7F0EC0ED
:100280008A3021F480919000826003C080919000B8
:100290008D7F80939000809190008160809390008A
:1002A00010929900109298000895893049F4809135
:1002B0009100826080939100809191008E7F0EC0AA
:1002C0008A3021F480919100826003C08091910076
:1002D0008D7F809391008091910081608093910047
:1002E00010929B0010929A000895893049F48091F1
:1002F0009200826080939200809192008E7F0EC067
:100300008A3021F480919200826003C08091920033
:100310008D7F809392008091920081608093920003
:1003200010929D0010929C000895893049F48091AC
:10033000A00082608093A0008091A0008E7F0EC0FC
:100340008A3021F48091A000826003C08091A000D7
:100350008D7F8093A0008091A00081608093A00099
:100360001092A9001092A8000895893049F4809154
:10037000A10082608093A1008091A1008E7F0EC0B9
:100380008A3021F48091A100826003C08091A10095
:100390008D7F8093A1008091A10081608093A10056
:1003A0001092AB001092AA000895893049F4809110
:1003B000A00082608093A0008091A0008E7F0EC07C
:1003C0008A3021F48091A000826003C08091A00057
:1003D0008D7F8093A0008091A00081608093A00019
:1003E0001092AD001092AC000895E0E8F0E020819A
:1003F0002E7F2083208122602083E1E8F0E02081AD
:10040000286020832081206120839093870080933F
:100410008600109289001092880010928B00109232
:100420008A0010928D0010928C000895E0E9F0E0AF
:1004300020812E7F2083208122602083E1E9F0E06B
:100440002081286020832081206120839093970061
:1004500080939600109299001092980010929B0041
:1004600010929A0010929D0010929C000895E0EA6C
:10047000F0E020812E7F2083208122602083E1EA2A
:10048000F0E02081286020832081206120839093E8
:10049000A7008093A6001092A9001092A8001092C5
:1004A000AB001092AA001092AD001092AC0008951B
:1004B000E0E8F0E080818062808380818F7E8083AD
:1004C0000895E0EBF0E080818062808380818F7E00
:1004D00080830895E0E9F0E08081806880838081F6
:1004E0008F7B80830895E0E9F0E0808180628083E3
:1004F00080818F7E80830895E0E9F0E080818860CC
:10050000808380818B7F80830895E0EAF0E08081A2
:100510008068808380818F7B80830895E0EAF0E0AB
:1005200080818062808380818F7E80830895E0EA6D
:10053000F0E080818860808380818B7F8083089554
:10054000E0E8F0E080818F7D808380818F7E8083F2
:100550000895E0EBF0E080818F7D808380818F7E45
:1005600080830895E0E9F0E080818F778083808147
:100570008F7B80830895E0E9F0E080818F7D808328
:1005800080818F7E80830895E0E9F0E08081877F1D
:10059000808380818B7F80830895E0EAF0E0808112
:1005A0008F77808380818F7B80830895E0EAF0E0FD
:1005B00080818F7D808380818F7E80830895E0EAB3
:1005C000F0E08081877F808380818B7F80830895A6
:1005D000E0E8F0E080818D7F808380818E7F808362
:1005E00080818F7D808380818F7E80830895E0EB82
:1005F000F0E080818D7F808380818E7F8083808109
:100600008F7D808380818F7E80830895E0E9F0E094
:1006100080818D7F808380818E7F808380818F77B2
:10062000808380818F7B808380818F7D80838081A8
:100630008F7E80838081877F808380818B7F808392
:100640000895E0EAF0E080818D7F808380818E7F55
:10065000808380818F77808380818F7B808380817E
:100660008F7D808380818F7E80838081877F808360
:1006700080818B7F8083089590938B0080938A0084
:1006800008958093B4000895909399008093980002
:10069000089590939B0080939A00089590939D00F5
:1006A00080939C0008959093A9008093A8000895DA
:1006B0009093AB008093AA0008959093AD0080932F
:1006C000AC00089510BA11BA1092070110920801F7
:1006D0009FEF91B980E484B997B9589A599A83EFFA
:1006E0008AB98EEF8DB9A59A9D9880930101809368
:1006F0000401089508952E9A08952E98089522B31E
:1007000030E085E0369527958A95E1F7209530957C
:1007100021703070C901089597FD10C025E030E0C8
:1007200040E050E00E94352EDA01C901880F991F80
:100730008B5D9D4FFC012081318117C025E030E0A9
:1007400040E050E00E94352EDA01C901885B9F4FDE
:10075000AF4FBF4F880F991F8B5D9D4FFC0180816C
:10076000918122273327281B390BC90108956A5527
:1007700070408040904097FD10C025E030E040E0A0
:1007800050E00E94352EDA01C901880F991F8B5D58
:100790009D4FFC012081318117C025E030E040E011
:1007A00050E00E94352EDA01C901885B9F4FAF4FA0
:1007B000BF4F880F991F8B5D9D4FFC0180819181F8
:1007C00022273327281B390BC9010895CF92DF92C6
:1007D000EF92FF920F931F936B017C018AE5C8167D
:1007E000D104E104F104A1F186EAC8168FEFD8061E
:1007F0008FEFE8068FEFF80659F18EE0C81681E01A
:10080000D80680E0E80680E0F80611F182EFC8160D
:100810008EEFD8068FEFE8068FEFF806C9F0C70114
:10082000B6010E94B7038C01C701B6010E948C0378
:10083000BC01C8010E94002ECB019B0173E0220F76
:10084000331F7A95E1F7880F991F280F391F02C0CF
:1008500020E030E0C9011F910F91FF90EF90DF90F1
:10086000CF9008958AE00E9455018AE00E943501E8
:100870008AE00E9495018AE00E94B5010895982FB0
:1008800080538A3038F08151863010F0892F0895D6
:10089000892F87530895FC019081218142815381E2
:1008A000892F80538A3010F4982F05C0892F8154E6
:1008B000863008F49753822F80538A3010F4282F03
:1008C00005C0822F8154863008F42753842F80532B
:1008D0008A3010F4482F05C0842F8154863008F4E4
:1008E0004753852F80538A3010F4582F05C0852F29
:1008F0008154863008F4575330E0892F90E0A4E00B
:10090000880F991FAA95E1F7282B392BF4E0220FC5
:10091000331FFA95E1F7842F90E0822B932BE4E0CC
:10092000880F991FEA95E1F7252F30E0282B392B06
:10093000C9010895FF920F931F93FC0190812181BB
:100940006281738114810581F680E781892F80534C
:100950008A3010F4982F05C0892F8154863008F40E
:100960009753822F80538A3010F4282F05C0822F8E
:100970008154863008F42753862F80538A3010F430
:10098000682F05C0862F8154863008F46753872F5F
:1009900080538A3010F4782F05C0872F8154863019
:1009A00008F47753812F80538A3010F4182F05C034
:1009B000812F8154863008F41753802F80538A305A
:1009C00010F4082F05C0802F8154863008F4075397
:1009D0008F2D80538A3010F4F82E06C08F2D81544D
:1009E000863010F489ECF80E8E2F80538A3010F484
:1009F000E82F05C08E2F8154863008F4E75330E08D
:100A000040E050E0892F90E0A0E0B0E0F4E0880FF3
:100A1000991FAA1FBB1FFA95D1F7282B392B4A2BF8
:100A20005B2BA4E0220F331F441F551FAA95D1F75B
:100A3000862F90E0A0E0B0E0822B932BA42BB52B67
:100A4000F4E0880F991FAA1FBB1FFA95D1F7272F33
:100A500030E040E050E0282B392B4A2B5B2B64E040
:100A6000220F331F441F551F6A95D1F7812F90E045
:100A7000A0E0B0E0822B932BA42BB52B24E0880FB1
:100A8000991FAA1FBB1F2A95D1F7202F30E040E005
:100A900050E0282B392B4A2B5B2B04E0220F331F0D
:100AA000441F551F0A95D1F78F2D90E0A0E0B0E0CC
:100AB000822B932BA42BB52B14E0880F991FAA1F10
:100AC000BB1F1A95D1F72E2F30E040E050E0282BC5
:100AD000392B4A2B5B2BB901CA011F910F91FF9053
:100AE00008952091F0023091F102F901E05BFD4E92
:100AF00080832F5F3F4F3093F1022093F00220500C
:100B0000344021F41092F1021092F0020895809185
:100B1000F2029091F30201969093F3028093F20215
:100B20008050944021F41092F3021092F202E0916E
:100B3000F202F091F302E15BFD4E80810895EF92A5
:100B4000FF920F931F937B018C0120E030E040E186
:100B500052E40E945C2D18165CF40F2EF0E0EF2E8C
:100B6000F0E0FF2EF0E10F2FF2E41F2FF02D14C064
:100B7000C801B70120E030E040E152EC0E94932B25
:100B8000882354F40F2EF0E0EF2EF0E0FF2EF0E17A
:100B90000F2FF2EC1F2FF02D0FB6F8940F92C80113
:100BA000B70128E430E54CEF5EEB0E94672D2FE1A2
:100BB00035E449E353E40E94CD2A0E94FF2B709351
:100BC0009B0060939A000F900FBE1F910F91FF90B2
:100BD000EF900895EF92FF920F931F937B018C018A
:100BE00020E030E040E152E40E945C2D18165CF4F5
:100BF0000F2EF0E0EF2EF0E0FF2EF0E10F2FF2E4E9
:100C00001F2FF02D14C0C801B70120E030E040E1F3
:100C100052EC0E94932B882354F40F2EF0E0EF2E19
:100C2000F0E0FF2EF0E10F2FF2EC1F2FF02D0FB6AA
:100C3000F8940F92C801B70121E137EC4AE05FEB6D
:100C40000E94672D26EF38E64CE353E40E94CD2A3C
:100C50000E94FF2B70939900609398000F900FBE35
:100C60001F910F91FF90EF900895982F8A3010F404
:100C7000905D04C08A50873008F4995C892F0895EC
:100C8000AF92BF92CF92DF92EF92FF920F931F939A
:100C90006091D8027091D9028091DA029091DB02C2
:100CA00020E030E044E353E40E94672D2BED3FE069
:100CB00049E450E40E94972B5B016C018091BE02D5
:100CC0009091BF022091CB023091CC02821B930BFA
:100CD00062E070E00E94002E882777FD8095982FB3
:100CE0000E94322C7B018C01C501D60180934112F8
:100CF00090934212A0934312B0934412E092451293
:100D0000F09246120093471210934812EDCF1F93B2
:100D1000CF93DF9311E0C5E3D1E00E9440238037F9
:100D200031F48091B7029091B802019607C08C36D9
:100D300049F48091B7029091B80201979093B8025C
:100D40008093B70200D000D00F92EDB7FEB7319676
:100D5000ADB7BEB711961C93D283C1838091B70201
:100D60009091B802948383830E9493270F900F90F1
:100D70000F900F900F90D1CF982F8F3F09F47CC028
:100D80008A3021F481E08093150333C080911503EC
:100D9000882391F0963531F481E08093120310920C
:100DA000140307C0943441F481E08093110310923E
:100DB000130310921503089580911203882359F0AC
:100DC00080911403E82FF0E0E35FFC4F90838F5F86
:100DD000809314030EC080911103882351F08091F9
:100DE0001303E82FF0E0EB5FFC4F90838F5F80935D
:100DF000130380911403843001F58DE093E00E9489
:100E00004B04AA2797FDA095BA2FBC01CD010E94E3
:100E1000322C20E030E040E85EE30E94672D0E9423
:100E2000FF2B7093BF026093BE02109212031092C8
:100E3000140381E08093C0020895809113038830E9
:100E400051F585E093E00E949A040E94322C20E044
:100E500030E040E85EE30E94672D0E94FF2B609324
:100E6000C1027093C2028093C3029093C402109295
:100E7000110310921303089500D00F9281E0EDB793
:100E8000FEB7818389E691E0938382830E94932752
:100E90000F900F900F900895982F8F3F09F47CC00A
:100EA0008A3021F481E08093260333C080912603A9
:100EB000882391F0963531F481E0809323031092DA
:100EC000250307C0943441F481E0809322031092FB
:100ED000240310922603089580912303882359F058
:100EE00080912503E82FF0E0E25EFC4F90838F5F56
:100EF000809325030EC080912203882351F08091B6
:100F00002403E82FF0E0EA5EFC4F90838F5F80932C
:100F1000240380912503843001F58EE193E00E9443
:100F20004B04AA2797FDA095BA2FBC01CD010E94C2
:100F3000322C20E030E040E85EE30E94672D0E9402
:100F4000FF2B7093CC026093CB021092230310927C
:100F5000250381E08093CD02089580912403883099
:100F600051F586E193E00E949A040E94322C20E021
:100F700030E040E85EE30E94672D0E94FF2B609303
:100F8000CE027093CF028093D0029093D102109240
:100F9000220310922403089500D00F9281E0EDB750
:100FA000FEB781838DE691E0938382830E9493272D
:100FB0000F900F900F9008953F924F925F926F9213
:100FC0007F928F929F92AF92BF92CF92DF92EF92D9
:100FD000FF920F931F93DF93CF9300D0CDB7DEB76F
:100FE0000F2EF0E0AF2EF0E0BF2EF0E0CF2EF0E0BD
:100FF000DF2EF02D33243394B4E24B2EB1E05B2E80
:101000004E010894811C911C0F2EFBEDEF2EFFE08A
:10101000FF2EF9EC0F2FFFE31F2FF02DA8E16A2E12
:10102000A1E07A2EA092E402B092E502C092E6021C
:10103000D092E70200D00F92EDB7FEB73182538213
:1010400042820E9493270F900F900F904091E402EC
:101050005091E5026091E6027091E70285E00E94FE
:10106000CA260E94D325C40160E177E20E94891359
:10107000E092E402F092E5020093E6021093E702A8
:1010800000D00F92EDB7FEB73182738262820E9468
:1010900093270F900F900F904091E4025091E5023A
:1010A0006091E6027091E70285E00E94CA260E94E4
:1010B000D325C40160E177E20E948913B3CF7F9208
:1010C0008F929F92AF92BF92CF92DF92EF92FF9258
:1010D0000F931F93DF93CF9300D0CDB7DEB78091EE
:1010E000A00080628093A0008091A0008F7E8093FA
:1010F000A0008091A00080688093A0008091A00053
:101100008F7B8093A0000AE710E02CEC822E912CBC
:101110005E010894A11CB11C7724739492E3C92E3C
:1011200091E0D92E80E3E82E81E0F82E84E00030B3
:10113000180710F000E010E00FB6F8940F9210932B
:10114000A9000093A8009092AB008092AA000F9093
:101150000FBE6091B7027091B802C5010E94891359
:101160000E944023803719F40F5F1F4F04C08C3654
:1011700011F40150104000D000D00F92EDB7FEB72F
:101180003196ADB7BEB711967C92D282C1821483DC
:1011900003830E9493270F900F90EDB7FEB77182E3
:1011A000F382E2820E9493270F5F1F4F0F900F90F0
:1011B0000F90BCCF0F931F93DF93CF9300D0CDB789
:1011C000DEB78E010F5F1F4F2E98C80162E370E0FB
:1011D0000E9489132E9AC80162E370E00E9489136D
:1011E000F3CF0F931F93DF93CF9300D0CDB7DEB72C
:1011F0008E010F5F1F4F109AC80162E370E00E94DA
:1012000089131098C80162E370E00E948913F3CF3C
:10121000AF92BF92DF92EF92FF920F931F93DF93F3
:10122000CF9300D0CDB7DEB70E94C7195E010894F6
:10123000A11CB11C8091C002882329F48091CD02A9
:10124000882309F4A4C06091CB027091CC02709500
:1012500061957F4F2091BE023091BF02621B730BDC
:10126000882777FD8095982F0E94322C26E636E657
:1012700046E851E40E94972B6093DC027093DD02F4
:101280008093DE029093DF020E9468197B018C013B
:10129000D6B40E94C719C801B7012FEF30E040E073
:1012A00050E00E94CD2D6D0D711D811D911D0E947C
:1012B000302C2EE633EA41E85DE30E94672D20E002
:1012C00030E04AE754E40E94972B2091DC023091F1
:1012D000DD024091DE025091DF020E94672D2091D5
:1012E000D8023091D9024091DA025091DB020E947B
:1012F000CD2A7B018C012BED3FE049E450E40E94B4
:10130000CC2A2BED3FE049EC50E40E94972B0E9441
:101310006D2C20E030E040E85FE30E94CD2A2BED09
:101320003FE049EC50EC0E94672D9B01AC01C801E5
:10133000B7010E94CD2A6093D8027093D90280939E
:10134000DA029093DB022091E4023091E5024091B1
:10135000E6025091E7020E94CC2A20E030E040E013
:1013600050E00E94CD2A20E030E040E85FE30E9498
:10137000402B20E030E040E05FEB0E94672D60935F
:10138000E8027093E9028093EA029093EB02C501B0
:1013900062E370E00E9489134DCFFF920F931F9379
:1013A000CF93DF93EB010E9488206FE0F62EFC22A2
:1013B00089E08F1518F090E3F90E06C08F2D8A5042
:1013C000873010F487E3F80ECE0154E095958795A9
:1013D0005A95E1F7082F0F700A3010F4005D05C030
:1013E000802F8A50873008F4095C8D2F992787FD5C
:1013F0009A95182F1F701A3010F4105D05C0812FB8
:101400008A50873008F4195CC0E1DC02C12DDD0B85
:101410001124CE018F70682F8A3010F4605D04C0F3
:101420008A50873008F4695C862F0E948820812FBB
:101430000E948820802F0E9488208F2D0E94882063
:101440008AE00E948820DF91CF911F910F91FF9039
:1014500008952F923F924F925F926F927F928F9258
:101460009F92AF92BF92CF92DF92EF92FF920F9333
:101470001F93DF93CF93CDB7DEB762970FB6F89483
:10148000DEBF0FBECDBF8091900080628093900040
:10149000809190008F7E8093900080919000806872
:1014A00080939000809190008F7B809390000E94A9
:1014B000DE1980E090E0A0E0B0E08F87988BA98BE8
:1014C000BA8B8F839887A987BA87A090E002B090E3
:1014D000E102C090E202D090E302E090E802F090D6
:1014E000E9020091EA021091EB02C801B70123E37F
:1014F00033E343E051EC0E94672D9B01AC01C60130
:10150000B5010E94CD2A1B012C01C801B70123E3BC
:1015100033E343E051E40E94672D9B01AC01C60117
:10152000B5010E94CD2A6B837C838D839E830E94AC
:101530007E191091B2002FEF30E040E050E00E94A1
:10154000CD2D610F711D811D911D0E94302C2EE645
:1015500033EA41E85DE30E94672D20E030E04AE78E
:1015600054E40E94972B3B014C010E94DE1910921B
:10157000CD021092C0026091BE027091BF02882716
:1015800077FD8095982F0E94322C9B01AC01C201FF
:10159000B1010E94CC2A5B016C016091CB02709179
:1015A000CC02709561957F4F882777FD8095982FA5
:1015B0000E94322C9B01AC016B817C818D819E81CC
:1015C0000E94CC2A6B877C878D879E87C601B501D8
:1015D00022EF3CE546E65DE30E94672D7B018C012E
:1015E0006F85788989899A8928EB32E44FE05EE338
:1015F0000E94672D9B01AC01C801B7010E94CD2A52
:101600007B018C01C201B10120E030E040E050E0FC
:101610000E94672D9B01AC01C801B7010E94CD2A31
:101620007B018C01C601B501A40193010E94672DC5
:101630009B01AC016F85788989899A890E94CD2A9E
:101640006F87788B898B9A8B6B857C858D859E8542
:10165000A40193010E94672D9B01AC016F817885E5
:1016600089859A850E94CD2AA62E672E282ED92EEE
:101670000FB6F8940F92C801B70120E030E040E1C6
:1016800052E40E945C2D18165CF40F2EF0E0EF2E51
:10169000F0E0FF2EF0E10F2FF2E41F2FF02D14C029
:1016A000C801B70120E030E040E152EC0E94932BEA
:1016B000882354F40F2EF0E0EF2EF0E0FF2EF0E13F
:1016C0000F2FF2EC1F2FF02D0FB6F8940F92C801D8
:1016D000B70128E430E54CEF5EEB0E94672D2FE167
:1016E00035E449E353E40E94CD2A0E94FF2B709316
:1016F0009B0060939A000F900FBE6B857C858D8553
:101700009E8520EB34EB4AE25DE30E94672D7B016E
:101710008C016F81788589859A852CE536E540EACC
:101720005DE30E94672D9B01AC01C801B7010E94D7
:10173000CD2A7B018C016B817C818D819E8120E093
:1017400030E040E050E00E94672D9B01AC01C801F1
:10175000B7010E94CD2A7B018C0117FB109517F968
:101760001095C801B70120E030E040E152E40E944A
:101770005C2D18165CF40F2EF0E0EF2EF0E0FF2E3B
:10178000F0E10F2FF2E41F2FF02D14C0C801B701B4
:1017900020E030E040E152EC0E94932B882354F487
:1017A0000F2EF0E0EF2EF0E0FF2EF0E10F2FF2EC25
:1017B0001F2FF02D0FB6F8940F92C801B70121E149
:1017C00037EC4AE05FEB0E94672D26EF38E64CE3EA
:1017D00053E40E94CD2A0E94FF2B709399006093DE
:1017E00098000F900FBE0F900FBECE01019664E6D9
:1017F00070E00E9489132A2D362D422D5D2DC901DE
:10180000DA015FCE1F93182F1F77812F0E947E2051
:101810001A3021F481E08093040361C080910403B5
:10182000882391F0123531F481E080930103109206
:10183000030307C01D3441F481E08093000310923C
:1018400002031092040386C080910103882311F1E2
:10185000812F80538A3010F4182F05C0812F8154B6
:10186000863008F41753812F90E02091FE023091CA
:10187000FF02E4E0220F331FEA95E1F7822B932B5E
:101880009093FF028093FE02809103038F5F809309
:10189000030325C080910003882309F1812F805321
:1018A0008A3010F4182F05C0812F8154863008F437
:1018B0001753812F90E02091FC023091FD0274E0DB
:1018C000220F331F7A95E1F7822B932B9093FD0221
:1018D0008093FC02809102038F5F809302038091CA
:1018E00003038430D9F46091FE027091FF028827CF
:1018F00077FD8095982F0E94322C6093E4027093BC
:10190000E5028093E6029093E702109201031092A1
:1019100003031092FF021092FE021CC0809102038A
:101920008430C1F48091FC029091FD02AA2797FDBA
:10193000A095BA2F8093EC029093ED02A093EE0253
:10194000B093EF0210920003109202031092FD0276
:101950001092FC021F9108950F931F93CF93DF9372
:101960000E942B2480E040E056E960E070E00E9495
:10197000052081E040E052EC61E070E00E9405202B
:1019800082E040E056E960E070E00E94052083E0DC
:1019900040E052EC61E070E00E9405208EE790E2AA
:1019A0000E946F250E94620382E06CEB76E00E9449
:1019B000FA1F80E06CE477E00E94FA1F83E061E7A1
:1019C00075E00E94FA1F2E9800D00F9281E0EDB7CB
:1019D000FEB7818386E591E0938382830E949327FB
:1019E0000F900F900F9085E00E94111A87E00E94DF
:1019F000311A83E00E94411A83E00E94531A83E067
:101A00000E94651A0E94E42485E00E94092581E075
:101A10000E94102510E001E0C4E5D1E0812F0E9472
:101A2000592500D00F92EDB7FEB70183D383C2834F
:101A30000E9493271F5F0F900F900F90103171F746
:101A40002E9A00D00F92EDB7FEB7018389E391E0A3
:101A5000938382830E9493270F900F900F900E9490
:101A6000C7190E94D1190E94DE190E94E9190E942B
:101A7000F6190E94031A0E943204DF91CF911F9140
:101A80000F910895AF92BF92CF92DF92EF92FF92A3
:101A90000F93CF93DF930E94AC0C0E94402380935E
:101AA0004D1284EF91E00E948C1A80E090E0A8EC47
:101AB000B1E48093E0029093E102A093E202B0933C
:101AC000E30280E090E0A0E0B0E08093E802909331
:101AD000E902A093EA02B093EB0281EF98E060E0A4
:101AE00072E044E650E020E030E001E0EE24FF2424
:101AF000CC24DD24AA24BB240E9473148AED98E030
:101B000067E072E044E650E020E030E00E947314A9
:101B100080E496E06EE072E044EF51E020E030E0D7
:101B20000E94731488E099E067E172E044EF51E0AD
:101B300020E030E00E94731489E29AE060E272E0F3
:101B400044EF51E020E030E00E9473140E949715AA
:101B5000C1E1D1E000D00F92EDB7FEB70183D3838E
:101B6000C2830E9493270F900F900F90F3CFFC0138
:101B70009C012D5F3F4F328321838FEF9FEF948332
:101B80008383368325833087278310820895FC0161
:101B9000118610860895CF93DF93AC01DB01EC0131
:101BA00029813A81F9018281938113969C938E93C6
:101BB000129789819A8115969C938E93149702802F
:101BC000F381E02D75836483E9017B836A83FA01E5
:101BD0007283618319965C934E93189780818F5F0F
:101BE0008083DF91CF910895CF93DF939C01EB0128
:101BF000488159818FEF4F3F580721F4F901A781A0
:101C0000B08510C0D901139604C012960D90BC91F6
:101C1000A02D1296ED91FC91139780819181481728
:101C2000590798F71296ED91FC911397FB83EA837D
:101C3000D583C483BD83AC831396DC93CE93129774
:101C400039872887F90180818F5F8083DF91CF9169
:101C50000895CF93DF93DC011296ED91FC911397D9
:101C600014968D919C911597958384831496CD91AC
:101C7000DC911597FB83EA831896ED91FC911997F7
:101C8000818192818A179B0711F4D283C1831996AF
:101C90001C921E921897808181508083DF91CF9192
:101CA0000895FC010FB6F8940F92828D0F900FBE2D
:101CB0000895FC01828D0895FC01828D90E08823B7
:101CC00009F491E0892F0895FC01928D20E0838D25
:101CD000981709F421E0822F08950F931F938C0128
:101CE000FC01808191810E94C618C8010E94C6181B
:101CF0001F910F9108950F931F93CF93DF93EC01E2
:101D0000FB018A018A8D882381F14881598141151F
:101D10005105A9F08C8D2E813F81280F311D3F8305
:101D20002E838A819B812817390710F05F834E83A9
:101D30004C8D6E817F81CF0150E00E94AD2A8A8D4B
:101D400081508A8F8D8D8F3F69F48885882361F05B
:101D5000CE0108960E94DB11882331F081E0F80162
:101D6000808303C08F5F8D8F81E0DF91CF911F91C2
:101D70000F910895CF93DF93EC01842F4C8D442372
:101D8000A1F18823B1F48C819D8150E00E94AD2A9D
:101D90008C8D2C813D81280F311D3D832C838A81C0
:101DA0009B812817390708F1888199819D838C834D
:101DB0001CC08E819F8150E00E94AD2A8C8D90E0E6
:101DC00044275527481B590B8E819F81840F951FEF
:101DD0009F838E83288139818217930730F48A810B
:101DE0009B81840F951F9F838E838A8D8F5F8A8F3F
:101DF000DF91CF9108950F931F93CF93DF93EC0161
:101E00008A019A8D8B8D981710F080E017C0CE0153
:101E1000422F0E94BA0E8E8D8F3F69F489898823E4
:101E200061F0CE0141960E94DB11882331F081E000
:101E3000F801808303C08F5F8E8F81E0DF91CF91A7
:101E40001F910F9108950F931F93CF93DF93EC0190
:101E50000FB6F8940F928C010F5E1F4F0DC0898949
:101E6000882369F0C8010E94DB11882311F00E94C9
:101E7000D7118E8D81508E8F8E8D181684F38FEF33
:101E80008E8F0F900FBE0FB6F8940F928E01085FE1
:101E90001F4F0DC08885882369F0C8010E94DB119F
:101EA000882311F00E94D7118D8D81508D8F8D8DDB
:101EB000181684F38FEF8D8F0F900FBEDF91CF91A7
:101EC0001F910F9108957F928F929F92AF92BF9230
:101ED000CF92DF92EF92FF920F931F93DF93CF93F6
:101EE00000D000D00F92CDB7DEB78C01962E872E92
:101EF0005D834C83722E91E1C92ED12CC00ED11E70
:101F000020E07E010894E11CF11C84E0A82EB12C95
:101F1000AC0EBD1E01C021E00FB6F8940F92F8017F
:101F2000828D882309F43EC0E680F780408151818C
:101F300041155105B1F0848D9701280F311D37836C
:101F40002683828193812817390710F057834683AF
:101F5000F801448D66817781892D982D50E00E948B
:101F6000AD2A772071F4F801828D8150828F8085AF
:101F70008823A1F0C80108960E94DB11813071F41A
:101F80000BC0F801F782E6828189882339F0C60107
:101F90000E94DB11882311F00E94A3160F900FBE40
:101FA00081E04AC08C819D81892B19F40F900FBE6E
:101FB00042C0222319F4C7010E9492110F900FBE54
:101FC0000E9436110FB6F8940F92F801858D8F3F5D
:101FD00009F4158EF801868D8F3F09F4168E0F9047
:101FE0000FBEC701B5010E949D118823F9F40FB6F9
:101FF000F8940F92F801828D0F900FBE882381F420
:102000006C817D81C6010E949412C8010E94230F39
:102010000E94CD12882309F07ECF0E94A3167BCFA9
:10202000C8010E94230F0E94CD1275CFC8010E94E3
:10203000230F0E94CD1280E00F900F900F900F9011
:102040000F90CF91DF911F910F91FF90EF90DF9054
:10205000CF90BF90AF909F908F907F9008957F9288
:102060008F929F92AF92BF92CF92DF92EF92FF92A8
:102070000F931F93DF93CF9300D000D00F92CDB773
:10208000DEB78C016B015D834C83722E48E0E42E39
:10209000F12CE80EF91E20E05E010894A11CB11C91
:1020A00034E0832E912C8C0E9D1E01C021E00FB6D2
:1020B000F8940F92F801928D838D9817A8F4C801B7
:1020C000B601472D0E94BA0EF8018189882341F09C
:1020D000C80141960E94DB11813011F40E94A316C1
:1020E0000F900FBE81E04CC08C819D81892B19F42B
:1020F0000F900FBE44C0222319F4C5010E94921113
:102100000F900FBE0E9436110FB6F8940F92F8018F
:10211000858D8F3F09F4158EF801868D8F3F09F468
:10212000168E0F900FBEC501B4010E949D11882329
:1021300009F50FB6F8940F92F801928D0F900FBE2B
:10214000F801838D981781F46C817D81C7010E940D
:102150009412C8010E94230F0E94CD12882309F017
:10216000A5CF0E94A316A2CFC8010E94230F0E94F0
:10217000CD129CCFC8010E94230F0E94CD1280E097
:102180000F900F900F900F900F90CF91DF911F91B4
:102190000F91FF90EF90DF90CF90BF90AF909F9006
:1021A0008F907F9008958F929F92AF92BF92CF921F
:1021B000DF92EF92FF920F931F93CF93DF93982EAE
:1021C000862E882309F442C08FE190E00E94D61841
:1021D0008C01EC010097E1F1C92CDD24A82CBB2473
:1021E000AC9C7001AD9CF00CBC9CF00C1124C701A0
:1021F00001960E94D6189C0199838883009719F153
:10220000E80EF91EFB82EA821A8E9D838C83089465
:10221000C108D108CA9CC001CB9C900DDA9C900DDE
:102220001124280F391F3F832E839B8E8C8E8FEFB6
:102230008D8F8E8FC80108960E94B70DC8014196F8
:102240000E94B70D05C0C8010E94C618C0E0D0E0CA
:10225000CE01DF91CF911F910F91FF90EF90DF9012
:10226000CF90BF90AF909F908F90089580912D0355
:102270008F5F80932D0308950FB6F8940F922091ED
:102280002B0330912C030F900FBEC90108952091AC
:102290002B0330912C03C9010895809130030895D8
:1022A00080912D03882351F081E0809329030895C4
:1022B00080912E03815080932E0301C099E0E0911C
:1022C0002E03E99FF0011124EB5CFC4F80818823F1
:1022D00079F390912E0389E0989FD0011124AB5C93
:1022E000BC4F1196ED91FC9112970280F381E02D85
:1022F0001296FC93EE931197CD010396E817F90718
:1023000031F48281938112969C938E93119711964A
:10231000ED91FC9112978681978190932803809389
:1023200027030895FC0180912A03808380912B0369
:1023300090912C03928381830895FC01DB010FB6F9
:10234000F8940F9290912A038081981749F0209178
:102350002B0330912C03818192812817390718F5BE
:1023600080912B0390912C03218132814D915C91BE
:102370001197821B930B84179507A8F480912B0368
:1023800090912C03281B390B240F351F2D933C9360
:1023900080912A03808380912B0390912C03928358
:1023A000818380E001C081E00F900FBE089581E03D
:1023B0008093290308950F931F93CF93DF93FC011C
:1023C0008081882319F4C0E0D0E005C00580F68143
:1023D000E02DC681D7818E01045F1F4FC8010E9486
:1023E000290E80912D038823A1F48E010E5F1F4FCB
:1023F000C8010E94290E9E8980912E03891710F42E
:1024000090932E0389E0989FC00111248B5C9C4F10
:1024100002C08FE693E0B8010E94CB0DE091270344
:10242000F091280320E09E898689981708F021E022
:10243000822FDF91CF911F910F910895FF920F93FB
:102440001F93CF93DF9380912D03882309F061C000
:1024500080912B0390912C03019690932C038093F1
:102460002B0380912B0390912C03892BE9F580910C
:102470006B0390916C0320916D0330916E03309348
:102480006C0320936B0390936E0380936D03809194
:102490002A038F5F80932A0327C020912B0330915A
:1024A0002C038A819B8128173907C0F18E010E5FAA
:1024B0001F4FC8010E94290E8C899D89892B21F00C
:1024C000CE010C960E94290E9E8980912E038917B9
:1024D00010F490932E039F9DC00111248B5C9C4FA0
:1024E000B8010E94CB0D02C089E0F82EE0916B0389
:1024F000F0916C038081882389F0E0916B03F09167
:102500006C030580F681E02DC681D781209729F6DE
:1025100005C080912F038F5F80932F03DF91CF91B0
:102520001F910F91FF9008950F931F938B0160915E
:10253000270370912803645F7F4F0E94F40D809100
:1025400027039091280302960E94290E80912B0365
:1025500090912C03800F911FE0912703F0912803A5
:102560009383828320912B0330912C03821793074E
:1025700028F480916D0390916E0304C080916B03E9
:1025800090916C0360912703709128036E5F7F4FD9
:102590000E94F40D1F910F910895CF92DF92FF9248
:1025A0000F931F93DF93CF930F92CDB7DEB70FB684
:1025B000F8940F9280912D03815080932D03809188
:1025C0002D03882309F05BC080913003882309F430
:1025D00056C0198299E0F92E27C0C6010C960E94B8
:1025E000290E86010E5F1F4FC8010E94290ED601D9
:1025F00056969C9180912E03891710F490932E0388
:102600009F9DC00111248B5C9C4FB8010E94CB0D93
:10261000E0912703F0912803D60156969C91868974
:10262000981710F0B1E0B98380916F03882349F0C7
:10263000E0917403F0917503C680D780C114D10472
:1026400061F680912F03882341F40CC00E941E1272
:1026500080912F03815080932F0380912F03882333
:10266000A9F707C0E981E13021F080912903813089
:1026700031F4109229030E94A31681E001C080E08A
:102680000F900FBE0F90CF91DF911F910F91FF9090
:10269000DF90CF9008950F931F939C010097A1F1B5
:1026A00080912D038F5F80932D0300912B03109158
:1026B0002C03020F131F8091270390912803029689
:1026C0000E94290EE0912703F091280313830283CF
:1026D00080912B0390912C030817190728F48091FF
:1026E0006D0390916E0304C080916B0390916C0315
:1026F00060912703709128036E5F7F4F0E94F40D55
:102700000E94CD12882311F40E94A3161F910F91ED
:102710000895CF93DF93FC01EB0180912D038F5F30
:1027200080932D0320813181C20FD31F80912B0311
:1027300090912C038217930728F4C217D30728F02F
:1027400020E00CC0C217D30740F080912B0390917A
:102750002C0320E08C179D0708F421E0D183C0836F
:10276000222329F1809127039091280302960E9449
:10277000290EE0912703F0912803D383C28380912F
:102780002B0390912C03C817D90728F480916D036F
:1027900090916E0304C080916B0390916C036091E3
:1027A0002703709128036E5F7F4F0E94F40D0E94F3
:1027B000CD12882311F40E94A316DF91CF910895C2
:1027C000EF92FF920F931F93CF93DF938C010FB67D
:1027D000F8940F9280912703909128030817190706
:1027E00019F400E010E003C00115110529F4C091AF
:1027F0002703D091280301C0E80122E0E22EF12C4A
:10280000EC0EFD1EC7010E94290E8C899D89892B23
:1028100021F0CE010C960E94290E88E793E0B701C3
:102820000E94CB0D809132038F5F809332038091A1
:1028300033038F5F809333030F900FBE809131037A
:10284000882321F0012B11F40E94A316DF91CF9170
:102850001F910F91FF90EF900895F894109231031B
:102860000E94441608951F93CF93DF938091320303
:10287000882391F180912D038F5F80932D03109118
:1028800078030E94CD12112339F10FB6F8940F92FC
:1028900080917803882319F4C0E0D0E006C0E0916D
:1028A0007D03F0917E03C681D781CE0102960E94FE
:1028B000290E809130038150809330038091320340
:1028C0008150809332030F900FBE8F89988D0E94A4
:1028D000C618CE010E94C61880913503823030F2AE
:1028E0000E94A316C3CF2F923F925F926F927F9266
:1028F0008F929F92AF92BF92CF92DF92EF92FF9210
:102900000F931F93DF93CF9300D000D0CDB7DEB7E6
:102910009A8389834B015A011901502E370181E2B4
:1029200090E00E94D6188B839C838B819C81892B9D
:1029300089F0C114D10421F4C5010E94D6186C019C
:10294000EB81FC81D08EC78AC114D10429F4CF0158
:102950000E94C6188FEFD5C0C60165EA70E0A501D8
:102960000E94B62A0894A108B108EB81FC81E7888F
:10297000F08CEA0CFB1CCF014996B40148E050E012
:102980000E94BD2AEB81FC8110A2052DF3E0F51514
:1029900008F403E0EB81FC81068B42E0C42ED12CCD
:1029A000CE0EDF1EC6010E94C70D8B819C810C9646
:1029B0000E94C70D8B819C81FC019187808784E0F8
:1029C00090E0801B910995878487F38BE28BC70188
:1029D00069817A81A1010E94C215EB81FC819183FA
:1029E00080836114710421F0CF01F301918380830E
:1029F0000FB6F8940F92809130038F5F809330036D
:102A00008091270390912803892BB9F5EB81FC81F4
:102A1000F0932803E0932703809130038130F1F590
:102A200085E393E00E94B70D8EE393E00E94B70D1B
:102A300087E493E00E94B70D80E593E00E94B70D14
:102A400039E5E32E33E0F32EC7010E94B70D02E60D
:102A500013E0C8010E94B70D8FE693E00E94B70D06
:102A600088E793E00E94B70DF0926C03E0926B034D
:102A700010936E0300936D0311C08091310388237E
:102A800069F4E0912703F09128038689581630F005
:102A90008B819C819093280380932703EB81FC8199
:102AA000968980913403891710F4909334038091B0
:102AB00033038F5F80933303EB81FC819689809190
:102AC0002E03891710F490932E03EB81FC818689E5
:102AD00029E0829FC00111248B5C9C4FB6010E94AB
:102AE000CB0D0F900FBE80913103882349F0E09108
:102AF0002703F09128038689851510F40E94A316F8
:102B000081E00F900F900F900F90CF91DF911F9168
:102B10000F91FF90EF90DF90CF90BF90AF909F907C
:102B20008F907F906F905F903F902F900895AF921D
:102B3000BF92CF92DF92EF92FF920F9383E394E1E3
:102B400069EB72E045E550E020E030E000E0EE2483
:102B5000FF24CC24DD24AA24BB240E9473148130DA
:102B600049F4F8948093310310922C0310922B03B4
:102B70000E940A160F91FF90EF90DF90CF90BF90C8
:102B8000AF900895FC0191E1908322E2229383E3C8
:102B9000829362937293129280E88293129282E0FF
:102BA000829383E0829384E0829385E0829386E03F
:102BB000829387E0829388E0829389E0829380E128
:102BC0008293929382E1829383E1829384E1829360
:102BD00085E1829386E1829387E1829388E1829303
:102BE00089E1829380E2829381E28293229383E25D
:102BF00082934293529386E2829387E2829388E2A1
:102C0000829389E2829380E3829381E38293319776
:102C1000CF0108951092890089EF809388008BE09E
:102C200080938100EFE6F0E0808182608083A09154
:102C30002703B0912803CD91CDBFDD91DEBFFF9179
:102C4000EF91DF91CF91BF91AF919F918F917F9144
:102C50006F915F914F913F912F911F910F91FF9035
:102C6000EF90DF90CF90BF90AF909F908F907F902C
:102C70006F905F904F903F902F901F900F900FBEDE
:102C80000F90089581E0089508950F920FB6F8947B
:102C90000F921F9211242F923F924F925F926F9248
:102CA0007F928F929F92AF92BF92CF92DF92EF92DC
:102CB000FF920F931F932F933F934F935F936F93C5
:102CC0007F938F939F93AF93BF93CF93DF93EF93B4
:102CD000FF93A0912703B09128030DB60D920EB675
:102CE0000D920E941E120E945011A0912703B091D4
:102CF0002803CD91CDBFDD91DEBFFF91EF91DF9134
:102D0000CF91BF91AF919F918F917F916F915F9183
:102D10004F913F912F911F910F91FF90EF90DF9076
:102D2000CF90BF90AF909F908F907F906F905F906B
:102D30004F903F902F901F900F900FBE0F900895CF
:102D40000E94451618950F920FB6F8940F921F9295
:102D500011242F923F924F925F926F927F928F92A7
:102D60009F92AF92BF92CF92DF92EF92FF920F931A
:102D70001F932F933F934F935F936F937F938F9303
:102D80009F93AF93BF93CF93DF93EF93FF93A09164
:102D90002703B09128030DB60D920EB60D920E9436
:102DA0005011A0912703B0912803CD91CDBFDD91A3
:102DB000DEBFFF91EF91DF91CF91BF91AF919F91D6
:102DC0008F917F916F915F914F913F912F911F91C3
:102DD0000F91FF90EF90DF90CF90BF90AF909F90BA
:102DE0008F907F906F905F904F903F902F901F90AB
:102DF0000F900FBE0F9008950F931F93CF93DF9303
:102E0000FC018081882319F4C0E0D0E005C0058072
:102E1000F681E02DC681D7818E01045F1F4FC80166
:102E20000E94290E82EB93E0B8010E94CB0D20E0B6
:102E3000E0918103F09182039E898689981708F0BA
:102E400021E0822FDF91CF911F910F910895FF9282
:102E50000F931F93CF93DF9399E0F92E28C0F89436
:102E60008091B203882319F4C0E0D0E006C0E0915D
:102E7000B703F091B803C681D781CE010C960E94AA
:102E8000290E78948E010E5F1F4FC8010E94290EF3
:102E90009E8980918303891710F4909383039F9DEB
:102EA000C001112486579C4FB8010E94CB0D809120
:102EB000B2038823A1F60E943C1120918403309133
:102EC0008503821B930B909387038093860389E08D
:102ED000F82E54C001969093890380938803215063
:102EE00030403093870320938603892BC9F52091C6
:102EF000AE033091AF038091B0039091B1039093F2
:102F0000AF038093AE033093B1032093B00328C086
:102F100020918803309189038A819B812817390782
:102F200068F1F8948E010E5F1F4FC8010E94290EB0
:102F30008C899D89892B21F0CE010C960E94290E47
:102F400078949E8980918303891710F4909383036A
:102F50009F9DC001112486579C4FB8010E94CB0D44
:102F6000E091AE03F091AF038081882339F00580B2
:102F7000F681E02DC681D781209751F620918603F6
:102F80003091870380918803909189032115310541
:102F900009F0A0CF909385038093840390918303DD
:102FA00029E006C0992319F41092830332C091508E
:102FB000929FD0011124A657BC4F8C91882391F386
:102FC000909383031196ED91FC9112970280F38107
:102FD000E02D1296FC93EE931197CD010396E8171E
:102FE000F90731F48281938112969C938E93119705
:102FF0001196ED91FC9112970680F781E02DF093E8
:103000008203E093810320813181CF016789F90137
:103010000995DF91CF911F910F91FF9008950F9324
:103020001F93CF93DF93EB010091880310918903E5
:10303000080F191F809181039091820302960E94CC
:10304000290EE0918103F091820313830283809122
:10305000880390918903BF016E5F7F4F081719079E
:1030600028F48091B0039091B10304C08091AE0325
:103070009091AF030E94F40D209749F06091810375
:1030800070918203645F7F4FCE010E94F40DDF9147
:10309000CF911F910F910895AF92BF92CF92DF927F
:1030A000EF92FF920F931F93CF93DF936C01B62E95
:1030B000A42E8AE190E00E94D618EC01009711F44A
:1030C0008FEF59C08091810390918203892B21F564
:1030D000D0938203C09381038AE893E00E94B70DE6
:1030E00083E993E00E94B70D2CE9E22E23E0F22E53
:1030F000C7010E94B70D05EA13E0C8010E94B70D91
:1031000082EB93E00E94B70DF092AF03E092AE0322
:103110001093B1030093B003EB2CBB2011F0EE240D
:10312000E394198E188EEE8AAF8AFE01C192D19275
:103130008F01CF010E94C70DCE010C960E94C70DD2
:10314000D987C887DB8BCA8B84E090E08E19910900
:103150009D878C879E8980918303891710F49093B3
:10316000830389E0989FC001112486579C4FB801C2
:103170000E94CB0D81E0DF91CF911F910F91FF90C5
:10318000EF90DF90CF90BF90AF9008950895109288
:10319000BC031092BB03089528EB3BE08091BB0376
:1031A0009091BC03281B390BC90108950F931F93FD
:1031B000CF93DF938C010E9436118091BB039091D5
:1031C000BC039801280F391F4BE0283B340758F403
:1031D0008217930740F4EC01C354DC4F3093BC03D7
:1031E0002093BB0302C0C0E0D0E00E94CD12CE010C
:1031F000DF91CF911F910F910895E82FF0E0E770D4
:10320000F070EE0FFF1FEF58FE4F25913491C9016A
:103210000895E82FF0E0E770F070EE0FFF1FE3581D
:10322000FE4F25913491C901089585B5E82FF0E04E
:10323000E770F070EE0FFF1FEF58FE4F25913491AD
:10324000C901089580918100E82FF0E0E770F070E7
:10325000EE0FFF1FEF58FE4F25913491C9010895DD
:103260008091B100E82FF0E0E770F070EE0FFF1FE3
:10327000E358FE4F25913491C90108958091910042
:10328000E82FF0E0E770F070EE0FFF1FEF58FE4FF1
:1032900025913491C90108958091A100E82FF0E0B3
:1032A000E770F070EE0FFF1FEF58FE4F259134913D
:1032B000C901089580912101E82FF0E0E770F070D6
:1032C000EE0FFF1FEF58FE4F25913491C90108956D
:1032D00020915C1630915D1640915E1650915F16FC
:1032E000B901CA010895209158163091591640919C
:1032F0005A1650915B16B901CA01089520916016C3
:10330000309161164091621650916316B901CA015D
:103310000895209168163091691640916A1650916F
:103320006B16B901CA0108952091541630915516B3
:103330004091561650915716B901CA01089520912F
:103340006C1630916D1640916E1650916F16B90142
:10335000CA01089586B508952091840030918500B2
:10336000C90108958091B200089520919400309190
:103370009500C90108952091A4003091A500C901CC
:1033800008952091240130912501C90108951092DA
:103390005C1610925D1610925E1610925F1616BCA7
:1033A0000895109258161092591610925A161092AB
:1033B0005B1610928500109284000895109260169A
:1033C0001092611610926216109263161092B2005B
:1033D0000895109268161092691610926A1610924B
:1033E0006B16109295001092940008951092541646
:1033F0001092551610925616109257161092A5005C
:103400001092A400089510926C1610926D161092EE
:103410006E1610926F1610922501109224010895D5
:10342000089585BD81E080936E0010925C16109225
:103430005D1610925E1610925F1616BC089580936A
:10344000810081E080936F001092581610925916F7
:1034500010925A1610925B161092850010928400FA
:1034600008958093B10081E08093700010926016FF
:103470001092611610926216109263161092B200AA
:1034800008958093910081E08093710010926816F6
:103490001092691610926A1610926B16109295008F
:1034A0001092940008958093A10081E080937200AF
:1034B00010925416109255161092561610925716D6
:1034C0001092A5001092A40008958093210181E03C
:1034D0008093730010926C1610926D1610926E16F7
:1034E00010926F1610922501109224010895E82F72
:1034F000F0E0EE0FFF1FEB58F04F718360830895EB
:10350000E82FF0E0EE0FFF1FEB58F04F1182108212
:1035100008950197F1F70895AF92BF92CF92DF928D
:10352000EF92FF920F931F93A0E0B0E0BC01CD019A
:103530000E94302C5B016C0120E030E04AE755E44A
:103540000E94672D7B018C0120E030E040E85FE3C2
:103550000E94932B88231CF461E070E024C0C80112
:10356000B70120E03FEF4FE757E40E945C2D1816AB
:10357000B4F4C601B50120E030E040E251E40E941D
:10358000672D0E94042C80E991E005C0FC01319771
:10359000F1F76150704061157105C1F707C0C801AE
:1035A000B7010E94042CCB010197F1F71F910F91F5
:1035B000FF90EF90DF90CF90BF90AF9008951F9253
:1035C0000F920FB60F9211242F933F934F935F9357
:1035D0006F937F938F939F93AF93BF93EF93FF93DB
:1035E00080915C1690915D16A0915E16B0915F1669
:1035F0000196A11DB11D80935C1690935D16A0935A
:103600005E16B0935F168091641690916516A09136
:103610006616B09167160196A11DB11D80936416C0
:1036200090936516A0936616B09367168091790FF4
:1036300090917A0F892B29F0E091790FF0917A0F10
:103640000995FF91EF91BF91AF919F918F917F91DC
:103650006F915F914F913F912F910F900FBE0F90FF
:103660001F9018951F920F920FB60F9211242F934F
:103670003F934F935F936F937F938F939F93AF93FA
:10368000BF93EF93FF938091581690915916A09194
:103690005A16B0915B160196A11DB11D8093581664
:1036A00090935916A0935A16B0935B168091830F8E
:1036B0009091840F892B29F0E091830FF091840F72
:1036C0000995FF91EF91BF91AF919F918F917F915C
:1036D0006F915F914F913F912F910F900FBE0F907F
:1036E0001F9018951F920F920FB60F9211242F93CF
:1036F0003F934F935F936F937F938F939F93AF937A
:10370000BF93EF93FF938091601690916116A09103
:103710006216B09163160196A11DB11D80936016CB
:1037200090936116A0936216B09363168091890FEF
:1037300090918A0F892B29F0E091890FF0918A0FDF
:103740000995FF91EF91BF91AF919F918F917F91DB
:103750006F915F914F913F912F910F900FBE0F90FE
:103760001F9018951F920F920FB60F9211242F934E
:103770003F934F935F936F937F938F939F93AF93F9
:10378000BF93EF93FF938091681690916916A09173
:103790006A16B0916B160196A11DB11D8093681633
:1037A00090936916A0936A16B0936B168091930F4D
:1037B0009091940F892B29F0E091930FF091940F41
:1037C0000995FF91EF91BF91AF919F918F917F915B
:1037D0006F915F914F913F912F910F900FBE0F907E
:1037E0001F9018951F920F920FB60F9211242F93CE
:1037F0003F934F935F936F937F938F939F93AF9379
:10380000BF93EF93FF938091541690915516A0911A
:103810005616B09157160196A11DB11D80935416EE
:1038200090935516A0935616B093571680919D0FFE
:1038300090919E0F892B29F0E0919D0FF0919E0FA2
:103840000995FF91EF91BF91AF919F918F917F91DA
:103850006F915F914F913F912F910F900FBE0F90FD
:103860001F9018951F920F920FB60F9211242F934D
:103870003F934F935F936F937F938F939F93AF93F8
:10388000BF93EF93FF9380916C1690916D16A0916A
:103890006E16B0916F160196A11DB11D80936C1626
:1038A00090936D16A0936E16B0936F168091A70F2C
:1038B0009091A80F892B29F0E091A70FF091A80F04
:1038C0000995FF91EF91BF91AF919F918F917F915A
:1038D0006F915F914F913F912F910F900FBE0F907D
:1038E0001F9018951F920F920FB60F9211242F93CD
:1038F0003F934F935F936F937F938F939F93AF9378
:10390000BF93EF93FF938091750F9091760F892B62
:1039100029F0E091750FF091760F0995FF91EF91E5
:10392000BF91AF919F918F917F916F915F914F91D7
:103930003F912F910F900FBE0F901F9018951F92DF
:103940000F920FB60F9211242F933F934F935F93D3
:103950006F937F938F939F93AF93BF93EF93FF9357
:103960008091770F9091780F892B29F0E091770F54
:10397000F091780F0995FF91EF91BF91AF919F91D1
:103980008F917F916F915F914F913F912F910F9008
:103990000FBE0F901F9018951F920F920FB60F92A7
:1039A00011242F933F934F935F936F937F938F9344
:1039B0009F93AF93BF93EF93FF9380917B0F909171
:1039C0007C0F892B29F0E0917B0FF0917C0F0995FA
:1039D000FF91EF91BF91AF919F918F917F916F91E7
:1039E0005F914F913F912F910F900FBE0F901F90BD
:1039F00018951F920F920FB60F9211242F933F9399
:103A00004F935F936F937F938F939F93AF93BF93E6
:103A1000EF93FF9380917F0F9091800F892B29F076
:103A2000E0917F0FF091800F0995FF91EF91BF9189
:103A3000AF919F918F917F916F915F914F913F9146
:103A40002F910F900FBE0F901F9018951F920F92FD
:103A50000FB60F9211242F933F934F935F936F9361
:103A60007F938F939F93AF93BF93EF93FF93809137
:103A7000810F9091820F892B29F0E091810FF091B5
:103A8000820F0995FF91EF91BF91AF919F918F9117
:103A90007F916F915F914F913F912F910F900FBE4A
:103AA0000F901F9018951F920F920FB60F9211242E
:103AB0002F933F934F935F936F937F938F939F9336
:103AC000AF93BF93EF93FF938091850F9091860FF3
:103AD000892B29F0E091850FF091860F0995FF91D0
:103AE000EF91BF91AF919F918F917F916F915F9176
:103AF0004F913F912F910F900FBE0F901F901895EF
:103B00001F920F920FB60F9211242F933F934F9352
:103B10005F936F937F938F939F93AF93BF93EF9335
:103B2000FF938091870F9091880F892B29F0E09166
:103B3000870FF091880F0995FF91EF91BF91AF9199
:103B40009F918F917F916F915F914F913F912F91B5
:103B50000F900FBE0F901F9018951F920F920FB6E7
:103B60000F9211242F933F934F935F936F937F9303
:103B70008F939F93AF93BF93EF93FF9380918B0F9E
:103B800090918C0F892B29F0E0918B0FF0918C0F85
:103B90000995FF91EF91BF91AF919F918F917F9187
:103BA0006F915F914F913F912F910F900FBE0F90AA
:103BB0001F9018951F920F920FB60F9211242F93FA
:103BC0003F934F935F936F937F938F939F93AF93A5
:103BD000BF93EF93FF9380918D0F90918E0F892B60
:103BE00029F0E0918D0FF0918E0F0995FF91EF91E3
:103BF000BF91AF919F918F917F916F915F914F9105
:103C00003F912F910F900FBE0F901F9018951F920C
:103C10000F920FB60F9211242F933F934F935F9300
:103C20006F937F938F939F93AF93BF93EF93FF9384
:103C300080918F0F9091900F892B29F0E0918F0F39
:103C4000F091900F0995FF91EF91BF91AF919F91E6
:103C50008F917F916F915F914F913F912F910F9035
:103C60000FBE0F901F9018951F920F920FB60F92D4
:103C700011242F933F934F935F936F937F938F9371
:103C80009F93AF93BF93EF93FF938091910F909188
:103C9000920F892B29F0E091910FF091920F0995E5
:103CA000FF91EF91BF91AF919F918F917F916F9114
:103CB0005F914F913F912F910F900FBE0F901F90EA
:103CC00018951F920F920FB60F9211242F933F93C6
:103CD0004F935F936F937F938F939F93AF93BF9314
:103CE000EF93FF938091950F9091960F892B29F078
:103CF000E091950FF091960F0995FF91EF91BF918B
:103D0000AF919F918F917F916F915F914F913F9173
:103D10002F910F900FBE0F901F9018951F920F922A
:103D20000FB60F9211242F933F934F935F936F938E
:103D30007F938F939F93AF93BF93EF93FF93809164
:103D4000970F9091980F892B29F0E091970FF091A0
:103D5000980F0995FF91EF91BF91AF919F918F912E
:103D60007F916F915F914F913F912F910F900FBE77
:103D70000F901F9018951F920F920FB60F9211245B
:103D80002F933F934F935F936F937F938F939F9363
:103D9000AF93BF93EF93FF938091990F90919A0FF8
:103DA000892B29F0E091990FF0919A0F0995FF91D5
:103DB000EF91BF91AF919F918F917F916F915F91A3
:103DC0004F913F912F910F900FBE0F901F9018951C
:103DD0001F920F920FB60F9211242F933F934F9380
:103DE0005F936F937F938F939F93AF93BF93EF9363
:103DF000FF9380919B0F90919C0F892B29F0E0916C
:103E00009B0FF0919C0F0995FF91EF91BF91AF919E
:103E10009F918F917F916F915F914F913F912F91E2
:103E20000F900FBE0F901F9018951F920F920FB614
:103E30000F9211242F933F934F935F936F937F9330
:103E40008F939F93AF93BF93EF93FF9380919F0FB7
:103E50009091A00F892B29F0E0919F0FF091A00F76
:103E60000995FF91EF91BF91AF919F918F917F91B4
:103E70006F915F914F913F912F910F900FBE0F90D7
:103E80001F9018951F920F920FB60F9211242F9327
:103E90003F934F935F936F937F938F939F93AF93D2
:103EA000BF93EF93FF938091A10F9091A20F892B65
:103EB00029F0E091A10FF091A20F0995FF91EF91E8
:103EC000BF91AF919F918F917F916F915F914F9132
:103ED0003F912F910F900FBE0F901F9018951F923A
:103EE0000F920FB60F9211242F933F934F935F932E
:103EF0006F937F938F939F93AF93BF93EF93FF93B2
:103F00008091A30F9091A40F892B29F0E091A30F2A
:103F1000F091A40F0995FF91EF91BF91AF919F91FF
:103F20008F917F916F915F914F913F912F910F9062
:103F30000FBE0F901F9018951F920F920FB60F9201
:103F400011242F933F934F935F936F937F938F939E
:103F50009F93AF93BF93EF93FF938091A50F9091A1
:103F6000A60F892B29F0E091A50FF091A60F0995D6
:103F7000FF91EF91BF91AF919F918F917F916F9141
:103F80005F914F913F912F910F900FBE0F901F9017
:103F900018951F920F920FB60F9211242F933F93F3
:103FA0004F935F936F937F938F939F93AF93BF9341
:103FB000EF93FF9300D00F9281E0EDB7FEB78183BE
:103FC0008DE891E0938382830E9493270F900F9056
:103FD0000F90FF91EF91BF91AF919F918F917F9142
:103FE0006F915F914F913F912F910F900FBE0F9066
:103FF0001F901895843040F4E82FF0E0EE0FFF1F7B
:10400000E751FE4E7183608308951F93182F9A0124
:10401000AB01CA01B90160587B47814E9F4FF3E065
:10402000660F771F881F991FFA95D1F7E4E0220FDA
:10403000331F441F551FEA95D1F70E94132E2150BC
:104040003040133029F4209334013093350112C0ED
:10405000123029F42093D4003093D5000BC01130D6
:1040600029F42093CC003093CD0004C02093C400E9
:104070003093C5001F910895282F30E0A3E0220F50
:10408000331FAA95E1F72C58394EC9010895282FFE
:1040900030E0B3E0220F331FBA95E1F72856394ECE
:1040A000C9010895E82F833039F48091300185FFEC
:1040B000FCCF6093360118C0823039F48091D00073
:1040C00085FFFCCF6093D6000FC0813039F480911A
:1040D000C80085FFFCCF6093CE0006C08091C00071
:1040E00085FFFCCF6093C600F0E0E059F94E1082E6
:1040F0000895682F80E00E9452200895682F81E083
:104100000E9452200895682F82E00E945220089554
:10411000682F83E00E945220089520E0E82FF0E00D
:1041200083E0EE0FFF1F8A95E1F7E858F94E808192
:104130009181892B09F421E0822F0895CF93DF9399
:10414000833019F4609136010CC0823019F460910B
:10415000D60007C0813019F46091CE0002C0609192
:10416000C600282F30E0E901CC0FDD1FFE01E7512A
:10417000FE4E80819181892B31F00190F081E02DFC
:10418000862F099514C093E0220F331F9A95E1F70B
:10419000C9018C58994E0E94AA24882341F4FE013B
:1041A000E854F94E80819181019691838083DF915B
:1041B000CF9108951F920F920FB60F9211242F9353
:1041C0003F934F935F936F937F938F939F93AF939F
:1041D000BF93EF93FF9383E00E949E20FF91EF91A6
:1041E000BF91AF919F918F917F916F915F914F910F
:1041F0003F912F910F900FBE0F901F9018951F9217
:104200000F920FB60F9211242F933F934F935F930A
:104210006F937F938F939F93AF93BF93EF93FF938E
:1042200082E00E949E20FF91EF91BF91AF919F91FC
:104230008F917F916F915F914F913F912F910F904F
:104240000FBE0F901F9018951F920F920FB60F92EE
:1042500011242F933F934F935F936F937F938F938B
:104260009F93AF93BF93EF93FF9381E00E949E20B3
:10427000FF91EF91BF91AF919F918F917F916F913E
:104280005F914F913F912F910F900FBE0F901F9014
:1042900018951F920F920FB60F9211242F933F93F0
:1042A0004F935F936F937F938F939F93AF93BF933E
:1042B000EF93FF9380E00E949E20FF91EF91BF91CA
:1042C000AF919F918F917F916F915F914F913F91AE
:1042D0002F910F900FBE0F901F9018958F929F9265
:1042E000AF92BF92CF92DF92EF92FF920F931F9304
:1042F000CF93DF93882EDB01C82EDD24F60113E077
:10430000EE0FFF1F1A95E1F7E456F94E2081318137
:10431000240F351FF60173E0EE0FFF1F7A95E1F7CA
:10432000E656F94E808191812817390770F54115BD
:10433000510559F19C90760163E0EE0CFF1C6A95E3
:10434000E1F788E996E1E80EF91E8D01C0E0D0E0C2
:104350005A010894A108B10806C0C701F80160819C
:104360000E94AA2421960F5F1F4FCA15DB05A8F3F0
:1043700084E996E1C80ED91E8FEFF6018083882D5F
:10438000692D0E9452208FEF01C080E0DF91CF9114
:104390001F910F91FF90EF90DF90CF90BF90AF9063
:1043A0009F908F90089590E023E0880F991F2A95A1
:1043B000E1F78856994E0E94AA240895682F80EB51
:1043C00096E10E94AA240895682F88EA96E10E9447
:1043D000AA240895682F80EA96E10E94AA240895ED
:1043E000682F88E996E10E94AA240895CF93DF936D
:1043F000282FA82FB0E0ED01CC56D94E8881882314
:1044000079F1FD0133E0EE0FFF1F3A95E1F7E45635
:10441000F94E80819181892B11F1233039F480EBA1
:1044200096E10E944124809336011EC0223039F467
:1044300088EA96E10E9441248093D60015C021307D
:1044400039F480EA96E10E9441248093CE000CC0AA
:1044500088E996E10E9441248093C60005C0188235
:10446000A059B94E8FEF8C93DF91CF9108951F9291
:104470000F920FB60F9211242F933F934F935F9398
:104480006F937F938F939F93AF93BF93EF93FF931C
:1044900083E00E94F621FF91EF91BF91AF919F9130
:1044A0008F917F916F915F914F913F912F910F90DD
:1044B0000FBE0F901F9018951F920F920FB60F927C
:1044C00011242F933F934F935F936F937F938F9319
:1044D0009F93AF93BF93EF93FF9382E00E94F621E7
:1044E000FF91EF91BF91AF919F918F917F916F91CC
:1044F0005F914F913F912F910F900FBE0F901F90A2
:1045000018951F920F920FB60F9211242F933F937D
:104510004F935F936F937F938F939F93AF93BF93CB
:10452000EF93FF9381E00E94F621FF91EF91BF91FD
:10453000AF919F918F917F916F915F914F913F913B
:104540002F910F900FBE0F901F9018951F920F92F2
:104550000FB60F9211242F933F934F935F936F9356
:104560007F938F939F93AF93BF93EF93FF9380E0DD
:104570000E94F621FF91EF91BF91AF919F918F9192
:104580007F916F915F914F913F912F910F900FBE4F
:104590000F901F9018951F93182F90E0FC01EC5678
:1045A000F94E2FEF208343E0880F991F4A95E1F7DA
:1045B0008856994E0E944124682F812F0E945220D4
:1045C0001F910895CF93DF93EB01282F30E0F9017D
:1045D00073E0EE0FFF1F7A95E1F7EA58F94E8081FC
:1045E0009181892BC9F0F90163E0EE0FFF1F6A95F5
:1045F000E1F7E858F94E80819181892B69F053E009
:10460000220F331F5A95E1F7C9018C58994E0E9429
:10461000412488838FEF01C080E0DF91CF9108951E
:10462000DF93CF930F92CDB7DEB783E0BE016F5F0C
:104630007F4F0E94E222882319F42FEF3FEF03C03F
:104640008981282F30E0C9010F90CF91DF91089523
:10465000DF93CF930F92CDB7DEB782E0BE016F5FDD
:104660007F4F0E94E222882319F42FEF3FEF03C00F
:104670008981282F30E0C9010F90CF91DF910895F3
:10468000DF93CF930F92CDB7DEB781E0BE016F5FAE
:104690007F4F0E94E222882319F42FEF3FEF03C0DF
:1046A0008981282F30E0C9010F90CF91DF910895C3
:1046B000DF93CF930F92CDB7DEB780E0BE016F5F7F
:1046C0007F4F0E94E222882319F42FEF3FEF03C0AF
:1046D0008981282F30E0C9010F90CF91DF91089593
:1046E00090E0E3E0880F991FEA95E1F78C58994E26
:1046F0000E94DD2408958CE896E169E571E140E8C7
:1047000050E00E94342480EB96E169ED71E140E1D4
:1047100050E00E94342408950E947B231092F011EF
:104720001092EF1188ED8093310183E040E855E26B
:1047300060E070E00E9405208FEF80937316109266
:1047400097161092BF161092BE167894089584E8BA
:1047500096E169EC70E140E850E00E94342488EA78
:1047600096E169E471E140E150E00E94342408954B
:104770000E94A7231092EE111092ED1188ED809304
:10478000D10082E040E855E260E070E00E94052040
:104790008FEF80937216109296161092BD1610929B
:1047A000BC16789408958CE796E169E370E140E8DF
:1047B00050E00E94342480EA96E169EB70E140E128
:1047C00050E00E94342408950E94D3231092EC11EB
:1047D0001092EB1188ED8093C90081E040E855E22A
:1047E00060E070E00E9405208FEF809371161092B8
:1047F00095161092BB161092BA167894089584E715
:1048000096E169EA7FE040E850E00E94342488E9BC
:1048100096E169E270E140E150E00E94342408959D
:104820000E94FF231092EA111092E91188ED809303
:10483000C10080E040E855E260E070E00E940520A1
:104840008FEF80937016109294161092B9161092F2
:10485000B816789408950E9410240E94E4230E94C0
:10486000B8230E948C230895FC018FB7F8947183BC
:1048700060835383428317821682158214828FBF0E
:104880000895DC014FB7F89414968D919C9115977B
:10489000892B11F4E0E025C016968D919C91179715
:1048A000ED91FC911197E80FF91FE08101961796A1
:1048B0009C938E93169712962D913C911397821785
:1048C000930730F0821B930B17969C938E93169749
:1048D00014968D919C911597019715969C938E93A4
:1048E00014974FBF8E2F0895FC014FB7F894848121
:1048F000958168177907B0F486819781860F971F95
:1049000097838683228133818217930720F0821B4D
:10491000930B9783868384819581861B970B958360
:10492000848302C0158214824FBF0895FC01CB011D
:104930002FB7F8942FBF2681378162817381820F50
:10494000931F0E94EC2D0190F081E02DE80FF91FDC
:10495000808108951F93CF93DF93EC01162F4FB7FB
:10496000F8942C813D816A817B812617370798F462
:104970008E819F81820F931F0E94EC2DE881F98127
:10498000E80FF91F10838C819D8101969D838C8394
:104990004FBF8FEF02C04FBF80E0DF91CF911F91DB
:1049A0000895FC018FB7F8948FBF228133818481F1
:1049B0009581281B390BC9010895FC018FB7F89424
:1049C000158214828FBF0895AAE7B0E08C918068A9
:1049D0008C938C918F7D8C938C91887F86608C9347
:1049E000ECE7F0E080818F738064808380818F7D2D
:1049F00080838C9188608C931092C016789408956F
:104A0000EAE7F0E08081877F808380818F778083F1
:104A10000895EAE7F0E09081987F982B90830895BD
:104A2000ECE7F0E090818295880F880F807C9F737F
:104A3000982B90830895ECE7F0E090818F71907E41
:104A4000892B80830895EAE7F0E08081806180838C
:104A5000808180648083089580917A0080740895B5
:104A6000982F1092C016883020F080917B008860CB
:104A700003C080917B00877F80937B0080917C00C6
:104A80009770887F892B80937C0080917A00806169
:104A900080937A0080917A00806480937A0080917C
:104AA0007A0086FDFCCF2091780030917900C90111
:104AB00008950E9430259695879596958795089537
:104AC0001F920F920FB60F9211248F938FEF809346
:104AD000C0168F910F900FBE0F901F901895909356
:104AE000F2118093F11108951F93182F8A3031F439
:104AF000E091F111F091F2118DE00995E091F11141
:104B0000F091F211812F09951F910895CF93DF93B2
:104B1000EC01009721F406C021960E94742588813B
:104B20008823D1F7DF91CF910895EF92FF920F93F1
:104B30001F93CF93DF938C017A010097E9F020E077
:104B400030E02617370738F4F80181918F012F5F85
:104B50003F4F8823B1F7C0E0D0E00BC0F80180815F
:104B6000882319F00F5F1F4F01C080E20E94742557
:104B70002196CE15DF0590F3DF91CF911F910F9114
:104B8000FF90EF900895CF93DF93EC01009719F415
:104B900007C00E947425FE01219684918823C9F7DD
:104BA000DF91CF9108958AE00E9474250895E82F3F
:104BB000F0E0EF70F070E256FE4FE4918E2F0E940D
:104BC000742508951F93182F82958F700E94D72502
:104BD000812F0E94D7251F9108951F93182F892F89
:104BE0000E94E225812F0E94E2251F910895EF92F5
:104BF000FF920F931F937B018C01C801AA27BB274B
:104C00000E94ED25C7010E94ED251F910F91FF9095
:104C1000EF9008952F923F924F925F926F927F9202
:104C20008F929F92AF92BF92CF92DF92EF92FF92BC
:104C30000F931F93DF93CF93CDB7DEB7A3970FB634
:104C4000F894DEBF0FBECDBF6AA3242E2BA337017D
:104C50004801442351F017FF08C0EE24FF248701C8
:104C6000E618F7080809190902C0840173012AA18E
:104C7000215090E0211091E0291B29A318A2A82E11
:104C8000BB24CC24DD24C801B701A60195010E94F4
:104C9000132EFB01EF70F070E256FE4F64916F8FA0
:104CA000C801B701A60195010E94132EC901DA01BE
:104CB0007C018D019EE1492E512C4C0E5D1E39A0C8
:104CC00025C0E114F10401051105C9F0C801B701BF
:104CD000A60195010E94132EFB01EF70F070E256C1
:104CE000FE4F6491F2016083C801B701A6019501EE
:104CF0000E94132EC901DA017C018D0103C02BA192
:104D0000F20120833A940894410851083320C9F6EF
:104D1000CE014F968C01E9A10E1B11092220F1F062
:104D200097FE05C08DE2F80182938F0117C0C8017C
:104D30000197611471048104910419F08C018BE2D4
:104D400002C08C0180E2F801808308C0F8018191E3
:104D50008F010E947425FAA1F150FAA32AA12223FF
:104D6000A9F7A3960FB6F894DEBF0FBECDBFCF91C3
:104D7000DF911F910F91FF90EF90DF90CF90BF9048
:104D8000AF909F908F907F906F905F904F903F90EB
:104D90002F9008954F925F926F927F928F929F9281
:104DA000AF92BF92CF92DF92EF92FF920F931F9339
:104DB000CF93DF93482E5A016B01CB01BA0120E05B
:104DC00030E040E050E00E945C2D18161CF43501E4
:104DD000460106C03501460197FA909497F89094E1
:104DE0000F2EF0E0EF2EF0E0FF2EF0E80F2FFFE3A4
:104DF0001F2FF02D5524C401B301A80197010E9473
:104E0000972B20E030E040E251E40E94932B87FD95
:104E10000EC0C801B70120E030E040E251E40E943A
:104E2000672D7B018C0153948FE0581621F7C60142
:104E3000B50120E030E040E050E00E94932B882351
:104E400014F48DE201C08BE20E947425DD24AA24B3
:104E500056C0C401B301A80197010E94972B0E947C
:104E6000042CB62ED62ACD2DD0E0CC24DD24C801CA
:104E7000B70120E030E040E85FE30E94932B8823F5
:104E800019F421E0C22ED12CCC29DD29CD2B39F00B
:104E90008B2D805D0E947425DD24DA9404C080E2AD
:104EA0000E947425DD24C801B70120E030E040E80D
:104EB0005FE30E94932B882319F48EE20E947425ED
:104EC0006B2D70E0882777FD8095982F0E94322CFB
:104ED000A80197010E94672D9B01AC01C401B30199
:104EE0000E94CC2A3B014C01C801B70120E030E010
:104EF00040E251E40E94972B7B018C01A394A414FF
:104F000008F4A7CFDF91CF911F910F91FF90EF9001
:104F1000DF90CF90BF90AF909F908F907F906F90D9
:104F20005F904F9008957F928F929F92AF92BF9221
:104F3000CF92DF92EF92FF920F931F93DF93CF9365
:104F4000CDB7DEB77888C988DA8863E1E62EF12C20
:104F5000EC0EFD1E14C0882381F480E090E0CF9118
:104F6000DF911F910F91FF90EF90DF90CF90BF9056
:104F7000AF909F908F907F9008950E947425960126
:104F80002F5F3F4F772021F0F6016901849103C024
:104F9000F601808169018532F1F62F5F3F4F77205E
:104FA00021F0F6016901849103C0F6018081690155
:104FB000843629F0883781F08336F9F606C000E19F
:104FC00017E25AE0A52EB12C0CC0F701808122E037
:104FD00030E0E20EF31ED1CF00E010E140E1A42E5C
:104FE000B12C32E0832E912C8E0C9F1CF701E080B7
:104FF000F1808436B1F4F7FE11C0F094E194F10829
:10500000F3948DE20E94742509C0C8016AE070E043
:105010000E94EC2D8B016230710518F0E016F1064C
:10502000A0F3C701B8010E94EC2D862F0E94D7255E
:10503000C701B8010E94EC2D7C01C801B5010E9496
:10504000EC2D8B016115710561F7740198CF2091EA
:10505000B9002E7F2093B9002091B9002D7F2093B5
:10506000B9009C0140E050E060E87EE380E090E021
:105070000E94352E203130F0822F90E04097959598
:105080008795282F2093B8000895589A599A10921E
:105090003A121092391210923C1210923B1284E68E
:1050A00090E00E942728ECEBF0E080818460808310
:1050B0001092F3118081816080838081806480837D
:1050C0007894089590E0611191E08E7F982B9093F1
:1050D000BA00089590933A128093391208959093EC
:1050E0003C1280933B120895ECEBF0E080818F70CE
:1050F000806A80830895ECEBF0E080818F70806D92
:10510000808308958091BC0087FFFCCF0895809331
:10511000BB00ECEBF0E080818F70806880830895A5
:10512000882329F08091BC008F70806C04C080912E
:10513000BC008F7080688093BC0008958091BB0094
:1051400008958091B9000895982F8091F3118823D4
:10515000E1F782E08093F3119E7F9093F411A5EF25
:10516000B1E1FA0102C081918D938E2F841B8617C5
:10517000D0F310921512609316128091BC008F70BC
:10518000806A8093BC000895982F8091F311882342
:10519000E1F783E08093F31191609093F411109202
:1051A0003712609338128091BC008F70806A8093B0
:1051B000BC008091F3118823E1F7A7E1B2E1FA0185
:1051C00002C08D9181938E2F841B8617D0F3089592
:1051D000982FFA018091BC008E7F8093BC00809153
:1051E000BC008F70806A8093BC008091BC0087FFF8
:1051F000FCCF9E7F9093BB008091BC008F70806835
:105200008093BC008091BC0087FFFCCF8091B900E7
:10521000883189F091E012C080818093BB00809139
:10522000BC008F7080688093BC008091BC0087FFB9
:10523000FCCF31966150662379F790E08091BC00F5
:105240008F70806D8093BC008091BC0084FFFCCF88
:105250008091BC0081608093BC00892F0895982FB5
:10526000FA018091BC008E7F8093BC008091BC00CD
:105270008F70806A8093BC008091BC0087FFFCCF58
:1052800091609093BB008091BC008F708068809388
:10529000BC008091BC0087FFFCCF8091B9008034B6
:1052A00081F091E01EC08091BC008F70806C809373
:1052B000BC008091BC0087FFFCCF8091BB00819334
:1052C0006150623080F78091BC008F70806880935D
:1052D000BC008091BC0087FFFCCF8091BB00808325
:1052E00090E08091BC008F70806D8093BC008091B5
:1052F000BC0081608093BC00892F08951F920F929B
:105300000FB60F9211242F933F934F935F936F9398
:105310007F938F939F93AF93BF93EF93FF9380916E
:10532000B900887F803609F4A0C0813670F58832D4
:1053300009F45FC0893298F4803109F457C0813193
:1053400038F4882309F4EAC0883009F0EFC04EC071
:10535000883109F44EC0803209F0E8C0DFC08034E3
:1053600009F477C0813438F4803309F4D7C0883326
:1053700009F0DCC05DC0803509F45FC0883509F4F0
:105380004AC0883409F0D2C0C9C0883909F4BAC00B
:105390008939B0F4883709F468C0893738F4883619
:1053A00009F463C0803709F0C1C05FC0883809F4D0
:1053B000A9C0803909F45FC0803809F0B7C05BC06C
:1053C000803B09F479C0813B38F4803A09F462C02B
:1053D000883A09F0ABC070C0803C09F49AC0883CA0
:1053E00009F497C0883B09F0A1C077C08091F411FF
:1053F0000FC09091151280911612981708F08EC068
:10540000E92FF0E0EB50FE4E80819F5F90931512E4
:105410008093BB0077C0809137129091BB00E82F3A
:10542000F0E0E95EFD4E90838F5F8093371276C087
:105430008091BC008F70806875C080913712909108
:10544000BB00E82FF0E0E95EFD4E90838F5F809314
:1054500037122091371230E08091381290E0019796
:10546000281739070CF04EC048C085E08093F3112F
:105470001092371242C0809137129091BB00E82FF2
:10548000F0E0E95EFD4E90838F5F809337128032AB
:10549000C8F533C08091BC008F70806C8093BC00D5
:1054A000E0913912F0913A123097F1F18091371270
:1054B00067E172E1099538C084E08093F311E091CF
:1054C0003B12F0913C12309731F080E265EF71E1D0
:1054D0000995809316121092151290911512E92FCA
:1054E000F0E0EB50FE4E80818093BB009F5F909375
:1054F000151280911612981728F48091BC008F70B5
:10550000806C04C08091BC008F7080688093BC0068
:105510000DC08091BC008F70806C04C08091BC0075
:105520008F70806D8093BC001092F311FF91EF910A
:10553000BF91AF919F918F917F916F915F914F91AB
:105540003F912F910F900FBE0F901F901895809153
:10555000F3110895F8940C94502EFB01DC0102C065
:1055600001900D9241505040D8F70895DC0101C0E0
:105570006D9341505040E0F70895FB01DC0141502C
:10558000504048F001900D920020C9F701C01D92D3
:1055900041505040E0F708955058BB27AA270ED03D
:1055A0003AC22BD230F030D220F031F49F3F11F4C8
:1055B0001EF4FBC10EF4E095E7FBC6C1E92F3CD217
:1055C00080F3BA17620773078407950718F071F420
:1055D0009EF56BC20EF4E0950B2EBA2FA02D0B0199
:1055E000B90190010C01CA01A0011124FF27591B28
:1055F00099F0593F50F4503E68F11A16F040A22F2E
:10560000232F342F4427585FF3CF4695379527959E
:10561000A795F0405395C9F77EF41F16BA0B620B9D
:10562000730B840BBAF09150A1F0FF0FBB1F661FE4
:10563000771F881FC2F70EC0BA0F621F731F841F27
:1056400048F4879577956795B795F7959E3F08F04D
:10565000B3CF9395880F08F09927EE0F979587950C
:105660000895CBD158F080E891E009F49EEFCCD1B9
:1056700028F040E851E059F45EEF09C096C115C228
:10568000E92FE078D9D168F3092E052AC1F326174E
:1056900037074807590738F00E2E07F8E02569F05C
:1056A000E025E0640AC0EF6307F8009407FADB0125
:1056B000B9019D01DC01CA01AD01EF9347D0ABD127
:1056C0000AD05F91552331F02BED3FE049E450FDC6
:1056D00049EC63CF0895DF93DD27B92FBF7740E80A
:1056E0005FE31616170648075B0710F4D92FE8D1B9
:1056F0009F938F937F936F934DD2E4EEF0E058D158
:105700008AD12F913F914F915F91EDD1DD2349F0E7
:105710009058A2EA2AED3FE049EC5FE3D0785D279C
:105720004DDFDF9178C1ECD008F481E008950CD012
:1057300072C16AD140F061D130F021F45F3F19F0BD
:1057400003C15111B3C131C177D198F39923C9F382
:105750005523B1F3951B550BBB27AA276217730777
:10576000840738F09F5F5F4F220F331F441FAA1F2B
:10577000A9F333D00E2E3AF0E0E830D091505040EB
:10578000E695001CCAF729D0FE2F27D0660F771F99
:10579000881FBB1F261737074807AB07B0E809F07B
:1057A000BB0B802DBF01FF2793585F4F2AF09E3F10
:1057B000510568F0C9C07AC15F3FECF3983EDCF355
:1057C000869577956795B795F7959F5FC9F7880F89
:1057D000911D9695879597F90895E1E0660F771FDB
:1057E000881FBB1F621773078407BA0720F0621B6C
:1057F000730B840BBA0BEE1F88F7E095089504D065
:105800006894B11153C108951FD188F09F5790F04B
:10581000B92F9927B751A0F0D1F0660F771F881FD5
:10582000991F1AF0BA95C9F712C0B13081F03DD175
:10583000B1E008953AC1672F782F8827B85F39F013
:10584000B93FCCF3869577956795B395D9F73EF434
:1058500090958095709561957F4F8F4F9F4F0895DC
:10586000E89409C097FB3EF49095809570956195FA
:105870007F4F8F4F9F4F9923A9F0F92F96E9BB27B0
:105880009395F695879577956795B795F111F8CF2C
:10589000FAF4BB0F11F460FF1BC06F5F7F4F8F4F97
:1058A0009F4F16C0882311F096E911C0772321F08D
:1058B0009EE8872F762F05C0662371F096E8862F25
:1058C00070E060E02AF09A95660F771F881FDAF77C
:1058D000880F9695879597F90895D0D080F09F37D7
:1058E00040F491110EF0E2C060E070E080E89FEBC0
:1058F000089526F41B16611D711D811D2BC045C026
:10590000990F0008550FAA0BE0E8FEEF16161706D0
:10591000E807F907C0F012161306E407F50798F038
:10592000621B730B840B950B39F40A2661F0232B51
:10593000242B252B21F408950A2609F4A140A695CD
:105940008FEF811D811D089597F99F6780E870E0B2
:1059500060E00895882371F4772321F09850872B15
:10596000762F07C0662311F499270DC09051862B1E
:1059700070E060E02AF09A95660F771F881FDAF7CB
:10598000880F9695879597F908959F3F49F0915014
:1059900028F4869577956795B7959F5F80389F4FD8
:1059A000880F9695879597F908959FEF80EC089555
:1059B000DF93CF931F930F93FF92EF92DF927B01C0
:1059C0008C01689405C0DA2EEF018DD0FE01E894B9
:1059D000A5912591359145915591AEF3EF01EEDDFD
:1059E000FE019701A801DA9479F7DF90EF90FF901C
:1059F0000F911F91CF91DF91089500240A941616FC
:105A0000170618060906089500240A9412161306AC
:105A1000140605060895092E0394000C11F488233A
:105A200052F0BB0F40F4BF2B11F460FF04C06F5F56
:105A30007F4F8F4F9F4F089557FD9058440F551F2C
:105A400059F05F3F71F04795880F97FB991F61F000
:105A50009F3F79F087950895121613061406551F77
:105A6000F2CF4695F1DF08C0161617061806991FE3
:105A7000F1CF86957105610508940895E5DFA0F0E2
:105A8000BEE7B91788F4BB279F3860F41616B11D1E
:105A9000672F782F8827985FF7CF8695779567953A
:105AA000B11D93959639C8F30895E894BB276627EE
:105AB0007727CB0197F9089523DF08F48FEF089536
:105AC0009B01AC0160E070E080E89FE330CE0BD03A
:105AD000A2CF93DF28F098DF18F0952309F034CF98
