:100000000C94E6000C9403010C9403010C9403017E
:100010000C9403010C9403010C9403010C94030150
:100020000C9403010C9403010C9403010C94030140
:100030000C9403010C94821D0C94AF1D0C94A11B15
:100040000C94FB1C0C94CF160C94281D0C94551D7D
:100050000C94611B0C94A11C0C94CE1C0C940E1BD4
:100060000C9403010C9478210C9403010C94D52278
:100070000C9403010C948F250C9403010C94DC1D4B
:100080000C94091E0C94361E0C94631E0C94E11BF8
:100090000C9453210C9403010C94B0220C94AD29C0
:1000A0000C9403010C94901E0C94BD1E0C94EA1E3B
:1000B0000C94171F0C94211C0C94441F0C94711F5A
:1000C0000C949E1F0C94CB1F0C94611C0C942E213D
:1000D0000C9403010C948B220C9409210C940301C1
:1000E0000C946622084AD73B3BCE016E84BCBFFD10
:1000F000C12F3D6C74319ABD56833DDA3D00C77FF8
:1001000011BED9E4BB4C3E916BAAAABE0000008090
:100110003F44454154480A00204F6D6567613A20CD
:100120000052656365697665642056656C6F636926
:1001300074793A2000636D645F616E676C653A2084
:1001400000636D645F616E676C653A20000A00258C
:10015000640025640A00496E697469616C697A619A
:1001600074696F6E20436F6D706C657465200D0A45
:10017000002E000D0A53797374656D205761726DFE
:1001800065642055700057520A0057520A0000005B
:100190000100080040000001000400000100080008
:1001A000200040008000000100044241445F766569
:1001B00063742063616C6C656421003031323334C8
:1001C00035363738394142434445460011241FBE75
:1001D000CFEFD1E2DEBFCDBF12E0A0E0B2E0E2E0BF
:1001E000FDE502C005900D92AE3BB107D9F714E1D1
:1001F000AEEBB2E001C01D92A83BB107E1F70E944F
:10020000790D0C94D92A0C94F81F893049F4809107
:100210008000826080938000809180008E7F0EC07D
:100220008A3021F480918000826003C08091800038
:100230008D7F80938000809180008160809380001A
:1002400010928B0010928A000895893049F48091B1
:10025000B00082608093B0008091B0008E7F0EC0AD
:100260008A3021F48091B000826003C08091B00098
:100270008D7F8093B0008091B00081608093B0004A
:100280001092B4000895893049F480919000826002
:1002900080939000809190008E7F0EC08A3021F470
:1002A00080919000826003C0809190008D7F809348
:1002B000900080919000816080939000109299004E
:1002C000109298000895893049F4809191008260DD
:1002D00080939100809191008E7F0EC08A3021F42E
:1002E00080919100826003C0809191008D7F809306
:1002F00091008091910081608093910010929B0009
:1003000010929A000895893049F480919200826099
:1003100080939200809192008E7F0EC08A3021F4EB
:1003200080919200826003C0809192008D7F8093C3
:1003300092008091920081608093920010929D00C3
:1003400010929C000895893049F48091A000826049
:100350008093A0008091A0008E7F0EC08A3021F48F
:100360008091A000826003C08091A0008D7F809367
:10037000A0008091A00081608093A0001092A9004D
:100380001092A8000895893049F48091A1008260FC
:100390008093A1008091A1008E7F0EC08A3021F44D
:1003A0008091A100826003C08091A1008D7F809325
:1003B000A1008091A10081608093A1001092AB0008
:1003C0001092AA000895893049F48091A0008260BB
:1003D0008093A0008091A0008E7F0EC08A3021F40F
:1003E0008091A000826003C08091A0008D7F8093E7
:1003F000A0008091A00081608093A0001092AD00C9
:100400001092AC000895E0E8F0E020812E7F208378
:10041000208122602083E1E8F0E0208128602083B1
:100420002081206120839093870080938600109222
:1004300089001092880010928B0010928A0010920E
:100440008D0010928C000895E0E9F0E020812E7F6D
:100450002083208122602083E1E9F0E02081286070
:1004600020832081206120839093970080939600C1
:10047000109299001092980010929B0010929A008E
:1004800010929D0010929C000895E0EAF0E0208117
:100490002E7F2083208122602083E1EAF0E020810A
:1004A000286020832081206120839093A70080937F
:1004B000A6001092A9001092A8001092AB00109212
:1004C000AA001092AD001092AC000895E0E8F0E0B0
:1004D00080818062808380818F7E80830895E0EBBD
:1004E000F0E080818062808380818F7E80830895A8
:1004F000E0E9F0E080818068808380818F7B808369
:100500000895E0E9F0E080818062808380818F7EC1
:1005100080830895E0E9F0E08081886080838081B5
:100520008B7F80830895E0EAF0E08081806880839B
:1005300080818F7B80830895E0EAF0E08081806293
:10054000808380818F7E80830895E0EAF0E080815F
:100550008860808380818B7F80830895E0E8F0E06D
:1005600080818F7D808380818F7E80830895E0EB02
:10057000F0E080818F7D808380818F7E80830895ED
:10058000E0E9F0E080818F77808380818F7B8083BA
:100590000895E0E9F0E080818F7D808380818F7E07
:1005A00080830895E0E9F0E08081877F8083808107
:1005B0008B7F80830895E0EAF0E080818F778083ED
:1005C00080818F7B80830895E0EAF0E080818F7DD9
:1005D000808380818F7E80830895E0EAF0E08081CF
:1005E000877F808380818B7F80830895E0E8F0E0BF
:1005F00080818D7F808380818E7F808380818F7DCD
:10060000808380818F7E80830895E0EBF0E080819D
:100610008D7F808380818E7F808380818F7D8083AA
:1006200080818F7E80830895E0E9F0E080818D7F76
:10063000808380818E7F808380818F77808380819B
:100640008F7B808380818F7D808380818F7E80837C
:100650008081877F808380818B7F80830895E0EA1B
:10066000F0E080818D7F808380818E7F8083808198
:100670008F77808380818F7B808380818F7D808353
:1006800080818F7E80838081877F808380818B7F44
:100690008083089590938B0080938A0008958093BF
:1006A000B4000895909399008093980008959093D2
:1006B0009B0080939A00089590939D0080939C00E6
:1006C00008959093A9008093A80008959093AB009B
:1006D0008093AA0008959093AD008093AC00089594
:1006E00010BA11BA10920701109208019FEF91B948
:1006F00080E484B997B9589A599A83EF8AB98EEFF2
:100700008DB9A59A9D988093010180930401089565
:1007100008952E9A08952E98089522B330E085E02A
:10072000369527958A95E1F72095309521703070A0
:10073000C901089597FD10C025E030E040E050E089
:100740000E94642EDA01C901880F991F8B5D9D4FAD
:10075000FC012081318117C025E030E040E050E00D
:100760000E94642EDA01C901885B9F4FAF4FBF4FD3
:10077000880F991F8B5D9D4FFC01808191812227FD
:100780003327281B390BC90108956A5570408040F2
:10079000904097FD10C025E030E040E050E00E941E
:1007A000642EDA01C901880F991F8B5D9D4FFC01F2
:1007B0002081318117C025E030E040E050E00E9408
:1007C000642EDA01C901885B9F4FAF4FBF4F880F7E
:1007D000991F8B5D9D4FFC018081918122273327DA
:1007E000281B390BC9010895CF92DF92EF92FF9237
:1007F0000F931F936B017C018AE5C816D104E104B5
:10080000F104A1F186EAC8168FEFD8068FEFE8064B
:100810008FEFF80659F18EE0C81681E0D80680E027
:10082000E80680E0F80611F182EFC8168EEFD806D0
:100830008FEFE8068FEFF806C9F0C701B6010E94F6
:10084000C5038C01C701B6010E949A03BC01C8010F
:100850000E942F2ECB019B0173E0220F331F7A954C
:10086000E1F7880F991F280F391F02C020E030E000
:10087000C9011F910F91FF90EF90DF90CF900895E5
:100880008AE00E9463018AE00E9443018AE00E949C
:10089000A3018AE00E94C3010895982F80538A30F3
:1008A00038F08151863010F0892F0895892F8753B1
:1008B0000895FC019081218142815381892F8053C9
:1008C0008A3010F4982F05C0892F8154863008F49F
:1008D0009753822F80538A3010F4282F05C0822F1F
:1008E0008154863008F42753842F80538A3010F4C3
:1008F000482F05C0842F8154863008F44753852F34
:1009000080538A3010F4582F05C0852F81548630CB
:1009100008F4575330E0892F90E0A4E0880F991F26
:10092000AA95E1F7282B392BF4E0220F331FFA9513
:10093000E1F7842F90E0822B932BE4E0880F991F3E
:10094000EA95E1F7252F30E0282B392BC9010895CE
:10095000FF920F931F93FC0190812181628173812B
:1009600014810581F680E781892F80538A3010F445
:10097000982F05C0892F8154863008F49753822F11
:1009800080538A3010F4282F05C0822F815486307E
:1009900008F42753862F80538A3010F4682F05C03F
:1009A000862F8154863008F46753872F80538A300E
:1009B00010F4782F05C0872F8154863008F47753C0
:1009C000812F80538A3010F4182F05C0812F815455
:1009D000863008F41753802F80538A3010F4082F84
:1009E00005C0802F8154863008F407538F2D805323
:1009F0008A3010F4F82E06C08F2D8154863010F402
:100A000089ECF80E8E2F80538A3010F4E82F05C041
:100A10008E2F8154863008F4E75330E040E050E0F8
:100A2000892F90E0A0E0B0E0F4E0880F991FAA1FA2
:100A3000BB1FFA95D1F7282B392B4A2B5B2BA4E04F
:100A4000220F331F441F551FAA95D1F7862F90E020
:100A5000A0E0B0E0822B932BA42BB52BF4E0880F01
:100A6000991FAA1FBB1FFA95D1F7272F30E040E04E
:100A700050E0282B392B4A2B5B2B64E0220F331FCD
:100A8000441F551F6A95D1F7812F90E0A0E0B0E098
:100A9000822B932BA42BB52B24E0880F991FAA1F20
:100AA000BB1F2A95D1F7202F30E040E050E0282BE3
:100AB000392B4A2B5B2B04E0220F331F441F551F99
:100AC0000A95D1F78F2D90E0A0E0B0E0822B932B18
:100AD000A42BB52B14E0880F991FAA1FBB1F1A95D2
:100AE000D1F72E2F30E040E050E0282B392B4A2B55
:100AF0005B2BB901CA011F910F91FF9008958F3FA1
:100B0000B9F0E091F002F091F10280838091F0025F
:100B10009091F10201969093F1028093F002885334
:100B2000944130F088E392E19093F1028093F002D7
:100B3000089588E392E19093F3028093F2029093F8
:100B4000F1028093F0020895EF92FF920F931F93AA
:100B50007B018C0120E030E040E152E40E948B2DCB
:100B600018165CF40F2EF0E0EF2EF0E0FF2EF0E10F
:100B70000F2FF2E41F2FF02D14C0C801B70120E0A1
:100B800030E040E152EC0E94C22B882354F40F2E37
:100B9000F0E0EF2EF0E0FF2EF0E10F2FF2EC1F2F30
:100BA000F02D0FB6F8940F92C801B70128E430E594
:100BB0004CEF5EEB0E94962D2FE135E449E353E4C0
:100BC0000E94FC2A0E942E2C70939B0060939A0036
:100BD0000F900FBE1F910F91FF90EF900895EF922D
:100BE000FF920F931F937B018C0120E030E040E1E6
:100BF00052E40E948B2D18165CF40F2EF0E0EF2EBD
:100C0000F0E0FF2EF0E10F2FF2E41F2FF02D14C0C3
:100C1000C801B70120E030E040E152EC0E94C22B55
:100C2000882354F40F2EF0E0EF2EF0E0FF2EF0E1D9
:100C30000F2FF2EC1F2FF02D0FB6F8940F92C80172
:100C4000B70121E137EC4AE05FEB0E94962D26EFD9
:100C500038E64CE353E40E94FC2A0E942E2C709349
:100C60009900609398000F900FBE1F910F91FF9015
:100C7000EF900895982F8A3010F4905D04C08A5048
:100C8000873008F4995C892F0895AF92BF92CF9274
:100C9000DF92EF92FF920F931F936091D8027091B1
:100CA000D9028091DA029091DB0220E030E044E347
:100CB00053E40E94962D2BED3FE049E450E40E945E
:100CC000C62B5B016C018091BE029091BF02209106
:100CD000CB023091CC02821B930B62E070E00E9449
:100CE0002F2E882777FD8095982F0E94612C7B01FD
:100CF0008C01C501D6018093381490933914A093C8
:100D00003A14B0933B14E0923C14F0923D140093DB
:100D10003E1410933F14EDCF982F8F3F09F47CC001
:100D20008A3021F481E080930C0333C080910C035E
:100D3000882391F0963531F481E080930903109275
:100D40000B0307C0943441F481E0809308031092B0
:100D50000A0310920C03089580910903882359F027
:100D600080910B03E82FF0E0EC5FFC4F90838F5FE6
:100D700080930B030EC080910803882351F080916B
:100D80000A03E82FF0E0E450FD4F90838F5F8093DB
:100D90000A0380910B03843001F584E093E00E9404
:100DA0005904AA2797FDA095BA2FBC01CD010E9436
:100DB000612C20E030E040E85EE30E94962D0E9426
:100DC0002E2C7093BF026093BE0210920903109202
:100DD0000B0381E08093C002089580910A0388305C
:100DE00051F58CEF92E00E94A8040E94612C20E053
:100DF00030E040E85EE30E94962D0E942E2C609326
:100E0000C1027093C2028093C3029093C4021092F5
:100E1000080310920A03089500D00F9281E0EDB705
:100E2000FEB7818386E891E0938382830E94C22784
:100E30000F900F900F900895982F8F3F09F47CC06A
:100E40008A3021F481E080931D0333C080911D031B
:100E5000882391F0963531F481E080931A03109243
:100E60001C0307C0943441F481E08093190310926D
:100E70001B0310921D03089580911A03882359F0D3
:100E800080911C03E82FF0E0EB5EFC4F90838F5FB6
:100E900080931C030EC080911903882351F0809128
:100EA0001B03E82FF0E0E35FFC4F90838F5F80939C
:100EB0001B0380911C03843001F585E193E00E94BF
:100EC0005904AA2797FDA095BA2FBC01CD010E9415
:100ED000612C20E030E040E85EE30E94962D0E9405
:100EE0002E2C7093CC026093CB0210921A031092B6
:100EF0001C0381E08093CD02089580911B0388300C
:100F000051F58DE093E00E94A8040E94612C20E03E
:100F100030E040E85EE30E94962D0E942E2C609304
:100F2000CE027093CF028093D0029093D1021092A0
:100F3000190310921B03089500D00F9281E0EDB7C2
:100F4000FEB781838AE891E0938382830E94C2275F
:100F50000F900F900F9008953F924F925F926F9273
:100F60007F928F929F92AF92BF92CF92DF92EF9239
:100F7000FF920F931F93DF93CF9300D0CDB7DEB7CF
:100F80000F2EF0E0AF2EF0E0BF2EF0E0CF2EF0E01D
:100F9000DF2EF02D33243394B1E44B2EB1E05B2EE1
:100FA0004E010894811C911C0F2EFBEDEF2EFFE0EB
:100FB000FF2EF9EC0F2FFFE31F2FF02DA5E36A2E74
:100FC000A1E07A2EA092E402B092E502C092E6027D
:100FD000D092E70200D00F92EDB7FEB73182538274
:100FE00042820E94C2270F900F900F904091E4021E
:100FF0005091E5026091E6027091E70285E00E945F
:10100000F9260E940226C40160E177E20E94B8132B
:10101000E092E402F092E5020093E6021093E70208
:1010200000D00F92EDB7FEB73182738262820E94C8
:10103000C2270F900F900F904091E4025091E5026B
:101040006091E6027091E70285E00E94F9260E9415
:101050000226C40160E177E20E94B813B3CF0F9378
:101060001F93DF93CF9300D0CDB7DEB78E010F5F14
:101070001F4F2E98C80162E370E00E94B8132E9AA9
:10108000C80162E370E00E94B813F3CF0F931F937F
:10109000DF93CF9300D0CDB7DEB78E010F5F1F4F28
:1010A000109AC80162E370E00E94B8131098C8015A
:1010B00062E370E00E94B813F3CFAF92BF92DF9269
:1010C000EF92FF920F931F93DF93CF9300D0CDB792
:1010D000DEB70E94F6195E010894A11CB11C809134
:1010E000C002882329F48091CD02882309F4A4C08A
:1010F0006091CB027091CC02709561957F4F2091E9
:10110000BE023091BF02621B730B882777FD80956A
:10111000982F0E94612C26E636E646E851E40E94AC
:10112000C62B6093DC027093DD028093DE02909305
:10113000DF020E9497197B018C01D6B40E94F61938
:10114000C801B7012FEF30E040E050E00E94FC2DD5
:101150006D0D711D811D911D0E945F2C2EE633EADD
:1011600041E85DE30E94962D20E030E04AE754E438
:101170000E94C62B2091DC023091DD024091DE02FC
:101180005091DF020E94962D2091D8023091D90211
:101190004091DA025091DB020E94FC2A7B018C0113
:1011A0002BED3FE049E450E40E94FB2A2BED3FE0A9
:1011B00049EC50E40E94C62B0E949C2C20E030E0B9
:1011C00040E85FE30E94FC2A2BED3FE049EC50EC45
:1011D0000E94962D9B01AC01C801B7010E94FC2A18
:1011E0006093D8027093D9028093DA029093DB0265
:1011F0002091E4023091E5024091E6025091E7022D
:101200000E94FB2A20E030E040E050E00E94FC2AEF
:1012100020E030E040E85FE30E946F2B20E030E008
:1012200040E05FEB0E94962D6093E8027093E90224
:101230008093EA029093EB02C50162E370E00E94A2
:10124000B8134DCFFF920F931F93CF93DF93EB0112
:101250000E94B7203FE0F32EFC2289E08F1518F0A2
:1012600090E3F90E06C08F2D8A50873010F487E383
:10127000F80ECE0124E0959587952A95E1F7082F81
:101280000F700A3010F4005D05C0802F8A5087303F
:1012900008F4095C8D2F992787FD9A95182F1F70E8
:1012A0001A3010F4105D05C0812F8A50873008F481
:1012B000195CC0E1DC02C12DDD0B1124CE018F7061
:1012C000682F8A3010F4605D04C08A50873008F4BB
:1012D000695C862F0E94B720812F0E94B720802F43
:1012E0000E94B7208F2D0E94B7208AE00E94B7206D
:1012F000DF91CF911F910F91FF9008957F928F9270
:101300009F92AF92BF92CF92DF92EF92FF920F9394
:101310001F93DF93CF9300D0CDB7DEB78091A000AD
:1013200080628093A0008091A0008F7E8093A000B7
:101330008091A00080688093A0008091A0008F7BA6
:101340008093A0000AE710E06CEC862E912C5E01E1
:101350000894A11CB11C772473945FE4C52E51E05E
:10136000D52E4DE4E42E41E0F42E84E00030180741
:1013700010F000E010E00FB6F8940F921093A9005F
:101380000093A8009092AB008092AA000F900FBE2D
:101390006091B7027091B802C5010E94B8130E9413
:1013A0006F23803719F40F5F1F4F04C08C3611F480
:1013B0000150104000D000D00F92EDB7FEB731962B
:1013C000ADB7BEB711967C92D282C18214830383DB
:1013D0000E94C2270F900F90EDB7FEB77182F38283
:1013E000E2820E94C2270F5F1F4F0F900F900F9055
:1013F000BCCF1F93CF93DF9311E0C2E5D1E00E94F1
:101400006F23803731F48091B7029091B802019632
:1014100007C08C3649F48091B7029091B8020197C9
:101420009093B8028093B70200D000D00F92EDB72E
:10143000FEB73196ADB7BEB711961C93D283C18368
:101440008091B7029091B802948383830E94C2274F
:101450000F900F900F900F900F90D1CF2F923F923F
:101460004F925F926F927F928F929F92AF92BF92B4
:10147000CF92DF92EF92FF920F931F93DF93CF9360
:10148000CDB7DEB762970FB6F894DEBF0FBECDBF03
:1014900080919000806280939000809190008F7E78
:1014A000809390008091900080688093900080915C
:1014B00090008F7B809390000E940D1A80E090E056
:1014C000A0E0B0E08F87988BA98BBA8B8F83988729
:1014D000A987BA87A090E002B090E102C090E20232
:1014E000D090E302E090E802F090E9020091EA0275
:1014F0001091EB02C801B70123E333E343E051EC61
:101500000E94962D9B01AC01C601B5010E94FC2AE8
:101510001B012C01C801B70123E333E343E051E48D
:101520000E94962D9B01AC01C601B5010E94FC2AC8
:101530006B837C838D839E830E94AD191091B200D2
:101540002FEF30E040E050E00E94FC2D610F711D54
:10155000811D911D0E945F2C2EE633EA41E85DE378
:101560000E94962D20E030E04AE754E40E94C62B0A
:101570003B014C010E940D1A1092CD021092C00244
:101580006091BE027091BF02882777FD8095982FE9
:101590000E94612C9B01AC01C201B1010E94FB2A97
:1015A0005B016C016091CB027091CC0270956195EA
:1015B0007F4F882777FD8095982F0E94612C9B0193
:1015C000AC016B817C818D819E810E94FB2A6B879F
:1015D0007C878D879E87C601B50122EF3CE546E6F4
:1015E0005DE30E94962D7B018C016F857889898946
:1015F0009A8928EB32E44FE05EE30E94962D9B012E
:10160000AC01C801B7010E94FC2A7B018C01C20118
:10161000B10120E030E040E050E00E94962D9B01B7
:10162000AC01C801B7010E94FC2A7B018C01C601F4
:10163000B501A40193010E94962D9B01AC016F8519
:10164000788989899A890E94FC2A6F87788B898B8F
:101650009A8B6B857C858D859E85A40193010E9464
:10166000962D9B01AC016F81788589859A850E94B2
:10167000FC2AA62E672E282ED92E0FB6F8940F928C
:10168000C801B70120E030E040E152E40E948B2D18
:1016900018165CF40F2EF0E0EF2EF0E0FF2EF0E1D4
:1016A0000F2FF2E41F2FF02D14C0C801B70120E066
:1016B00030E040E152EC0E94C22B882354F40F2EFC
:1016C000F0E0EF2EF0E0FF2EF0E10F2FF2EC1F2FF5
:1016D000F02D0FB6F8940F92C801B70128E430E559
:1016E0004CEF5EEB0E94962D2FE135E449E353E485
:1016F0000E94FC2A0E942E2C70939B0060939A00FB
:101700000F900FBE6B857C858D859E8520EB34EB1D
:101710004AE25DE30E94962D7B018C016F81788502
:1017200089859A852CE536E540EA5DE30E94962D91
:101730009B01AC01C801B7010E94FC2A7B018C010E
:101740006B817C818D819E8120E030E040E050E023
:101750000E94962D9B01AC01C801B7010E94FC2A92
:101760007B018C0117FB109517F91095C801B70183
:1017700020E030E040E152E40E948B2D18165CF42A
:101780000F2EF0E0EF2EF0E0FF2EF0E10F2FF2E44D
:101790001F2FF02D14C0C801B70120E030E040E158
:1017A00052EC0E94C22B882354F40F2EF0E0EF2E4F
:1017B000F0E0FF2EF0E10F2FF2EC1F2FF02D0FB60F
:1017C000F8940F92C801B70121E137EC4AE05FEBD2
:1017D0000E94962D26EF38E64CE353E40E94FC2A43
:1017E0000E942E2C70939900609398000F900FBE6A
:1017F00080910B01826080930B0182E390E00E9454
:101800003F1A80910B018D7F80930B010F900FBECB
:10181000CE01019661E070E00E94B8132A2D362DAA
:10182000422D5D2DC901DA0151CE04C08AE090E05D
:101830000E943F1AE091F202F091F3028091F002CF
:101840009091F102E817F90789F32191F093F302DF
:10185000E093F202E853F44130F088E392E1909390
:10186000F3028093F202822F08952F923F924F92BB
:101870005F926F927F928F929F92AF92BF92CF9220
:10188000DF92EF92FF920F931F93DF93CF9300D0DD
:10189000CDB7DEB778E1272E71E0372E2E01089400
:1018A000411C511C0E94150C8A3F09F07CC00E940B
:1018B000150CE82E0E94150CF82E0E94150C082F0E
:1018C0000E94150C182F0E94150C682E0E94150CF2
:1018D000782E0E94150C882E0E94150C982E0E94BE
:1018E000150C8E2D0E9411268F2D0E941126802FFF
:1018F0000E941126812F0E941126862D0E941126FA
:10190000872D0E941126882D0E941126892D0E9464
:101910001126DE2CCF2CB02EA12E8E2D9F2DA02F88
:10192000B12F8093E0029093E102A093E202B09382
:10193000E302862D972DA82DB92D8093E802909370
:10194000E902A093EA02B093EB020E94022600D0C3
:101950000F9281E0EDB7FEB7818381E291E093833E
:1019600082830E94C2270F900F900F9085E04D2D2B
:101970005C2D6B2D7A2D0E94F92600D00F9281E00C
:10198000EDB7FEB78183338222820E94C2270F9077
:101990000F900F9085E0462D572D682D792D0E94D0
:1019A000F9260E940226C20161E070E00E94B8138D
:1019B00079CF0F931F93CF93DF930E945A2480E037
:1019C00040E056E960E070E00E94342081E040E0B1
:1019D00052EC61E070E00E94342082E040E056E981
:1019E00060E070E00E94342083E040E056E960E06F
:1019F00070E00E9434208DEA90E20E949E250E94B1
:101A0000700388E392E19093F3028093F202909343
:101A1000F1028093F00282E06CE876E00E942920D7
:101A200080E06CE177E00E94292083E06FE775E0B9
:101A30000E9429202E9800D00F9281E0EDB7FEB7CA
:101A4000818383E791E0938382830E94C2270F9072
:101A50000F900F9085E00E94401A87E00E94601A64
:101A600083E00E94701A83E00E94821A83E00E9441
:101A7000941A0E94132585E00E94382581E00E9477
:101A80003F2510E001E0C1E7D1E0812F0E948825C9
:101A900000D00F92EDB7FEB70183D383C2830E94BB
:101AA000C2271F5F0F900F900F90103171F72E9A81
:101AB00000D00F92EDB7FEB7018386E591E09383E6
:101AC00082830E94C2270F900F900F900E94F619F8
:101AD0000E94001A0E940D1A0E94181A0E94251ACC
:101AE0000E94321A0E944004DF91CF911F910F9102
:101AF0000895AF92BF92CF92DF92EF92FF920F9331
:101B0000CF93DF930E94D90C80E090E0A8ECB1E481
:101B10008093E0029093E102A093E202B093E3028B
:101B200080E090E0A0E0B0E08093E8029093E902CA
:101B3000A093EA02B093EB0286E498E060E072E0E2
:101B400044E650E020E030E001E0EE24FF24CC2425
:101B5000DD24AA24BB240E94A2148FE298E067E04F
:101B600072E044E650E020E030E00E94A21485E4F8
:101B700096E06EE072E044EF51E020E030E00E9439
:101B8000A2148DE598E067E172E044EF51E020E0B7
:101B900030E00E94A2148EE29AE060E272E044EF2C
:101BA00051E020E030E00E94A2140E94C615C1E17D
:101BB000D1E000D00F92EDB7FEB70183D383C2838B
:101BC0000E94C2270F900F900F90F3CFFC019C0151
:101BD0002D5F3F4F328321838FEF9FEF9483838369
:101BE000368325833087278310820895FC01118670
:101BF00010860895CF93DF93AC01DB01EC012981BE
:101C00003A81F9018281938113969C938E93129766
:101C100089819A8115969C938E9314970280F38103
:101C2000E02D75836483E9017B836A83FA01728303
:101C3000618319965C934E93189780818F5F8083A0
:101C4000DF91CF910895CF93DF939C01EB01488101
:101C500059818FEF4F3F580721F4F901A781B085D3
:101C600010C0D901139604C012960D90BC91A02DFE
:101C70001296ED91FC911397808191814817590735
:101C800098F71296ED91FC911397FB83EA83D58325
:101C9000C483BD83AC831396DC93CE9312973987AC
:101CA0002887F90180818F5F8083DF91CF9108952C
:101CB000CF93DF93DC011296ED91FC91139714966C
:101CC0008D919C911597958384831496CD91DC9189
:101CD0001597FB83EA831896ED91FC911997818102
:101CE00092818A179B0711F4D283C18319961C92A3
:101CF0001E921897808181508083DF91CF91089543
:101D0000FC010FB6F8940F92828D0F900FBE0895CC
:101D1000FC01828D0895FC01828D90E0882309F4F6
:101D200091E0892F0895FC01928D20E0838D981712
:101D300009F421E0822F08950F931F938C01FC0179
:101D4000808191810E94F518C8010E94F5181F91A9
:101D50000F9108950F931F93CF93DF93EC01FB0135
:101D60008A018A8D882381F1488159814115510565
:101D7000A9F08C8D2E813F81280F311D3F832E834A
:101D80008A819B812817390710F05F834E834C8D21
:101D90006E817F81CF0150E00E94DC2A8A8D8150C4
:101DA0008A8F8D8D8F3F69F48885882361F0CE01FD
:101DB00008960E940A12882331F081E0F80180839E
:101DC00003C08F5F8D8F81E0DF91CF911F910F91C5
:101DD0000895CF93DF93EC01842F4C8D4423A1F120
:101DE0008823B1F48C819D8150E00E94DC2A8C8D87
:101DF0002C813D81280F311D3D832C838A819B815D
:101E00002817390708F1888199819D838C831CC02C
:101E10008E819F8150E00E94DC2A8C8D90E04427C7
:101E20005527481B590B8E819F81840F951F9F83D7
:101E30008E83288139818217930730F48A819B81B0
:101E4000840F951F9F838E838A8D8F5F8A8FDF918A
:101E5000CF9108950F931F93CF93DF93EC018A01E5
:101E60009A8D8B8D981710F080E017C0CE01422F0D
:101E70000E94E90E8E8D8F3F69F48989882361F075
:101E8000CE0141960E940A12882331F081E0F801C8
:101E9000808303C08F5F8E8F81E0DF91CF911F9190
:101EA0000F9108950F931F93CF93DF93EC010FB61B
:101EB000F8940F928C010F5E1F4F0DC08989882303
:101EC00069F0C8010E940A12882311F00E940612CC
:101ED0008E8D81508E8F8E8D181684F38FEF8E8F9E
:101EE0000F900FBE0FB6F8940F928E01085F1F4F30
:101EF0000DC08885882369F0C8010E940A128823D2
:101F000011F00E9406128D8D81508D8F8D8D1816C7
:101F100084F38FEF8D8F0F900FBEDF91CF911F91C4
:101F20000F9108957F928F929F92AF92BF92CF921E
:101F3000DF92EF92FF920F931F93DF93CF9300D026
:101F400000D00F92CDB7DEB78C01962E872E5D8321
:101F50004C83722E91E1C92ED12CC00ED11E20E0EF
:101F60007E010894E11CF11C84E0A82EB12CAC0E7B
:101F7000BD1E01C021E00FB6F8940F92F801828DCA
:101F8000882309F43EC0E680F780408151814115E5
:101F90005105B1F0848D9701280F311D37832683B9
:101FA000828193812817390710F057834683F801FF
:101FB000448D66817781892D982D50E00E94DC2A1E
:101FC000772071F4F801828D8150828F808588237B
:101FD000A1F0C80108960E940A12813071F40BC06A
:101FE000F801F782E6828189882339F0C6010E94D0
:101FF0000A12882311F00E94D2160F900FBE81E0C2
:102000004AC08C819D81892B19F40F900FBE42C06C
:10201000222319F4C7010E94C1110F900FBE0E9424
:1020200065110FB6F8940F92F801858D8F3F09F472
:10203000158EF801868D8F3F09F4168E0F900FBE16
:10204000C701B5010E94CC118823F9F40FB6F894AA
:102050000F92F801828D0F900FBE882381F46C815E
:102060007D81C6010E94C312C8010E94520F0E94C6
:10207000FC12882309F07ECF0E94D2167BCFC801C4
:102080000E94520F0E94FC1275CFC8010E94520F8D
:102090000E94FC1280E00F900F900F900F900F9015
:1020A000CF91DF911F910F91FF90EF90DF90CF9034
:1020B000BF90AF909F908F907F9008957F928F9266
:1020C0009F92AF92BF92CF92DF92EF92FF920F93C7
:1020D0001F93DF93CF9300D000D00F92CDB7DEB720
:1020E0008C016B015D834C83722E48E0E42EF12C51
:1020F000E80EF91E20E05E010894A11CB11C34E03A
:10210000832E912C8C0E9D1E01C021E00FB6F894F9
:102110000F92F801928D838D9817A8F4C801B6012B
:10212000472D0E94E90EF8018189882341F0C801FA
:1021300041960E940A12813011F40E94D2160F902B
:102140000FBE81E04CC08C819D81892B19F40F90CA
:102150000FBE44C0222319F4C5010E94C1110F9083
:102160000FBE0E9465110FB6F8940F92F801858D8D
:102170008F3F09F4158EF801868D8F3F09F4168E76
:102180000F900FBEC501B4010E94CC11882309F540
:102190000FB6F8940F92F801928D0F900FBEF801D0
:1021A000838D981781F46C817D81C7010E94C312D1
:1021B000C8010E94520F0E94FC12882309F0A5CF8B
:1021C0000E94D216A2CFC8010E94520F0E94FC1298
:1021D0009CCFC8010E94520F0E94FC1280E00F9019
:1021E0000F900F900F900F90CF91DF911F910F9153
:1021F000FF90EF90DF90CF90BF90AF909F908F9027
:102200007F9008958F929F92AF92BF92CF92DF926C
:10221000EF92FF920F931F93CF93DF93982E862E0A
:10222000882309F442C08FE190E00E9405198C01D7
:10223000EC010097E1F1C92CDD24A82CBB24AC9C57
:102240007001AD9CF00CBC9CF00C1124C7010196F0
:102250000E9405199C0199838883009719F1E80E63
:10226000F91EFB82EA821A8E9D838C830894C10832
:10227000D108CA9CC001CB9C900DDA9C900D112412
:10228000280F391F3F832E839B8E8C8E8FEF8D8F6F
:102290008E8FC80108960E94E60DC80141960E94E3
:1022A000E60D05C0C8010E94F518C0E0D0E0CE01DF
:1022B000DF91CF911F910F91FF90EF90DF90CF9022
:1022C000BF90AF909F908F900895809124038F5F6F
:1022D0008093240308950FB6F8940F92209122035F
:1022E000309123030F900FBEC9010895209122035E
:1022F00030912303C90108958091270308958091A7
:102300002403882351F081E0809320030895809175
:10231000250381508093250301C099E0E0912503B6
:10232000E99FF0011124E45DFC4F8081882379F35B
:102330009091250389E0989FD0011124A45DBC4FA2
:102340001196ED91FC9112970280F381E02D129687
:10235000FC93EE931197CD010396E817F90731F43A
:102360008281938112969C938E9311971196ED9191
:10237000FC9112978681978190931F0380931E038F
:102380000895FC0180912103808380912203909124
:102390002303928381830895FC01DB010FB6F89437
:1023A0000F92909121038081981749F02091220388
:1023B00030912303818192812817390718F5809184
:1023C000220390912303218132814D915C911197D9
:1023D000821B930B84179507A8F480912203909198
:1023E0002303281B390B240F351F2D933C93809119
:1023F0002103808380912203909123039283818320
:1024000080E001C081E00F900FBE089581E08093CD
:10241000200308950F931F93CF93DF93FC018081D6
:10242000882319F4C0E0D0E005C00580F681E02DD6
:10243000C681D7818E01045F1F4FC8010E94580ECC
:10244000809124038823A1F48E010E5F1F4FC801E1
:102450000E94580E9E8980912503891710F490934D
:10246000250389E0989FC0011124845D9C4F02C020
:1024700086E693E0B8010E94FA0DE0911E03F09108
:102480001F0320E09E898689981708F021E0822F9B
:10249000DF91CF911F910F910895FF920F931F939A
:1024A000CF93DF9380912403882309F061C080914A
:1024B0002203909123030196909323038093220398
:1024C0008091220390912303892BE9F58091620387
:1024D000909163032091640330916503309363030B
:1024E000209362039093650380936403809121039A
:1024F0008F5F8093210327C0209122033091230313
:102500008A819B8128173907C0F18E010E5F1F4F0A
:10251000C8010E94580E8C899D89892B21F0CE011B
:102520000C960E94580E9E8980912503891710F4FD
:10253000909325039F9DC0011124845D9C4FB80199
:102540000E94FA0D02C089E0F82EE0916203F0913A
:1025500063038081882389F0E0916203F091630333
:102560000580F681E02DC681D781209729F605C028
:10257000809126038F5F80932603DF91CF911F9177
:102580000F91FF9008950F931F938B0160911E038D
:1025900070911F03645F7F4F0E94230E80911E0382
:1025A00090911F0302960E94580E809122039091F1
:1025B0002303800F911FE0911E03F0911F0393836B
:1025C000828320912203309123038217930728F4FA
:1025D000809164039091650304C08091620390919F
:1025E000630360911E0370911F036E5F7F4F0E9413
:1025F000230E1F910F910895CF92DF92FF920F93B8
:102600001F93DF93CF930F92CDB7DEB70FB6F89439
:102610000F9280912403815080932403809124039E
:10262000882309F05BC080912703882309F456C0F2
:10263000198299E0F92E27C0C6010C960E94580E07
:1026400086010E5F1F4FC8010E94580ED601569694
:102650009C9180912503891710F4909325039F9DE9
:10266000C0011124845D9C4FB8010E94FA0DE091D5
:102670001E03F0911F03D60156969C9186899817E8
:1026800010F0B1E0B98380916603882349F0E091AE
:102690006B03F0916C03C680D780C114D10461F63E
:1026A00080912603882341F40CC00E944D12809132
:1026B0002603815080932603809126038823A9F75F
:1026C00007C0E981E13021F080912003813031F4AD
:1026D000109220030E94D21681E001C080E00F908A
:1026E0000FBE0F90CF91DF911F910F91FF90DF9060
:1026F000CF9008950F931F939C010097A1F18091B3
:1027000024038F5F809324030091220310912303FD
:10271000020F131F80911E0390911F0302960E94C7
:10272000580EE0911E03F0911F03138302838091E2
:102730002203909123030817190728F4809164035A
:102740009091650304C0809162039091630360914E
:102750001E0370911F036E5F7F4F0E94230E0E9425
:10276000FC12882311F40E94D2161F910F91089534
:10277000CF93DF93FC01EB01809124038F5F809363
:10278000240320813181C20FD31F809122039091B5
:1027900023038217930728F4C217D30728F020E0F9
:1027A0000CC0C217D30740F08091220390912303FD
:1027B00020E08C179D0708F421E0D183C0832223F9
:1027C00029F180911E0390911F0302960E94580EDA
:1027D000E0911E03F0911F03D383C28380912203F3
:1027E00090912303C817D90728F48091640390912E
:1027F000650304C0809162039091630360911E039E
:1028000070911F036E5F7F4F0E94230E0E94FC1287
:10281000882311F40E94D216DF91CF910895EF9290
:10282000FF920F931F93CF93DF938C010FB6F89411
:102830000F9280911E0390911F030817190719F436
:1028400000E010E003C00115110529F4C0911E033A
:10285000D0911F0301C0E80122E0E22EF12CEC0E22
:10286000FD1EC7010E94580E8C899D89892B21F07D
:10287000CE010C960E94580E8FE693E0B7010E949D
:10288000FA0D809129038F5F8093290380912A0399
:102890008F5F80932A030F900FBE809128038823B7
:1028A00021F0012B11F40E94D216DF91CF911F91DC
:1028B0000F91FF90EF900895F894109228030E94D2
:1028C000731608951F93CF93DF9380912903882374
:1028D00091F1809124038F5F8093240310916F0303
:1028E0000E94FC12112339F10FB6F8940F928091D7
:1028F0006F03882319F4C0E0D0E006C0E0917403B0
:10290000F0917503C681D781CE0102960E94580EC0
:102910008091270381508093270380912903815060
:10292000809329030F900FBE8F89988D0E94F51810
:10293000CE010E94F51880912C03823030F20E9463
:10294000D216C3CF2F923F925F926F927F928F9257
:102950009F92AF92BF92CF92DF92EF92FF920F932E
:102960001F93DF93CF9300D000D0CDB7DEB79A830B
:1029700089834B015A011901502E370181E290E001
:102980000E9405198B839C838B819C81892B89F004
:10299000C114D10421F4C5010E9405196C01EB8119
:1029A000FC81D08EC78AC114D10429F4CF010E94C2
:1029B000F5188FEFD5C0C60165EA70E0A5010E9449
:1029C000E52A0894A108B108EB81FC81E788F08C26
:1029D000EA0CFB1CCF014996B40148E050E00E948C
:1029E000EC2AEB81FC8110A2052DF3E0F51508F42B
:1029F00003E0EB81FC81068B42E0C42ED12CCE0E8D
:102A0000DF1EC6010E94F60D8B819C810C960E94F0
:102A1000F60D8B819C81FC019187808784E090E09A
:102A2000801B910995878487F38BE28BC7016981AD
:102A30007A81A1010E94F115EB81FC819183808351
:102A40006114710421F0CF01F301918380830FB6EB
:102A5000F8940F92809127038F5F809327038091D2
:102A60001E0390911F03892BB9F5EB81FC81F09334
:102A70001F03E0931E03809127038130F1F58CE260
:102A800093E00E94E60D85E393E00E94E60D8EE35D
:102A900093E00E94E60D87E493E00E94E60D30E5A6
:102AA000E32E33E0F32EC7010E94E60D09E513E0A3
:102AB000C8010E94E60D86E693E00E94E60D8FE6CF
:102AC00093E00E94E60DF0926303E092620310939C
:102AD00065030093640311C080912803882369F47F
:102AE000E0911E03F0911F038689581630F08B8108
:102AF0009C8190931F0380931E03EB81FC81968938
:102B000080912B03891710F490932B0380912A0353
:102B10008F5F80932A03EB81FC8196898091250346
:102B2000891710F490932503EB81FC81868929E0B5
:102B3000829FC0011124845D9C4FB6010E94FA0D52
:102B40000F900FBE80912803882349F0E0911E0367
:102B5000F0911F038689851510F40E94D21681E03A
:102B60000F900F900F900F90CF91DF911F910F91C9
:102B7000FF90EF90DF90CF90BF90AF909F908F909D
:102B80007F906F905F903F902F900895AF92BF928B
:102B9000CF92DF92EF92FF920F9382E694E169EB7E
:102BA00072E045E550E020E030E000E0EE24FF2454
:102BB000CC24DD24AA24BB240E94A214813049F431
:102BC000F8948093280310922303109222030E940A
:102BD00039160F91FF90EF90DF90CF90BF90AF909C
:102BE0000895FC0191E1908322E2229383E3829392
:102BF00062937293129280E88293129282E082939F
:102C000083E0829384E0829385E0829386E08293DE
:102C100087E0829388E0829389E0829380E18293C7
:102C2000929382E1829383E1829384E1829385E1AE
:102C3000829386E1829387E1829388E1829389E19E
:102C4000829380E2829381E28293229383E2829351
:102C50004293529386E2829387E2829388E2829340
:102C600089E2829380E3829381E382933197CF015B
:102C700008951092890089EF809388008BE08093FB
:102C80008100EFE6F0E0808182608083A0911E03E6
:102C9000B0911F03CD91CDBFDD91DEBFFF91EF91CC
:102CA000DF91CF91BF91AF919F918F917F916F9164
:102CB0005F914F913F912F911F910F91FF90EF9056
:102CC000DF90CF90BF90AF909F908F907F906F904C
:102CD0005F904F903F902F901F900F900FBE0F90DE
:102CE000089581E0089508950F920FB6F8940F9219
:102CF0001F9211242F923F924F925F926F927F9278
:102D00008F929F92AF92BF92CF92DF92EF92FF92FB
:102D10000F931F932F933F934F935F936F937F93E3
:102D20008F939F93AF93BF93CF93DF93EF93FF93D3
:102D3000A0911E03B0911F030DB60D920EB60D9219
:102D40000E944D120E947F11A0911E03B0911F039B
:102D5000CD91CDBFDD91DEBFFF91EF91DF91CF919E
:102D6000BF91AF919F918F917F916F915F914F91A3
:102D70003F912F911F910F91FF90EF90DF90CF9097
:102D8000BF90AF909F908F907F906F905F904F908B
:102D90003F902F901F900F900FBE0F9008950E94AC
:102DA000741618950F920FB6F8940F921F92112473
:102DB0002F923F924F925F926F927F928F929F924B
:102DC000AF92BF92CF92DF92EF92FF920F931F9339
:102DD0002F933F934F935F936F937F938F939F9323
:102DE000AF93BF93CF93DF93EF93FF93A0911E0315
:102DF000B0911F030DB60D920EB60D920E947F1179
:102E0000A0911E03B0911F03CD91CDBFDD91DEBF18
:102E1000FF91EF91DF91CF91BF91AF919F918F91F2
:102E20007F916F915F914F913F912F911F910F91E2
:102E3000FF90EF90DF90CF90BF90AF909F908F90DA
:102E40007F906F905F904F903F902F901F900F90CA
:102E50000FBE0F9008950F931F93CF93DF93FC0144
:102E60008081882319F4C0E0D0E005C00580F68198
:102E7000E02DC681D7818E01045F1F4FC8010E94DB
:102E8000580E89EA93E0B8010E94FA0D20E0E09123
:102E90007803F09179039E898689981708F021E0DC
:102EA000822FDF91CF911F910F910895FF920F9381
:102EB0001F93CF93DF9399E0F92E28C0F894809167
:102EC000A903882319F4C0E0D0E006C0E091AE0366
:102ED000F091AF03C681D781CE010C960E94580EA7
:102EE00078948E010E5F1F4FC8010E94580E9E8974
:102EF00080917A03891710F490937A039F9DC00103
:102F000011248F579C4FB8010E94FA0D8091A9039C
:102F10008823A1F60E946B1120917B0330917C03E2
:102F2000821B930B90937E0380937D0389E0F82EA0
:102F300054C001969093800380937F0321503040CA
:102F400030937E0320937D03892BC9F52091A5033F
:102F50003091A6038091A7039091A8039093A603B4
:102F60008093A5033093A8032093A70328C0209142
:102F70007F03309180038A819B812817390768F18C
:102F8000F8948E010E5F1F4FC8010E94580E8C8965
:102F90009D89892B21F0CE010C960E94580E7894C1
:102FA0009E8980917A03891710F490937A039F9DEC
:102FB000C00111248F579C4FB8010E94FA0DE09177
:102FC000A503F091A6038081882339F00580F6815E
:102FD000E02DC681D781209751F620917D03309155
:102FE0007E0380917F03909180032115310509F0C4
:102FF000A0CF90937C0380937B0390917A0329E088
:1030000006C0992319F410927A0332C09150929F0E
:10301000D0011124AF57BC4F8C91882391F390932A
:103020007A031196ED91FC9112970280F381E02DC5
:103030001296FC93EE931197CD010396E817F907CA
:1030400031F48281938112969C938E9311971196FD
:10305000ED91FC9112970680F781E02DF0937903B2
:10306000E093780320813181CF016789F9010995C7
:10307000DF91CF911F910F91FF9008950F931F93B0
:10308000CF93DF93EB0100917F0310918003080F32
:10309000191F809178039091790302960E94580E2F
:1030A000E0917803F09179031383028380917F0389
:1030B00090918003BF016E5F7F4F0817190728F4B6
:1030C0008091A7039091A80304C08091A5039091DB
:1030D000A6030E94230E209749F060917803709117
:1030E0007903645F7F4FCE010E94230EDF91CF9161
:1030F0001F910F910895AF92BF92CF92DF92EF92FE
:10310000FF920F931F93CF93DF936C01B62EA42EE3
:103110008AE190E00E940519EC01009711F48FEF0D
:1031200059C08091780390917903892B21F5D09330
:103130007903C093780381E893E00E94E60D8AE862
:1031400093E00E94E60D23E9E22E23E0F22EC70170
:103150000E94E60D0CE913E0C8010E94E60D89EA21
:1031600093E00E94E60DF092A603E092A50310936F
:10317000A8030093A703EB2CBB2011F0EE24E394EB
:10318000198E188EEE8AAF8AFE01C192D1928F01FC
:10319000CF010E94F60DCE010C960E94F60DD98744
:1031A000C887DB8BCA8B84E090E08E1991099D87DC
:1031B0008C879E8980917A03891710F490937A0303
:1031C00089E0989FC00111248F579C4FB8010E943D
:1031D000FA0D81E0DF91CF911F910F91FF90EF9059
:1031E000DF90CF90BF90AF90089508951092B303F1
:1031F0001092B203089528EB3BE08091B2039091C6
:10320000B303281B390BC90108950F931F93CF9364
:10321000DF938C010E9465118091B2039091B303FA
:103220009801280F391F4BE0283B340758F48217C8
:10323000930740F4EC01CC54DC4F3093B30320935C
:10324000B20302C0C0E0D0E00E94FC12CE01DF91C8
:10325000CF911F910F910895E82FF0E0E770F07083
:10326000EE0FFF1FE257FE4F25913491C9010895DB
:10327000E82FF0E0E770F070EE0FFF1FE656FE4F0C
:1032800025913491C901089585B5E82FF0E0E770E4
:10329000F070EE0FFF1FE257FE4F25913491C901E8
:1032A000089580918100E82FF0E0E770F070EE0F54
:1032B000FF1FE257FE4F25913491C9010895809177
:1032C000B100E82FF0E0E770F070EE0FFF1FE65658
:1032D000FE4F25913491C901089580919100E82F06
:1032E000F0E0E770F070EE0FFF1FE257FE4F259100
:1032F0003491C90108958091A100E82FF0E0E770B2
:10330000F070EE0FFF1FE257FE4F25913491C90177
:10331000089580912101E82FF0E0E770F070EE0F42
:10332000FF1FE257FE4F25913491C9010895209166
:103330005314309154144091551450915614B901BE
:10334000CA01089520914F143091501440915114A6
:1033500050915214B901CA01089520915714309127
:1033600058144091591450915A14B901CA01089542
:1033700020915F1430916014409161145091621457
:10338000B901CA01089520914B1430914C14409119
:103390004D1450914E14B901CA010895209163143F
:1033A000309164144091651450916614B901CA01BA
:1033B000089586B508952091840030918500C90153
:1033C00008958091B2000895209194003091950065
:1033D000C90108952091A4003091A500C901089564
:1033E0002091240130912501C901089510925314B0
:1033F00010925414109255141092561416BC08953D
:1034000010924F14109250141092511410925214A2
:103410001092850010928400089510925714109213
:1034200058141092591410925A141092B200089520
:1034300010925F1410926014109261141092621432
:103440001092950010929400089510924B141092CF
:103450004C1410924D1410924E141092A50010921C
:10346000A4000895109263141092641410926514CD
:103470001092661410922501109224010895089567
:1034800085BD81E080936E00109253141092541405
:10349000109255141092561416BC08958093810012
:1034A00081E080936F0010924F141092501410928C
:1034B00051141092521410928500109284000895B5
:1034C0008093B10081E080937000109257141092A5
:1034D00058141092591410925A141092B200089570
:1034E0008093910081E08093710010925F1410929C
:1034F0006014109261141092621410929500109250
:10350000940008958093A10081E08093720010924E
:103510004B1410924C1410924D1410924E141092A1
:10352000A5001092A40008958093210181E080936A
:103530007300109263141092641410926514109228
:10354000661410922501109224010895E82FF0E0EE
:10355000EE0FFF1FE459F04F718360830895E82F49
:10356000F0E0EE0FFF1FE459F04F11821082089532
:103570000197F1F70895AF92BF92CF92DF92EF9249
:10358000FF920F931F93A0E0B0E0BC01CD010E9419
:103590005F2C5B016C0120E030E04AE755E40E94BB
:1035A000962D7B018C0120E030E040E85FE30E9433
:1035B000C22B88231CF461E070E024C0C801B7016D
:1035C00020E03FEF4FE757E40E948B2D1816B4F42C
:1035D000C601B50120E030E040E251E40E94962DA2
:1035E0000E94332C80E991E005C0FC013197F1F78E
:1035F0006150704061157105C1F707C0C801B7017E
:103600000E94332CCB010197F1F71F910F91FF908E
:10361000EF90DF90CF90BF90AF9008951F920F92E0
:103620000FB60F9211242F933F934F935F936F9395
:103630007F938F939F93AF93BF93EF93FF9380916B
:10364000531490915414A0915514B09156140196AE
:10365000A11DB11D8093531490935414A09355143D
:10366000B093561480915B1490915C14A0915D14FA
:10367000B0915E140196A11DB11D80935B149093CF
:103680005C14A0935D14B0935E148091700F9091C0
:10369000710F892B29F0E091700FF091710F09954E
:1036A000FF91EF91BF91AF919F918F917F916F911A
:1036B0005F914F913F912F910F900FBE0F901F90F0
:1036C00018951F920F920FB60F9211242F933F93CC
:1036D0004F935F936F937F938F939F93AF93BF931A
:1036E000EF93FF9380914F1490915014A091511437
:1036F000B09152140196A11DB11D80934F14909367
:103700005014A0935114B093521480917A0F909159
:103710007B0F892B29F0E0917A0FF0917B0F0995AF
:10372000FF91EF91BF91AF919F918F917F916F9199
:103730005F914F913F912F910F900FBE0F901F906F
:1037400018951F920F920FB60F9211242F933F934B
:103750004F935F936F937F938F939F93AF93BF9399
:10376000EF93FF938091571490915814A09159149E
:10377000B0915A140196A11DB11D809357149093D6
:103780005814A0935914B0935A148091800F9091BB
:10379000810F892B29F0E091800FF091810F09951D
:1037A000FF91EF91BF91AF919F918F917F916F9119
:1037B0005F914F913F912F910F900FBE0F901F90EF
:1037C00018951F920F920FB60F9211242F933F93CB
:1037D0004F935F936F937F938F939F93AF93BF9319
:1037E000EF93FF9380915F1490916014A091611406
:1037F000B09162140196A11DB11D80935F14909346
:103800006014A0936114B093621480918A0F909118
:103810008B0F892B29F0E0918A0FF0918B0F09957E
:10382000FF91EF91BF91AF919F918F917F916F9198
:103830005F914F913F912F910F900FBE0F901F906E
:1038400018951F920F920FB60F9211242F933F934A
:103850004F935F936F937F938F939F93AF93BF9398
:10386000EF93FF9380914B1490914C14A0914D14C1
:10387000B0914E140196A11DB11D80934B149093ED
:103880004C14A0934D14B0934E148091940F9091CA
:10389000950F892B29F0E091940FF091950F0995E0
:1038A000FF91EF91BF91AF919F918F917F916F9118
:1038B0005F914F913F912F910F900FBE0F901F90EE
:1038C00018951F920F920FB60F9211242F933F93CA
:1038D0004F935F936F937F938F939F93AF93BF9318
:1038E000EF93FF938091631490916414A0916514F9
:1038F000B09166140196A11DB11D8093631490933D
:103900006414A0936514B093661480919E0F9091F7
:103910009F0F892B29F0E0919E0FF0919F0F099541
:10392000FF91EF91BF91AF919F918F917F916F9197
:103930005F914F913F912F910F900FBE0F901F906D
:1039400018951F920F920FB60F9211242F933F9349
:103950004F935F936F937F938F939F93AF93BF9397
:10396000EF93FF9380916C0F90916D0F892B29F04D
:10397000E0916C0FF0916D0F0995FF91EF91BF9160
:10398000AF919F918F917F916F915F914F913F91F7
:103990002F910F900FBE0F901F9018951F920F92AE
:1039A0000FB60F9211242F933F934F935F936F9312
:1039B0007F938F939F93AF93BF93EF93FF938091E8
:1039C0006E0F90916F0F892B29F0E0916E0FF0919F
:1039D0006F0F0995FF91EF91BF91AF919F918F91DB
:1039E0007F916F915F914F913F912F910F900FBEFB
:1039F0000F901F9018951F920F920FB60F921124DF
:103A00002F933F934F935F936F937F938F939F93E6
:103A1000AF93BF93EF93FF938091720F9091730FC9
:103A2000892B29F0E091720FF091730F0995FF91A6
:103A3000EF91BF91AF919F918F917F916F915F9126
:103A40004F913F912F910F900FBE0F901F9018959F
:103A50001F920F920FB60F9211242F933F934F9303
:103A60005F936F937F938F939F93AF93BF93EF93E6
:103A7000FF938091760F9091770F892B29F0E09139
:103A8000760FF091770F0995FF91EF91BF91AF916C
:103A90009F918F917F916F915F914F913F912F9166
:103AA0000F900FBE0F901F9018951F920F920FB698
:103AB0000F9211242F933F934F935F936F937F93B4
:103AC0008F939F93AF93BF93EF93FF938091780F62
:103AD0009091790F892B29F0E091780FF091790F6F
:103AE0000995FF91EF91BF91AF919F918F917F9138
:103AF0006F915F914F913F912F910F900FBE0F905B
:103B00001F9018951F920F920FB60F9211242F93AA
:103B10003F934F935F936F937F938F939F93AF9355
:103B2000BF93EF93FF9380917C0F90917D0F892B32
:103B300029F0E0917C0FF0917D0F0995FF91EF91B5
:103B4000BF91AF919F918F917F916F915F914F91B5
:103B50003F912F910F900FBE0F901F9018951F92BD
:103B60000F920FB60F9211242F933F934F935F93B1
:103B70006F937F938F939F93AF93BF93EF93FF9335
:103B800080917E0F90917F0F892B29F0E0917E0F1D
:103B9000F0917F0F0995FF91EF91BF91AF919F91A8
:103BA0008F917F916F915F914F913F912F910F90E6
:103BB0000FBE0F901F9018951F920F920FB60F9285
:103BC00011242F933F934F935F936F937F938F9322
:103BD0009F93AF93BF93EF93FF938091820F909148
:103BE000830F892B29F0E091820FF091830F0995C3
:103BF000FF91EF91BF91AF919F918F917F916F91C5
:103C00005F914F913F912F910F900FBE0F901F909A
:103C100018951F920F920FB60F9211242F933F9376
:103C20004F935F936F937F938F939F93AF93BF93C4
:103C3000EF93FF938091840F9091850F892B29F04A
:103C4000E091840FF091850F0995FF91EF91BF915D
:103C5000AF919F918F917F916F915F914F913F9124
:103C60002F910F900FBE0F901F9018951F920F92DB
:103C70000FB60F9211242F933F934F935F936F933F
:103C80007F938F939F93AF93BF93EF93FF93809115
:103C9000860F9091870F892B29F0E091860FF09184
:103CA000870F0995FF91EF91BF91AF919F918F91F0
:103CB0007F916F915F914F913F912F910F900FBE28
:103CC0000F901F9018951F920F920FB60F9211240C
:103CD0002F933F934F935F936F937F938F939F9314
:103CE000AF93BF93EF93FF938091880F9091890FCB
:103CF000892B29F0E091880FF091890F0995FF91A8
:103D0000EF91BF91AF919F918F917F916F915F9153
:103D10004F913F912F910F900FBE0F901F901895CC
:103D20001F920F920FB60F9211242F933F934F9330
:103D30005F936F937F938F939F93AF93BF93EF9313
:103D4000FF9380918C0F90918D0F892B29F0E0913A
:103D50008C0FF0918D0F0995FF91EF91BF91AF916D
:103D60009F918F917F916F915F914F913F912F9193
:103D70000F900FBE0F901F9018951F920F920FB6C5
:103D80000F9211242F933F934F935F936F937F93E1
:103D90008F939F93AF93BF93EF93FF9380918E0F79
:103DA00090918F0F892B29F0E0918E0FF0918F0F5A
:103DB0000995FF91EF91BF91AF919F918F917F9165
:103DC0006F915F914F913F912F910F900FBE0F9088
:103DD0001F9018951F920F920FB60F9211242F93D8
:103DE0003F934F935F936F937F938F939F93AF9383
:103DF000BF93EF93FF938091900F9091910F892B38
:103E000029F0E091900FF091910F0995FF91EF91BA
:103E1000BF91AF919F918F917F916F915F914F91E2
:103E20003F912F910F900FBE0F901F9018951F92EA
:103E30000F920FB60F9211242F933F934F935F93DE
:103E40006F937F938F939F93AF93BF93EF93FF9362
:103E50008091920F9091930F892B29F0E091920F0E
:103E6000F091930F0995FF91EF91BF91AF919F91C1
:103E70008F917F916F915F914F913F912F910F9013
:103E80000FBE0F901F9018951F920F920FB60F92B2
:103E900011242F933F934F935F936F937F938F934F
:103EA0009F93AF93BF93EF93FF938091960F909161
:103EB000970F892B29F0E091960FF091970F0995B4
:103EC000FF91EF91BF91AF919F918F917F916F91F2
:103ED0005F914F913F912F910F900FBE0F901F90C8
:103EE00018951F920F920FB60F9211242F933F93A4
:103EF0004F935F936F937F938F939F93AF93BF93F2
:103F0000EF93FF938091980F9091990F892B29F04F
:103F1000E091980FF091990F0995FF91EF91BF9162
:103F2000AF919F918F917F916F915F914F913F9151
:103F30002F910F900FBE0F901F9018951F920F9208
:103F40000FB60F9211242F933F934F935F936F936C
:103F50007F938F939F93AF93BF93EF93FF93809142
:103F60009A0F90919B0F892B29F0E0919A0FF09175
:103F70009B0F0995FF91EF91BF91AF919F918F9109
:103F80007F916F915F914F913F912F910F900FBE55
:103F90000F901F9018951F920F920FB60F92112439
:103FA0002F933F934F935F936F937F938F939F9341
:103FB000AF93BF93EF93FF9380919C0F90919D0FD0
:103FC000892B29F0E0919C0FF0919D0F0995FF91AD
:103FD000EF91BF91AF919F918F917F916F915F9181
:103FE0004F913F912F910F900FBE0F901F901895FA
:103FF0001F920F920FB60F9211242F933F934F935E
:104000005F936F937F938F939F93AF93BF93EF9340
:10401000FF9300D00F9281E0EDB7FEB781838AEA6B
:1040200091E0938382830E94C2270F900F900F909C
:10403000FF91EF91BF91AF919F918F917F916F9180
:104040005F914F913F912F910F900FBE0F901F9056
:104050001895843040F4E82FF0E0EE0FFF1FE05297
:10406000FE4E7183608308951F93182F9A01AB0150
:10407000CA01B90160587B47814E9F4FF3E0660F3C
:10408000771F881F991FFA95D1F7E4E0220F331F9D
:10409000441F551FEA95D1F70E94422E215030400F
:1040A000133029F4209334013093350112C01230BB
:1040B00029F42093D4003093D5000BC0113029F49B
:1040C0002093CC003093CD0004C02093C4003093E3
:1040D000C5001F910895282F30E0A3E0220F331F61
:1040E000AA95E1F725593B4EC9010895282F30E0E4
:1040F000B3E0220F331FBA95E1F721573B4EC901B8
:104100000895E82F833039F48091300185FFFCCF8A
:104110006093360118C0823039F48091D00085FF59
:10412000FCCF6093D6000FC0813039F48091C80075
:1041300085FFFCCF6093CE0006C08091C00085FF54
:10414000FCCF6093C600F0E0E959FB4E1082089561
:10415000682F80E00E9481200895682F81E00E94EE
:1041600081200895682F82E00E9481200895682FA1
:1041700083E00E948120089520E0E82FF0E083E0B2
:10418000EE0FFF1F8A95E1F7E159FB4E8081918187
:10419000892B09F421E0822F0895CF93DF93833098
:1041A00019F4609136010CC0823019F46091D60088
:1041B00007C0813019F46091CE0002C06091C60042
:1041C000282F30E0E901CC0FDD1FFE01E052FE4E4A
:1041D00080819181892B31F00190F081E02D862F33
:1041E000099514C093E0220F331F9A95E1F7C90196
:1041F00085599B4E0E94D924882341F4FE01E15544
:10420000FB4E80819181019691838083DF91CF91D4
:1042100008951F920F920FB60F9211242F933F9380
:104220004F935F936F937F938F939F93AF93BF93BE
:10423000EF93FF9383E00E94CD20FF91EF91BF9118
:10424000AF919F918F917F916F915F914F913F912E
:104250002F910F900FBE0F901F9018951F920F92E5
:104260000FB60F9211242F933F934F935F936F9349
:104270007F938F939F93AF93BF93EF93FF9382E0CE
:104280000E94CD20FF91EF91BF91AF919F918F91AF
:104290007F916F915F914F913F912F910F900FBE42
:1042A0000F901F9018951F920F920FB60F92112426
:1042B0002F933F934F935F936F937F938F939F932E
:1042C000AF93BF93EF93FF9381E00E94CD20FF91C6
:1042D000EF91BF91AF919F918F917F916F915F917E
:1042E0004F913F912F910F900FBE0F901F901895F7
:1042F0001F920F920FB60F9211242F933F934F935B
:104300005F936F937F938F939F93AF93BF93EF933D
:10431000FF9380E00E94CD20FF91EF91BF91AF917C
:104320009F918F917F916F915F914F913F912F91CD
:104330000F900FBE0F901F9018958F929F92AF9283
:10434000BF92CF92DF92EF92FF920F931F93CF9382
:10435000DF93882EDB01C82EDD24F60113E0EE0F7B
:10436000FF1F1A95E1F7ED56FB4E20813181240F96
:10437000351FF60173E0EE0FFF1F7A95E1F7EF5658
:10438000FB4E808191812817390770F54115510541
:1043900059F19C90760163E0EE0CFF1C6A95E1F701
:1043A0008FE894E1E80EF91E8D01C0E0D0E05A01DB
:1043B0000894A108B10806C0C701F80160810E94F5
:1043C000D92421960F5F1F4FCA15DB05A8F38BE890
:1043D00094E1C80ED91E8FEFF6018083882D692DD8
:1043E0000E9481208FEF01C080E0DF91CF911F916B
:1043F0000F91FF90EF90DF90CF90BF90AF909F9084
:104400008F90089590E023E0880F991F2A95E1F797
:1044100081579B4E0E94D9240895682F87EA94E122
:104420000E94D9240895682F8FE994E10E94D9242D
:104430000895682F87E994E10E94D9240895682F90
:104440008FE894E10E94D9240895CF93DF93282F19
:10445000A82FB0E0ED01C557DB4E8881882379F1A4
:10446000FD0133E0EE0FFF1F3A95E1F7ED56FB4EED
:1044700080819181892B11F1233039F487EA94E10D
:104480000E947024809336011EC0223039F48FE9D7
:1044900094E10E9470248093D60015C0213039F435
:1044A00087E994E10E9470248093CE000CC08FE8CD
:1044B00094E10E9470248093C60005C01882A95917
:1044C000BB4E8FEF8C93DF91CF9108951F920F9287
:1044D0000FB60F9211242F933F934F935F936F93D7
:1044E0007F938F939F93AF93BF93EF93FF9383E05B
:1044F0000E942522FF91EF91BF91AF919F918F91E3
:104500007F916F915F914F913F912F910F900FBECF
:104510000F901F9018951F920F920FB60F921124B3
:104520002F933F934F935F936F937F938F939F93BB
:10453000AF93BF93EF93FF9382E00E942522FF91F8
:10454000EF91BF91AF919F918F917F916F915F910B
:104550004F913F912F910F900FBE0F901F90189584
:104560001F920F920FB60F9211242F933F934F93E8
:104570005F936F937F938F939F93AF93BF93EF93CB
:10458000FF9381E00E942522FF91EF91BF91AF91AF
:104590009F918F917F916F915F914F913F912F915B
:1045A0000F900FBE0F901F9018951F920F920FB68D
:1045B0000F9211242F933F934F935F936F937F93A9
:1045C0008F939F93AF93BF93EF93FF9380E00E94ED
:1045D0002522FF91EF91BF91AF919F918F917F9194
:1045E0006F915F914F913F912F910F900FBE0F9060
:1045F0001F9018951F93182F90E0FC01E557FB4E74
:104600002FEF208343E0880F991F4A95E1F78157E8
:104610009B4E0E947024682F812F0E9481201F9141
:104620000895CF93DF93EB01282F30E0F90173E079
:10463000EE0FFF1F7A95E1F7E359FB4E80819181E0
:10464000892BC9F0F90163E0EE0FFF1F6A95E1F7CE
:10465000E159FB4E80819181892B69F053E0220F53
:10466000331F5A95E1F7C90185599B4E0E9470246A
:1046700088838FEF01C080E0DF91CF910895DF93B1
:10468000CF930F92CDB7DEB783E0BE016F5F7F4F50
:104690000E941123882319F42FEF3FEF03C0898173
:1046A000282F30E0C9010F90CF91DF910895DF935B
:1046B000CF930F92CDB7DEB782E0BE016F5F7F4F21
:1046C0000E941123882319F42FEF3FEF03C0898143
:1046D000282F30E0C9010F90CF91DF910895DF932B
:1046E000CF930F92CDB7DEB781E0BE016F5F7F4FF2
:1046F0000E941123882319F42FEF3FEF03C0898113
:10470000282F30E0C9010F90CF91DF910895DF93FA
:10471000CF930F92CDB7DEB780E0BE016F5F7F4FC2
:104720000E941123882319F42FEF3FEF03C08981E2
:10473000282F30E0C9010F90CF91DF91089590E0CC
:10474000E3E0880F991FEA95E1F785599B4E0E9497
:104750000C25089583E894E160E571E140E850E0BC
:104760000E94632487EA94E160ED71E140E150E04A
:104770000E94632408950E94AA231092E7111092C8
:10478000E61188ED8093310183E040E855E260E076
:1047900070E00E9434208FEF80936A1410928E1480
:1047A0001092B6141092B514789408958BE794E1A2
:1047B00060EC70E140E850E00E9463248FE994E1EE
:1047C00060E471E140E150E00E94632408950E949A
:1047D000D6231092E5111092E41188ED8093D10058
:1047E00082E040E855E260E070E00E9434208FEF04
:1047F0008093691410928D141092B4141092B31413
:104800007894089583E794E160E370E140E850E034
:104810000E94632487E994E160EB70E140E150E09D
:104820000E94632408950E9402241092E3111092C2
:10483000E21188ED8093C90081E040E855E260E034
:1048400070E00E9434208FEF8093681410928C14D3
:104850001092B2141092B114789408958BE694E1FA
:1048600060EA7FE040E850E00E9463248FE894E132
:1048700060E270E140E150E00E94632408950E94EC
:104880002E241092E1111092E01188ED8093C10066
:1048900080E040E855E260E070E00E9434208FEF55
:1048A0008093671410928B141092B0141092AF146E
:1048B000789408950E943F240E9413240E94E723C5
:1048C0000E94BB230895FC018FB7F8947183608325
:1048D0005383428317821682158214828FBF0895F4
:1048E000DC014FB7F89414968D919C911597892B04
:1048F00011F4E0E025C016968D919C911797ED91EB
:10490000FC911197E80FF91FE081019617969C938F
:104910008E93169712962D913C91139782179307B9
:1049200030F0821B930B17969C938E9316971496D8
:104930008D919C911597019715969C938E93149742
:104940004FBF8E2F0895FC014FB7F8948481958155
:1049500068177907B0F486819781860F971F978330
:104960008683228133818217930720F0821B930B69
:104970009783868384819581861B970B9583848397
:1049800002C0158214824FBF0895FC01CB012FB7DE
:10499000F8942FBF2681378162817381820F931F24
:1049A0000E941B2E0190F081E02DE80FF91F8081FD
:1049B00008951F93CF93DF93EC01162F4FB7F89410
:1049C0002C813D816A817B812617370798F48E817F
:1049D0009F81820F931F0E941B2EE881F981E80FAF
:1049E000F91F10838C819D8101969D838C834FBF1D
:1049F0008FEF02C04FBF80E0DF91CF911F910895EC
:104A0000FC018FB7F8948FBF228133818481958117
:104A1000281B390BC9010895FC018FB7F894158242
:104A200014828FBF0895AAE7B0E08C9180688C93C0
:104A30008C918F7D8C938C91887F86608C93ECE732
:104A4000F0E080818F738064808380818F7D80839C
:104A50008C9188608C931092B71478940895EAE74B
:104A6000F0E08081877F808380818F7780830895C5
:104A7000EAE7F0E09081987F982B90830895ECE727
:104A8000F0E090818295880F880F807C9F73982B2F
:104A900090830895ECE7F0E090818F71907E892BF0
:104AA00080830895EAE7F0E08081806180838081DF
:104AB00080648083089580917A0080740895982F8F
:104AC0001092B714883020F080917B00886003C07A
:104AD00080917B00877F80937B0080917C00977022
:104AE000887F892B80937C0080917A0080618093FD
:104AF0007A0080917A00806480937A0080917A00B5
:104B000086FDFCCF2091780030917900C90108958D
:104B10000E945F25969587959695879508951F9293
:104B20000F920FB60F9211248F938FEF8093B714CB
:104B30008F910F900FBE0F901F9018959093E911D1
:104B40008093E81108951F93182F8A3031F4E09173
:104B5000E811F091E9118DE00995E091E811F091EB
:104B6000E911812F09951F910895CF93DF93EC01EF
:104B7000009721F406C021960E94A32588818823EE
:104B8000D1F7DF91CF910895EF92FF920F931F938A
:104B9000CF93DF938C017A010097E9F020E030E0B9
:104BA0002617370738F4F80181918F012F5F3F4FA7
:104BB0008823B1F7C0E0D0E00BC0F80180818823E2
:104BC00019F00F5F1F4F01C080E20E94A3252196BC
:104BD000CE15DF0590F3DF91CF911F910F91FF90DC
:104BE000EF900895CF93DF93EC01009719F407C07D
:104BF0000E94A325FE01219684918823C9F7DF91A5
:104C0000CF9108958AE00E94A3250895E82FF0E04F
:104C1000EF70F070E554FE4FE4918E2F0E94A325B3
:104C200008951F93182F82958F700E940626812F5A
:104C30000E9406261F9108951F93182F892F0E9406
:104C40001126812F0E9411261F910895EF92FF9245
:104C50000F931F937B018C01C801AA27BB270E94D9
:104C60001C26C7010E941C261F910F91FF90EF90F8
:104C700008952F923F924F925F926F927F928F9200
:104C80009F92AF92BF92CF92DF92EF92FF920F93DB
:104C90001F93DF93CF93CDB7DEB7A3970FB6F894EA
:104CA000DEBF0FBECDBF6AA3242E2BA33701480160
:104CB000442351F017FF08C0EE24FF248701E618B3
:104CC000F7080809190902C0840173012AA12150BB
:104CD00090E0211091E0291B29A318A2A82EBB2443
:104CE000CC24DD24C801B701A60195010E94422E03
:104CF000FB01EF70F070E554FE4F64916F8FC801B7
:104D0000B701A60195010E94422EC901DA017C017A
:104D10008D019EE1492E512C4C0E5D1E39A025C0FF
:104D2000E114F10401051105C9F0C801B701A6019C
:104D300095010E94422EFB01EF70F070E554FE4F8A
:104D40006491F2016083C801B701A60195010E9438
:104D5000422EC901DA017C018D0103C02BA1F201B1
:104D600020833A940894410851083320C9F6CE01B3
:104D70004F968C01E9A10E1B11092220F1F097FE3C
:104D800005C08DE2F80182938F0117C0C801019719
:104D9000611471048104910419F08C018BE202C04A
:104DA0008C0180E2F801808308C0F80181918F01B5
:104DB0000E94A325FAA1F150FAA32AA12223A9F760
:104DC000A3960FB6F894DEBF0FBECDBFCF91DF9193
:104DD0001F910F91FF90EF90DF90CF90BF90AF9019
:104DE0009F908F907F906F905F904F903F902F900B
:104DF00008954F925F926F927F928F929F92AF929F
:104E0000BF92CF92DF92EF92FF920F931F93CF93B7
:104E1000DF93482E5A016B01CB01BA0120E030E04C
:104E200040E050E00E948B2D18161CF4350146011D
:104E300006C03501460197FA909497F890940F2E8A
:104E4000F0E0EF2EF0E0FF2EF0E80F2FFFE31F2F32
:104E5000F02D5524C401B301A80197010E94C62B6F
:104E600020E030E040E251E40E94C22B87FD0EC0FA
:104E7000C801B70120E030E040E251E40E94962DE5
:104E80007B018C0153948FE0581621F7C601B501C0
:104E900020E030E040E050E00E94C22B882314F470
:104EA0008DE201C08BE20E94A325DD24AA2456C016
:104EB000C401B301A80197010E94C62B0E94332CA4
:104EC000B62ED62ACD2DD0E0CC24DD24C801B701E2
:104ED00020E030E040E85FE30E94C22B882319F411
:104EE00021E0C22ED12CCC29DD29CD2B39F08B2D00
:104EF000805D0E94A325DD24DA9404C080E20E9434
:104F0000A325DD24C801B70120E030E040E85FE3DD
:104F10000E94C22B882319F48EE20E94A3256B2DD8
:104F200070E0882777FD8095982F0E94612CA8015A
:104F300097010E94962D9B01AC01C401B3010E9410
:104F4000FB2A3B014C01C801B70120E030E040E200
:104F500051E40E94C62B7B018C01A394A41408F495
:104F6000A7CFDF91CF911F910F91FF90EF90DF902E
:104F7000CF90BF90AF909F908F907F906F905F90F9
:104F80004F9008957F928F929F92AF92BF92CF924F
:104F9000DF92EF92FF920F931F93DF93CF93CDB7E2
:104FA000DEB77888C988DA8863E1E62EF12CEC0E4A
:104FB000FD1E14C0882381F480E090E0CF91DF9142
:104FC0001F910F91FF90EF90DF90CF90BF90AF9027
:104FD0009F908F907F9008950E94A32596012F5F48
:104FE0003F4F772021F0F6016901849103C0F6015B
:104FF000808169018532F1F62F5F3F4F772021F0E4
:10500000F6016901849103C0F6018081690184364B
:1050100029F0883781F08336F9F606C000E117E2FF
:105020005AE0A52EB12C0CC0F701808122E030E0BF
:10503000E20EF31ED1CF00E010E140E1A42EB12C2E
:1050400032E0832E912C8E0C9F1CF701E080F180C2
:105050008436B1F4F7FE11C0F094E194F108F394B2
:105060008DE20E94A32509C0C8016AE070E00E9499
:105070001B2E8B016230710518F0E016F106A0F3CB
:10508000C701B8010E941B2E862F0E940626C70169
:10509000B8010E941B2E7C01C801B5010E941B2E85
:1050A0008B016115710561F7740198CF2091B900EA
:1050B0002E7F2093B9002091B9002D7F2093B90055
:1050C0009C0140E050E060E87EE380E090E00E94D8
:1050D000642E203130F0822F90E04097959587958F
:1050E000282F2093B8000895589A599A1092311297
:1050F00010923012109233121092321284E690E025
:105100000E945628ECEBF0E080818460808310924E
:10511000EA118081816080838081806480837894BB
:10512000089590E0611191E08E7F982B9093BA00E2
:105130000895909331128093301208959093331212
:10514000809332120895ECEBF0E080818F70806ADA
:1051500080830895ECEBF0E080818F70806D808318
:1051600008958091BC0087FFFCCF08958093BB0019
:10517000ECEBF0E080818F70806880830895882355
:1051800029F08091BC008F70806C04C08091BC00BD
:105190008F7080688093BC0008958091BB00089553
:1051A0008091B9000895982F8091EA118823E1F742
:1051B00082E08093EA119E7F9093EB11ACEEB1E117
:1051C000FA0102C081918D938E2F841B8617D0F334
:1051D00010920C1260930D128091BC008F70806A47
:1051E0008093BC000895982F8091EA118823E1F7FD
:1051F00083E08093EA1191609093EB1110922E124C
:1052000060932F128091BC008F70806A8093BC00E5
:105210008091EA118823E1F7AEE0B2E1FA0102C021
:105220008D9181938E2F841B8617D0F30895982F2C
:10523000FA018091BC008E7F8093BC008091BC00FD
:105240008F70806A8093BC008091BC0087FFFCCF88
:105250009E7F9093BB008091BC008F70806880938C
:10526000BC008091BC0087FFFCCF8091B9008831E1
:1052700089F091E012C080818093BB008091BC00D6
:105280008F7080688093BC008091BC0087FFFCCF4A
:1052900031966150662379F790E08091BC008F7061
:1052A000806D8093BC008091BC0084FFFCCF809116
:1052B000BC0081608093BC00892F0895982FFA016B
:1052C0008091BC008E7F8093BC008091BC008F7069
:1052D000806A8093BC008091BC0087FFFCCF916006
:1052E0009093BB008091BC008F7080688093BC005D
:1052F0008091BC0087FFFCCF8091B900803481F0A1
:1053000091E01EC08091BC008F70806C8093BC00C7
:105310008091BC0087FFFCCF8091BB0081936150DE
:10532000623080F78091BC008F7080688093BC00F1
:105330008091BC0087FFFCCF8091BB00808390E010
:105340008091BC008F70806D8093BC008091BC0008
:1053500081608093BC00892F08951F920F920FB631
:105360000F9211242F933F934F935F936F937F93EB
:105370008F939F93AF93BF93EF93FF938091B90067
:10538000887F803609F4A0C0813670F5883209F430
:105390005FC0893298F4803109F457C0813138F404
:1053A000882309F4EAC0883009F0EFC04EC0883184
:1053B00009F44EC0803209F0E8C0DFC0803409F43F
:1053C00077C0813438F4803309F4D7C0883309F0CA
:1053D000DCC05DC0803509F45FC0883509F44AC07F
:1053E000883409F0D2C0C9C0883909F4BAC08939F3
:1053F000B0F4883709F468C0893738F4883609F47E
:1054000063C0803709F0C1C05FC0883809F4A9C003
:10541000803909F45FC0803809F0B7C05BC0803BB9
:1054200009F479C0813B38F4803A09F462C0883AC3
:1054300009F0ABC070C0803C09F49AC0883C09F404
:1054400097C0883B09F0A1C077C08091EB110FC0D5
:1054500090910C1280910D12981708F08EC0E92FD0
:10546000F0E0E451FE4E80819F5F90930C12809398
:10547000BB0077C080912E129091BB00E82FF0E026
:10548000E25FFD4E90838F5F80932E1276C08091F5
:10549000BC008F70806875C080912E129091BB0007
:1054A000E82FF0E0E25FFD4E90838F5F80932E1235
:1054B00020912E1230E080912F1290E00197281752
:1054C00039070CF04EC048C085E08093EA11109275
:1054D0002E1242C080912E129091BB00E82FF0E076
:1054E000E25FFD4E90838F5F80932E128032C8F56D
:1054F00033C08091BC008F70806C8093BC00E091C1
:105500003012F09131123097F1F180912E126EE04D
:1055100072E1099538C084E08093EA11E09132127B
:10552000F0913312309731F080E26CEE71E1099521
:1055300080930D1210920C1290910C12E92FF0E052
:10554000E451FE4E80818093BB009F5F90930C12CC
:1055500080910D12981728F48091BC008F70806C98
:1055600004C08091BC008F7080688093BC000DC027
:105570008091BC008F70806C04C08091BC008F70E3
:10558000806D8093BC001092EA11FF91EF91BF9162
:10559000AF919F918F917F916F915F914F913F91CB
:1055A0002F910F900FBE0F901F9018958091EA11C8
:1055B0000895F8940C947F2EFB01DC0102C0019049
:1055C0000D9241505040D8F70895DC0101C06D9311
:1055D00041505040E0F70895FB01DC01415050403C
:1055E00048F001900D920020C9F701C01D92415072
:1055F0005040E0F708955058BB27AA270ED03AC272
:105600002BD230F030D220F031F49F3F11F41EF451
:10561000FBC10EF4E095E7FBC6C1E92F3CD280F355
:10562000BA17620773078407950718F071F49EF59F
:105630006BC20EF4E0950B2EBA2FA02D0B01B90111
:1056400090010C01CA01A0011124FF27591B99F0F8
:10565000593F50F4503E68F11A16F040A22F232F04
:10566000342F4427585FF3CF469537952795A79554
:10567000F0405395C9F77EF41F16BA0B620B730BFB
:10568000840BBAF09150A1F0FF0FBB1F661F771F6C
:10569000881FC2F70EC0BA0F621F731F841F48F421
:1056A000879577956795B795F7959E3F08F0B3CFA7
:1056B0009395880F08F09927EE0F97958795089591
:1056C000CBD158F080E891E009F49EEFCCD128F0DE
:1056D00040E851E059F45EEF09C096C115C2E92FC8
:1056E000E078D9D168F3092E052AC1F326173707C8
:1056F0004807590738F00E2E07F8E02569F0E02535
:10570000E0640AC0EF6307F8009407FADB01B9010F
:105710009D01DC01CA01AD01EF9347D0ABD10AD0A6
:105720005F91552331F02BED3FE049E450FD49EC0A
:1057300063CF0895DF93DD27B92FBF7740E85FE39C
:105740001616170648075B0710F4D92FE8D19F9368
:105750008F937F936F934DD2E4EEF0E058D18AD1CE
:105760002F913F914F915F91EDD1DD2349F09058FA
:10577000A2EA2AED3FE049EC5FE3D0785D274DDFF8
:10578000DF9178C1ECD008F481E008950CD072C1AB
:105790006AD140F061D130F021F45F3F19F003C1CC
:1057A0005111B3C131C177D198F39923C9F355236E
:1057B000B1F3951B550BBB27AA2762177307840704
:1057C00038F09F5F5F4F220F331F441FAA1FA9F3BA
:1057D00033D00E2E3AF0E0E830D091505040E695AC
:1057E000001CCAF729D0FE2F27D0660F771F881F0D
:1057F000BB1F261737074807AB07B0E809F0BB0BFC
:10580000802DBF01FF2793585F4F2AF09E3F51051F
:1058100068F0C9C07AC15F3FECF3983EDCF386952F
:1058200077956795B795F7959F5FC9F7880F911D95
:105830009695879597F90895E1E0660F771F881F81
:10584000BB1F621773078407BA0720F0621B730B34
:10585000840BBA0BEE1F88F7E095089504D0689486
:10586000B11153C108951FD188F09F5790F0B92FFF
:105870009927B751A0F0D1F0660F771F881F991FA5
:105880001AF0BA95C9F712C0B13081F03DD1B1E03C
:1058900008953AC1672F782F8827B85F39F0B93F4C
:1058A000CCF3869577956795B395D9F73EF49095A7
:1058B0008095709561957F4F8F4F9F4F0895E89425
:1058C00009C097FB3EF490958095709561957F4F48
:1058D0008F4F9F4F9923A9F0F92F96E9BB279395F6
:1058E000F695879577956795B795F111F8CFFAF406
:1058F000BB0F11F460FF1BC06F5F7F4F8F4F9F4F37
:1059000016C0882311F096E911C0772321F09EE894
:10591000872F762F05C0662371F096E8862F70E0FA
:1059200060E02AF09A95660F771F881FDAF7880FD4
:105930009695879597F90895D0D080F09F3740F4D9
:1059400091110EF0E2C060E070E080E89FEB0895F6
:1059500026F41B16611D711D811D2BC045C0990FBA
:105960000008550FAA0BE0E8FEEF16161706E80729
:10597000F907C0F012161306E407F50798F0621B4A
:10598000730B840B950B39F40A2661F0232B242B1F
:10599000252B21F408950A2609F4A140A6958FEF3E
:1059A000811D811D089597F99F6780E870E060E090
:1059B0000895882371F4772321F09850872B762F50
:1059C00007C0662311F499270DC09051862B70E013
:1059D00060E02AF09A95660F771F881FDAF7880F24
:1059E0009695879597F908959F3F49F0915028F42F
:1059F000869577956795B7959F5F80389F4F880FFD
:105A00009695879597F908959FEF80EC0895DF9319
:105A1000CF931F930F93FF92EF92DF927B018C0144
:105A2000689405C0DA2EEF018DD0FE01E894A591AF
:105A30002591359145915591AEF3EF01EEDDFE01D3
:105A40009701A801DA9479F7DF90EF90FF900F911A
:105A50001F91CF91DF91089500240A94161617061E
:105A600018060906089500240A941216130614064F
:105A700005060895092E0394000C11F4882352F0B2
:105A8000BB0F40F4BF2B11F460FF04C06F5F7F4F6A
:105A90008F4F9F4F089557FD9058440F551F59F051
:105AA0005F3F71F04795880F97FB991F61F09F3F0B
:105AB00079F087950895121613061406551FF2CF34
:105AC0004695F1DF08C0161617061806991FF1CF84
:105AD00086957105610508940895E5DFA0F0BEE79D
