:100000000C94F9000C9416010C9416010C94160132
:100010000C9416010C9416010C9416010C94160104
:100020000C9416010C9416010C9416010C941601F4
:100030000C9416010C940E200C943B200C942D1E55
:100040000C94871F0C945B190C94B41F0C94E11F43
:100050000C94ED1D0C942D1F0C945A1F0C949A1D9A
:100060000C9416010C9404240C9416010C94612534
:100070000C9416010C941B280C9416010C94682007
:100080000C9495200C94C2200C94EF200C946D1EBF
:100090000C94DF230C9416010C943C250C94392C01
:1000A0000C9416010C941C210C9449210C9476217B
:1000B0000C94A3210C94AD1E0C94D0210C94FD2122
:1000C0000C942A220C9457220C94ED1E0C94BA2303
:1000D0000C9416010C9417250C9495230C9416017E
:1000E0000C94F22444454154480A00636D645F61F6
:1000F0006E676C653A2000636D645F616E676C6566
:100100003A20000A0025640025640A000925640AD3
:1001100000096163635F6572726F723A200009655E
:1001200072726F723A2000094B493A2000094B5015
:100130003A2000096163635F6572726F723A200052
:10014000096572726F723A2000094B493A20000922
:100150004B503A2000094B493A2000094B493A20BC
:1001600000094B503A2000094B503A200025642CDE
:100170002000496E697469616C697A6174696F6E97
:1001800020436F6D706C657465200D0A002E000DA4
:100190000A53797374656D205761726D65642055DB
:1001A000700057520A0025642C200057520A00099B
:1001B00025640A000000010008004000000100045E
:1001C0000000010008002000400080000001000441
:1001D0004241445F766563742063616C6C656421A1
:1001E00000303132333435363738394142434445B3
:1001F000460011241FBECFEFD1E2DEBFCDBF12E01B
:10020000A0E0B2E0EEE4F0E602C005900D92A63B5D
:10021000B107D9F712E1A6EBB2E001C01D92A93CEB
:10022000B107E1F70E9413100C94652D0C94842201
:10023000893049F4809180008260809380008091B1
:1002400080008E7F0EC08A3021F480918000826011
:1002500003C0809180008D7F80938000809180001A
:1002600081608093800010928B0010928A00089524
:10027000893049F48091B00082608093B000809111
:10028000B0008E7F0EC08A3021F48091B000826071
:1002900003C08091B0008D7F8093B0008091B0004A
:1002A00081608093B0001092B4000895893049F4C1
:1002B00080919000826080939000809190008E7F6A
:1002C0000EC08A3021F480919000826003C080913A
:1002D00090008D7F8093900080919000816080934A
:1002E000900010929900109298000895893049F476
:1002F00080919100826080939100809191008E7F27
:100300000EC08A3021F480919100826003C08091F8
:1003100091008D7F80939100809191008160809306
:10032000910010929B0010929A000895893049F430
:1003300080919200826080939200809192008E7FE3
:100340000EC08A3021F480919200826003C08091B7
:1003500092008D7F809392008091920081608093C3
:10036000920010929D0010929C000895893049F4EB
:100370008091A00082608093A0008091A0008E7F79
:100380000EC08A3021F48091A000826003C0809169
:10039000A0008D7F8093A0008091A0008160809359
:1003A000A0001092A9001092A8000895893049F485
:1003B0008091A10082608093A1008091A1008E7F36
:1003C0000EC08A3021F48091A100826003C0809128
:1003D000A1008D7F8093A1008091A1008160809316
:1003E000A1001092AB001092AA000895893049F440
:1003F0008091A00082608093A0008091A0008E7FF9
:100400000EC08A3021F48091A000826003C08091E8
:10041000A0008D7F8093A0008091A00081608093D8
:10042000A0001092AD001092AC000895E0E8F0E05A
:1004300020812E7F2083208122602083E1E8F0E06C
:100440002081286020832081206120839093870071
:1004500080938600109289001092880010928B0081
:1004600010928A0010928D0010928C000895E0E99D
:10047000F0E020812E7F2083208122602083E1E92B
:10048000F0E02081286020832081206120839093E8
:100490009700809396001092990010929800109205
:1004A0009B0010929A0010929D0010929C0008955B
:1004B000E0EAF0E020812E7F2083208122602083EB
:1004C000E1EAF0E020812860208320812061208300
:1004D0009093A7008093A6001092A9001092A80004
:1004E0001092AB001092AA001092AD001092AC00D6
:1004F0000895E0E8F0E080818062808380818F7ED3
:1005000080830895E0EBF0E08081806280838081C9
:100510008F7E80830895E0E9F0E0808180688083A9
:1005200080818F7B80830895E0E9F0E080818062A4
:10053000808380818F7E80830895E0E9F0E0808170
:100540008860808380818B7F80830895E0EAF0E07B
:1005500080818068808380818F7B80830895E0EA3A
:10056000F0E080818062808380818F7E8083089527
:10057000E0EAF0E080818860808380818B7F8083E7
:100580000895E0E8F0E080818F7D808380818F7E18
:1005900080830895E0EBF0E080818F7D808380810F
:1005A0008F7E80830895E0E9F0E080818F778083FB
:1005B00080818F7B80830895E0E9F0E080818F7DEA
:1005C000808380818F7E80830895E0E9F0E08081E0
:1005D000877F808380818B7F80830895E0EAF0E0CD
:1005E00080818F77808380818F7B80830895E0EA8C
:1005F000F0E080818F7D808380818F7E808308956D
:10060000E0EAF0E08081877F808380818B7F808338
:100610000895E0E8F0E080818D7F808380818E7F87
:10062000808380818F7D808380818F7E8083089509
:10063000E0EBF0E080818D7F808380818E7F8083FE
:1006400080818F7D808380818F7E80830895E0E923
:10065000F0E080818D7F808380818E7F80838081A8
:100660008F77808380818F7B808380818F7D808363
:1006700080818F7E80838081877F808380818B7F54
:1006800080830895E0EAF0E080818D7F808380811F
:100690008E7F808380818F77808380818F7B808332
:1006A00080818F7D808380818F7E80838081877F22
:1006B000808380818B7F8083089590938B008093CB
:1006C0008A0008958093B4000895909399008093D0
:1006D0009800089590939B0080939A0008959093BA
:1006E0009D0080939C0008959093A9008093A8009A
:1006F00008959093AB008093AA0008959093AD0065
:100700008093AC00089510BA11BA109207011092AC
:1007100008019FEF91B980E484B997B9589A599A22
:1007200083EF8AB98EEF8DB9A59A9D9880930101C8
:1007300080930401089508952E9A08952E9808959F
:1007400022B330E085E0369527958A95E1F720952C
:10075000309521703070C901089597FD10C025E0D3
:1007600030E040E050E00E940A30DA01C901880F11
:10077000991F845E9D4FFC012081318117C025E0C7
:1007800030E040E050E00E940A30DA01C901885BA5
:100790009F4FAF4FBF4F880F991F845E9D4FFC0145
:1007A0008081918122273327281B390BC9010895A5
:1007B0006A5570408040904097FD10C025E030E0C1
:1007C00040E050E00E940A30DA01C901880F991F09
:1007D000845E9D4FFC012081318117C025E030E00F
:1007E00040E050E00E940A30DA01C901885B9F4F67
:1007F000AF4FBF4F880F991F845E9D4FFC018081D2
:10080000918122273327281B390BC9010895CF92E4
:10081000DF92EF92FF920F931F936B017C018AE5A9
:10082000C816D104E104F104A1F186EAC8168FEFDD
:10083000D8068FEFE8068FEFF80659F18EE0C8165C
:1008400081E0D80680E0E80680E0F80611F182EF4A
:10085000C8168EEFD8068FEFE8068FEFF806C9F0BE
:10086000C701B6010E94D8038C01C701B6010E94DE
:10087000AD03BC01C8010E94D52FCB019B0173E0E1
:10088000220F331F7A95E1F7880F991F280F391F20
:1008900002C020E030E0C9011F910F91FF90EF905E
:1008A000DF90CF9008958AE00E9476018AE00E944E
:1008B00056018AE00E94B6018AE00E94D60108959E
:1008C000982F80538A3038F08151863010F0892F6C
:1008D0000895892F87530895FC01908121814281D9
:1008E0005381892F80538A3010F4982F05C0892FA7
:1008F0008154863008F49753822F80538A3010F445
:10090000282F05C0822F8154863008F42753842F66
:1009100080538A3010F4482F05C0842F81548630CC
:1009200008F44753852F80538A3010F4582F05C0A0
:10093000852F8154863008F4575330E0892F90E09A
:10094000A4E0880F991FAA95E1F7282B392BF4E032
:10095000220F331FFA95E1F7842F90E0822B932B1F
:10096000E4E0880F991FEA95E1F7252F30E0282B66
:10097000392BC9010895FF920F931F93FC019081B9
:1009800021816281738114810581F680E781892F3D
:1009900080538A3010F4982F05C0892F81548630F7
:1009A00008F49753822F80538A3010F4282F05C003
:1009B000822F8154863008F42753862F80538A3043
:1009C00010F4682F05C0862F8154863008F46753D1
:1009D000872F80538A3010F4782F05C0872F8154D9
:1009E000863008F47753812F80538A3010F4182F03
:1009F00005C0812F8154863008F41753802F80530F
:100A00008A3010F4082F05C0802F8154863008F4F6
:100A100007538F2D80538A3010F4F82E06C08F2D87
:100A20008154863010F489ECF80E8E2F80538A3072
:100A300010F4E82F05C08E2F8154863008F4E75358
:100A400030E040E050E0892F90E0A0E0B0E0F4E03A
:100A5000880F991FAA1FBB1FFA95D1F7282B392B96
:100A60004A2B5B2BA4E0220F331F441F551FAA956E
:100A7000D1F7862F90E0A0E0B0E0822B932BA42B3F
:100A8000B52BF4E0880F991FAA1FBB1FFA95D1F769
:100A9000272F30E040E050E0282B392B4A2B5B2BEE
:100AA00064E0220F331F441F551F6A95D1F7812F31
:100AB00090E0A0E0B0E0822B932BA42BB52B24E098
:100AC000880F991FAA1FBB1F2A95D1F7202F30E04E
:100AD00040E050E0282B392B4A2B5B2B04E0220FFF
:100AE000331F441F551F0A95D1F78F2D90E0A0E0CA
:100AF000B0E0822B932BA42BB52B14E0880F991F09
:100B0000AA1FBB1F1A95D1F72E2F30E040E050E00E
:100B1000282B392B4A2B5B2BB901CA011F910F914E
:100B2000FF9008959C01853291051CF024E230E08D
:100B300006C08FEF2C3D380714F42CED3FEF0FB6B5
:100B4000F8940F92B901882777FD8095982F0E941D
:100B50008B2E28E430E54CEF5EEB0E943F2F2FE117
:100B600035E449E353E40E94882D0E94582E709387
:100B70009B0060939A000F900FBE08959C018532F0
:100B800091051CF024E230E006C08FEF2C3D3807C1
:100B900014F42CED3FEF0FB6F8940F92B9018827AB
:100BA00077FD8095982F0E948B2E21E137EC4AE04B
:100BB0005FEB0E943F2F26EF38E64CE353E40E94A0
:100BC000882D0E94582E70939900609398000F9082
:100BD0000FBE0895982F8A3010F4905D04C08A509B
:100BE000873008F4995C892F08951F93CF93DF9382
:100BF00011E0C8E0D1E00E94FB25803731F48091FC
:100C0000AE029091AF02019607C08C3649F48091F4
:100C1000AE029091AF0201979093AF028093AE0223
:100C200000D000D00F92EDB7FEB73196ADB7BEB78A
:100C300011961C93D283C1838091AE029091AF0232
:100C4000948383830E944E2A0F900F900F900F90F1
:100C50000F90D1CF6F927F928F929F92AF92BF925F
:100C6000CF92DF92EF92FF920F931F93CF93DF9378
:100C7000982F8091900080628093900080919000E6
:100C80008F7E809390009F3F09F406C19A3021F433
:100C900081E08093190333C080911903882391F078
:100CA000963531F481E0809316031092180307C043
:100CB000943441F481E0809315031092170310924D
:100CC0001903F9C080911603882359F08091180305
:100CD000E82FF0E0EF5EFC4F90838F5F8093180366
:100CE0000EC080911503882351F080911703E82FDF
:100CF000F0E0E75FFC4F90838F5F80931703809154
:100D00001803843009F0A9C081E193E00E946C04CB
:100D1000AA2797FDA095BA2FBC01CD010E948B2E6A
:100D200020E030E040E85EE30E943F2F0E94582E12
:100D30009B01AC017093C3026093C2021092160330
:100D40001092180381E08093C4026091BE027091FA
:100D5000BF02621B730B882777FD8095982F0E9436
:100D60008B2E3B014C01A0900503B0900603C09070
:100D70000703D09008032CE433E949E15CE30E94C7
:100D80003F2F7B018C01C601B50120EA33E04FEB18
:100D90005CE30E943F2F9B01AC01C801B7010E9498
:100DA000882D0E94582EEB01CB0183968734910544
:100DB000D0F0BE01882777FD8095982F0E948B2E5A
:100DC0007B018C01C601B50120EA33E04FEB5CEBFF
:100DD0000E943F2F9B01AC01C801B7010E94882DE2
:100DE0000E94582EEB01C601B501A40193010E9497
:100DF000882D6093050370930603809307039093F7
:100E00000803C532D1051CF0C4E2D0E006C08FEF64
:100E1000CC3DD80714F4CCEDDFEFCE010E94920553
:100E200000D000D00F92EDB7FEB7319681E0ADB79C
:100E3000BEB711968C9386EA91E09283818380916C
:100E4000C2029091C302948383830E944E2A0F9022
:100E50000F900F900F900F902EC080911703883045
:100E600051F589E093E00E94BB040E948B2E20E0A4
:100E700030E040E85EE30E943F2F0E94582E6093CE
:100E8000C5027093C6028093C7029093C802109265
:100E90001503109217030FC000D00F9281E0EDB739
:100EA000FEB7818382EA91E0938382830E944E2A77
:100EB0000F900F900F90DF91CF911F910F91FF90A6
:100EC000EF90DF90CF90BF90AF909F908F907F90EA
:100ED0006F9008956F927F928F929F92AF92BF9280
:100EE000CF92DF92EF92FF920F931F93982F8091F2
:100EF0009000806880939000809190008F7B809319
:100F000090009F3F09F412C19A3021F481E0809350
:100F10002E0333C080912E03882391F0963531F44F
:100F200081E080932B0310922D0307C0943441F489
:100F300081E080932A0310922C0310922E0305C1A6
:100F400080912B03882359F080912D03E82FF0E046
:100F5000EA5DFC4F90838F5F80932D030EC08091DC
:100F60002A03882351F080912C03E82FF0E0E25E01
:100F7000FC4F90838F5F80932C0380912D038430EE
:100F800009F0B5C086E293E00E946C04AA2797FDA1
:100F9000A095BA2FBC01CD010E948B2E20E030E03D
:100FA00040E85EE30E943F2F0E94582E9B01AC0157
:100FB0007093D0026093CF0210922B0310922D03F6
:100FC00081E08093D1026091C0027091C102620FF2
:100FD000731F882777FD8095982F0E948B2E3B01E9
:100FE0004C01A0901A03B0901B03C0901C03D0903A
:100FF0001D032DE830E948E05CE30E943F2F7B01B0
:101000008C01C601B50126E135E440E85CE30E94AD
:101010003F2F9B01AC01C801B7010E94882D0E949F
:10102000582E9B01CB01839687349105D0F0B901EE
:10103000882777FD8095982F0E948B2E7B018C014D
:10104000C601B50126E135E440E85CEB0E943F2F84
:101050009B01AC01C801B7010E94882D0E94582E47
:101060009B01253231051CF024E230E006C08FEFF1
:101070002C3D380714F42CED3FEF88279927821B6D
:10108000930B0E94BE0500D000D00F92EDB7FEB7C3
:10109000319681E0ADB7BEB711968C938FEA91E09F
:1010A000928381838091CF029091D0029095819517
:1010B0009F4F948383830E944E2A60911A037091FC
:1010C0001B0380911C0390911D03A40193010E94B6
:1010D000882D60931A0370931B0380931C039093D5
:1010E0001D030F900F900F900F900F902EC08091C6
:1010F0002C03883051F58EE193E00E94BB040E94DE
:101100008B2E20E030E040E85EE30E943F2F0E94FB
:10111000582E6093D2027093D3028093D40290939E
:10112000D50210922A0310922C030FC000D00F9208
:1011300081E0EDB7FEB781838BEA91E093838283F0
:101140000E944E2A0F900F900F901F910F91FF90C9
:10115000EF90DF90CF90BF90AF909F908F907F9057
:101160006F9008953F924F925F926F927F928F920D
:101170009F92AF92BF92CF92DF92EF92FF920F9326
:101180001F93DF93CF9300D0CDB7DEB70F2EF0E0E3
:10119000AF2EF0E0BF2EF0E0CF2EF0E0DF2EF02DEE
:1011A00033243394B7EF4B2EB0E05B2E4E010894FE
:1011B000811C911C0F2EFBEDEF2EFFE0FF2EF9ECB2
:1011C0000F2FFFE31F2FF02DABEE6A2EA0E07A2E3B
:1011D000A092E402B092E502C092E602D092E70249
:1011E00000D00F92EDB7FEB73182538242820E9447
:1011F0004E2A0F900F900F904091E4025091E5021B
:101200006091E6027091E70285E00E9485290E94C4
:101210008E28C40160E177E20E944416E092E40265
:10122000F092E5020093E6021093E70200D00F92DD
:10123000EDB7FEB73182738262820E944E2A0F9010
:101240000F900F904091E4025091E5026091E60208
:101250007091E70285E00E9485290E948E28C401D2
:1012600060E177E20E944416B3CFAF92BF92CF9273
:10127000DF92EF92FF920F931F93DF93CF9300D0F3
:10128000CDB7DEB780E090E0A0E0B0E08093B6029A
:101290009093B702A093B802B093B90280E090E0B7
:1012A000A8ECB1E48093BA029093BB02A093BC0275
:1012B000B093BD028E010F5F1F4FC80160E177E25E
:1012C0000E944416809190008062809390008091EB
:1012D00090008F7E80939000809190008068809332
:1012E0009000809190008F7B8093900089E190E046
:1012F0000E94920587EE9FEF0E94BE0589E190E073
:101300009093C1028093C0029093BF028093BE026B
:1013100058010F2EF0E0EF2EF0E0FF2EF8EC0F2F2B
:10132000F1E41F2FF02D89E1C82ED12CC50168EE04
:1013300073E00E944416E092B602F092B702009366
:10134000B8021093B902D092C102C092C002D092EA
:10135000BF02C092BE0289E190E00E949205809196
:10136000C0029091C102909581959F4F0E94BE0549
:10137000DDCF7F928F929F92AF92BF92CF92DF92FA
:10138000EF92FF920F931F93DF93CF9300D0CDB7CF
:10139000DEB78091A00080628093A0008091A000C1
:1013A0008F7E8093A0008091A00080688093A00031
:1013B0008091A0008F7B8093A0000AE710E03CECB6
:1013C000832E912C5E010894A11CB11C7724739488
:1013D00025E0C22E21E0D22E93E0E92E91E0F92EF5
:1013E00084E00030180710F000E010E00FB6F89429
:1013F0000F921093A9000093A8009092AB008092E6
:10140000AA000F900FBE6091AE027091AF02C501AD
:101410000E9444160E94FB25803719F40F5F1F4F6E
:1014200004C08C3611F40150104000D000D00F924F
:10143000EDB7FEB73196ADB7BEB711967C92D282AA
:10144000C182148303830E944E2A0F900F90EDB740
:10145000FEB77182F382E2820E944E2A0F5F1F4F15
:101460000F900F900F90BCCF0F931F93DF93CF93EC
:1014700000D0CDB7DEB78E010F5F1F4F2E98C80189
:1014800062E370E00E9444162E9AC80162E370E0A5
:101490000E944416F3CF0F931F93DF93CF9300D096
:1014A000CDB7DEB78E010F5F1F4F109AC80162E300
:1014B00070E00E9444161098C80162E370E00E9438
:1014C0004416F3CF5F926F927F928F929F92AF926A
:1014D000BF92CF92DF92EF92FF920F931F93DF9311
:1014E000CF9300D0CDB7DEB7809190008068809315
:1014F0009000809190008F7B80939000AA24BB2461
:10150000552453944CE0642E41E0742E4E0108940F
:10151000811C911CC090CF02D090D0028091C0025B
:101520009091C102C80ED91EB501882777FD80951C
:10153000982F0E948B2E26E135E440E85CE30E9460
:101540003F2F7B018C01B601882777FD8095982F6E
:101550000E948B2E2DE830E948E05CE30E943F2F8B
:10156000A80197010E94882D0E94582E9B01CB0153
:1015700083968734910570F0B901882777FD8095AF
:10158000982F0E948B2EA80197010E94872D0E9400
:10159000582E9B01253231051CF024E230E006C0B4
:1015A0008FEF2C3D380714F42CED3FEF0FB6F89475
:1015B0000F9288279927821B930B0E94BE050F90DC
:1015C0000FBE00D000D00F92EDB7FEB73196ADB789
:1015D000BEB711965C92728261828091CF02909127
:1015E000D002909581959F4F948383830E944E2AC9
:1015F000AC0CBD1C0F900F900F900F900F90C4017A
:1016000068E270E00E94441685CF3F924F925F924D
:101610006F927F928F929F92AF92BF92CF92DF9202
:10162000EF92FF920F931F93DF93CF93CDB7DEB767
:101630002A970FB6F894DEBF0FBECDBF8091900001
:10164000806280939000809190008F7E80939000C4
:1016500080E090E0A0E0B0E08B839C83AD83BE830C
:101660000F2EFCE44F2EF3E95F2EF9E16F2EFCE321
:101670007F2EF02D0F2EF0EA8F2EF3E09F2EFFEB42
:10168000AF2EFCE3BF2EF02D332433946091BE02C5
:101690007091BF022091C2023091C302621B730B92
:1016A000882777FD8095982F0E948B2E6F837887EF
:1016B00089879A87C501B4012B813C814D815E8168
:1016C0000E943F2F6B017C01C301B2012F8138853D
:1016D00049855A850E943F2FA70196010E94882DB7
:1016E0000E94582E8B01CB0183968734910570F0B0
:1016F000B801882777FD8095982F0E948B2EA7012F
:1017000096010E94872D0E94582E8B016B817C814F
:101710008D819E812F81388549855A850E94882D2B
:101720006B837C838D839E83053211051CF004E25C
:1017300010E006C09FEF0C3D190714F40CED1FEFED
:101740000FB6F8940F92C8010E9492050F900FBE39
:1017500000D000D00F92EDB7FEB73196ADB7BEB74F
:1017600011963C928DE691E0928381838091C20232
:101770009091C302948383830E944E2A0F900F900E
:101780000F900F900F900E94FB258137A1F4C301A9
:10179000B2012FE632E143E85AE30E94882D2B0183
:1017A0003C0100D00F92ADB7BEB711963C92119795
:1017B000E7E6F1E015C0813621F5C301B2012FE65D
:1017C00032E143E85AE30E94872D2B013C0100D00F
:1017D0000F92ADB7BEB711963C921197E1E6F1E0DA
:1017E0001396FC93EE9312970E944E2A0F900F903F
:1017F0000F9085E0B301A2010E9485290E948E28E6
:1018000013C18737A1F4C501B4012FE632E143E8E3
:101810005AE30E94882D4B015C0100D00F92ADB7B6
:10182000BEB711963C921197EBE5F1E015C08337F6
:1018300001F5C501B4012FE632E143E85AE30E9405
:10184000872D4B015C0100D00F92ADB7BEB711964A
:101850003C921197E5E5F1E01396FC93EE93129715
:101860000E944E2A0F900F900F9085E0B501A401C1
:10187000C3CF803709F065C000D00F92ADB7BEB7B7
:1018800011963C921197EFE4F1E01396FC93EE93DE
:1018900012970E944E2A0F900F900F9085E0B3018F
:1018A000A2010E9485290E948E2800D00F92ADB718
:1018B000BEB711963C921197E9E4F1E01396FC93C0
:1018C000EE9312970E944E2A0F900F900F9085E092
:1018D000B501A4010E9485290E948E2800D00F9294
:1018E000ADB7BEB711963C921197E0E4F1E01396C4
:1018F000FC93EE9312970E944E2A0F900F900F9038
:1019000085E04F81588569857A850E9485290E94E6
:101910008E2800D00F92ADB7BEB711963C921197AA
:10192000E3E3F1E01396FC93EE9312970E944E2AA4
:101930000F900F900F9085E04B815C816D817E81CF
:101940005BCF823709F070C000D00F92ADB7BEB741
:1019500011963C921197EDE2F1E01396FC93EE9311
:1019600012970E944E2A0F900F900F9085E0B301BE
:10197000A2010E9485290E948E2800D00F92ADB747
:10198000BEB711963C921197E7E2F1E01396FC93F3
:10199000EE9312970E944E2A0F900F900F9085E0C1
:1019A000B501A4010E9485290E948E2800D00F92C3
:1019B000ADB7BEB711963C921197EEE1F1E01396E8
:1019C000FC93EE9312970E944E2A0F900F900F9067
:1019D00085E04F81588569857A850E9485290E9416
:1019E0008E2800D00F92ADB7BEB711963C921197DA
:1019F000E1E1F1E01396FC93EE9312970E944E2AD8
:101A00000F900F900F9085E040E050E060E070E0B4
:101A10000E9485290E948E2880E090E0A0E0B0E03E
:101A20008B839C83AD83BE83CE01019668E270E018
:101A30000E9444162BCEEF92FF920F931F930E94A9
:101A4000821C6091CF027091D002709561957F4F9A
:101A50002091C2023091C302621B730B882777FD6D
:101A60008095982F0E948B2E26E636E646E851E4B4
:101A70000E94F02D6093E0027093E1028093E202F5
:101A80009093E3020E94231C16B52FEF30E040E054
:101A900050E00E94A22F610F711D811D911D0E94B7
:101AA000892E2FE632E143E85EE30E943F2F20E0DB
:101AB00030E04AE754E40E94F02D2091E00230919A
:101AC000E1024091E2025091E3020E943F2F2091F7
:101AD000DC023091DD024091DE025091DF020E9473
:101AE000882D9B01AC016093DC027093DD02809332
:101AF000DE029093DF026091E4027091E502809132
:101B0000E6029091E7020E94872D9B01AC010E94A2
:101B10003F2F7B018C01C801B70120E030E040E19C
:101B200051E40E94882D9B01AC01C801B7010E94BD
:101B3000F02D6093E8027093E9028093EA0290939B
:101B4000EB027DCFFF920F931F93CF93DF93EB01B7
:101B50000E944323EFE0FE2EFC2289E08F1518F04F
:101B600090E3F90E06C08F2D8A50873010F487E37A
:101B7000F80ECE0174E0959587957A95E1F7082FD8
:101B80000F700A3010F4005D05C0802F8A50873036
:101B900008F4095C8D2F992787FD9A95182F1F70DF
:101BA0001A3010F4105D05C0812F8A50873008F478
:101BB000195CC0E1DC02C12DDD0B1124CE018F7058
:101BC000682F8A3010F4605D04C08A50873008F4B2
:101BD000695C862F0E944323812F0E944323802F1C
:101BE0000E9443238F2D0E9443238AE00E944323B7
:101BF000DF91CF911F910F91FF9008956F927F9287
:101C00008F929F92AF92BF92CF92DF92EF92FF920C
:101C10000F931F936091DC027091DD028091DE02D0
:101C20009091DF0220E030E044E353E40E943F2F34
:101C30002BED3FE049E450E40E94F02D3B014C01C4
:101C40006093491270934A1280934B1290934C12F6
:101C5000A090B602B090B702C090B802D090B9027E
:101C6000E090E802F090E9020091EA021091EB02A4
:101C7000C801B70123E333E343E051EC0E943F2F57
:101C80009B01AC01C601B5010E94882D0E94582E0F
:101C90007093BF026093BE02C801B70123E333E330
:101CA00043E051E40E943F2F9B01AC01C601B50106
:101CB0000E94882D0E94582E7093C1026093C0022A
:101CC0008091C2029091C3022091CF023091D00244
:101CD000821B930B62E070E00E94D52F882777FD6E
:101CE0008095982F0E948B2E60934D1270934E1208
:101CF00080934F12909350128091D2029091D30210
:101D0000A091D402B091D502E090D602F090D70213
:101D1000E81AF90A8093D6029093D702A093D802CA
:101D2000B093D9028091C5029091C602A091C702DA
:101D3000B091C8022091C9023091CA028C01021BE5
:101D4000130B8093C9029093CA02A093CB02B09365
:101D5000CC021092CE021092CD021092DB021092B1
:101D6000DA02C401B3010E94582E9B01AC0188E441
:101D7000B9010E94A20D60914D1270914E12809196
:101D80004F12909150120E94582E9B01AC0186E593
:101D9000B9010E94A20D0E0D1F1DB801660F771F1D
:101DA000660F771F600F711F83E50E94A20D32CF6F
:101DB0001F93182F1F77812F0E9439231A3021F487
:101DC00081E08093040361C080910403882391F033
:101DD000123531F481E0809301031092030307C0B0
:101DE0001D3441F481E080930003109202031092AD
:101DF000040386C080910103882311F1812F805351
:101E00008A3010F4182F05C0812F8154863008F4D1
:101E10001753812F90E02091FE023091FF02B4E031
:101E2000220F331FBA95E1F7822B932B9093FF0279
:101E30008093FE02809103038F5F8093030325C08C
:101E400080910003882309F1812F80538A3010F498
:101E5000182F05C0812F8154863008F41753812F25
:101E600090E02091FC023091FD02A4E0220F331F8C
:101E7000AA95E1F7822B932B9093FD028093FC02AD
:101E8000809102038F5F809302038091030384306B
:101E9000D9F46091FE027091FF02882777FD80954A
:101EA000982F0E948B2E6093E4027093E50280933A
:101EB000E6029093E702109201031092030310923E
:101EC000FF021092FE021CC0809102038430C1F414
:101ED0008091FC029091FD02AA2797FDA095BA2F50
:101EE0008093EC029093ED02A093EE02B093EF0288
:101EF00010920003109202031092FD021092FC0255
:101F00001F9108950F931F93CF93DF930E94E626AE
:101F100080E040E056E960E070E00E94C02281E08D
:101F200040E052EC61E070E00E94C02282E040E0BC
:101F300056E960E070E00E94C02283E040E056E98C
:101F400060E070E00E94C02289E393E20E942A28A8
:101F50000E94830382E06AE276E00E94B52280E07C
:101F60006AE677E00E94B5222E9800D00F9281E0B9
:101F7000EDB7FEB781838FE891E0938382830E945F
:101F80004E2A0F900F900F9085E00E94CC1C84E0A9
:101F90000E94EC1C83E00E94FC1C83E00E940E1D4A
:101FA00083E00E94201D0E949F2785E00E94C42795
:101FB00081E00E94CB2710E001E0CDE8D1E0812F45
:101FC0000E94142800D00F92EDB7FEB70183D3838F
:101FD000C2830E944E2A1F5F0F900F900F90103106
:101FE00071F72E9A00D00F92EDB7FEB7018382E70A
:101FF00091E0938382830E944E2A0F900F900F905E
:102000000E94821C0E948C1C0E94991C0E94A41C8D
:102010000E94B11C0E94BE1C0E945304DF91CF910C
:102020001F910F910895AF92BF92CF92DF92EF92DE
:10203000FF920F93CF93DF930E94820F0E94FB25A4
:102040008093551284EF91E00E94471D89E190E052
:102050009093C1028093C0029093BF028093BE020E
:102060008BE49AE060E072E044E650E020E030E08B
:1020700001E0EE24FF24CC24DD24AA24BB240E940A
:102080002E1784E39AE067E072E044E650E020E037
:1020900030E00E942E1785E09BE06EE072E044EF96
:1020A00051E020E030E002E00E942E1782E69AE044
:1020B00065E172E044EF51E020E030E00E942E172D
:1020C0000E94521801E0C4EED0E000D00F92EDB7AC
:1020D000FEB70183D383C2830E944E2A0F900F90D4
:1020E0000F90F3CFFC019C012D5F3F4F3283218382
:1020F0008FEF9FEF948383833683258330872783F5
:1021000010820895FC01118610860895CF93DF9305
:10211000AC01DB01EC0129813A81F90182819381D3
:1021200013969C938E93129789819A8115969C930E
:102130008E9314970280F381E02D75836483E90107
:102140007B836A83FA017283618319965C934E9351
:10215000189780818F5F8083DF91CF910895CF930F
:10216000DF939C01EB01488159818FEF4F3F580766
:1021700021F4F901A781B08510C0D901139604C0DC
:1021800012960D90BC91A02D1296ED91FC91139793
:10219000808191814817590798F71296ED91FC912B
:1021A0001397FB83EA83D583C483BD83AC831396E3
:1021B000DC93CE93129739872887F90180818F5F4E
:1021C0008083DF91CF910895CF93DF93DC01129646
:1021D000ED91FC91139714968D919C911597958391
:1021E00084831496CD91DC911597FB83EA8318962E
:1021F000ED91FC911997818192818A179B0711F4C7
:10220000D283C18319961C921E92189780818150A7
:102210008083DF91CF910895FC010FB6F8940F925F
:10222000828D0F900FBE0895FC01828D0895FC01F0
:10223000828D90E0882309F491E0892F0895FC01B4
:10224000928D20E0838D981709F421E0822F089564
:102250000F931F938C01FC01808191810E94811B4F
:10226000C8010E94811B1F910F9108950F931F9326
:10227000CF93DF93EC01FB018A018A8D882381F1E2
:102280004881598141155105A9F08C8D2E813F81DE
:10229000280F311D3F832E838A819B8128173907A0
:1022A00010F05F834E834C8D6E817F81CF0150E0B3
:1022B0000E94682D8A8D81508A8F8D8D8F3F69F4A1
:1022C0008885882361F0CE0108960E9496148823A1
:1022D00031F081E0F801808303C08F5F8D8F81E052
:1022E000DF91CF911F910F910895CF93DF93EC0170
:1022F000842F4C8D4423A1F18823B1F48C819D81DE
:1023000050E00E94682D8C8D2C813D81280F311D5D
:102310003D832C838A819B812817390708F18881A6
:1023200099819D838C831CC08E819F8150E00E9487
:10233000682D8C8D90E044275527481B590B8E81C2
:102340009F81840F951F9F838E83288139818217F7
:10235000930730F48A819B81840F951F9F838E831E
:102360008A8D8F5F8A8FDF91CF9108950F931F938E
:10237000CF93DF93EC018A019A8D8B8D981710F023
:1023800080E017C0CE01422F0E9475118E8D8F3FC5
:1023900069F48989882361F0CE0141960E949614E0
:1023A000882331F081E0F801808303C08F5F8E8F36
:1023B00081E0DF91CF911F910F9108950F931F93AB
:1023C000CF93DF93EC010FB6F8940F928C010F5E60
:1023D0001F4F0DC08989882369F0C8010E94961497
:1023E000882311F00E9492148E8D81508E8F8E8DD5
:1023F000181684F38FEF8E8F0F900FBE0FB6F894E0
:102400000F928E01085F1F4F0DC08885882369F0E9
:10241000C8010E949614882311F00E9492148D8D99
:1024200081508D8F8D8D181684F38FEF8D8F0F90C7
:102430000FBEDF91CF911F910F9108957F928F92E0
:102440009F92AF92BF92CF92DF92EF92FF920F9343
:102450001F93DF93CF9300D000D00F92CDB7DEB79C
:102460008C01962E872E5D834C83722E91E1C92EAE
:10247000D12CC00ED11E20E07E010894E11CF11C7D
:1024800084E0A82EB12CAC0EBD1E01C021E00FB619
:10249000F8940F92F801828D882309F43EC0E680FB
:1024A000F7804081518141155105B1F0848D97012C
:1024B000280F311D3783268382819381281739079E
:1024C00010F057834683F801448D66817781892D0A
:1024D000982D50E00E94682D772071F4F801828DCC
:1024E0008150828F80858823A1F0C80108960E94C0
:1024F0009614813071F40BC0F801F782E68281896D
:10250000882339F0C6010E949614882311F00E9496
:102510005E190F900FBE81E04AC08C819D81892B8E
:1025200019F40F900FBE42C0222319F4C7010E9474
:102530004D140F900FBE0E94F1130FB6F8940F9236
:10254000F801858D8F3F09F4158EF801868D8F3F38
:1025500009F4168E0F900FBEC701B5010E945814E2
:102560008823F9F40FB6F8940F92F801828D0F903A
:102570000FBE882381F46C817D81C6010E944F15B6
:10258000C8010E94DE110E948815882309F07ECFC1
:102590000E945E197BCFC8010E94DE110E9488153F
:1025A00075CFC8010E94DE110E94881580E00F904F
:1025B0000F900F900F900F90CF91DF911F910F917F
:1025C000FF90EF90DF90CF90BF90AF909F908F9053
:1025D0007F9008957F928F929F92AF92BF92CF92F9
:1025E000DF92EF92FF920F931F93DF93CF9300D070
:1025F00000D00F92CDB7DEB78C016B015D834C83A9
:10260000722E48E0E42EF12CE80EF91E20E05E0167
:102610000894A11CB11C34E0832E912C8C0E9D1EBD
:1026200001C021E00FB6F8940F92F801928D838DCE
:102630009817A8F4C801B601472D0E947511F8013A
:102640008189882341F0C80141960E949614813007
:1026500011F40E945E190F900FBE81E04CC08C8176
:102660009D81892B19F40F900FBE44C0222319F4C9
:10267000C5010E944D140F900FBE0E94F1130FB6BA
:10268000F8940F92F801858D8F3F09F4158EF801AB
:10269000868D8F3F09F4168E0F900FBEC501B401D1
:1026A0000E945814882309F50FB6F8940F92F80188
:1026B000928D0F900FBEF801838D981781F46C8175
:1026C0007D81C7010E944F15C8010E94DE110E9442
:1026D0008815882309F0A5CF0E945E19A2CFC801F2
:1026E0000E94DE110E9488159CCFC8010E94DE1155
:1026F0000E94881580E00F900F900F900F900F9020
:10270000CF91DF911F910F91FF90EF90DF90CF90CD
:10271000BF90AF909F908F907F9008958F929F92DF
:10272000AF92BF92CF92DF92EF92FF920F931F93DF
:10273000CF93DF93982E862E882309F442C08FE131
:1027400090E00E94911B8C01EC010097E1F1C92CF3
:10275000DD24A82CBB24AC9C7001AD9CF00CBC9C6F
:10276000F00C1124C70101960E94911B9C019983D2
:102770008883009719F1E80EF91EFB82EA821A8E0F
:102780009D838C830894C108D108CA9CC001CB9C4E
:10279000900DDA9C900D1124280F391F3F832E8352
:1027A0009B8E8C8E8FEF8D8F8E8FC80108960E9426
:1027B0007210C80141960E94721005C0C8010E94A3
:1027C000811BC0E0D0E0CE01DF91CF911F910F912E
:1027D000FF90EF90DF90CF90BF90AF909F908F9041
:1027E0000895809135038F5F8093350308950FB668
:1027F000F8940F9220913303309134030F900FBE61
:10280000C90108952091330330913403C90108951B
:1028100080913803089580913503882351F081E039
:10282000809331030895809136038150809336035D
:1028300001C099E0E0913603E99FF0011124E35CC7
:10284000FC4F8081882379F39091360389E0989F2B
:10285000D0011124A35CBC4F1196ED91FC9112970D
:102860000280F381E02D1296FC93EE931197CD0137
:102870000396E817F90731F48281938112969C93AD
:102880008E9311971196ED91FC9112978681978105
:102890009093300380932F030895FC0180913203BD
:1028A00080838091330390913403928381830895D0
:1028B000FC01DB010FB6F8940F92909132038081F6
:1028C000981749F02091330330913403818192812C
:1028D0002817390718F5809133039091340321812B
:1028E00032814D915C911197821B930B8417950750
:1028F000A8F48091330390913403281B390B240FE3
:10290000351F2D933C938091320380838091330354
:10291000909134039283818380E001C081E00F9025
:102920000FBE089581E08093310308950F931F93A4
:10293000CF93DF93FC018081882319F4C0E0D0E0BD
:1029400005C00580F681E02DC681D7818E01045F28
:102950001F4FC8010E94E410809135038823A1F421
:102960008E010E5F1F4FC8010E94E4109E89809166
:102970003603891710F49093360389E0989FC001BD
:102980001124835C9C4F02C087E793E0B8010E944A
:102990008610E0912F03F091300320E09E89868914
:1029A000981708F021E0822FDF91CF911F910F91AE
:1029B0000895FF920F931F93CF93DF938091350378
:1029C000882309F061C0809133039091340301960C
:1029D00090933403809333038091330390913403B5
:1029E000892BE9F58091730390917403209175030D
:1029F000309176033093740320937303909376039E
:102A000080937503809132038F5F8093320327C0D8
:102A100020913303309134038A819B812817390731
:102A2000C0F18E010E5F1F4FC8010E94E4108C8917
:102A30009D89892B21F0CE010C960E94E4109E897D
:102A400080913603891710F4909336039F9DC0013F
:102A50001124835C9C4FB8010E94861002C089E05B
:102A6000F82EE0917303F09174038081882389F03C
:102A7000E0917303F09174030580F681E02DC68127
:102A8000D781209729F605C0809137038F5F809307
:102A90003703DF91CF911F910F91FF9008950F930E
:102AA0001F938B0160912F0370913003645F7F4F00
:102AB0000E94AF1080912F039091300302960E94E4
:102AC000E4108091330390913403800F911FE091C3
:102AD0002F03F0913003938382832091330330914D
:102AE00034038217930728F480917503909176033D
:102AF00004C0809173039091740360912F037091CF
:102B000030036E5F7F4F0E94AF101F910F910895A9
:102B1000CF92DF92FF920F931F93DF93CF930F9289
:102B2000CDB7DEB70FB6F8940F9280913503815080
:102B30008093350380913503882309F05BC0809131
:102B40003803882309F456C0198299E0F92E27C06A
:102B5000C6010C960E94E41086010E5F1F4FC8014B
:102B60000E94E410D60156969C91809136038917F5
:102B700010F4909336039F9DC0011124835C9C4FF9
:102B8000B8010E948610E0912F03F0913003D60126
:102B900056969C918689981710F0B1E0B983809180
:102BA0007703882349F0E0917C03F0917D03C68090
:102BB000D780C114D10461F680913703882341F492
:102BC0000CC00E94D9148091370381508093370341
:102BD000809137038823A9F707C0E981E13021F00C
:102BE00080913103813031F4109231030E945E19DB
:102BF00081E001C080E00F900FBE0F90CF91DF9178
:102C00001F910F91FF90DF90CF9008950F931F9326
:102C10009C010097A1F1809135038F5F809335036C
:102C20000091330310913403020F131F80912F037F
:102C30009091300302960E94E410E0912F03F091EE
:102C40003003138302838091330390913403081778
:102C5000190728F4809175039091760304C0809140
:102C600073039091740360912F03709130036E5F32
:102C70007F4F0E94AF100E948815882311F40E9494
:102C80005E191F910F910895CF93DF93FC01EB0123
:102C9000809135038F5F8093350320813181C20F8E
:102CA000D31F80913303909134038217930728F444
:102CB000C217D30728F020E00CC0C217D30740F09A
:102CC000809133039091340320E08C179D0708F422
:102CD00021E0D183C083222329F180912F03909199
:102CE000300302960E94E410E0912F03F09130032C
:102CF000D383C2838091330390913403C817D907DB
:102D000028F4809175039091760304C08091730339
:102D10009091740360912F03709130036E5F7F4F29
:102D20000E94AF100E948815882311F40E945E193A
:102D3000DF91CF910895EF92FF920F931F93CF935E
:102D4000DF938C010FB6F8940F9280912F0390912E
:102D500030030817190719F400E010E003C001154B
:102D6000110529F4C0912F03D091300301C0E8016F
:102D700022E0E22EF12CEC0EFD1EC7010E94E410B1
:102D80008C899D89892B21F0CE010C960E94E4103C
:102D900080E893E0B7010E94861080913A038F5F2C
:102DA00080933A0380913B038F5F80933B030F90A6
:102DB0000FBE80913903882321F0012B11F40E946A
:102DC0005E19DF91CF911F910F91FF90EF900895C1
:102DD000F894109239030E94FF1808951F93CF931F
:102DE000DF9380913A03882391F1809135038F5FBF
:102DF00080933503109180030E948815112339F1C7
:102E00000FB6F8940F9280918003882319F4C0E0E4
:102E1000D0E006C0E0918503F0918603C681D7819A
:102E2000CE0102960E94E410809138038150809375
:102E3000380380913A03815080933A030F900FBE7C
:102E40008F89988D0E94811BCE010E94811B8091E9
:102E50003D03823030F20E945E19C3CF2F923F9221
:102E60005F926F927F928F929F92AF92BF92CF921A
:102E7000DF92EF92FF920F931F93DF93CF9300D0D7
:102E800000D0CDB7DEB79A8389834B015A0119016F
:102E9000502E370181E290E00E94911B8B839C832E
:102EA0008B819C81892B89F0C114D10421F4C50147
:102EB0000E94911B6C01EB81FC81D08EC78AC114EA
:102EC000D10429F4CF010E94811B8FEFD5C0C60128
:102ED00065EA70E0A5010E94712D0894A108B1086F
:102EE000EB81FC81E788F08CEA0CFB1CCF01499652
:102EF000B40148E050E00E94782DEB81FC8110A2E3
:102F0000052DF3E0F51508F403E0EB81FC81068B59
:102F100042E0C42ED12CCE0EDF1EC6010E948210CC
:102F20008B819C810C960E9482108B819C81FC017C
:102F30009187808784E090E0801B91099587848742
:102F4000F38BE28BC70169817A81A1010E947D1810
:102F5000EB81FC81918380836114710421F0CF01A6
:102F6000F301918380830FB6F8940F928091380318
:102F70008F5F8093380380912F0390913003892BCA
:102F8000B9F5EB81FC81F0933003E0932F0380913E
:102F900038038130F1F58DE393E00E94721086E4EE
:102FA00093E00E9472108FE493E00E94721088E513
:102FB00093E00E94721031E6E32E33E0F32EC70156
:102FC0000E9472100AE613E0C8010E94721087E79F
:102FD00093E00E94721080E893E00E947210F092D9
:102FE0007403E0927303109376030093750311C08A
:102FF00080913903882369F4E0912F03F091300325
:103000008689581630F08B819C8190933003809391
:103010002F03EB81FC81968980913C03891710F482
:1030200090933C0380913B038F5F80933B03EB8144
:10303000FC81968980913603891710F490933603AA
:10304000EB81FC81868929E0829FC0011124835C89
:103050009C4FB6010E9486100F900FBE80913903DD
:10306000882349F0E0912F03F0913003868985157C
:1030700010F40E945E1981E00F900F900F900F9056
:10308000CF91DF911F910F91FF90EF90DF90CF9044
:10309000BF90AF909F908F907F906F905F903F9088
:1030A0002F900895AF92BF92CF92DF92EF92FF924E
:1030B0000F938EEE96E160EB72E045E550E020E084
:1030C00030E000E0EE24FF24CC24DD24AA24BB243D
:1030D0000E942E17813049F4F8948093390310929E
:1030E0003403109233030E94C5180F91FF90EF90A4
:1030F000DF90CF90BF90AF900895FC0191E1908355
:1031000022E2229383E3829362937293129280E885
:103110008293129282E0829383E0829384E082938E
:1031200085E0829386E0829387E0829388E08293B1
:1031300089E0829380E18293929382E1829383E19A
:10314000829384E1829385E1829386E1829387E191
:10315000829388E1829389E1829380E2829381E283
:103160008293229383E282934293529386E28293E4
:1031700087E2829388E2829389E2829380E382935A
:1031800081E382933197CF0108951092890089EFEE
:10319000809388008BE080938100EFE6F0E08081EF
:1031A00082608083A0912F03B0913003CD91CDBF79
:1031B000DD91DEBFFF91EF91DF91CF91BF91AF9194
:1031C0009F918F917F916F915F914F913F912F913F
:1031D0001F910F91FF90EF90DF90CF90BF90AF9035
:1031E0009F908F907F906F905F904F903F902F9027
:1031F0001F900F900FBE0F90089581E008950895DD
:103200000F920FB6F8940F921F9211242F923F92B3
:103210004F925F926F927F928F929F92AF92BF92E6
:10322000CF92DF92EF92FF920F931F932F933F93D2
:103230004F935F936F937F938F939F93AF93BF93BE
:10324000CF93DF93EF93FF93A0912F03B0913003BF
:103250000DB60D920EB60D920E94D9140E940B1459
:10326000A0912F03B0913003CD91CDBFDD91DEBF92
:10327000FF91EF91DF91CF91BF91AF919F918F918E
:103280007F916F915F914F913F912F911F910F917E
:10329000FF90EF90DF90CF90BF90AF909F908F9076
:1032A0007F906F905F904F903F902F901F900F9066
:1032B0000FBE0F9008950E94001918950F920FB637
:1032C000F8940F921F9211242F923F924F925F9287
:1032D0006F927F928F929F92AF92BF92CF92DF9226
:1032E000EF92FF920F931F932F933F934F935F9310
:1032F0006F937F938F939F93AF93BF93CF93DF93FE
:10330000EF93FF93A0912F03B09130030DB60D9270
:103310000EB60D920E940B14A0912F03B0913003B2
:10332000CD91CDBFDD91DEBFFF91EF91DF91CF91C8
:10333000BF91AF919F918F917F916F915F914F91CD
:103340003F912F911F910F91FF90EF90DF90CF90C1
:10335000BF90AF909F908F907F906F905F904F90B5
:103360003F902F901F900F900FBE0F9008950F93D6
:103370001F93CF93DF93FC018081882319F4C0E071
:10338000D0E005C00580F681E02DC681D7818E0191
:10339000045F1F4FC8010E94E4108AEB93E0B8015C
:1033A0000E94861020E0E0918903F0918A039E89B3
:1033B0008689981708F021E0822FDF91CF911F9125
:1033C0000F910895FF920F931F93CF93DF9399E08E
:1033D000F92E28C0F8948091BA03882319F4C0E02C
:1033E000D0E006C0E091BF03F091C003C681D78151
:1033F000CE010C960E94E41078948E010E5F1F4F50
:10340000C8010E94E4109E8980918B03891710F4F3
:1034100090938B039F9DC00111248E569C4FB80141
:103420000E9486108091BA038823A1F60E94F713A8
:1034300020918C0330918D03821B930B90938F030B
:1034400080938E0389E0F82E54C0019690939103E7
:10345000809390032150304030938F0320938E034C
:10346000892BC9F52091B6033091B7038091B80339
:103470009091B9039093B7038093B6033093B90347
:103480002093B80328C020919003309191038A8142
:103490009B812817390768F1F8948E010E5F1F4F42
:1034A000C8010E94E4108C899D89892B21F0CE01EE
:1034B0000C960E94E41078949E8980918B03891762
:1034C00010F490938B039F9DC00111248E569C4F46
:1034D000B8010E948610E091B603F091B703808195
:1034E000882339F00580F681E02DC681D7812097A9
:1034F00051F620918E0330918F038091900390912B
:1035000091032115310509F0A0CF90938D0380938D
:103510008C0390918B0329E006C0992319F4109233
:103520008B0332C09150929FD0011124AE56BC4FF4
:103530008C91882391F390938B031196ED91FC91DC
:1035400012970280F381E02D1296FC93EE9311976F
:10355000CD010396E817F90731F482819381129621
:103560009C938E9311971196ED91FC911297068082
:10357000F781E02DF0938A03E09389032081318164
:10358000CF016789F9010995DF91CF911F910F91C3
:10359000FF9008950F931F93CF93DF93EB0100915A
:1035A000900310919103080F191F80918903909146
:1035B0008A0302960E94E410E0918903F0918A0345
:1035C000138302838091900390919103BF016E5FFA
:1035D0007F4F0817190728F48091B8039091B90319
:1035E00004C08091B6039091B7030E94AF1020975A
:1035F00049F06091890370918A03645F7F4FCE0127
:103600000E94AF10DF91CF911F910F910895AF925B
:10361000BF92CF92DF92EF92FF920F931F93CF93BF
:10362000DF936C01B62EA42E8AE190E00E94911BDC
:10363000EC01009711F48FEF59C0809189039091AC
:103640008A03892B21F5D0938A03C093890382E9E9
:1036500093E00E9472108BE993E00E94721024EABA
:10366000E22E23E0F22EC7010E9472100DEA13E051
:10367000C8010E9472108AEB93E00E947210F092CF
:10368000B703E092B6031093B9030093B803EB2C91
:10369000BB2011F0EE24E394198E188EEE8AAF8AC7
:1036A000FE01C192D1928F01CF010E948210CE0102
:1036B0000C960E948210D987C887DB8BCA8B84E066
:1036C00090E08E1991099D878C879E8980918B034C
:1036D000891710F490938B0389E0989FC0011124FF
:1036E0008E569C4FB8010E94861081E0DF91CF91E9
:1036F0001F910F91FF90EF90DF90CF90BF90AF9010
:10370000089508951092C4031092C303089528EBFE
:103710003BE08091C3039091C403281B390BC9017E
:1037200008950F931F93CF93DF938C010E94F113A1
:103730008091C3039091C4039801280F391F4BE077
:10374000283B340758F48217930740F4EC01CB531D
:10375000DC4F3093C4032093C30302C0C0E0D0E029
:103760000E948815CE01DF91CF911F910F9108958E
:10377000E82FF0E0E770F070EE0FFF1FEC54FE4F03
:1037800025913491C9010895E82FF0E0E770F070B9
:10379000EE0FFF1FE054FE4F25913491C9010895AB
:1037A00085B5E82FF0E0E770F070EE0FFF1FEC54E6
:1037B000FE4F25913491C901089580918100E82F31
:1037C000F0E0E770F070EE0FFF1FEC54FE4F259114
:1037D0003491C90108958091B100E82FF0E0E770BD
:1037E000F070EE0FFF1FE054FE4F25913491C90198
:1037F000089580919100E82FF0E0E770F070EE0FEF
:10380000FF1FEC54FE4F25913491C901089580911A
:10381000A100E82FF0E0E770F070EE0FFF1FEC540E
:10382000FE4F25913491C901089580912101E82F1F
:10383000F0E0E770F070EE0FFF1FEC54FE4F2591A3
:103840003491C9010895209164123091651240911C
:10385000661250916712B901CA0108952091601251
:10386000309161124091621250916312B901CA0104
:103870000895209168123091691240916A12509116
:103880006B12B901CA010895209170123091711222
:103890004091721250917312B901CA01089520919A
:1038A0005C1230915D1240915E1250915F12B9012D
:1038B000CA010895209174123091751240917612C8
:1038C00050917712B901CA01089586B508952091E3
:1038D000840030918500C90108958091B200089557
:1038E0002091940030919500C90108952091A40081
:1038F0003091A500C901089520912401309125013E
:10390000C901089510926412109265121092661205
:103910001092671216BC08951092601210926112F4
:10392000109262121092631210928500109284001D
:103930000895109268121092691210926A121092F1
:103940006B121092B20008951092701210927112C0
:1039500010927212109273121092950010929400AD
:10396000089510925C1210925D1210925E121092E5
:103970005F121092A5001092A40008951092741284
:1039800010927512109276121092771210922501F1
:10399000109224010895089585BD81E080936E0002
:1039A00010926412109265121092661210926712B1
:1039B00016BC08958093810081E080936F0010927F
:1039C00060121092611210926212109263121092A1
:1039D00085001092840008958093B10081E0809367
:1039E0007000109268121092691210926A1210926E
:1039F0006B121092B20008958093910081E0809341
:103A00007100109270121092711210927212109234
:103A10007312109295001092940008958093A10063
:103A200081E08093720010925C1210925D121092ED
:103A30005E1210925F121092A5001092A4000895D9
:103A40008093210181E08093730010927412109290
:103A50007512109276121092771210922501109220
:103A600024010895E82FF0E0EE0FFF1FE358F04F18
:103A7000718360830895E82FF0E0EE0FFF1FE35895
:103A8000F04F1182108208950197F1F70895AF92D7
:103A9000BF92CF92DF92EF92FF920F931F93A0E01D
:103AA000B0E0BC01CD010E94892E5B016C0120E0D9
:103AB00030E04AE755E40E943F2F7B018C0120E073
:103AC00030E040E85FE30E94EC2D88231CF461E0C5
:103AD00070E024C0C801B70120E03FEF4FE757E492
:103AE0000E943B2F1816B4F4C601B50120E030E067
:103AF00040E251E40E943F2F0E945D2E80E991E058
:103B000005C0FC013197F1F76150704061157105F6
:103B1000C1F707C0C801B7010E945D2ECB01019714
:103B2000F1F71F910F91FF90EF90DF90CF90BF9032
:103B3000AF9008951F920F920FB60F9211242F93FA
:103B40003F934F935F936F937F938F939F93AF9325
:103B5000BF93EF93FF938091641290916512A091AF
:103B60006612B09167120196A11DB11D8093641277
:103B700090936512A0936612B093671280916C12B5
:103B800090916D12A0916E12B0916F120196A11DCD
:103B9000B11D80936C1290936D12A0936E12B0932E
:103BA0006F128091810F9091820F892B29F0E09103
:103BB000810FF091820F0995FF91EF91BF91AF9125
:103BC0009F918F917F916F915F914F913F912F9135
:103BD0000F900FBE0F901F9018951F920F920FB667
:103BE0000F9211242F933F934F935F936F937F9383
:103BF0008F939F93AF93BF93EF93FF938091601246
:103C000090916112A0916212B09163120196A11D70
:103C1000B11D8093601290936112A0936212B093D1
:103C2000631280918B0F90918C0F892B29F0E0917A
:103C30008B0FF0918C0F0995FF91EF91BF91AF9190
:103C40009F918F917F916F915F914F913F912F91B4
:103C50000F900FBE0F901F9018951F920F920FB6E6
:103C60000F9211242F933F934F935F936F937F9302
:103C70008F939F93AF93BF93EF93FF9380916812BD
:103C800090916912A0916A12B0916B120196A11DD8
:103C9000B11D8093681290936912A0936A12B09339
:103CA0006B128091910F9091920F892B29F0E091E6
:103CB000910FF091920F0995FF91EF91BF91AF9104
:103CC0009F918F917F916F915F914F913F912F9134
:103CD0000F900FBE0F901F9018951F920F920FB666
:103CE0000F9211242F933F934F935F936F937F9382
:103CF0008F939F93AF93BF93EF93FF938091701235
:103D000090917112A0917212B09173120196A11D3F
:103D1000B11D8093701290937112A0937212B093A0
:103D2000731280919B0F90919C0F892B29F0E09149
:103D30009B0FF0919C0F0995FF91EF91BF91AF916F
:103D40009F918F917F916F915F914F913F912F91B3
:103D50000F900FBE0F901F9018951F920F920FB6E5
:103D60000F9211242F933F934F935F936F937F9301
:103D70008F939F93AF93BF93EF93FF9380915C12C8
:103D800090915D12A0915E12B0915F120196A11DFB
:103D9000B11D80935C1290935D12A0935E12B0935C
:103DA0005F128091A50F9091A60F892B29F0E091C9
:103DB000A50FF091A60F0995FF91EF91BF91AF91DB
:103DC0009F918F917F916F915F914F913F912F9133
:103DD0000F900FBE0F901F9018951F920F920FB665
:103DE0000F9211242F933F934F935F936F937F9381
:103DF0008F939F93AF93BF93EF93FF938091741230
:103E000090917512A0917612B09177120196A11D32
:103E1000B11D8093741290937512A0937612B09393
:103E200077128091AF0F9091B00F892B29F0E0911C
:103E3000AF0FF091B00F0995FF91EF91BF91AF9146
:103E40009F918F917F916F915F914F913F912F91B2
:103E50000F900FBE0F901F9018951F920F920FB6E4
:103E60000F9211242F933F934F935F936F937F9300
:103E70008F939F93AF93BF93EF93FF9380917D0FA9
:103E800090917E0F892B29F0E0917D0FF0917E0FAC
:103E90000995FF91EF91BF91AF919F918F917F9184
:103EA0006F915F914F913F912F910F900FBE0F90A7
:103EB0001F9018951F920F920FB60F9211242F93F7
:103EC0003F934F935F936F937F938F939F93AF93A2
:103ED000BF93EF93FF9380917F0F9091800F892B79
:103EE00029F0E0917F0FF091800F0995FF91EF91FC
:103EF000BF91AF919F918F917F916F915F914F9102
:103F00003F912F910F900FBE0F901F9018951F9209
:103F10000F920FB60F9211242F933F934F935F93FD
:103F20006F937F938F939F93AF93BF93EF93FF9381
:103F30008091830F9091840F892B29F0E091830F5A
:103F4000F091840F0995FF91EF91BF91AF919F91EF
:103F50008F917F916F915F914F913F912F910F9032
:103F60000FBE0F901F9018951F920F920FB60F92D1
:103F700011242F933F934F935F936F937F938F936E
:103F80009F93AF93BF93EF93FF938091870F90918F
:103F9000880F892B29F0E091870FF091880F099500
:103FA000FF91EF91BF91AF919F918F917F916F9111
:103FB0005F914F913F912F910F900FBE0F901F90E7
:103FC00018951F920F920FB60F9211242F933F93C3
:103FD0004F935F936F937F938F939F93AF93BF9311
:103FE000EF93FF938091890F90918A0F892B29F08D
:103FF000E091890FF0918A0F0995FF91EF91BF91A0
:10400000AF919F918F917F916F915F914F913F9170
:104010002F910F900FBE0F901F9018951F920F9227
:104020000FB60F9211242F933F934F935F936F938B
:104030007F938F939F93AF93BF93EF93FF93809161
:104040008D0F90918E0F892B29F0E0918D0FF091BB
:104050008E0F0995FF91EF91BF91AF919F918F9135
:104060007F916F915F914F913F912F910F900FBE74
:104070000F901F9018951F920F920FB60F92112458
:104080002F933F934F935F936F937F938F939F9360
:10409000AF93BF93EF93FF9380918F0F9091900F09
:1040A000892B29F0E0918F0FF091900F0995FF91E6
:1040B000EF91BF91AF919F918F917F916F915F91A0
:1040C0004F913F912F910F900FBE0F901F90189519
:1040D0001F920F920FB60F9211242F933F934F937D
:1040E0005F936F937F938F939F93AF93BF93EF9360
:1040F000FF938091930F9091940F892B29F0E09179
:10410000930FF091940F0995FF91EF91BF91AF91AB
:104110009F918F917F916F915F914F913F912F91DF
:104120000F900FBE0F901F9018951F920F920FB611
:104130000F9211242F933F934F935F936F937F932D
:104140008F939F93AF93BF93EF93FF938091950FBE
:104150009091960F892B29F0E091950FF091960F91
:104160000995FF91EF91BF91AF919F918F917F91B1
:104170006F915F914F913F912F910F900FBE0F90D4
:104180001F9018951F920F920FB60F9211242F9324
:104190003F934F935F936F937F938F939F93AF93CF
:1041A000BF93EF93FF938091970F9091980F892B76
:1041B00029F0E091970FF091980F0995FF91EF91F9
:1041C000BF91AF919F918F917F916F915F914F912F
:1041D0003F912F910F900FBE0F901F9018951F9237
:1041E0000F920FB60F9211242F933F934F935F932B
:1041F0006F937F938F939F93AF93BF93EF93FF93AF
:104200008091990F90919A0F892B29F0E091990F45
:10421000F0919A0F0995FF91EF91BF91AF919F9106
:104220008F917F916F915F914F913F912F910F905F
:104230000FBE0F901F9018951F920F920FB60F92FE
:1042400011242F933F934F935F936F937F938F939B
:104250009F93AF93BF93EF93FF9380919D0F9091A6
:104260009E0F892B29F0E0919D0FF0919E0F0995EB
:10427000FF91EF91BF91AF919F918F917F916F913E
:104280005F914F913F912F910F900FBE0F901F9014
:1042900018951F920F920FB60F9211242F933F93F0
:1042A0004F935F936F937F938F939F93AF93BF933E
:1042B000EF93FF9380919F0F9091A00F892B29F08E
:1042C000E0919F0FF091A00F0995FF91EF91BF91A1
:1042D000AF919F918F917F916F915F914F913F919E
:1042E0002F910F900FBE0F901F9018951F920F9255
:1042F0000FB60F9211242F933F934F935F936F93B9
:104300007F938F939F93AF93BF93EF93FF9380918E
:10431000A10F9091A20F892B29F0E091A10FF091AC
:10432000A20F0995FF91EF91BF91AF919F918F914E
:104330007F916F915F914F913F912F910F900FBEA1
:104340000F901F9018951F920F920FB60F92112485
:104350002F933F934F935F936F937F938F939F938D
:10436000AF93BF93EF93FF938091A30F9091A40F0E
:10437000892B29F0E091A30FF091A40F0995FF91EB
:10438000EF91BF91AF919F918F917F916F915F91CD
:104390004F913F912F910F900FBE0F901F90189546
:1043A0001F920F920FB60F9211242F933F934F93AA
:1043B0005F936F937F938F939F93AF93BF93EF938D
:1043C000FF938091A70F9091A80F892B29F0E0917E
:1043D000A70FF091A80F0995FF91EF91BF91AF91B1
:1043E0009F918F917F916F915F914F913F912F910D
:1043F0000F900FBE0F901F9018951F920F920FB63F
:104400000F9211242F933F934F935F936F937F935A
:104410008F939F93AF93BF93EF93FF938091A90FD7
:104420009091AA0F892B29F0E091A90FF091AA0F82
:104430000995FF91EF91BF91AF919F918F917F91DE
:104440006F915F914F913F912F910F900FBE0F9001
:104450001F9018951F920F920FB60F9211242F9351
:104460003F934F935F936F937F938F939F93AF93FC
:10447000BF93EF93FF938091AB0F9091AC0F892B7B
:1044800029F0E091AB0FF091AC0F0995FF91EF91FE
:10449000BF91AF919F918F917F916F915F914F915C
:1044A0003F912F910F900FBE0F901F9018951F9264
:1044B0000F920FB60F9211242F933F934F935F9358
:1044C0006F937F938F939F93AF93BF93EF93FF93DC
:1044D0008091AD0F9091AE0F892B29F0E091AD0F37
:1044E000F091AE0F0995FF91EF91BF91AF919F9120
:1044F0008F917F916F915F914F913F912F910F908D
:104500000FBE0F901F9018951F920F920FB60F922B
:1045100011242F933F934F935F936F937F938F93C8
:104520009F93AF93BF93EF93FF9300D00F9281E0DF
:10453000EDB7FEB7818380ED91E0938382830E9483
:104540004E2A0F900F900F90FF91EF91BF91AF9176
:104550009F918F917F916F915F914F913F912F919B
:104560000F900FBE0F901F901895843040F4E82FE5
:10457000F0E0EE0FFF1FEF50FE4E71836083089551
:104580001F93182F9A01AB01CA01B90160587B47EC
:10459000814E9F4FF3E0660F771F881F991FFA9592
:1045A000D1F7E4E0220F331F441F551FEA95D1F7DE
:1045B0000E94E82F21503040133029F42093340119
:1045C0003093350112C0123029F42093D400309377
:1045D000D5000BC0113029F42093CC003093CD00CE
:1045E00004C02093C4003093C5001F910895282F64
:1045F00030E0A3E0220F331FAA95E1F724583D4E87
:10460000C9010895282F30E0B3E0220F331FBA9577
:10461000E1F720563D4EC9010895E82F833039F463
:104620008091300185FFFCCF6093360118C0823045
:1046300039F48091D00085FFFCCF6093D6000FC085
:10464000813039F48091C80085FFFCCF6093CE00A3
:1046500006C08091C00085FFFCCF6093C600F0E0EB
:10466000E858FD4E10820895682F80E00E940D23C7
:104670000895682F81E00E940D230895682F82E03D
:104680000E940D230895682F83E00E940D23089552
:1046900020E0E82FF0E083E0EE0FFF1F8A95E1F7BE
:1046A000E058FD4E80819181892B09F421E0822F11
:1046B0000895CF93DF93833019F4609136010CC0D5
:1046C000823019F46091D60007C0813019F46091EE
:1046D000CE0002C06091C600282F30E0E901CC0F67
:1046E000DD1FFE01EF50FE4E80819181892B31F05C
:1046F0000190F081E02D862F099514C093E0220FE0
:10470000331F9A95E1F7C90184589D4E0E94652791
:10471000882341F4FE01E054FD4E80819181019691
:1047200091838083DF91CF9108951F920F920FB6EE
:104730000F9211242F933F934F935F936F937F9327
:104740008F939F93AF93BF93EF93FF9383E00E9468
:104750005923FF91EF91BF91AF919F918F917F91DD
:104760006F915F914F913F912F910F900FBE0F90DE
:104770001F9018951F920F920FB60F9211242F932E
:104780003F934F935F936F937F938F939F93AF93D9
:10479000BF93EF93FF9382E00E945923FF91EF9123
:1047A000BF91AF919F918F917F916F915F914F9149
:1047B0003F912F910F900FBE0F901F9018951F9251
:1047C0000F920FB60F9211242F933F934F935F9345
:1047D0006F937F938F939F93AF93BF93EF93FF93C9
:1047E00081E00E945923FF91EF91BF91AF919F917A
:1047F0008F917F916F915F914F913F912F910F908A
:104800000FBE0F901F9018951F920F920FB60F9228
:1048100011242F933F934F935F936F937F938F93C5
:104820009F93AF93BF93EF93FF9380E00E94592330
:10483000FF91EF91BF91AF919F918F917F916F9178
:104840005F914F913F912F910F900FBE0F901F904E
:1048500018958F929F92AF92BF92CF92DF92EF9274
:10486000FF920F931F93CF93DF93882EDB01C82E07
:10487000DD24F60113E0EE0FFF1F1A95E1F7EC556A
:10488000FD4E20813181240F351FF60173E0EE0FBC
:10489000FF1F7A95E1F7EE55FD4E80819181281733
:1048A000390770F54115510559F19C90760163E087
:1048B000EE0CFF1C6A95E1F780EA92E1E80EF91E22
:1048C0008D01C0E0D0E05A010894A108B10806C0EB
:1048D000C701F80160810E94652721960F5F1F4F75
:1048E000CA15DB05A8F38CE992E1C80ED91E8FEF3B
:1048F000F6018083882D692D0E940D238FEF01C062
:1049000080E0DF91CF911F910F91FF90EF90DF90AA
:10491000CF90BF90AF909F908F90089590E023E04C
:10492000880F991F2A95E1F780569D4E0E946527B2
:104930000895682F88EB92E10E9465270895682FFB
:1049400080EB92E10E9465270895682F88EA92E142
:104950000E9465270895682F80EA92E10E946527EA
:104960000895CF93DF93282FA82FB0E0ED01C45610
:10497000DD4E8881882379F1FD0133E0EE0FFF1FC2
:104980003A95E1F7EC55FD4E80819181892B11F12B
:10499000233039F488EB92E10E94FC2680933601A3
:1049A0001EC0223039F480EB92E10E94FC268093F5
:1049B000D60015C0213039F488EA92E10E94FC2625
:1049C0008093CE000CC080EA92E10E94FC26809386
:1049D000C60005C01882A858BD4E8FEF8C93DF919A
:1049E000CF9108951F920F920FB60F9211242F931B
:1049F0003F934F935F936F937F938F939F93AF9367
:104A0000BF93EF93FF9383E00E94B124FF91EF9156
:104A1000BF91AF919F918F917F916F915F914F91D6
:104A20003F912F910F900FBE0F901F9018951F92DE
:104A30000F920FB60F9211242F933F934F935F93D2
:104A40006F937F938F939F93AF93BF93EF93FF9356
:104A500082E00E94B124FF91EF91BF91AF919F91AD
:104A60008F917F916F915F914F913F912F910F9017
:104A70000FBE0F901F9018951F920F920FB60F92B6
:104A800011242F933F934F935F936F937F938F9353
:104A90009F93AF93BF93EF93FF9381E00E94B12464
:104AA000FF91EF91BF91AF919F918F917F916F9106
:104AB0005F914F913F912F910F900FBE0F901F90DC
:104AC00018951F920F920FB60F9211242F933F93B8
:104AD0004F935F936F937F938F939F93AF93BF9306
:104AE000EF93FF9380E00E94B124FF91EF91BF917B
:104AF000AF919F918F917F916F915F914F913F9176
:104B00002F910F900FBE0F901F9018951F93182F85
:104B100090E0FC01E456FD4E2FEF208343E0880F28
:104B2000991F4A95E1F780569D4E0E94FC26682FFA
:104B3000812F0E940D231F910895CF93DF93EB01E6
:104B4000282F30E0F90173E0EE0FFF1F7A95E1F7AF
:104B5000E258FD4E80819181892BC9F0F90163E013
:104B6000EE0FFF1F6A95E1F7E058FD4E80819181BD
:104B7000892B69F053E0220F331F5A95E1F7C901E1
:104B800084589D4E0E94FC2688838FEF01C080E0F0
:104B9000DF91CF910895DF93CF930F92CDB7DEB71A
:104BA00083E0BE016F5F7F4F0E949D25882319F42B
:104BB0002FEF3FEF03C08981282F30E0C9010F900C
:104BC000CF91DF910895DF93CF930F92CDB7DEB7EA
:104BD00082E0BE016F5F7F4F0E949D25882319F4FC
:104BE0002FEF3FEF03C08981282F30E0C9010F90DC
:104BF000CF91DF910895DF93CF930F92CDB7DEB7BA
:104C000081E0BE016F5F7F4F0E949D25882319F4CC
:104C10002FEF3FEF03C08981282F30E0C9010F90AB
:104C2000CF91DF910895DF93CF930F92CDB7DEB789
:104C300080E0BE016F5F7F4F0E949D25882319F49D
:104C40002FEF3FEF03C08981282F30E0C9010F907B
:104C5000CF91DF91089590E0E3E0880F991FEA95E6
:104C6000E1F784589D4E0E949827089584E992E1C7
:104C700061E671E140E850E00E94EF2688EB92E1A6
:104C800061EE71E140E150E00E94EF2608950E943C
:104C900036261092F8111092F71188ED80933101A9
:104CA00083E040E855E260E070E00E94C0228FEFB0
:104CB00080937B1210929F121092C7121092C6120C
:104CC000789408958CE892E161ED70E140E850E05D
:104CD0000E94EF2680EB92E161E571E140E150E056
:104CE0000E94EF2608950E9462261092F6111092FB
:104CF000F51188ED8093D10082E040E855E260E054
:104D000070E00E94C0228FEF80937A1210929E1260
:104D10001092C5121092C4127894089584E892E11A
:104D200061E470E140E850E00E94EF2688EA92E1F9
:104D300061EC70E140E150E00E94EF2608950E948E
:104D40008E261092F4111092F31188ED8093C90011
:104D500081E040E855E260E070E00E94C0228FEF01
:104D60008093791210929D121092C3121092C21267
:104D7000789408958CE792E161EB7FE040E850E0A1
:104D80000E94EF2680EA92E161E370E140E150E0A9
:104D90000E94EF2608950E94BA261092F2111092F6
:104DA000F11188ED8093C10080E040E855E260E0B9
:104DB00070E00E94C0228FEF8093781210929C12B4
:104DC0001092C1121092C012789408950E94CB26BE
:104DD0000E949F260E9473260E9447260895FC0188
:104DE0008FB7F8947183608353834283178216824E
:104DF000158214828FBF0895DC014FB7F894149682
:104E00008D919C911597892B11F4E0E025C01696A1
:104E10008D919C911797ED91FC911197E80FF91FD7
:104E2000E081019617969C938E93169712962D917A
:104E30003C9113978217930730F0821B930B1796C0
:104E40009C938E93169714968D919C91159701972C
:104E500015969C938E9314974FBF8E2F0895FC0147
:104E60004FB7F8948481958168177907B0F48681EB
:104E70009781860F971F97838683228133818217BC
:104E8000930720F0821B930B9783868384819581FF
:104E9000861B970B9583848302C0158214824FBFB3
:104EA0000895FC01CB012FB7F8942FBF26813781DD
:104EB00062817381820F931F0E94C12F0190F08144
:104EC000E02DE80FF91F808108951F93CF93DF93A2
:104ED000EC01162F4FB7F8942C813D816A817B81BC
:104EE0002617370798F48E819F81820F931F0E94A7
:104EF000C12FE881F981E80FF91F10838C819D8112
:104F000001969D838C834FBF8FEF02C04FBF80E01F
:104F1000DF91CF911F910895FC018FB7F8948FBF57
:104F20002281338184819581281B390BC901089521
:104F3000FC018FB7F894158214828FBF0895AAE7F9
:104F4000B0E08C9180688C938C918F7D8C938C9148
:104F5000887F86608C93ECE7F0E080818F738064BB
:104F6000808380818F7D80838C9188608C93109268
:104F7000C81278940895EAE7F0E08081877F808303
:104F800080818F7780830895EAE7F0E09081987FB1
:104F9000982B90830895ECE7F0E090818295880F3C
:104FA000880F807C9F73982B90830895ECE7F0E046
:104FB00090818F71907E892B80830895EAE7F0E0DD
:104FC0008081806180838081806480830895809166
:104FD0007A0080740895982F1092C812883020F0BB
:104FE00080917B00886003C080917B00877F8093E5
:104FF0007B0080917C009770887F892B80937C0058
:1050000080917A00806180937A0080917A00806438
:1050100080937A0080917A0086FDFCCF2091780001
:1050200030917900C90108950E94EB2796958795E4
:105030009695879508951F920F920FB60F9211249F
:105040008F938FEF8093C8128F910F900FBE0F90A8
:105050001F9018959093FA118093F91108951F935A
:10506000182F8A3031F4E091F911F091FA118DE0A6
:105070000995E091F911F091FA11812F09951F918D
:105080000895CF93DF93EC01009721F406C0219699
:105090000E942F2888818823D1F7DF91CF9108952E
:1050A000EF92FF920F931F93CF93DF938C017A01BE
:1050B0000097E9F020E030E02617370738F4F801D0
:1050C00081918F012F5F3F4F8823B1F7C0E0D0E07F
:1050D0000BC0F8018081882319F00F5F1F4F01C0BA
:1050E00080E20E942F282196CE15DF0590F3DF91F4
:1050F000CF911F910F91FF90EF900895CF93DF9381
:10510000EC01009719F407C00E942F28FE01219698
:1051100084918823C9F7DF91CF9108958AE00E9496
:105120002F280895E82FF0E0EF70F070EF51FE4F58
:10513000E4918E2F0E942F2808951F93182F829597
:105140008F700E949228812F0E9492281F910895AB
:105150001F93182F892F0E949D28812F0E949D2820
:105160001F910895EF92FF920F931F937B018C0183
:10517000C801AA27BB270E94A828C7010E94A82807
:105180001F910F91FF90EF9008952F923F924F92B1
:105190005F926F927F928F929F92AF92BF92CF92C7
:1051A000DF92EF92FF920F931F93DF93CF93CDB7D0
:1051B000DEB7A3970FB6F894DEBF0FBECDBF6AA3CC
:1051C000242E2BA337014801442351F017FF08C0B8
:1051D000EE24FF248701E618F7080809190902C020
:1051E000840173012AA1215090E0211091E0291B34
:1051F00029A318A2A82EBB24CC24DD24C801B70102
:10520000A60195010E94E82FFB01EF70F070EF51AD
:10521000FE4F64916F8FC801B701A60195010E94EE
:10522000E82FC901DA017C018D019EE1492E512C44
:105230004C0E5D1E39A025C0E114F10401051105D5
:10524000C9F0C801B701A60195010E94E82FFB0132
:10525000EF70F070EF51FE4F6491F2016083C8016E
:10526000B701A60195010E94E82FC901DA017C016E
:105270008D0103C02BA1F20120833A9408944108C8
:1052800051083320C9F6CE014F968C01E9A10E1BBF
:1052900011092220F1F097FE05C08DE2F8018293FA
:1052A0008F0117C0C8010197611471048104910432
:1052B00019F08C018BE202C08C0180E2F80180833E
:1052C00008C0F80181918F010E942F28FAA1F150A6
:1052D000FAA32AA12223A9F7A3960FB6F894DEBF5A
:1052E0000FBECDBFCF91DF911F910F91FF90EF9037
:1052F000DF90CF90BF90AF909F908F907F906F90F6
:105300005F904F903F902F9008954F925F926F92D1
:105310007F928F929F92AF92BF92CF92DF92EF9245
:10532000FF920F931F93CF93DF93482E5A016B0187
:10533000CB01BA0120E030E040E050E00E943B2F7A
:1053400018161CF43501460106C03501460197FACE
:10535000909497F890940F2EF0E0EF2EF0E0FF2E4F
:10536000F0E80F2FFFE31F2FF02D5524C401B301E8
:10537000A80197010E94F02D20E030E040E251E4C6
:105380000E94EC2D87FD0EC0C801B70120E030E07F
:1053900040E251E40E943F2F7B018C0153948FE047
:1053A000581621F7C601B50120E030E040E050E09A
:1053B0000E94EC2D882314F48DE201C08BE20E9440
:1053C0002F28DD24AA2456C0C401B301A8019701E7
:1053D0000E94F02D0E945D2EB62ED62ACD2DD0E053
:1053E000CC24DD24C801B70120E030E040E85FE3D1
:1053F0000E94EC2D882319F421E0C22ED12CCC2957
:10540000DD29CD2B39F08B2D805D0E942F28DD24E6
:10541000DA9404C080E20E942F28DD24C801B7017D
:1054200020E030E040E85FE30E94EC2D882319F48F
:105430008EE20E942F286B2D70E0882777FD8095E3
:10544000982F0E948B2EA80197010E943F2F9B014D
:10545000AC01C401B3010E94872D3B014C01C8017E
:10546000B70120E030E040E251E40E94F02D7B01E2
:105470008C01A394A41408F4A7CFDF91CF911F91BE
:105480000F91FF90EF90DF90CF90BF90AF909F90E3
:105490008F907F906F905F904F9008957F928F9242
:1054A0009F92AF92BF92CF92DF92EF92FF920F93B3
:1054B0001F93DF93CF93CDB7DEB77888C988DA889A
:1054C00063E1E62EF12CEC0EFD1E14C0882381F45E
:1054D00080E090E0CF91DF911F910F91FF90EF90CE
:1054E000DF90CF90BF90AF909F908F907F90089566
:1054F0000E942F2896012F5F3F4F772021F0F60161
:105500006901849103C0F601808169018532F1F659
:105510002F5F3F4F772021F0F6016901849103C08E
:10552000F60180816901843629F0883781F083365D
:10553000F9F606C000E117E25AE0A52EB12C0CC026
:10554000F701808122E030E0E20EF31ED1CF00E0CF
:1055500010E140E1A42EB12C32E0832E912C8E0C70
:105560009F1CF701E080F1808436B1F4F7FE11C092
:10557000F094E194F108F3948DE20E942F2809C081
:10558000C8016AE070E00E94C12F8B016230710592
:1055900018F0E016F106A0F3C701B8010E94C12F70
:1055A000862F0E949228C701B8010E94C12F7C015A
:1055B000C801B5010E94C12F8B016115710561F70A
:1055C000740198CF2091B9002E7F2093B9002091CB
:1055D000B9002D7F2093B9009C0140E050E060E8C5
:1055E0007EE380E090E00E940A30203130F0822F8C
:1055F00090E0409795958795282F2093B8000895BF
:10560000589A599A109242121092411210924412D2
:105610001092431284E690E00E94E22AECEBF0E064
:105620008081846080831092FB11808181608083FF
:105630008081806480837894089590E0611191E086
:105640008E7F982B9093BA00089590934212809386
:105650004112089590934412809343120895ECEB05
:10566000F0E080818F70806A80830895ECEBF0E039
:1056700080818F70806D808308958091BC0087FF4A
:10568000FCCF08958093BB00ECEBF0E080818F703D
:10569000806880830895882329F08091BC008F70F2
:1056A000806C04C08091BC008F7080688093BC00C7
:1056B00008958091BB0008958091B9000895982FB6
:1056C0008091FB118823E1F782E08093FB119E7F9C
:1056D0009093FC11ADEFB1E1FA0102C081918D937D
:1056E0008E2F841B8617D0F310921D1260931E120A
:1056F0008091BC008F70806A8093BC000895982FC1
:105700008091FB118823E1F783E08093FB11916086
:105710009093FC1110923F12609340128091BC0054
:105720008F70806A8093BC008091FB118823E1F721
:10573000AFE1B2E1FA0102C08D9181938E2F841BFB
:105740008617D0F30895982FFA018091BC008E7FC0
:105750008093BC008091BC008F70806A8093BC00F5
:105760008091BC0087FFFCCF9E7F9093BB0080910F
:10577000BC008F7080688093BC008091BC0087FF64
:10578000FCCF8091B900883189F091E012C080810E
:105790008093BB008091BC008F7080688093BC00B8
:1057A0008091BC0087FFFCCF31966150662379F76A
:1057B00090E08091BC008F70806D8093BC008091E0
:1057C000BC0084FFFCCF8091BC0081608093BC0052
:1057D000892F0895982FFA018091BC008E7F8093C5
:1057E000BC008091BC008F70806A8093BC00809167
:1057F000BC0087FFFCCF91609093BB008091BC0000
:105800008F7080688093BC008091BC0087FFFCCFC4
:105810008091B900803481F091E01EC08091BC007D
:105820008F70806C8093BC008091BC0087FFFCCFA0
:105830008091BB0081936150623080F78091BC0001
:105840008F7080688093BC008091BC0087FFFCCF84
:105850008091BB00808390E08091BC008F70806D50
:105860008093BC008091BC0081608093BC00892F34
:1058700008951F920F920FB60F9211242F933F930A
:105880004F935F936F937F938F939F93AF93BF9348
:10589000EF93FF938091B900887F803609F4A0C010
:1058A000813670F5883209F45FC0893298F480310E
:1058B00009F457C0813138F4882309F4EAC08830EC
:1058C00009F0EFC04EC0883109F44EC0803209F0B3
:1058D000E8C0DFC0803409F477C0813438F4803305
:1058E00009F4D7C0883309F0DCC05DC0803509F405
:1058F0005FC0883509F44AC0883409F0D2C0C9C0F5
:10590000883909F4BAC08939B0F4883709F468C015
:10591000893738F4883609F463C0803709F0C1C08C
:105920005FC0883809F4A9C0803909F45FC08038A5
:1059300009F0B7C05BC0803B09F479C0813B38F403
:10594000803A09F462C0883A09F0ABC070C0803C6C
:1059500009F49AC0883C09F497C0883B09F0A1C0BB
:1059600077C08091FC110FC090911D1280911E1282
:10597000981708F08EC0E92FF0E0E350FE4E8081CA
:105980009F5F90931D128093BB0077C080913F1260
:105990009091BB00E82FF0E0E15EFD4E90838F5FB9
:1059A00080933F1276C08091BC008F70806875C074
:1059B00080913F129091BB00E82FF0E0E15EFD4E38
:1059C00090838F5F80933F1220913F1230E080914F
:1059D000401290E00197281739070CF04EC048C0DC
:1059E00085E08093FB1110923F1242C080913F12DC
:1059F0009091BB00E82FF0E0E15EFD4E90838F5F59
:105A000080933F128032C8F533C08091BC008F7004
:105A1000806C8093BC00E0914112F091421230976B
:105A2000F1F180913F126FE172E1099538C084E095
:105A30008093FB11E0914312F0914412309731F0C2
:105A400080E26DEF71E1099580931E1210921D1294
:105A500090911D12E92FF0E0E350FE4E808180937B
:105A6000BB009F5F90931D1280911E12981728F41F
:105A70008091BC008F70806C04C08091BC008F70DE
:105A800080688093BC000DC08091BC008F70806CDA
:105A900004C08091BC008F70806D8093BC00109218
:105AA000FB11FF91EF91BF91AF919F918F917F91EA
:105AB0006F915F914F913F912F910F900FBE0F907B
:105AC0001F9018958091FB110895F8940C9425303F
:105AD000FB01DC0102C001900D9241505040D8F70B
