:100000000C94EE000C940B010C940B010C940B015E
:100010000C940B010C940B010C940B010C940B0130
:100020000C940B010C940B010C940B010C940B0120
:100030000C940B010C9446200C9473200C94651EB8
:100040000C94BF1F0C9493190C94EC1F0C94192062
:100050000C94251E0C94651F0C94921F0C94D21DB9
:100060000C940B010C943C240C940B010C949925DA
:100070000C940B010C9453280C940B010C94A020AD
:100080000C94CD200C94FA200C9427210C94A51EDE
:100090000C9417240C940B010C9474250C94712C63
:1000A0000C940B010C9454210C9481210C94AE21DE
:1000B0000C94DB210C94E51E0C9408220C94352240
:1000C0000C9462220C948F220C94251F0C94F22322
:1000D0000C940B010C944F250C94CD230C940B0124
:1000E0000C942A2544454154480A00636D645F61BD
:1000F0006E676C653A2000636D645F616E676C6566
:100100003A20000A0025640025640A005249474845
:100110005456656C3A20256409765F6F75745F529A
:100120003A2025640A004C45465456656C3A202511
:100130006409765F6F75745F4C3A20256409000985
:1001400025642C20765F72696768743A2025640AFA
:10015000000A4C56433A2025642C20765F6F757454
:100160003A2025640A00496E697469616C697A6194
:1001700074696F6E20436F6D706C657465200D0A35
:10018000002E000D0A53797374656D205761726DEE
:1001900065642055700057520A0057520A0000004B
:1001A00001000800400000010004000001000800F8
:1001B000200040008000000100044241445F766559
:1001C00063742063616C6C656421003031323334B8
:1001D00035363738394142434445460011241FBE65
:1001E000CFEFD1E2DEBFCDBF12E0A0E0B2E0EEEB98
:1001F000F0E602C005900D92AC3AB107D9F712E1D2
:10020000ACEAB2E001C01D92A73BB107E1F70E9442
:1002100055100C949D2D0C94BC22893049F480918A
:100220008000826080938000809180008E7F0EC06D
:100230008A3021F480918000826003C08091800028
:100240008D7F80938000809180008160809380000A
:1002500010928B0010928A000895893049F48091A1
:10026000B00082608093B0008091B0008E7F0EC09D
:100270008A3021F48091B000826003C08091B00088
:100280008D7F8093B0008091B00081608093B0003A
:100290001092B4000895893049F4809190008260F2
:1002A00080939000809190008E7F0EC08A3021F460
:1002B00080919000826003C0809190008D7F809338
:1002C000900080919000816080939000109299003E
:1002D000109298000895893049F4809191008260CD
:1002E00080939100809191008E7F0EC08A3021F41E
:1002F00080919100826003C0809191008D7F8093F6
:1003000091008091910081608093910010929B00F8
:1003100010929A000895893049F480919200826089
:1003200080939200809192008E7F0EC08A3021F4DB
:1003300080919200826003C0809192008D7F8093B3
:1003400092008091920081608093920010929D00B3
:1003500010929C000895893049F48091A000826039
:100360008093A0008091A0008E7F0EC08A3021F47F
:100370008091A000826003C08091A0008D7F809357
:10038000A0008091A00081608093A0001092A9003D
:100390001092A8000895893049F48091A1008260EC
:1003A0008093A1008091A1008E7F0EC08A3021F43D
:1003B0008091A100826003C08091A1008D7F809315
:1003C000A1008091A10081608093A1001092AB00F8
:1003D0001092AA000895893049F48091A0008260AB
:1003E0008093A0008091A0008E7F0EC08A3021F4FF
:1003F0008091A000826003C08091A0008D7F8093D7
:10040000A0008091A00081608093A0001092AD00B8
:100410001092AC000895E0E8F0E020812E7F208368
:10042000208122602083E1E8F0E0208128602083A1
:100430002081206120839093870080938600109212
:1004400089001092880010928B0010928A001092FE
:100450008D0010928C000895E0E9F0E020812E7F5D
:100460002083208122602083E1E9F0E02081286060
:1004700020832081206120839093970080939600B1
:10048000109299001092980010929B0010929A007E
:1004900010929D0010929C000895E0EAF0E0208107
:1004A0002E7F2083208122602083E1EAF0E02081FA
:1004B000286020832081206120839093A70080936F
:1004C000A6001092A9001092A8001092AB00109202
:1004D000AA001092AD001092AC000895E0E8F0E0A0
:1004E00080818062808380818F7E80830895E0EBAD
:1004F000F0E080818062808380818F7E8083089598
:10050000E0E9F0E080818068808380818F7B808358
:100510000895E0E9F0E080818062808380818F7EB1
:1005200080830895E0E9F0E08081886080838081A5
:100530008B7F80830895E0EAF0E08081806880838B
:1005400080818F7B80830895E0EAF0E08081806283
:10055000808380818F7E80830895E0EAF0E080814F
:100560008860808380818B7F80830895E0E8F0E05D
:1005700080818F7D808380818F7E80830895E0EBF2
:10058000F0E080818F7D808380818F7E80830895DD
:10059000E0E9F0E080818F77808380818F7B8083AA
:1005A0000895E0E9F0E080818F7D808380818F7EF7
:1005B00080830895E0E9F0E08081877F80838081F7
:1005C0008B7F80830895E0EAF0E080818F778083DD
:1005D00080818F7B80830895E0EAF0E080818F7DC9
:1005E000808380818F7E80830895E0EAF0E08081BF
:1005F000877F808380818B7F80830895E0E8F0E0AF
:1006000080818D7F808380818E7F808380818F7DBC
:10061000808380818F7E80830895E0EBF0E080818D
:100620008D7F808380818E7F808380818F7D80839A
:1006300080818F7E80830895E0E9F0E080818D7F66
:10064000808380818E7F808380818F77808380818B
:100650008F7B808380818F7D808380818F7E80836C
:100660008081877F808380818B7F80830895E0EA0B
:10067000F0E080818D7F808380818E7F8083808188
:100680008F77808380818F7B808380818F7D808343
:1006900080818F7E80838081877F808380818B7F34
:1006A0008083089590938B0080938A0008958093AF
:1006B000B4000895909399008093980008959093C2
:1006C0009B0080939A00089590939D0080939C00D6
:1006D00008959093A9008093A80008959093AB008B
:1006E0008093AA0008959093AD008093AC00089584
:1006F00010BA11BA10920701109208019FEF91B938
:1007000080E484B997B9589A599A83EF8AB98EEFE1
:100710008DB9A59A9D988093010180930401089555
:1007200008952E9A08952E98089522B330E085E01A
:10073000369527958A95E1F7209530952170307090
:10074000C901089597FD10C025E030E040E050E079
:100750000E944230DA01C901880F991F8D5E9D4FBA
:10076000FC012081318117C025E030E040E050E0FD
:100770000E944230DA01C901885B9F4FAF4FBF4FE3
:10078000880F991F8D5E9D4FFC01808191812227EA
:100790003327281B390BC90108956A5570408040E2
:1007A000904097FD10C025E030E040E050E00E940E
:1007B0004230DA01C901880F991F8D5E9D4FFC01FF
:1007C0002081318117C025E030E040E050E00E94F8
:1007D0004230DA01C901885B9F4FAF4FBF4F880F8E
:1007E000991F8D5E9D4FFC018081918122273327C7
:1007F000281B390BC9010895CF92DF92EF92FF9227
:100800000F931F936B017C018AE5C816D104E104A4
:10081000F104A1F186EAC8168FEFD8068FEFE8063B
:100820008FEFF80659F18EE0C81681E0D80680E017
:10083000E80680E0F80611F182EFC8168EEFD806C0
:100840008FEFE8068FEFF806C9F0C701B6010E94E6
:10085000CD038C01C701B6010E94A203BC01C801EF
:100860000E940D30CB019B0173E0220F331F7A955C
:10087000E1F7880F991F280F391F02C020E030E0F0
:10088000C9011F910F91FF90EF90DF90CF900895D5
:100890008AE00E946B018AE00E944B018AE00E947C
:1008A000AB018AE00E94CB010895982F80538A30D3
:1008B00038F08151863010F0892F0895892F8753A1
:1008C0000895FC019081218142815381892F8053B9
:1008D0008A3010F4982F05C0892F8154863008F48F
:1008E0009753822F80538A3010F4282F05C0822F0F
:1008F0008154863008F42753842F80538A3010F4B3
:10090000482F05C0842F8154863008F44753852F23
:1009100080538A3010F4582F05C0852F81548630BB
:1009200008F4575330E0892F90E0A4E0880F991F16
:10093000AA95E1F7282B392BF4E0220F331FFA9503
:10094000E1F7842F90E0822B932BE4E0880F991F2E
:10095000EA95E1F7252F30E0282B392BC9010895BE
:10096000FF920F931F93FC0190812181628173811B
:1009700014810581F680E781892F80538A3010F435
:10098000982F05C0892F8154863008F49753822F01
:1009900080538A3010F4282F05C0822F815486306E
:1009A00008F42753862F80538A3010F4682F05C02F
:1009B000862F8154863008F46753872F80538A30FE
:1009C00010F4782F05C0872F8154863008F47753B0
:1009D000812F80538A3010F4182F05C0812F815445
:1009E000863008F41753802F80538A3010F4082F74
:1009F00005C0802F8154863008F407538F2D805313
:100A00008A3010F4F82E06C08F2D8154863010F4F1
:100A100089ECF80E8E2F80538A3010F4E82F05C031
:100A20008E2F8154863008F4E75330E040E050E0E8
:100A3000892F90E0A0E0B0E0F4E0880F991FAA1F92
:100A4000BB1FFA95D1F7282B392B4A2B5B2BA4E03F
:100A5000220F331F441F551FAA95D1F7862F90E010
:100A6000A0E0B0E0822B932BA42BB52BF4E0880FF1
:100A7000991FAA1FBB1FFA95D1F7272F30E040E03E
:100A800050E0282B392B4A2B5B2B64E0220F331FBD
:100A9000441F551F6A95D1F7812F90E0A0E0B0E088
:100AA000822B932BA42BB52B24E0880F991FAA1F10
:100AB000BB1F2A95D1F7202F30E040E050E0282BD3
:100AC000392B4A2B5B2B04E0220F331F441F551F89
:100AD0000A95D1F78F2D90E0A0E0B0E0822B932B08
:100AE000A42BB52B14E0880F991FAA1FBB1F1A95C2
:100AF000D1F72E2F30E040E050E0282B392B4A2B45
:100B00005B2BB901CA011F910F91FF900895EF92DD
:100B1000FF920F931F937B018C0120E030E040E1B6
:100B200052E40E94732F18165CF40F2EF0E0EF2EA3
:100B3000F0E0FF2EF0E10F2FF2E41F2FF02D14C094
:100B4000C801B70120E030E040E152EC0E94242EC1
:100B5000882354F40F2EF0E0EF2EF0E0FF2EF0E1AA
:100B60000F2FF2EC1F2FF02D0FB6F8940F92C80143
:100B7000B70128E430E54CEF5EEB0E94772F2FE1C0
:100B800035E449E353E40E94C02D0E94902E7093F7
:100B90009B0060939A000F900FBE1F910F91FF90E2
:100BA000EF900895EF92FF920F931F937B018C01BA
:100BB00020E030E040E152E40E94732F18165CF40C
:100BC0000F2EF0E0EF2EF0E0FF2EF0E10F2FF2E419
:100BD0001F2FF02D14C0C801B70120E030E040E124
:100BE00052EC0E94242E882354F40F2EF0E0EF2EB6
:100BF000F0E0FF2EF0E10F2FF2EC1F2FF02D0FB6DB
:100C0000F8940F92C801B70121E137EC4AE05FEB9D
:100C10000E94772F26EF38E64CE353E40E94C02D64
:100C20000E94902E70939900609398000F900FBED1
:100C30001F910F91FF90EF900895982F8A3010F434
:100C4000905D04C08A50873008F4995C892F08951C
:100C50001F93CF93DF9311E0C8E0D1E00E943326C9
:100C6000803731F48091A5029091A602019607C0C9
:100C70008C3649F48091A5029091A6020197909339
:100C8000A6028093A50200D000D00F92EDB7FEB768
:100C90003196ADB7BEB711961C93D283C1838091B4
:100CA000A5029091A602948383830E94862A0F90C6
:100CB0000F900F900F900F90D1CF982F8F3F09F486
:100CC0007CC08A3021F481E080930B0333C0809193
:100CD0000B03882391F0963531F481E0809308036B
:100CE00010920A0307C0943441F481E08093070313
:100CF0001092090310920B03089580910803882332
:100D000059F080910A03E82FF0E0ED5FFC4F9083EB
:100D10008F5F80930A030EC080910703882351F0F0
:100D200080910903E82FF0E0E550FD4F90838F5F3D
:100D30008093090380910A03843001F583E093E0F6
:100D40000E946104AA2797FDA095BA2FBC01CD018E
:100D50000E94C32E20E030E040E85EE30E94772F3F
:100D60000E94902E7093B9026093B802109208030B
:100D700010920A0381E08093BA02089580910903DA
:100D8000883051F58BEF92E00E94B0040E94C32E90
:100D900020E030E040E85EE30E94772F0E94902E32
:100DA0006093BB027093BC028093BD029093BE021D
:100DB0001092070310920903089500D00F9281E06A
:100DC000EDB7FEB7818386E991E0938382830E9429
:100DD000862A0F900F900F900895982F8F3F09F457
:100DE0007CC08A3021F481E080931C0333C0809161
:100DF0001C03882391F0963531F481E08093190328
:100E000010921B0307C0943441F481E080931803CF
:100E100010921A0310921C030895809119038823DD
:100E200059F080911B03E82FF0E0EC5EFC4F9083BB
:100E30008F5F80931B030EC080911803882351F0AD
:100E400080911A03E82FF0E0E45FFC4F90838F5FFE
:100E500080931A0380911B03843001F584E193E0B1
:100E60000E946104AA2797FDA095BA2FBC01CD016D
:100E70000E94C32E20E030E040E85EE30E94772F1E
:100E80000E94902E7093C6026093C50210921903BF
:100E900010921B0381E08093C702089580911A038A
:100EA000883051F58CE093E00E94B0040E94C32E7C
:100EB00020E030E040E85EE30E94772F0E94902E11
:100EC0006093C8027093C9028093CA029093CB02C8
:100ED0001092180310921A03089500D00F9281E027
:100EE000EDB7FEB781838AE991E0938382830E9404
:100EF000862A0F900F900F9008953F924F925F9225
:100F00006F927F928F929F92AF92BF92CF92DF9219
:100F1000EF92FF920F931F93DF93CF9300D0CDB743
:100F2000DEB70F2EF0E0AF2EF0E0BF2EF0E0CF2EB8
:100F3000F0E0DF2EF02D33243394B7EF4B2EB0E0EA
:100F40005B2E4E010894811C911C0F2EFBEDEF2EA1
:100F5000FFE0FF2EF9EC0F2FFFE31F2FF02DABEE7C
:100F60006A2EA0E07A2EA092DA02B092DB02C09242
:100F7000DC02D092DD0200D00F92EDB7FEB73182D5
:100F8000538242820E94862A0F900F900F904091C8
:100F9000DA025091DB026091DC027091DD0285E0A3
:100FA0000E94BD290E94C628C40160E177E20E9428
:100FB0007C16E092DA02F092DB020093DC021093DE
:100FC000DD0200D00F92EDB7FEB7318273826282EC
:100FD0000E94862A0F900F900F904091DA02509154
:100FE000DB026091DC027091DD0285E00E94BD2988
:100FF0000E94C628C40160E177E20E947C16B3CF4C
:101000006F927F928F929F92AF92BF92CF92DF9218
:10101000EF92FF920F931F93DF93CF9300D0CDB742
:10102000DEB780E090E0A0E0B0E08093AC02909367
:10103000AD02A093AE02B093AF0280E090E0A8ECC6
:10104000B1E48093B0029093B102A093B202B09346
:10105000B302CE01019660E177E20E947C16809196
:101060009000806280939000809190008F7E8093AA
:101070009000809190008068809390008091900013
:101080008F7B809390000FB6F8940F928CEA90E0DB
:1010900090939B0080939A000F900FBE0FB6F89428
:1010A0000F9289EC90E090939900809398000F90B4
:1010B0000FBE89E190E09093B7028093B6029093BF
:1010C000B5028093B4023E010894611C711C0F2E7E
:1010D000F0E0EF2EF0E0FF2EF8EC0F2FF1E41F2FE1
:1010E000F02D29E1C22ED12C9CEA892E912C89EC7D
:1010F000A82EB12CC30168EE73E00E947C16E0922A
:10110000AC02F092AD020093AE021093AF02D09207
:10111000B702C092B602D092B502C092B4020FB626
:10112000F8940F9290929B0080929A000F900FBEBD
:101130000FB6F8940F92B0929900A09298000F9079
:101140000FBED8CF7F928F929F92AF92BF92CF92D5
:10115000DF92EF92FF920F931F93DF93CF9300D014
:10116000CDB7DEB78091A00080628093A00080910F
:10117000A0008F7E8093A0008091A0008068809363
:10118000A0008091A0008F7B8093A0000AE710E070
:101190005CEC852E912C5E010894A11CB11C772477
:1011A000739445E0C42E41E0D42E33E0E32E31E0C9
:1011B000F32E84E00030180710F000E010E00FB6C6
:1011C000F8940F921093A9000093A8009092AB009E
:1011D0008092AA000F900FBE6091A5027091A602A6
:1011E000C5010E947C160E943326803719F40F5FD8
:1011F0001F4F04C08C3611F40150104000D000D0B5
:101200000F92EDB7FEB73196ADB7BEB711967C928F
:10121000D282C182148303830E94862A0F900F908A
:10122000EDB7FEB77182F382E2820E94862A0F5FD9
:101230001F4F0F900F900F90BCCF0F931F93DF9312
:10124000CF9300D0CDB7DEB78E010F5F1F4F2E9822
:10125000C80162E370E00E947C162E9AC80162E326
:1012600070E00E947C16F3CF0F931F93DF93CF9310
:1012700000D0CDB7DEB78E010F5F1F4F109AC801A7
:1012800062E370E00E947C161098C80162E370E08F
:101290000E947C16F3CF2F923F924F925F926F92F3
:1012A0007F928F929F92AF92BF92CF92DF92EF92F6
:1012B000FF920F931F93DF93CF93CDB7DEB7629763
:1012C0000FB6F894DEBF0FBECDBF80919000806254
:1012D00080939000809190008F7E80939000809109
:1012E0009000806880939000809190008F7B809325
:1012F000900080E090E0A0E0B0E08B879C87AD8715
:10130000BE878B839C83AD83BE831E010894211C02
:10131000311CC090B802D090B9026091B4027091B3
:10132000B5026C197D09882777FD8095982F0E945A
:10133000C32E6F87788B898B9A8B6091C5027091D1
:10134000C6022091B6023091B702620F731F882740
:1013500077FD8095982F0E94C32E6F8378878987A9
:101360009A876F85788989899A892CE433E949E1DC
:101370005CE30E94772F7B018C016B857C858D85DA
:101380009E8520EA33E04FEB5CE30E94772F9B01C0
:10139000AC01C801B7010E94C02D4B015C016F81F7
:1013A000788589859A852DE830E948E05CE30E94DC
:1013B000772F7B018C016B817C818D819E8126E161
:1013C00035E440E85CE30E94772F9B01AC01C80143
:1013D000B7010E94C02D2B013C010FB6F8940F926B
:1013E000ADB7BEB717970FB6F894BEBF0FBEADBF6F
:1013F0000DB71EB70F5F1F4FE1E01196EC93E6E2C9
:10140000F1E0D8011296FC93EE9311971496DC92BA
:10141000CE921397C501B4010E94902ED801169662
:101420007C936E9315970E94862A0DB71EB70F5FA7
:101430001F4F81E0EDB7FEB78183ECE0F1E0D8010A
:101440001296FC93EE9311978091C5029091C6027B
:10145000909581959F4F14969C938E931397C301FB
:10146000B2010E94902ED80116967C936E93159728
:101470000E94862A0F900FBEEDB7FEB737960FB6C3
:10148000F894FEBF0FBEEDBFC501B40120E030E00F
:1014900040E152E40E94732F18169CF480E090E81B
:1014A000ABEBB4E48B879C87AD87BE870F2EF0E053
:1014B0008F2EF0E09F2EF0E1AF2EF2E4BF2EF02D44
:1014C0002BC0C501B40120E030E040E152EC0E94A5
:1014D000242E88239CF480E090E8ABEBB4EC8B875F
:1014E0009C87AD87BE870F2EF0E08F2EF0E09F2EF9
:1014F000F0E1AF2EF2ECBF2EF02D0EC06B857C8597
:101500008D859E852F85388949895A890E94C02DED
:101510006B877C878D879E87C301B20120E030E016
:1015200040E152E40E94732F18169CF480E090E88A
:10153000ABEBB4E48B839C83AD83BE830F2EF0E0D2
:101540004F2EF0E05F2EF0E16F2EF2E47F2EF02DB3
:101550002BC0C301B20120E030E040E152EC0E9418
:10156000242E88239CF480E090E8ABEBB4EC8B83D2
:101570009C83AD83BE830F2EF0E04F2EF0E05F2EF4
:10158000F0E16F2EF2EC7F2EF02D0EC06B817C818E
:101590008D819E812F81388549855A850E94C02D75
:1015A0006B837C838D839E830FB6F8940F92C50165
:1015B000B40120E030E040E152E40E94732F18169D
:1015C0005CF40F2EF0E08F2EF0E09F2EF0E1AF2EB6
:1015D000F2E4BF2EF02D14C0C501B40120E030E0CC
:1015E00040E152EC0E94242E882354F40F2EF0E0A8
:1015F0008F2EF0E09F2EF0E1AF2EF2ECBF2EF02DFB
:101600000FB6F8940F92C501B40128E430E54CEF11
:101610005EEB0E94772F2FE135E449E353E40E940B
:10162000C02D0E94902E70939B0060939A000F90A3
:101630000FBE8301720117FB109517F91095C801B1
:10164000B70120E030E040E152E40E94732F181609
:101650005CF40F2EF0E0EF2EF0E0FF2EF0E10F2F04
:10166000F2E41F2FF02D14C0C801B70120E030E0D4
:1016700040E152EC0E94242E882354F40F2EF0E017
:10168000EF2EF0E0FF2EF0E10F2FF2EC1F2FF02DE8
:101690000FB6F8940F92C801B70121E137EC4AE088
:1016A0005FEB0E94772F26EF38E64CE353E40E946D
:1016B000C02D0E94902E70939900609398000F9017
:1016C0000FBE0F900FBEC10164E670E00E947C1651
:1016D00020CE2F923F924F925F926F927F928F9285
:1016E0009F92AF92BF92CF92DF92EF92FF920F93B1
:1016F0001F93DF93CF9300D0CDB7DEB780919000DA
:10170000806880939000809190008F7B8093900000
:101710000F2EF0E0AF2EF0E0BF2EF0E0CF2EF0E085
:10172000DF2EF02D2090B6023090B7024090C50217
:101730005090C602B201620D731D882777FD809517
:10174000982F0E94C32E3B014C012DE830E948E060
:101750005CE30E94772F7B018C01C601B50126E175
:1017600035E440E85CE30E94772F9B01AC01C8019F
:10177000B7010E94C02D0E94902ECB0165327105E9
:101780001CF084E290E006C02FEF6C3D720714F469
:101790008CED9FEF0FB6F8940F9266277727681BA2
:1017A000790B882777FD8095982F0E94C32E7B01A7
:1017B0008C0120E030E040E152E40E94732F1816C3
:1017C0005CF40F2EF0E0EF2EF0E0FF2EF0E10F2F93
:1017D000F2E41F2FF02D14C0C801B70120E030E063
:1017E00040E152EC0E94242E882354F40F2EF0E0A6
:1017F000EF2EF0E0FF2EF0E10F2FF2EC1F2FF02D77
:101800000FB6F8940F92C801B70121E137EC4AE016
:101810005FEB0E94772F26EF38E64CE353E40E94FB
:10182000C02D0E94902E70939900609398000F90A5
:101830000FBE0F900FBE8DB79EB707970FB6F894E7
:101840009EBF0FBE8DBFEDB7FEB7319621E0ADB79D
:10185000BEB711962C938FE391E092838183882702
:1018600099278419950994838383368225820E945F
:10187000862AC601B501A40193010E94C02D5B0117
:101880006C01ADB7BEB717960FB6F894BEBF0FBECA
:10189000ADBFCE01019664E670E00E947C1642CF97
:1018A0002F923F924F925F926F927F928F929F9270
:1018B000AF92BF92CF92DF92EF92FF920F931F935E
:1018C000DF93CF9300D000D000D0CDB7DEB78091AA
:1018D0009000806280939000809190008F7E809332
:1018E000900080E090E0A0E0B0E08B839C83AD832B
:1018F000BE831E010894211C311C8090B802909078
:10190000B9026091B4027091B5026819790988270B
:1019100077FD8095982F0E94C32E5B016C012CE40B
:1019200033E949E15CE30E94772F7B018C016B81F5
:101930007C818D819E8120EA33E04FEB5CE30E9445
:10194000772F9B01AC01C801B7010E94C02D2B016C
:101950003C010FB6F8940F92ADB7BEB717970FB60C
:10196000F894BEBF0FBEADBF0DB71EB70F5F1F4FC0
:10197000E1E01196EC93E1E5F1E0D8011296FC93D9
:10198000EE93119714969C928E9213970E94902E2C
:10199000D80116967C936E9315970E94862A0F9015
:1019A0000FBE6B817C818D819E81A60195010E9475
:1019B000C02D6B837C838D839E83EDB7FEB73796F6
:1019C0000FB6F894FEBF0FBEEDBFC301B20120E019
:1019D00030E040E152E40E94732F18165CF40F2EA1
:1019E000F0E04F2EF0E05F2EF0E16F2EF2E47F2E5C
:1019F000F02D14C0C301B20120E030E040E152EC10
:101A00000E94242E882354F40F2EF0E04F2EF0E095
:101A10005F2EF0E16F2EF2EC7F2EF02D0FB6F894D2
:101A20000F92C301B20120E030E040E152E40E9495
:101A3000732F18165CF40F2EF0E04F2EF0E05F2E9F
:101A4000F0E16F2EF2E47F2EF02D14C0C301B2013D
:101A500020E030E040E152EC0E94242E882354F430
:101A60000F2EF0E04F2EF0E05F2EF0E16F2EF2EC43
:101A70007F2EF02D0FB6F8940F92C301B20128E427
:101A800030E54CEF5EEB0E94772F2FE135E449E320
:101A900053E40E94C02D0E94902E70939B0060938F
:101AA0009A000F900FBE0F900FBE0E943326C10107
:101AB00064E670E00E947C1620CFEF92FF920F93B5
:101AC0001F930E94BA1C6091C5027091C602709566
:101AD00061957F4F2091B8023091B902621B730B60
:101AE000882777FD8095982F0E94C32E26E636E63C
:101AF00046E851E40E94282E6093D6027093D702E4
:101B00008093D8029093D9020E945B1C16B52FEFE8
:101B100030E040E050E00E94DA2F610F711D811D1E
:101B2000911D0E94C12E2FE632E143E85EE30E9440
:101B3000772F20E030E04AE754E40E94282E2091DD
:101B4000D6023091D7024091D8025091D9020E941A
:101B5000772F2091D2023091D3024091D40250913C
:101B6000D5020E94C02D9B01AC016093D2027093FC
:101B7000D3028093D4029093D5026091DA027091DF
:101B8000DB028091DC029091DD020E94BF2D9B015F
:101B9000AC010E94772F7B018C01C801B70120E0C6
:101BA00030E040E151E40E94C02D9B01AC01C8012E
:101BB000B7010E94282E6093DE027093DF028093AB
:101BC000E0029093E1027DCFFF920F931F93CF939A
:101BD000DF93EB010E947B23FFE0FF2EFC2289E0D4
:101BE0008F1518F090E3F90E06C08F2D8A508730BC
:101BF00010F487E3F80ECE01E4E095958795EA9519
:101C0000E1F7082F0F700A3010F4005D05C0802F37
:101C10008A50873008F4095C8D2F992787FD9A95A3
:101C2000182F1F701A3010F4105D05C0812F8A50D4
:101C3000873008F4195CC0E1DC02C12DDD0B1124F2
:101C4000CE018F70682F8A3010F4605D04C08A5016
:101C5000873008F4695C862F0E947B23812F0E94C5
:101C60007B23802F0E947B238F2D0E947B238AE081
:101C70000E947B23DF91CF911F910F91FF900895D8
:101C80006F927F928F929F92AF92BF92CF92DF928C
:101C9000EF92FF920F931F936091D2027091D30243
:101CA0008091D4029091D50220E030E044E353E4E7
:101CB0000E94772F2BED3FE049E450E40E94282E4C
:101CC0003B014C01609337127093381280933912A4
:101CD00090933A12A090AC02B090AD02C090AE02C8
:101CE000D090AF02E090DE02F090DF020091E002BF
:101CF0001091E102C801B70123E333E343E051EC63
:101D00000E94772F9B01AC01C601B5010E94C02D36
:101D10000E94902E7093B5026093B402C801B7017F
:101D200023E333E343E051E40E94772F9B01AC01AE
:101D3000C601B5010E94C02D0E94902E7093B7027B
:101D40006093B6028091B8029091B9022091C502C9
:101D50003091C602821B930B62E070E00E940D304E
:101D6000882777FD8095982F0E94C32E60933B12A1
:101D700070933C1280933D1290933E128091C80262
:101D80009091C902A091CA02B091CB02E090CC021E
:101D9000F090CD02E81AF90A8093CC029093CD021C
:101DA000A093CE02B093CF028091BB029091BC026F
:101DB000A091BD02B091BE022091BF023091C0023D
:101DC0008C01021B130B8093BF029093C002A0935F
:101DD000C102B093C2021092C4021092C3021092C8
:101DE000D1021092D002C401B3010E94902E9B0137
:101DF000AC0188E4B9010E94E40D60913B1270913E
:101E00003C1280913D1290913E120E94902E9B01B7
:101E1000AC0186E5B9010E94E40D0E0D1F1DB8014D
:101E2000660F771F660F771F600F711F83E50E9493
:101E3000E40D32CF1F93182F1F77812F0E9471233B
:101E40001A3021F481E08093FA0261C08091FA0295
:101E5000882391F0123531F481E08093F7021092DB
:101E6000F90207C01D3441F481E08093F60210921C
:101E7000F8021092FA0286C08091F702882311F1CD
:101E8000812F80538A3010F4182F05C0812F815480
:101E9000863008F41753812F90E02091F40230919E
:101EA000F50214E0220F331F1A95E1F7822B932BD2
:101EB0009093F5028093F4028091F9028F5F8093F2
:101EC000F90225C08091F602882309F1812F805301
:101ED0008A3010F4182F05C0812F8154863008F401
:101EE0001753812F90E02091F2023091F302B4E079
:101EF000220F331FBA95E1F7822B932B9093F302B5
:101F00008093F2028091F8028F5F8093F8028091B3
:101F1000F9028430D9F46091F4027091F5028827B7
:101F200077FD8095982F0E94C32E6093DA027093FC
:101F3000DB028093DC029093DD021092F702109294
:101F4000F9021092F5021092F4021CC08091F8027E
:101F50008430C1F48091F2029091F302AA2797FD98
:101F6000A095BA2F8093E2029093E302A093E4023B
:101F7000B093E5021092F6021092F8021092F3026A
:101F80001092F2021F9108950F931F93CF93DF9346
:101F90000E941E2780E040E056E960E070E00E9469
:101FA000F82281E040E052EC61E070E00E94F8220B
:101FB00082E040E056E960E070E00E94F82283E0B1
:101FC00040E056E960E070E00E94F82281E793E289
:101FD0000E9462280E94780382E06DE576E00E940C
:101FE000ED2280E06DEE76E00E94ED222E9800D08A
:101FF0000F9281E0EDB7FEB7818383E891E0938390
:1020000082830E94862A0F900F900F9085E00E9495
:10201000041D84E00E94241D83E00E94341D83E09F
:102020000E94461D83E00E94581D0E94D72785E02C
:102030000E94FC2781E00E94032810E001E0C1E833
:10204000D1E0812F0E944C2800D00F92EDB7FEB74F
:102050000183D383C2830E94862A1F5F0F900F9053
:102060000F90103171F72E9A00D00F92EDB7FEB796
:10207000018386E691E0938382830E94862A0F90F3
:102080000F900F900E94BA1C0E94C41C0E94D11C89
:102090000E94DC1C0E94E91C0E94F61C0E9448045D
:1020A000DF91CF911F910F910895AF92BF92CF9280
:1020B000DF92EF92FF920F93CF93DF930E94C40FB2
:1020C0000E9433268093431284EF91E00E947F1D8B
:1020D00089E190E09093B7028093B6029093B502A5
:1020E0008093B40284E399E060E072E044E650E05B
:1020F00020E030E001E0EE24FF24CC24DD24AA24FB
:10210000BB240E9466178DE199E067E072E044E627
:1021100050E020E030E00E9466178BE499E06EE02A
:1021200072E044EF51E020E030E002E00E946617E8
:102130000E948A1801E0C4EED0E000D00F92EDB703
:10214000FEB70183D383C2830E94862A0F900F902B
:102150000F90F3CFFC019C012D5F3F4F3283218311
:102160008FEF9FEF94838383368325833087278384
:1021700010820895FC01118610860895CF93DF9395
:10218000AC01DB01EC0129813A81F9018281938163
:1021900013969C938E93129789819A8115969C939E
:1021A0008E9314970280F381E02D75836483E90197
:1021B0007B836A83FA017283618319965C934E93E1
:1021C000189780818F5F8083DF91CF910895CF939F
:1021D000DF939C01EB01488159818FEF4F3F5807F6
:1021E00021F4F901A781B08510C0D901139604C06C
:1021F00012960D90BC91A02D1296ED91FC91139723
:10220000808191814817590798F71296ED91FC91BA
:102210001397FB83EA83D583C483BD83AC83139672
:10222000DC93CE93129739872887F90180818F5FDD
:102230008083DF91CF910895CF93DF93DC011296D5
:10224000ED91FC91139714968D919C911597958320
:1022500084831496CD91DC911597FB83EA831896BD
:10226000ED91FC911997818192818A179B0711F456
:10227000D283C18319961C921E9218978081815037
:102280008083DF91CF910895FC010FB6F8940F92EF
:10229000828D0F900FBE0895FC01828D0895FC0180
:1022A000828D90E0882309F491E0892F0895FC0144
:1022B000928D20E0838D981709F421E0822F0895F4
:1022C0000F931F938C01FC01808191810E94B91BA7
:1022D000C8010E94B91B1F910F9108950F931F937E
:1022E000CF93DF93EC01FB018A018A8D882381F172
:1022F0004881598141155105A9F08C8D2E813F816E
:10230000280F311D3F832E838A819B81281739072F
:1023100010F05F834E834C8D6E817F81CF0150E042
:102320000E94A02D8A8D81508A8F8D8D8F3F69F4F8
:102330008885882361F0CE0108960E94CE148823F8
:1023400031F081E0F801808303C08F5F8D8F81E0E1
:10235000DF91CF911F910F910895CF93DF93EC01FF
:10236000842F4C8D4423A1F18823B1F48C819D816D
:1023700050E00E94A02D8C8D2C813D81280F311DB5
:102380003D832C838A819B812817390708F1888136
:1023900099819D838C831CC08E819F8150E00E9417
:1023A000A02D8C8D90E044275527481B590B8E811A
:1023B0009F81840F951F9F838E8328813981821787
:1023C000930730F48A819B81840F951F9F838E83AE
:1023D0008A8D8F5F8A8FDF91CF9108950F931F931E
:1023E000CF93DF93EC018A019A8D8B8D981710F0B3
:1023F00080E017C0CE01422F0E94AD118E8D8F3F1D
:1024000069F48989882361F0CE0141960E94CE1437
:10241000882331F081E0F801808303C08F5F8E8FC5
:1024200081E0DF91CF911F910F9108950F931F933A
:10243000CF93DF93EC010FB6F8940F928C010F5EEF
:102440001F4F0DC08989882369F0C8010E94CE14EE
:10245000882311F00E94CA148E8D81508E8F8E8D2C
:10246000181684F38FEF8E8F0F900FBE0FB6F8946F
:102470000F928E01085F1F4F0DC08885882369F079
:10248000C8010E94CE14882311F00E94CA148D8DB9
:1024900081508D8F8D8D181684F38FEF8D8F0F9057
:1024A0000FBEDF91CF911F910F9108957F928F9270
:1024B0009F92AF92BF92CF92DF92EF92FF920F93D3
:1024C0001F93DF93CF9300D000D00F92CDB7DEB72C
:1024D0008C01962E872E5D834C83722E91E1C92E3E
:1024E000D12CC00ED11E20E07E010894E11CF11C0D
:1024F00084E0A82EB12CAC0EBD1E01C021E00FB6A9
:10250000F8940F92F801828D882309F43EC0E6808A
:10251000F7804081518141155105B1F0848D9701BB
:10252000280F311D3783268382819381281739072D
:1025300010F057834683F801448D66817781892D99
:10254000982D50E00E94A02D772071F4F801828D23
:102550008150828F80858823A1F0C80108960E944F
:10256000CE14813071F40BC0F801F782E6828189C4
:10257000882339F0C6010E94CE14882311F00E94EE
:1025800096190F900FBE81E04AC08C819D81892BE6
:1025900019F40F900FBE42C0222319F4C7010E9404
:1025A00085140F900FBE0E9429140FB6F8940F9255
:1025B000F801858D8F3F09F4158EF801868D8F3FC8
:1025C00009F4168E0F900FBEC701B5010E9490143A
:1025D0008823F9F40FB6F8940F92F801828D0F90CA
:1025E0000FBE882381F46C817D81C6010E9487150E
:1025F000C8010E9416120E94C015882309F07ECFE0
:102600000E9496197BCFC8010E9416120E94C01525
:1026100075CFC8010E9416120E94C01580E00F906D
:102620000F900F900F900F90CF91DF911F910F910E
:10263000FF90EF90DF90CF90BF90AF909F908F90E2
:102640007F9008957F928F929F92AF92BF92CF9288
:10265000DF92EF92FF920F931F93DF93CF9300D0FF
:1026600000D00F92CDB7DEB78C016B015D834C8338
:10267000722E48E0E42EF12CE80EF91E20E05E01F7
:102680000894A11CB11C34E0832E912C8C0E9D1E4D
:1026900001C021E00FB6F8940F92F801928D838D5E
:1026A0009817A8F4C801B601472D0E94AD11F80192
:1026B0008189882341F0C80141960E94CE1481305F
:1026C00011F40E9496190F900FBE81E04CC08C81CE
:1026D0009D81892B19F40F900FBE44C0222319F459
:1026E000C5010E9485140F900FBE0E9429140FB6D9
:1026F000F8940F92F801858D8F3F09F4158EF8013B
:10270000868D8F3F09F4168E0F900FBEC501B40160
:102710000E949014882309F50FB6F8940F92F801DF
:10272000928D0F900FBEF801838D981781F46C8104
:102730007D81C7010E948715C8010E9416120E9460
:10274000C015882309F0A5CF0E949619A2CFC80111
:102750000E9416120E94C0159CCFC8010E9416123A
:102760000E94C01580E00F900F900F900F900F9077
:10277000CF91DF911F910F91FF90EF90DF90CF905D
:10278000BF90AF909F908F907F9008958F929F926F
:10279000AF92BF92CF92DF92EF92FF920F931F936F
:1027A000CF93DF93982E862E882309F442C08FE1C1
:1027B00090E00E94C91B8C01EC010097E1F1C92C4B
:1027C000DD24A82CBB24AC9C7001AD9CF00CBC9CFF
:1027D000F00C1124C70101960E94C91B9C0199832A
:1027E0008883009719F1E80EF91EFB82EA821A8E9F
:1027F0009D838C830894C108D108CA9CC001CB9CDE
:10280000900DDA9C900D1124280F391F3F832E83E1
:102810009B8E8C8E8FEF8D8F8E8FC80108960E94B5
:10282000AA10C80141960E94AA1005C0C8010E94C2
:10283000B91BC0E0D0E0CE01DF91CF911F910F9185
:10284000FF90EF90DF90CF90BF90AF909F908F90D0
:102850000895809123038F5F8093230308950FB61B
:10286000F8940F9220912103309122030F900FBE14
:10287000C90108952091210330912203C9010895CF
:1028800080912603089580912303882351F081E0ED
:1028900080931F0308958091240381508093240323
:1028A00001C099E0E0912403E99FF0011124E55D66
:1028B000FC4F8081882379F39091240389E0989FCD
:1028C000D0011124A55DBC4F1196ED91FC9112979A
:1028D0000280F381E02D1296FC93EE931197CD01C7
:1028E0000396E817F90731F48281938112969C933D
:1028F0008E9311971196ED91FC9112978681978195
:1029000090931E0380931D030895FC018091200382
:102910008083809121039091220392838183089583
:10292000FC01DB010FB6F8940F9290912003808197
:10293000981749F0209121033091220381819281DF
:102940002817390718F580912103909122032181DE
:1029500032814D915C911197821B930B84179507DF
:10296000A8F48091210390912203281B390B240F96
:10297000351F2D933C938091200380838091210308
:10298000909122039283818380E001C081E00F90C7
:102990000FBE089581E080931F0308950F931F9346
:1029A000CF93DF93FC018081882319F4C0E0D0E04D
:1029B00005C00580F681E02DC681D7818E01045FB8
:1029C0001F4FC8010E941C11809123038823A1F48A
:1029D0008E010E5F1F4FC8010E941C119E898091BD
:1029E0002403891710F49093240389E0989FC00171
:1029F0001124855D9C4F02C085E693E0B8010E94DA
:102A0000BE10E0911D03F0911E0320E09E8986898F
:102A1000981708F021E0822FDF91CF911F910F913D
:102A20000895FF920F931F93CF93DF938091230319
:102A3000882309F061C080912103909122030196BF
:102A4000909322038093210380912103909122038C
:102A5000892BE9F5809161039091620320916303D2
:102A60003091640330936203209361039093640375
:102A700080936303809120038F5F8093200327C09E
:102A800020912103309122038A819B8128173907E5
:102A9000C0F18E010E5F1F4FC8010E941C118C896E
:102AA0009D89892B21F0CE010C960E941C119E89D4
:102AB00080912403891710F4909324039F9DC001F3
:102AC0001124855D9C4FB8010E94BE1002C089E0B0
:102AD000F82EE0916103F09162038081882389F0F0
:102AE000E0916103F09162030580F681E02DC681DB
:102AF000D781209729F605C0809125038F5F8093A9
:102B00002503DF91CF911F910F91FF9008950F93AF
:102B10001F938B0160911D0370911E03645F7F4FB3
:102B20000E94E71080911D0390911E0302960E945F
:102B30001C118091210390912203800F911FE0913D
:102B40001D03F0911E039383828320912103309112
:102B500022038217930728F4809163039091640302
:102B600004C0809161039091620360911D03709194
:102B70001E036E5F7F4F0E94E7101F910F91089513
:102B8000CF92DF92FF920F931F93DF93CF930F9219
:102B9000CDB7DEB70FB6F8940F9280912303815022
:102BA0008093230380912303882309F05BC08091E5
:102BB0002603882309F456C0198299E0F92E27C00C
:102BC000C6010C960E941C1186010E5F1F4FC801A2
:102BD0000E941C11D60156969C918091240389175E
:102BE00010F4909324039F9DC0011124855D9C4F98
:102BF000B8010E94BE10E0911D03F0911E03D601A2
:102C000056969C918689981710F0B1E0B98380910F
:102C10006503882349F0E0916A03F0916B03C68055
:102C2000D780C114D10461F680912503882341F433
:102C30000CC00E94111580912503815080932503BB
:102C4000809125038823A9F707C0E981E13021F0AD
:102C500080911F03813031F410921F030E94961956
:102C600081E001C080E00F900FBE0F90CF91DF9107
:102C70001F910F91FF90DF90CF9008950F931F93B6
:102C80009C010097A1F1809123038F5F8093230320
:102C90000091210310912203020F131F80911D0345
:102CA00090911E0302960E941C11E0911D03F09169
:102CB0001E0313830283809121039091220308173E
:102CC000190728F4809163039091640304C08091F4
:102CD00061039091620360911D0370911E036E5F0A
:102CE0007F4F0E94E7100E94C015882311F40E94B4
:102CF00096191F910F910895CF93DF93FC01EB017B
:102D0000809123038F5F8093230320813181C20F41
:102D1000D31F80912103909122038217930728F4F7
:102D2000C217D30728F020E00CC0C217D30740F029
:102D3000809121039091220320E08C179D0708F4D5
:102D400021E0D183C083222329F180911D0390913A
:102D50001E0302960E941C11E0911D03F0911E03B8
:102D6000D383C2838091210390912203C817D9078E
:102D700028F4809163039091640304C080916103FF
:102D80009091620360911D0370911E036E5F7F4FEF
:102D90000E94E7100E94C015882311F40E94961922
:102DA000DF91CF910895EF92FF920F931F93CF93EE
:102DB000DF938C010FB6F8940F9280911D039091D0
:102DC0001E030817190719F400E010E003C00115ED
:102DD000110529F4C0911D03D0911E0301C0E80123
:102DE00022E0E22EF12CEC0EFD1EC7010E941C1108
:102DF0008C899D89892B21F0CE010C960E941C1193
:102E00008EE693E0B7010E94BE10809128038F5F89
:102E100080932803809129038F5F809329030F906B
:102E20000FBE80912703882321F0012B11F40E940B
:102E30009619DF91CF911F910F91FF90EF90089518
:102E4000F894109227030E94371908951F93CF9387
:102E5000DF9380912803882391F1809123038F5F72
:102E60008093230310916E030E94C015112339F142
:102E70000FB6F8940F9280916E03882319F4C0E086
:102E8000D0E006C0E0917303F0917403C681D7814E
:102E9000CE0102960E941C118091260381508093DE
:102EA0002603809128038150809328030F900FBE42
:102EB0008F89988D0E94B91BCE010E94B91B809109
:102EC0002B03823030F20E949619C3CF2F923F928B
:102ED0005F926F927F928F929F92AF92BF92CF92AA
:102EE000DF92EF92FF920F931F93DF93CF9300D067
:102EF00000D0CDB7DEB79A8389834B015A011901FF
:102F0000502E370181E290E00E94C91B8B839C8385
:102F10008B819C81892B89F0C114D10421F4C501D6
:102F20000E94C91B6C01EB81FC81D08EC78AC11441
:102F3000D10429F4CF010E94B91B8FEFD5C0C6017F
:102F400065EA70E0A5010E94A92D0894A108B108C6
:102F5000EB81FC81E788F08CEA0CFB1CCF014996E1
:102F6000B40148E050E00E94B02DEB81FC8110A23A
:102F7000052DF3E0F51508F403E0EB81FC81068BE9
:102F800042E0C42ED12CCE0EDF1EC6010E94BA1024
:102F90008B819C810C960E94BA108B819C81FC01D4
:102FA0009187808784E090E0801B910995878487D2
:102FB000F38BE28BC70169817A81A1010E94B51868
:102FC000EB81FC81918380836114710421F0CF0136
:102FD000F301918380830FB6F8940F9280912603BA
:102FE0008F5F8093260380911D0390911E03892B90
:102FF000B9F5EB81FC81F0931E03E0931D038091F2
:1030000026038130F1F58BE293E00E94AA1084E35D
:1030100093E00E94AA108DE393E00E94AA1086E438
:1030200093E00E94AA103FE4E32E33E0F32EC701A1
:103030000E94AA1008E513E0C8010E94AA1085E6C4
:1030400093E00E94AA108EE693E00E94AA10F092EC
:103050006203E0926103109364030093630311C061
:1030600080912703882369F4E0911D03F0911E03EA
:103070008689581630F08B819C8190931E03809333
:103080001D03EB81FC81968980912A03891710F436
:1030900090932A03809129038F5F80932903EB810A
:1030A000FC81968980912403891710F4909324035E
:1030B000EB81FC81868929E0829FC0011124855D16
:1030C0009C4FB6010E94BE100F900FBE8091270347
:1030D000882349F0E0911D03F0911E038689851530
:1030E00010F40E94961981E00F900F900F900F90AE
:1030F000CF91DF911F910F91FF90EF90DF90CF90D4
:10310000BF90AF909F908F907F906F905F903F9017
:103110002F900895AF92BF92CF92DF92EF92FF92DD
:103120000F9386E297E167EA72E045E550E020E020
:1031300030E000E0EE24FF24CC24DD24AA24BB24CC
:103140000E946617813049F4F89480932703109207
:103150002203109221030E94FD180F91FF90EF901F
:10316000DF90CF90BF90AF900895FC0191E19083E4
:1031700022E2229383E3829362937293129280E815
:103180008293129282E0829383E0829384E082931E
:1031900085E0829386E0829387E0829388E0829341
:1031A00089E0829380E18293929382E1829383E12A
:1031B000829384E1829385E1829386E1829387E121
:1031C000829388E1829389E1829380E2829381E213
:1031D0008293229383E282934293529386E2829374
:1031E00087E2829388E2829389E2829380E38293EA
:1031F00081E382933197CF0108951092890089EF7E
:10320000809388008BE080938100EFE6F0E080817E
:1032100082608083A0911D03B0911E03CD91CDBF2C
:10322000DD91DEBFFF91EF91DF91CF91BF91AF9123
:103230009F918F917F916F915F914F913F912F91CE
:103240001F910F91FF90EF90DF90CF90BF90AF90C4
:103250009F908F907F906F905F904F903F902F90B6
:103260001F900F900FBE0F90089581E0089508956C
:103270000F920FB6F8940F921F9211242F923F9243
:103280004F925F926F927F928F929F92AF92BF9276
:10329000CF92DF92EF92FF920F931F932F933F9362
:1032A0004F935F936F937F938F939F93AF93BF934E
:1032B000CF93DF93EF93FF93A0911D03B0911E0373
:1032C0000DB60D920EB60D920E9411150E94431478
:1032D000A0911D03B0911E03CD91CDBFDD91DEBF46
:1032E000FF91EF91DF91CF91BF91AF919F918F911E
:1032F0007F916F915F914F913F912F911F910F910E
:10330000FF90EF90DF90CF90BF90AF909F908F9005
:103310007F906F905F904F903F902F901F900F90F5
:103320000FBE0F9008950E94381918950F920FB68E
:10333000F8940F921F9211242F923F924F925F9216
:103340006F927F928F929F92AF92BF92CF92DF92B5
:10335000EF92FF920F931F932F933F934F935F939F
:103360006F937F938F939F93AF93BF93CF93DF938D
:10337000EF93FF93A0911D03B0911E030DB60D9224
:103380000EB60D920E944314A0911D03B0911E032E
:10339000CD91CDBFDD91DEBFFF91EF91DF91CF9158
:1033A000BF91AF919F918F917F916F915F914F915D
:1033B0003F912F911F910F91FF90EF90DF90CF9051
:1033C000BF90AF909F908F907F906F905F904F9045
:1033D0003F902F901F900F900FBE0F9008950F9366
:1033E0001F93CF93DF93FC018081882319F4C0E001
:1033F000D0E005C00580F681E02DC681D7818E0121
:10340000045F1F4FC8010E941C1188EA93E0B801B5
:103410000E94BE1020E0E0917703F09178039E892E
:103420008689981708F021E0822FDF91CF911F91B4
:103430000F910895FF920F931F93CF93DF9399E01D
:10344000F92E28C0F8948091A803882319F4C0E0CD
:10345000D0E006C0E091AD03F091AE03C681D78104
:10346000CE010C960E941C1178948E010E5F1F4FA6
:10347000C8010E941C119E8980917903891710F45C
:10348000909379039F9DC001112480589C4FB801EF
:103490000E94BE108091A8038823A1F60E942F14D9
:1034A00020917A0330917B03821B930B90937D03D1
:1034B00080937C0389E0F82E54C0019690937F039B
:1034C00080937E032150304030937D0320937C0312
:1034D000892BC9F52091A4033091A5038091A603FF
:1034E0009091A7039093A5038093A4033093A7031F
:1034F0002093A60328C020917E0330917F038A8108
:103500009B812817390768F1F8948E010E5F1F4FD1
:10351000C8010E941C118C899D89892B21F0CE0144
:103520000C960E941C1178949E89809179038917CA
:1035300010F4909379039F9DC001112480589C4FF3
:10354000B8010E94BE10E091A403F091A503808110
:10355000882339F00580F681E02DC681D781209738
:1035600051F620917C0330917D0380917E039091F0
:103570007F032115310509F0A0CF90937B03809341
:103580007A039091790329E006C0992319F41092E7
:10359000790332C09150929FD0011124A058BC4FA2
:1035A0008C91882391F3909379031196ED91FC917E
:1035B00012970280F381E02D1296FC93EE931197FF
:1035C000CD010396E817F90731F4828193811296B1
:1035D0009C938E9311971196ED91FC911297068012
:1035E000F781E02DF0937803E09377032081318118
:1035F000CF016789F9010995DF91CF911F910F9153
:10360000FF9008950F931F93CF93DF93EB010091E9
:103610007E0310917F03080F191F8091770390910B
:10362000780302960E941C11E0917703F0917803D1
:103630001383028380917E0390917F03BF016E5FAD
:103640007F4F0817190728F48091A6039091A703CC
:1036500004C08091A4039091A5030E94E7102097D5
:1036600049F06091770370917803645F7F4FCE01DA
:103670000E94E710DF91CF911F910F910895AF92B3
:10368000BF92CF92DF92EF92FF920F931F93CF934F
:10369000DF936C01B62EA42E8AE190E00E94C91B34
:1036A000EC01009711F48FEF59C08091770390914E
:1036B0007803892B21F5D0937803C093770380E8B2
:1036C00093E00E94AA1089E893E00E94AA1022E9E0
:1036D000E22E23E0F22EC7010E94AA100BE913E0AC
:1036E000C8010E94AA1088EA93E00E94AA10F092F2
:1036F000A503E092A4031093A7030093A603EB2C69
:10370000BB2011F0EE24E394198E188EEE8AAF8A56
:10371000FE01C192D1928F01CF010E94BA10CE0159
:103720000C960E94BA10D987C887DB8BCA8B84E0BD
:1037300090E08E1991099D878C879E8980917903ED
:10374000891710F49093790389E0989FC0011124A0
:1037500080589C4FB8010E94BE1081E0DF91CF914C
:103760001F910F91FF90EF90DF90CF90BF90AF909F
:10377000089508951092B2031092B103089528EBB2
:103780003BE08091B1039091B203281B390BC90132
:1037900008950F931F93CF93DF938C010E942914F8
:1037A0008091B1039091B2039801280F391F4BE02B
:1037B000283B340758F48217930740F4EC01CD54AA
:1037C000DC4F3093B2032093B10302C0C0E0D0E0DD
:1037D0000E94C015CE01DF91CF911F910F910895E6
:1037E000E82FF0E0E770F070EE0FFF1FE256FE4F9B
:1037F00025913491C9010895E82FF0E0E770F07049
:10380000EE0FFF1FE655FE4F25913491C901089533
:1038100085B5E82FF0E0E770F070EE0FFF1FE2567D
:10382000FE4F25913491C901089580918100E82FC0
:10383000F0E0E770F070EE0FFF1FE256FE4F2591AB
:103840003491C90108958091B100E82FF0E0E7704C
:10385000F070EE0FFF1FE655FE4F25913491C90120
:10386000089580919100E82FF0E0E770F070EE0F7E
:10387000FF1FE256FE4F25913491C90108958091B2
:10388000A100E82FF0E0E770F070EE0FFF1FE256A6
:10389000FE4F25913491C901089580912101E82FAF
:1038A000F0E0E770F070EE0FFF1FE256FE4F25913B
:1038B0003491C901089520915212309153124091D0
:1038C000541250915512B901CA01089520914E1217
:1038D00030914F124091501250915112B901CA01CA
:1038E00008952091561230915712409158125091DC
:1038F0005912B901CA01089520915E1230915F12E8
:103900004091601250916112B901CA01089520914D
:103910004A1230914B1240914C1250914D12B90104
:10392000CA0108952091621230916312409164128D
:1039300050916512B901CA01089586B50895209184
:10394000840030918500C90108958091B2000895E6
:103950002091940030919500C90108952091A40010
:103960003091A500C90108952091240130912501CD
:10397000C9010895109252121092531210925412CB
:103980001092551216BC089510924E1210924F12BA
:1039900010925012109251121092850010928400D1
:1039A00008951092561210925712109258121092B7
:1039B00059121092B200089510925E1210925F1286
:1039C0001092601210926112109295001092940061
:1039D000089510924A1210924B1210924C121092AB
:1039E0004D121092A5001092A40008951092621238
:1039F00010926312109264121092651210922501B7
:103A0000109224010895089585BD81E080936E0091
:103A10001092521210925312109254121092551288
:103A200016BC08958093810081E080936F0010920E
:103A30004E1210924F121092501210925112109278
:103A400085001092840008958093B10081E08093F6
:103A50007000109256121092571210925812109233
:103A600059121092B20008958093910081E08093E2
:103A7000710010925E1210925F12109260121092FA
:103A80006112109295001092940008958093A10005
:103A900081E08093720010924A1210924B121092A1
:103AA0004C1210924D121092A5001092A40008958D
:103AB0008093210181E08093730010926212109232
:103AC00063121092641210926512109225011092E6
:103AD00024010895E82FF0E0EE0FFF1FE559F04FA5
:103AE000718360830895E82FF0E0EE0FFF1FE55922
:103AF000F04F1182108208950197F1F70895AF9267
:103B0000BF92CF92DF92EF92FF920F931F93A0E0AC
:103B1000B0E0BC01CD010E94C12E5B016C0120E030
:103B200030E04AE755E40E94772F7B018C0120E0CA
:103B300030E040E85FE30E94242E88231CF461E01B
:103B400070E024C0C801B70120E03FEF4FE757E421
:103B50000E94732F1816B4F4C601B50120E030E0BE
:103B600040E251E40E94772F0E94952E80E991E077
:103B700005C0FC013197F1F7615070406115710586
:103B8000C1F707C0C801B7010E94952ECB0101976C
:103B9000F1F71F910F91FF90EF90DF90CF90BF90C2
:103BA000AF9008951F920F920FB60F9211242F938A
:103BB0003F934F935F936F937F938F939F93AF93B5
:103BC000BF93EF93FF938091521290915312A09163
:103BD0005412B09155120196A11DB11D809352123D
:103BE00090935312A0935412B093551280915A128D
:103BF00090915B12A0915C12B0915D120196A11D93
:103C0000B11D80935A1290935B12A0935C12B093F3
:103C10005D1280916F0F9091700F892B29F0E091C8
:103C20006F0FF091700F0995FF91EF91BF91AF91D8
:103C30009F918F917F916F915F914F913F912F91C4
:103C40000F900FBE0F901F9018951F920F920FB6F6
:103C50000F9211242F933F934F935F936F937F9312
:103C60008F939F93AF93BF93EF93FF9380914E12E7
:103C700090914F12A0915012B09151120196A11D36
:103C8000B11D80934E1290934F12A0935012B09397
:103C900051128091790F90917A0F892B29F0E09140
:103CA000790FF0917A0F0995FF91EF91BF91AF9144
:103CB0009F918F917F916F915F914F913F912F9144
:103CC0000F900FBE0F901F9018951F920F920FB676
:103CD0000F9211242F933F934F935F936F937F9392
:103CE0008F939F93AF93BF93EF93FF93809156125F
:103CF00090915712A0915812B09159120196A11D9E
:103D0000B11D8093561290935712A0935812B093FE
:103D1000591280917F0F9091800F892B29F0E091AB
:103D20007F0FF091800F0995FF91EF91BF91AF91B7
:103D30009F918F917F916F915F914F913F912F91C3
:103D40000F900FBE0F901F9018951F920F920FB6F5
:103D50000F9211242F933F934F935F936F937F9311
:103D60008F939F93AF93BF93EF93FF9380915E12D6
:103D700090915F12A0916012B09161120196A11D05
:103D8000B11D80935E1290935F12A0936012B09366
:103D900061128091890F90918A0F892B29F0E0910F
:103DA000890FF0918A0F0995FF91EF91BF91AF9123
:103DB0009F918F917F916F915F914F913F912F9143
:103DC0000F900FBE0F901F9018951F920F920FB675
:103DD0000F9211242F933F934F935F936F937F9391
:103DE0008F939F93AF93BF93EF93FF9380914A126A
:103DF00090914B12A0914C12B0914D120196A11DC1
:103E0000B11D80934A1290934B12A0934C12B09321
:103E10004D128091930F9091940F892B29F0E0918E
:103E2000930FF091940F0995FF91EF91BF91AF918E
:103E30009F918F917F916F915F914F913F912F91C2
:103E40000F900FBE0F901F9018951F920F920FB6F4
:103E50000F9211242F933F934F935F936F937F9310
:103E60008F939F93AF93BF93EF93FF9380916212D1
:103E700090916312A0916412B09165120196A11DF8
:103E8000B11D8093621290936312A0936412B09359
:103E9000651280919D0F90919E0F892B29F0E091E2
:103EA0009D0FF0919E0F0995FF91EF91BF91AF91FA
:103EB0009F918F917F916F915F914F913F912F9142
:103EC0000F900FBE0F901F9018951F920F920FB674
:103ED0000F9211242F933F934F935F936F937F9390
:103EE0008F939F93AF93BF93EF93FF9380916B0F4B
:103EF00090916C0F892B29F0E0916B0FF0916C0F72
:103F00000995FF91EF91BF91AF919F918F917F9113
:103F10006F915F914F913F912F910F900FBE0F9036
:103F20001F9018951F920F920FB60F9211242F9386
:103F30003F934F935F936F937F938F939F93AF9331
:103F4000BF93EF93FF9380916D0F90916E0F892B2C
:103F500029F0E0916D0FF0916E0F0995FF91EF91AF
:103F6000BF91AF919F918F917F916F915F914F9191
:103F70003F912F910F900FBE0F901F9018951F9299
:103F80000F920FB60F9211242F933F934F935F938D
:103F90006F937F938F939F93AF93BF93EF93FF9311
:103FA0008091710F9091720F892B29F0E091710F20
:103FB000F091720F0995FF91EF91BF91AF919F9191
:103FC0008F917F916F915F914F913F912F910F90C2
:103FD0000FBE0F901F9018951F920F920FB60F9261
:103FE00011242F933F934F935F936F937F938F93FE
:103FF0009F93AF93BF93EF93FF938091750F909131
:10400000760F892B29F0E091750FF091760F0995C5
:10401000FF91EF91BF91AF919F918F917F916F91A0
:104020005F914F913F912F910F900FBE0F901F9076
:1040300018951F920F920FB60F9211242F933F9352
:104040004F935F936F937F938F939F93AF93BF93A0
:10405000EF93FF938091770F9091780F892B29F040
:10406000E091770FF091780F0995FF91EF91BF9153
:10407000AF919F918F917F916F915F914F913F9100
:104080002F910F900FBE0F901F9018951F920F92B7
:104090000FB60F9211242F933F934F935F936F931B
:1040A0007F938F939F93AF93BF93EF93FF938091F1
:1040B0007B0F90917C0F892B29F0E0917B0FF09181
:1040C0007C0F0995FF91EF91BF91AF919F918F91D7
:1040D0007F916F915F914F913F912F910F900FBE04
:1040E0000F901F9018951F920F920FB60F921124E8
:1040F0002F933F934F935F936F937F938F939F93F0
:10410000AF93BF93EF93FF9380917D0F90917E0FBC
:10411000892B29F0E0917D0FF0917E0F0995FF9199
:10412000EF91BF91AF919F918F917F916F915F912F
:104130004F913F912F910F900FBE0F901F901895A8
:104140001F920F920FB60F9211242F933F934F930C
:104150005F936F937F938F939F93AF93BF93EF93EF
:10416000FF938091810F9091820F892B29F0E0912C
:10417000810FF091820F0995FF91EF91BF91AF915F
:104180009F918F917F916F915F914F913F912F916F
:104190000F900FBE0F901F9018951F920F920FB6A1
:1041A0000F9211242F933F934F935F936F937F93BD
:1041B0008F939F93AF93BF93EF93FF938091830F60
:1041C0009091840F892B29F0E091830FF091840F57
:1041D0000995FF91EF91BF91AF919F918F917F9141
:1041E0006F915F914F913F912F910F900FBE0F9064
:1041F0001F9018951F920F920FB60F9211242F93B4
:104200003F934F935F936F937F938F939F93AF935E
:10421000BF93EF93FF938091850F9091860F892B29
:1042200029F0E091850FF091860F0995FF91EF91AC
:10423000BF91AF919F918F917F916F915F914F91BE
:104240003F912F910F900FBE0F901F9018951F92C6
:104250000F920FB60F9211242F933F934F935F93BA
:104260006F937F938F939F93AF93BF93EF93FF933E
:104270008091870F9091880F892B29F0E091870F0B
:10428000F091880F0995FF91EF91BF91AF919F91A8
:104290008F917F916F915F914F913F912F910F90EF
:1042A0000FBE0F901F9018951F920F920FB60F928E
:1042B00011242F933F934F935F936F937F938F932B
:1042C0009F93AF93BF93EF93FF9380918B0F909148
:1042D0008C0F892B29F0E0918B0FF0918C0F0995B1
:1042E000FF91EF91BF91AF919F918F917F916F91CE
:1042F0005F914F913F912F910F900FBE0F901F90A4
:1043000018951F920F920FB60F9211242F933F937F
:104310004F935F936F937F938F939F93AF93BF93CD
:10432000EF93FF9380918D0F90918E0F892B29F041
:10433000E0918D0FF0918E0F0995FF91EF91BF9154
:10434000AF919F918F917F916F915F914F913F912D
:104350002F910F900FBE0F901F9018951F920F92E4
:104360000FB60F9211242F933F934F935F936F9348
:104370007F938F939F93AF93BF93EF93FF9380911E
:104380008F0F9091900F892B29F0E0918F0FF09172
:10439000900F0995FF91EF91BF91AF919F918F91F0
:1043A0007F916F915F914F913F912F910F900FBE31
:1043B0000F901F9018951F920F920FB60F92112415
:1043C0002F933F934F935F936F937F938F939F931D
:1043D000AF93BF93EF93FF938091910F9091920FC2
:1043E000892B29F0E091910FF091920F0995FF919F
:1043F000EF91BF91AF919F918F917F916F915F915D
:104400004F913F912F910F900FBE0F901F901895D5
:104410001F920F920FB60F9211242F933F934F9339
:104420005F936F937F938F939F93AF93BF93EF931C
:10443000FF938091950F9091960F892B29F0E09131
:10444000950FF091960F0995FF91EF91BF91AF9164
:104450009F918F917F916F915F914F913F912F919C
:104460000F900FBE0F901F9018951F920F920FB6CE
:104470000F9211242F933F934F935F936F937F93EA
:104480008F939F93AF93BF93EF93FF938091970F79
:104490009091980F892B29F0E091970FF091980F48
:1044A0000995FF91EF91BF91AF919F918F917F916E
:1044B0006F915F914F913F912F910F900FBE0F9091
:1044C0001F9018951F920F920FB60F9211242F93E1
:1044D0003F934F935F936F937F938F939F93AF938C
:1044E000BF93EF93FF938091990F90919A0F892B2F
:1044F00029F0E091990FF0919A0F0995FF91EF91B2
:10450000BF91AF919F918F917F916F915F914F91EB
:104510003F912F910F900FBE0F901F9018951F92F3
:104520000F920FB60F9211242F933F934F935F93E7
:104530006F937F938F939F93AF93BF93EF93FF936B
:1045400080919B0F90919C0F892B29F0E0919B0FFC
:10455000F0919C0F0995FF91EF91BF91AF919F91C1
:104560008F917F916F915F914F913F912F910F901C
:104570000FBE0F901F9018951F920F920FB60F92BB
:1045800011242F933F934F935F936F937F938F9358
:104590009F93AF93BF93EF93FF9300D00F9281E06F
:1045A000EDB7FEB781838AEB91E0938382830E940B
:1045B000862A0F900F900F90FF91EF91BF91AF91CE
:1045C0009F918F917F916F915F914F913F912F912B
:1045D0000F900FBE0F901F901895843040F4E82F75
:1045E000F0E0EE0FFF1FE152FE4E718360830895ED
:1045F0001F93182F9A01AB01CA01B90160587B477C
:10460000814E9F4FF3E0660F771F881F991FFA9521
:10461000D1F7E4E0220F331F441F551FEA95D1F76D
:104620000E94203021503040133029F4209334016F
:104630003093350112C0123029F42093D400309306
:10464000D5000BC0113029F42093CC003093CD005D
:1046500004C02093C4003093C5001F910895282FF3
:1046600030E0A3E0220F331FAA95E1F726593D4E13
:10467000C9010895282F30E0B3E0220F331FBA9507
:10468000E1F722573D4EC9010895E82F833039F4F0
:104690008091300185FFFCCF6093360118C08230D5
:1046A00039F48091D00085FFFCCF6093D6000FC015
:1046B000813039F48091C80085FFFCCF6093CE0033
:1046C00006C08091C00085FFFCCF6093C600F0E07B
:1046D000EA59FD4E10820895682F80E00E9445231C
:1046E0000895682F81E00E9445230895682F82E095
:1046F0000E9445230895682F83E00E944523089572
:1047000020E0E82FF0E083E0EE0FFF1F8A95E1F74D
:10471000E259FD4E80819181892B09F421E0822F9D
:104720000895CF93DF93833019F4609136010CC064
:10473000823019F46091D60007C0813019F460917D
:10474000CE0002C06091C600282F30E0E901CC0FF6
:10475000DD1FFE01E152FE4E80819181892B31F0F7
:104760000190F081E02D862F099514C093E0220F6F
:10477000331F9A95E1F7C90186599D4E0E949D27E6
:10478000882341F4FE01E255FD4E8081918101961E
:1047900091838083DF91CF9108951F920F920FB67E
:1047A0000F9211242F933F934F935F936F937F93B7
:1047B0008F939F93AF93BF93EF93FF9383E00E94F8
:1047C0009123FF91EF91BF91AF919F918F917F9135
:1047D0006F915F914F913F912F910F900FBE0F906E
:1047E0001F9018951F920F920FB60F9211242F93BE
:1047F0003F934F935F936F937F938F939F93AF9369
:10480000BF93EF93FF9382E00E949123FF91EF917A
:10481000BF91AF919F918F917F916F915F914F91D8
:104820003F912F910F900FBE0F901F9018951F92E0
:104830000F920FB60F9211242F933F934F935F93D4
:104840006F937F938F939F93AF93BF93EF93FF9358
:1048500081E00E949123FF91EF91BF91AF919F91D1
:104860008F917F916F915F914F913F912F910F9019
:104870000FBE0F901F9018951F920F920FB60F92B8
:1048800011242F933F934F935F936F937F938F9355
:104890009F93AF93BF93EF93FF9380E00E94912388
:1048A000FF91EF91BF91AF919F918F917F916F9108
:1048B0005F914F913F912F910F900FBE0F901F90DE
:1048C00018958F929F92AF92BF92CF92DF92EF9204
:1048D000FF920F931F93CF93DF93882EDB01C82E97
:1048E000DD24F60113E0EE0FFF1F1A95E1F7EE56F7
:1048F000FD4E20813181240F351FF60173E0EE0F4C
:10490000FF1F7A95E1F7E057FD4E808191812817CE
:10491000390770F54115510559F19C90760163E016
:10492000EE0CFF1C6A95E1F78EE892E1E80EF91EA5
:104930008D01C0E0D0E05A010894A108B10806C07A
:10494000C701F80160810E949D2721960F5F1F4FCC
:10495000CA15DB05A8F38AE892E1C80ED91E8FEFCD
:10496000F6018083882D692D0E9445238FEF01C0B9
:1049700080E0DF91CF911F910F91FF90EF90DF903A
:10498000CF90BF90AF909F908F90089590E023E0DC
:10499000880F991F2A95E1F782579D4E0E949D2707
:1049A0000895682F86EA92E10E949D270895682F56
:1049B0008EE992E10E949D270895682F86E992E191
:1049C0000E949D270895682F8EE892E10E949D27FE
:1049D0000895CF93DF93282FA82FB0E0ED01C6579D
:1049E000DD4E8881882379F1FD0133E0EE0FFF1F52
:1049F0003A95E1F7EE56FD4E80819181892B11F1B8
:104A0000233039F486EA92E10E94342780933601FC
:104A10001EC0223039F48EE992E10E94342780933F
:104A2000D60015C0213039F486E992E10E9434277E
:104A30008093CE000CC08EE892E10E9434278093D0
:104A4000C60005C01882AA59BD4E8FEF8C93DF9126
:104A5000CF9108951F920F920FB60F9211242F93AA
:104A60003F934F935F936F937F938F939F93AF93F6
:104A7000BF93EF93FF9383E00E94E924FF91EF91AE
:104A8000BF91AF919F918F917F916F915F914F9166
:104A90003F912F910F900FBE0F901F9018951F926E
:104AA0000F920FB60F9211242F933F934F935F9362
:104AB0006F937F938F939F93AF93BF93EF93FF93E6
:104AC00082E00E94E924FF91EF91BF91AF919F9105
:104AD0008F917F916F915F914F913F912F910F90A7
:104AE0000FBE0F901F9018951F920F920FB60F9246
:104AF00011242F933F934F935F936F937F938F93E3
:104B00009F93AF93BF93EF93FF9381E00E94E924BB
:104B1000FF91EF91BF91AF919F918F917F916F9195
:104B20005F914F913F912F910F900FBE0F901F906B
:104B300018951F920F920FB60F9211242F933F9347
:104B40004F935F936F937F938F939F93AF93BF9395
:104B5000EF93FF9380E00E94E924FF91EF91BF91D2
:104B6000AF919F918F917F916F915F914F913F9105
:104B70002F910F900FBE0F901F9018951F93182F15
:104B800090E0FC01E657FD4E2FEF208343E0880FB5
:104B9000991F4A95E1F782579D4E0E943427682F4E
:104BA000812F0E9445231F910895CF93DF93EB013E
:104BB000282F30E0F90173E0EE0FFF1F7A95E1F73F
:104BC000E459FD4E80819181892BC9F0F90163E0A0
:104BD000EE0FFF1F6A95E1F7E259FD4E808191814A
:104BE000892B69F053E0220F331F5A95E1F7C90171
:104BF00086599D4E0E94342788838FEF01C080E044
:104C0000DF91CF910895DF93CF930F92CDB7DEB7A9
:104C100083E0BE016F5F7F4F0E94D525882319F482
:104C20002FEF3FEF03C08981282F30E0C9010F909B
:104C3000CF91DF910895DF93CF930F92CDB7DEB779
:104C400082E0BE016F5F7F4F0E94D525882319F453
:104C50002FEF3FEF03C08981282F30E0C9010F906B
:104C6000CF91DF910895DF93CF930F92CDB7DEB749
:104C700081E0BE016F5F7F4F0E94D525882319F424
:104C80002FEF3FEF03C08981282F30E0C9010F903B
:104C9000CF91DF910895DF93CF930F92CDB7DEB719
:104CA00080E0BE016F5F7F4F0E94D525882319F4F5
:104CB0002FEF3FEF03C08981282F30E0C9010F900B
:104CC000CF91DF91089590E0E3E0880F991FEA9576
:104CD000E1F786599D4E0E94D027089582E892E11F
:104CE0006FE471E140E850E00E94272786EA92E1F4
:104CF0006FEC71E140E150E00E94272708950E9487
:104D00006E261092E6111092E51188ED8093310124
:104D100083E040E855E260E070E00E94F8228FEF07
:104D20008093691210928D121092B5121092B412E3
:104D3000789408958AE792E16FEB70E140E850E0E3
:104D40000E9427278EE992E16FE371E140E150E094
:104D50000E94272708950E949A261092E41110922B
:104D6000E31188ED8093D10082E040E855E260E0F5
:104D700070E00E94F8228FEF8093681210928C12DC
:104D80001092B3121092B2127894089582E792E1D1
:104D90006FE270E140E850E00E94272786E992E147
:104DA0006FEA70E140E150E00E94272708950E94D9
:104DB000C6261092E2111092E11188ED8093C9008D
:104DC00081E040E855E260E070E00E94F8228FEF59
:104DD0008093671210928B121092B1121092B0123F
:104DE000789408958AE692E16FE97FE040E850E028
:104DF0000E9427278EE892E16FE170E140E150E0E8
:104E00000E94272708950E94F2261092E011109226
:104E1000DF1188ED8093C10080E040E855E260E05A
:104E200070E00E94F8228FEF8093661210928A122F
:104E30001092AF121092AE12789408950E94032738
:104E40000E94D7260E94AB260E947F260895FC016F
:104E50008FB7F894718360835383428317821682DD
:104E6000158214828FBF0895DC014FB7F894149611
:104E70008D919C911597892B11F4E0E025C0169631
:104E80008D919C911797ED91FC911197E80FF91F67
:104E9000E081019617969C938E93169712962D910A
:104EA0003C9113978217930730F0821B930B179650
:104EB0009C938E93169714968D919C9115970197BC
:104EC00015969C938E9314974FBF8E2F0895FC01D7
:104ED0004FB7F8948481958168177907B0F486817B
:104EE0009781860F971F978386832281338182174C
:104EF000930720F0821B930B97838683848195818F
:104F0000861B970B9583848302C0158214824FBF42
:104F10000895FC01CB012FB7F8942FBF268137816C
:104F200062817381820F931F0E94F92F0190F0819B
:104F3000E02DE80FF91F808108951F93CF93DF9331
:104F4000EC01162F4FB7F8942C813D816A817B814B
:104F50002617370798F48E819F81820F931F0E9436
:104F6000F92FE881F981E80FF91F10838C819D8169
:104F700001969D838C834FBF8FEF02C04FBF80E0AF
:104F8000DF91CF911F910895FC018FB7F8948FBFE7
:104F90002281338184819581281B390BC9010895B1
:104FA000FC018FB7F894158214828FBF0895AAE789
:104FB000B0E08C9180688C938C918F7D8C938C91D8
:104FC000887F86608C93ECE7F0E080818F7380644B
:104FD000808380818F7D80838C9188608C931092F8
:104FE000B61278940895EAE7F0E08081877F8083A5
:104FF00080818F7780830895EAE7F0E09081987F41
:10500000982B90830895ECE7F0E090818295880FCB
:10501000880F807C9F73982B90830895ECE7F0E0D5
:1050200090818F71907E892B80830895EAE7F0E06C
:1050300080818061808380818064808308958091F5
:105040007A0080740895982F1092B612883020F05C
:1050500080917B00886003C080917B00877F809374
:105060007B0080917C009770887F892B80937C00E7
:1050700080917A00806180937A0080917A008064C8
:1050800080937A0080917A0086FDFCCF2091780091
:1050900030917900C90108950E942328969587953B
:1050A0009695879508951F920F920FB60F9211242F
:1050B0008F938FEF8093B6128F910F900FBE0F904A
:1050C0001F9018959093E8118093E71108951F930E
:1050D000182F8A3031F4E091E711F091E8118DE05A
:1050E0000995E091E711F091E811812F09951F9141
:1050F0000895CF93DF93EC01009721F406C0219629
:105100000E94672888818823D1F7DF91CF91089585
:10511000EF92FF920F931F93CF93DF938C017A014D
:105120000097E9F020E030E02617370738F4F8015F
:1051300081918F012F5F3F4F8823B1F7C0E0D0E00E
:105140000BC0F8018081882319F00F5F1F4F01C049
:1051500080E20E9467282196CE15DF0590F3DF914B
:10516000CF911F910F91FF90EF900895CF93DF9310
:10517000EC01009719F407C00E946728FE012196F0
:1051800084918823C9F7DF91CF9108958AE00E9426
:1051900067280895E82FF0E0EF70F070E553FE4FB8
:1051A000E4918E2F0E94672808951F93182F8295EF
:1051B0008F700E94CA28812F0E94CA281F910895CB
:1051C0001F93182F892F0E94D528812F0E94D52840
:1051D0001F910895EF92FF920F931F937B018C0113
:1051E000C801AA27BB270E94E028C7010E94E02827
:1051F0001F910F91FF90EF9008952F923F924F9241
:105200005F926F927F928F929F92AF92BF92CF9256
:10521000DF92EF92FF920F931F93DF93CF93CDB75F
:10522000DEB7A3970FB6F894DEBF0FBECDBF6AA35B
:10523000242E2BA337014801442351F017FF08C047
:10524000EE24FF248701E618F7080809190902C0AF
:10525000840173012AA1215090E0211091E0291BC3
:1052600029A318A2A82EBB24CC24DD24C801B70191
:10527000A60195010E942030FB01EF70F070E5530C
:10528000FE4F64916F8FC801B701A60195010E947E
:105290002030C901DA017C018D019EE1492E512C9B
:1052A0004C0E5D1E39A025C0E114F1040105110565
:1052B000C9F0C801B701A60195010E942030FB0189
:1052C000EF70F070E553FE4F6491F2016083C80106
:1052D000B701A60195010E942030C901DA017C01C5
:1052E0008D0103C02BA1F20120833A940894410858
:1052F00051083320C9F6CE014F968C01E9A10E1B4F
:1053000011092220F1F097FE05C08DE2F801829389
:105310008F0117C0C80101976114710481049104C1
:1053200019F08C018BE202C08C0180E2F8018083CD
:1053300008C0F80181918F010E946728FAA1F150FD
:10534000FAA32AA12223A9F7A3960FB6F894DEBFE9
:105350000FBECDBFCF91DF911F910F91FF90EF90C6
:10536000DF90CF90BF90AF909F908F907F906F9085
:105370005F904F903F902F9008954F925F926F9261
:105380007F928F929F92AF92BF92CF92DF92EF92D5
:10539000FF920F931F93CF93DF93482E5A016B0117
:1053A000CB01BA0120E030E040E050E00E94732FD2
:1053B00018161CF43501460106C03501460197FA5E
:1053C000909497F890940F2EF0E0EF2EF0E0FF2EDF
:1053D000F0E80F2FFFE31F2FF02D5524C401B30178
:1053E000A80197010E94282E20E030E040E251E41D
:1053F0000E94242E87FD0EC0C801B70120E030E0D6
:1054000040E251E40E94772F7B018C0153948FE09E
:10541000581621F7C601B50120E030E040E050E029
:105420000E94242E882314F48DE201C08BE20E9496
:105430006728DD24AA2456C0C401B301A80197013E
:105440000E94282E0E94952EB62ED62ACD2DD0E071
:10545000CC24DD24C801B70120E030E040E85FE360
:105460000E94242E882319F421E0C22ED12CCC29AD
:10547000DD29CD2B39F08B2D805D0E946728DD243E
:10548000DA9404C080E20E946728DD24C801B701D5
:1054900020E030E040E85FE30E94242E882319F4E6
:1054A0008EE20E9467286B2D70E0882777FD80953B
:1054B000982F0E94C32EA80197010E94772F9B016D
:1054C000AC01C401B3010E94BF2D3B014C01C801D6
:1054D000B70120E030E040E251E40E94282E7B0139
:1054E0008C01A394A41408F4A7CFDF91CF911F914E
:1054F0000F91FF90EF90DF90CF90BF90AF909F9073
:105500008F907F906F905F904F9008957F928F92D1
:105510009F92AF92BF92CF92DF92EF92FF920F9342
:105520001F93DF93CF93CDB7DEB77888C988DA8829
:1055300063E1E62EF12CEC0EFD1E14C0882381F4ED
:1055400080E090E0CF91DF911F910F91FF90EF905D
:10555000DF90CF90BF90AF909F908F907F900895F5
:105560000E94672896012F5F3F4F772021F0F601B8
:105570006901849103C0F601808169018532F1F6E9
:105580002F5F3F4F772021F0F6016901849103C01E
:10559000F60180816901843629F0883781F08336ED
:1055A000F9F606C000E117E25AE0A52EB12C0CC0B6
:1055B000F701808122E030E0E20EF31ED1CF00E05F
:1055C00010E140E1A42EB12C32E0832E912C8E0C00
:1055D0009F1CF701E080F1808436B1F4F7FE11C022
:1055E000F094E194F108F3948DE20E94672809C0D9
:1055F000C8016AE070E00E94F92F8B0162307105EA
:1056000018F0E016F106A0F3C701B8010E94F92FC7
:10561000862F0E94CA28C701B8010E94F92F7C0179
:10562000C801B5010E94F92F8B016115710561F761
:10563000740198CF2091B9002E7F2093B90020915A
:10564000B9002D7F2093B9009C0140E050E060E854
:105650007EE380E090E00E944230203130F0822FE3
:1056600090E0409795958795282F2093B80008954E
:10567000589A599A1092301210922F121092321298
:105680001092311284E690E00E941A2BECEBF0E0CD
:105690008081846080831092E911808181608083A1
:1056A0008081806480837894089590E0611191E016
:1056B0008E7F982B9093BA00089590933012809328
:1056C0002F12089590933212809331120895ECEBCB
:1056D000F0E080818F70806A80830895ECEBF0E0C9
:1056E00080818F70806D808308958091BC0087FFDA
:1056F000FCCF08958093BB00ECEBF0E080818F70CD
:10570000806880830895882329F08091BC008F7081
:10571000806C04C08091BC008F7080688093BC0056
:1057200008958091BB0008958091B9000895982F45
:105730008091E9118823E1F782E08093E9119E7F4F
:105740009093EA11ABEEB1E1FA0102C081918D9321
:105750008E2F841B8617D0F310920B1260930C12BD
:105760008091BC008F70806A8093BC000895982F50
:105770008091E9118823E1F783E08093E91191603A
:105780009093EA1110922D1260932E128091BC001A
:105790008F70806A8093BC008091E9118823E1F7C3
:1057A000ADE0B2E1FA0102C08D9181938E2F841B8E
:1057B0008617D0F30895982FFA018091BC008E7F50
:1057C0008093BC008091BC008F70806A8093BC0085
:1057D0008091BC0087FFFCCF9E7F9093BB0080919F
:1057E000BC008F7080688093BC008091BC0087FFF4
:1057F000FCCF8091B900883189F091E012C080819E
:105800008093BB008091BC008F7080688093BC0047
:105810008091BC0087FFFCCF31966150662379F7F9
:1058200090E08091BC008F70806D8093BC0080916F
:10583000BC0084FFFCCF8091BC0081608093BC00E1
:10584000892F0895982FFA018091BC008E7F809354
:10585000BC008091BC008F70806A8093BC008091F6
:10586000BC0087FFFCCF91609093BB008091BC008F
:105870008F7080688093BC008091BC0087FFFCCF54
:105880008091B900803481F091E01EC08091BC000D
:105890008F70806C8093BC008091BC0087FFFCCF30
:1058A0008091BB0081936150623080F78091BC0091
:1058B0008F7080688093BC008091BC0087FFFCCF14
:1058C0008091BB00808390E08091BC008F70806DE0
:1058D0008093BC008091BC0081608093BC00892FC4
:1058E00008951F920F920FB60F9211242F933F939A
:1058F0004F935F936F937F938F939F93AF93BF93D8
:10590000EF93FF938091B900887F803609F4A0C09F
:10591000813670F5883209F45FC0893298F480319D
:1059200009F457C0813138F4882309F4EAC088307B
:1059300009F0EFC04EC0883109F44EC0803209F042
:10594000E8C0DFC0803409F477C0813438F4803394
:1059500009F4D7C0883309F0DCC05DC0803509F494
:105960005FC0883509F44AC0883409F0D2C0C9C084
:10597000883909F4BAC08939B0F4883709F468C0A5
:10598000893738F4883609F463C0803709F0C1C01C
:105990005FC0883809F4A9C0803909F45FC0803835
:1059A00009F0B7C05BC0803B09F479C0813B38F493
:1059B000803A09F462C0883A09F0ABC070C0803CFC
:1059C00009F49AC0883C09F497C0883B09F0A1C04B
:1059D00077C08091EA110FC090910B1280910C1248
:1059E000981708F08EC0E92FF0E0E551FE4E808157
:1059F0009F5F90930B128093BB0077C080912D1214
:105A00009091BB00E82FF0E0E35FFD4E90838F5F45
:105A100080932D1276C08091BC008F70806875C015
:105A200080912D129091BB00E82FF0E0E35FFD4ED6
:105A300090838F5F80932D1220912D1230E0809102
:105A40002E1290E00197281739070CF04EC048C07D
:105A500085E08093E91110922D1242C080912D12A1
:105A60009091BB00E82FF0E0E35FFD4E90838F5FE5
:105A700080932D128032C8F533C08091BC008F70A6
:105A8000806C8093BC00E0912F12F091301230971F
:105A9000F1F180912D126DE072E1099538C084E03A
:105AA0008093E911E0913112F0913212309731F088
:105AB00080E26BEE71E1099580930C1210920B124B
:105AC00090910B12E92FF0E0E551FE4E808180931A
:105AD000BB009F5F90930B1280910C12981728F4D3
