:100000000C94FB000C9418010C9418010C9418012A
:100010000C9418010C9418010C9418010C941801FC
:100020000C9418010C9418010C9418010C941801EC
:100030000C9418010C94061F0C94331F0C94251D6E
:100040000C947F1E0C9453180C94AC1E0C94D91E67
:100050000C94E51C0C94251E0C94521E0C94921CBE
:100060000C9418010C94FC220C9418010C94592443
:100070000C9418010C9413270C9418010C94601F15
:100080000C948D1F0C94BA1F0C94E71F0C94651DE3
:100090000C94D7220C9418010C9434240C94312B1A
:1000A0000C9418010C9414200C9441200C946E2094
:1000B0000C949B200C94A51D0C94C8200C94F52046
:1000C0000C9422210C944F210C94E51D0C94B22227
:1000D0000C9418010C940F240C948D220C9418018C
:1000E0000C94EA2307634236B79BD8A71A3968569F
:1000F00018AEBAAB558C1D3CB7CC5763BD6DEDFD4A
:10010000753EF6177231BF000000803F0800000006
:10011000BE922449123EABAAAA2ABECDCCCC4C3EFC
:1001200000000080BEABAAAAAA3E00000000BF00EB
:100130000000803F0000000000084178D3BB4387E7
:10014000D1133D190E3CC3BD4282AD2B3E68EC82FB
:1001500076BED98FE1A93E4C80EFFFBE01C4FF7F80
:100160003F000000000068656C6C6F20627269617E
:100170006E2E2E2E0A000A0025640025640A00490E
:100180006E697469616C697A6174696F6E20436F1E
:100190006D706C657465200D0A002E000D0A537990
:1001A0007374656D205761726D65642055700057DA
:1001B000520A0057520A00000001000800400000E7
:1001C0000100040000010008002000400080000041
:1001D0000100044241445F766563742063616C6C86
:1001E0006564210030313233343536373839414295
:1001F00043444546000011241FBECFEFD1E2DEBFCD
:10020000CDBF12E0A0E0B2E0E6EBF1E602C005905F
:100210000D92AA39B107D9F712E1AAE9B2E001C0FB
:100220001D92AA38B107E1F70E94550F0C945D2C7E
:100230000C947C21893049F4809180008260809305
:100240008000809180008E7F0EC08A3021F48091E2
:100250008000826003C0809180008D7F8093800049
:100260008091800081608093800010928B001092BA
:100270008A000895893049F48091B00082608093AB
:10028000B0008091B0008E7F0EC08A3021F4809142
:10029000B000826003C08091B0008D7F8093B00079
:1002A0008091B00081608093B0001092B4000895F6
:1002B000893049F480919000826080939000809111
:1002C00090008E7F0EC08A3021F480919000826071
:1002D00003C0809190008D7F80939000809190006A
:1002E0008160809390001092990010929800089578
:1002F000893049F4809191008260809391008091CF
:1003000091008E7F0EC08A3021F48091910082602E
:1003100003C0809191008D7F809391008091910026
:1003200081608093910010929B0010929A00089532
:10033000893049F48091920082608093920080918C
:1003400092008E7F0EC08A3021F4809192008260EC
:1003500003C0809192008D7F8093920080919200E3
:1003600081608093920010929D0010929C000895ED
:10037000893049F48091A00082608093A000809130
:10038000A0008E7F0EC08A3021F48091A000826090
:1003900003C08091A0008D7F8093A0008091A00079
:1003A00081608093A0001092A9001092A800089587
:1003B000893049F48091A10082608093A1008091EE
:1003C000A1008E7F0EC08A3021F48091A10082604E
:1003D00003C08091A1008D7F8093A1008091A10036
:1003E00081608093A1001092AB001092AA00089542
:1003F000893049F48091A00082608093A0008091B0
:10040000A0008E7F0EC08A3021F48091A00082600F
:1004100003C08091A0008D7F8093A0008091A000F8
:1004200081608093A0001092AD001092AC000895FE
:10043000E0E8F0E020812E7F20832081226020836D
:10044000E1E8F0E020812860208320812061208382
:100450009093870080938600109289001092880004
:1004600010928B0010928A0010928D0010928C00D6
:100470000895E0E9F0E020812E7F20832081226032
:100480002083E1E9F0E02081286020832081206141
:100490002083909397008093960010929900109279
:1004A000980010929B0010929A0010929D0010925A
:1004B0009C000895E0EAF0E020812E7F20832081D7
:1004C00022602083E1EAF0E02081286020832081FF
:1004D000206120839093A7008093A6001092A9002A
:1004E0001092A8001092AB001092AA001092AD00DA
:1004F0001092AC000895E0E8F0E080818062808393
:1005000080818F7E80830895E0EBF0E080818062BF
:10051000808380818F7E80830895E0E9F0E0808190
:100520008068808380818F7B80830895E0E9F0E09C
:1005300080818062808380818F7E80830895E0E95E
:10054000F0E080818860808380818B7F8083089544
:10055000E0EAF0E080818068808380818F7B808307
:100560000895E0EAF0E080818062808380818F7E60
:1005700080830895E0EAF0E0808188608083808154
:100580008B7F80830895E0E8F0E080818F7D808319
:1005900080818F7E80830895E0EBF0E080818F7D05
:1005A000808380818F7E80830895E0E9F0E0808100
:1005B0008F77808380818F7B80830895E0E9F0E0EE
:1005C00080818F7D808380818F7E80830895E0E9A4
:1005D000F0E08081877F808380818B7F8083089596
:1005E000E0EAF0E080818F77808380818F7B808359
:1005F0000895E0EAF0E080818F7D808380818F7EA6
:1006000080830895E0EAF0E08081877F80838081A5
:100610008B7F80830895E0E8F0E080818D7F808388
:1006200080818E7F808380818F7D808380818F7E9B
:1006300080830895E0EBF0E080818D7F808380816E
:100640008E7F808380818F7D808380818F7E808379
:100650000895E0E9F0E080818D7F808380818E7F46
:10066000808380818F77808380818F7B808380816E
:100670008F7D808380818F7E80838081877F808350
:1006800080818B7F80830895E0EAF0E080818D7F18
:10069000808380818E7F808380818F77808380813B
:1006A0008F7B808380818F7D808380818F7E80831C
:1006B0008081877F808380818B7F80830895909362
:1006C0008B0080938A0008958093B40008959093DE
:1006D000990080939800089590939B0080939A00CE
:1006E000089590939D0080939C0008959093A90095
:1006F0008093A80008959093AB008093AA0008957A
:100700009093AD008093AC00089510BA11BA109286
:100710000701109208019FEF91B980E484B997B95D
:10072000589A599A83EF8AB98EEF8DB9A59A9D98F8
:100730008093010180930401089508952E9A0895ED
:100740002E98089522B330E085E0369527958A9556
:10075000E1F72095309521703070C901089597FD1B
:1007600010C025E030E040E050E00E94BE30DA01E9
:10077000C901880F991F80509E4FFC012081318153
:1007800017C025E030E040E050E00E94BE30DA01C2
:10079000C901885B9F4FAF4FBF4F880F991F805093
:1007A0009E4FFC018081918122273327281B390B22
:1007B000C90108956A5570408040904097FD10C06F
:1007C00025E030E040E050E00E94BE30DA01C9018F
:1007D000880F991F80509E4FFC012081318117C0E6
:1007E00025E030E040E050E00E94BE30DA01C9016F
:1007F000885B9F4FAF4FBF4F880F991F80509E4F10
:10080000FC018081918122273327281B390BC901E4
:100810000895CF92DF92EF92FF920F931F936B0197
:100820007C018AE5C816D104E104F104A1F186EA4D
:10083000C8168FEFD8068FEFE8068FEFF80659F14C
:100840008EE0C81681E0D80680E0E80680E0F80671
:1008500011F182EFC8168EEFD8068FEFE8068FEF02
:10086000F806C9F0C701B6010E94DA038C01C7017E
:10087000B6010E94AF03BC01C8010E948930CB01C0
:100880009B0173E0220F331F7A95E1F7880F991FC0
:10089000280F391F02C020E030E0C9011F910F91DD
:1008A000FF90EF90DF90CF9008958AE00E9478014A
:1008B0008AE00E9458018AE00E94B8018AE00E9402
:1008C000D8010895982F80538A3038F081518630AE
:1008D00010F0892F0895892F87530895FC01908186
:1008E000218142815381892F80538A3010F4982FBF
:1008F00005C0892F8154863008F49753822F805386
:100900008A3010F4282F05C0822F8154863008F4D5
:100910002753842F80538A3010F4482F05C0842F2A
:100920008154863008F44753852F80538A3010F461
:10093000582F05C0852F8154863008F4575330E076
:10094000892F90E0A4E0880F991FAA95E1F7282B42
:10095000392BF4E0220F331FFA95E1F7842F90E052
:10096000822B932BE4E0880F991FEA95E1F7252F5E
:1009700030E0282B392BC9010895FF920F931F9364
:10098000FC01908121816281738114810581F6804F
:10099000E781892F80538A3010F4982F05C0892F62
:1009A0008154863008F49753822F80538A3010F494
:1009B000282F05C0822F8154863008F42753862FB4
:1009C00080538A3010F4682F05C0862F81548630FA
:1009D00008F46753872F80538A3010F4782F05C0AE
:1009E000872F8154863008F47753812F80538A30C3
:1009F00010F4182F05C0812F8154863008F4175346
:100A0000802F80538A3010F4082F05C0802F815426
:100A1000863008F407538F2D80538A3010F4F82E57
:100A200006C08F2D8154863010F489ECF80E8E2F7D
:100A300080538A3010F4E82F05C08E2F8154863001
:100A400008F4E75330E040E050E0892F90E0A0E068
:100A5000B0E0F4E0880F991FAA1FBB1FFA95D1F7E9
:100A6000282B392B4A2B5B2BA4E0220F331F441F6A
:100A7000551FAA95D1F7862F90E0A0E0B0E0822B19
:100A8000932BA42BB52BF4E0880F991FAA1FBB1F33
:100A9000FA95D1F7272F30E040E050E0282B392B92
:100AA0004A2B5B2B64E0220F331F441F551F6A95AE
:100AB000D1F7812F90E0A0E0B0E0822B932BA42B04
:100AC000B52B24E0880F991FAA1FBB1F2A95D1F7C9
:100AD000202F30E040E050E0282B392B4A2B5B2BB5
:100AE00004E0220F331F441F551F0A95D1F78F2DA5
:100AF00090E0A0E0B0E0822B932BA42BB52B14E068
:100B0000880F991FAA1FBB1F1A95D1F72E2F30E00F
:100B100040E050E0282B392B4A2B5B2BB901CA014E
:100B20001F910F91FF9008959C01853291051CF053
:100B300024E230E006C08FEF2C3D380714F42CED92
:100B40003FEF0FB6F8940F92B901882777FD809593
:100B5000982F0E94832D28E430E54CEF5EEB0E9435
:100B6000372E2FE135E449E353E40E94802C0E94A4
:100B7000502D70939B0060939A000F900FBE0895C4
:100B80009C01853291051CF024E230E006C08FEF15
:100B90002C3D380714F42CED3FEF0FB6F8940F926C
:100BA000B901882777FD8095982F0E94832D21E138
:100BB00037EC4AE05FEB0E94372E26EF38E64CE335
:100BC00053E40E94802C0E94502D709399006093F2
:100BD00098000F900FBE0895982F8A3010F4905D02
:100BE00004C08A50873008F4995C892F0895982FA3
:100BF0008F3F09F479C08A3021F481E08093E302C9
:100C000033C08091E302882391F0963531F481E07E
:100C10008093E0021092E20207C0943441F481E034
:100C20008093DF021092E1021092E3020895809116
:100C3000E002882359F08091E202E82FF0E0E552CB
:100C4000FD4F90838F5F8093E2020EC08091DF02A0
:100C5000882351F08091E102E82FF0E0ED52FD4F42
:100C600090838F5F8093E1028091E2028430E9F407
:100C70008BED92E00E946E04AA2797FDA095BA2FF3
:100C8000BC01CD010E94832D20E030E040E85EE30E
:100C90000E94372E0E94502D7093A5026093A402EB
:100CA0001092E0021092E20208958091E1028830F1
:100CB00051F583ED92E00E94BD040E94832D20E057
:100CC00030E040E85EE30E94372E0E94502D609392
:100CD000A6027093A7028093A8029093A902109293
:100CE000DF021092E102089500D00F9281E0EDB78B
:100CF000FEB781838FEA91E0938382830E94462925
:100D00000F900F900F900895982F8F3F09F479C09E
:100D10008A3021F481E08093F40233C08091F402A0
:100D2000882391F0963531F481E08093F10210929E
:100D3000F30207C0943441F481E08093F0021092F2
:100D4000F2021092F40208958091F102882359F082
:100D50008091F302E82FF0E0E451FD4F90838F5F24
:100D60008093F3020EC08091F002882351F08091AD
:100D7000F202E82FF0E0EC51FD4F90838F5F8093FB
:100D8000F2028091F3028430E9F48CEE92E00E944A
:100D90006E04AA2797FDA095BA2FBC01CD010E9431
:100DA000832D20E030E040E85EE30E94372E0E9471
:100DB000502D7093B1026093B0021092F102109224
:100DC000F30208958091F202883051F584EE92E0AA
:100DD0000E94BD040E94832D20E030E040E85EE3E5
:100DE0000E94372E0E94502D6093B2027093B3027E
:100DF0008093B4029093B5021092F0021092F20226
:100E0000089500D00F9281E0EDB7FEB7818383EBA8
:100E100091E0938382830E9446290F900F900F9058
:100E20000895EF92FF920F931F93DF93CF9300D01B
:100E3000CDB7DEB78E010F5F1F4FAAE5EA2EF12C6A
:100E40001092C1021092C002C80160E177E20E94D4
:100E50003C15F092C102E092C002C80160E177E265
:100E60000E943C15EDCF8F929F92AF92BF92CF928E
:100E7000DF92EF92FF920F931F93DF93CF9300D0F7
:100E8000CDB7DEB780E090E0A0E0B0E080939A02BA
:100E900090939B02A0939C02B0939D0280E090E00F
:100EA000A8ECB1E480939E0290939F02A093A002CD
:100EB000B093A1028E010F5F1F4FC80160E177E27E
:100EC0000E943C154801C40168EE73E00E943C1585
:100ED000E0909E02F0909F020091A0021091A1026A
:100EE000A0909A02B0909B02C0909C02D0909D026C
:100EF000C801B701A60195010E947F2C9B01AC019E
:100F000060E070E080E89FE30E94E82CA801970170
:100F10000E94372E9B01AC01C601B5010E94802CB6
:100F200060939A0270939B0280939C0290939D021F
:100F300020E030E048EC51E40E94332E181664F4AF
:100F400080E090E0A8ECB1E480939A0290939B0239
:100F5000A0939C02B0939D0260919A0270919B02B3
:100F600080919C0290919D0220E030E040E050E0B2
:100F70000E94E42C88230CF0A6CF80E090E0A0E053
:100F8000B0E080939A0290939B02A0939C02B0934E
:100F90009D0299CF0F931F93DF93CF9300D0CDB7CE
:100FA000DEB78E010F5F1F4F2E98C80162E370E01D
:100FB0000E943C152E9AC80162E370E00E943C1525
:100FC000F3CF0F931F93DF93CF9300D0CDB7DEB74E
:100FD0008E010F5F1F4F109AC80162E370E00E94FC
:100FE0003C151098C80162E370E00E943C15F3CFF5
:100FF0006F927F928F929F92AF92BF92CF92DF9229
:10100000EF92FF920F931F93DF93CF9300D0CDB752
:10101000DEB780919000806880939000809190006E
:101020008F7B80939000882499243E010894611C52
:10103000711CE0909A02F0909B0200919C0210912A
:101040009D026091A2027091A302882777FD80958E
:10105000982F0E94832D9B01AC01C801B7010E940B
:101060007F2C0E94502D5B016C016091B002709149
:10107000B102709561957F4F882777FD8095982FF5
:101080000E94832D9B01AC01C801B7010E947F2CF7
:101090000E94502D6B01B601882777FD8095982F0F
:1010A0000E94832D20E030E040E85EE30E94372E6E
:1010B0007B018C01B401882777FD8095982F0E94D1
:1010C000832D20E030E040E05EE30E94372E9B015C
:1010D000AC01C801B7010E94802C0E94502D6A0DFE
:1010E0007B1D653271051CF064E270E006C08FEF75
:1010F0006C3D780714F46CED7FEF0FB6F8940F9207
:1011000088279927861B970B0E94C0050F900FBE5A
:101110008C0C9D1CC30162E370E00E943C1589CFDA
:101120004F925F926F927F928F929F92AF92BF92F7
:10113000CF92DF92EF92FF920F931F93DF93CF93A3
:1011400000D0CDB7DEB78091900080628093900090
:10115000809190008F7E80939000662477242E01EA
:101160000894411C511C6091A2027091A30288272F
:1011700077FD8095982F0E94832D20919A023091BF
:101180009B0240919C0250919D020E94802C0E94E3
:10119000502D7B018C018091A4029091A502470102
:1011A000881A990AB401882777FD8095982F0E94A4
:1011B000832D20E030E040E85EE30E94372E5B01A3
:1011C0006C01B301882777FD8095982F0E94832DAD
:1011D00020E030E040E05EE30E94372E9B01AC014E
:1011E000C601B5010E94802C0E94502DCB018E0DAE
:1011F0009F1D680C791C853291051CF084E290E0FB
:1012000006C02FEF8C3D920714F48CED9FEF0FB6C4
:10121000F8940F920E9494050F900FBEC20162E3F2
:1012200070E00E943C159FCFDF92EF92FF920F93E8
:101230001F930E947A1B6091B0027091B102709569
:1012400061957F4F2091A4023091A502621B730B20
:10125000882777FD8095982F0E94832D26E636E615
:1012600046E851E40E94E82C7B018C010E941B1B84
:10127000D6B42FEF30E040E050E00E9456306D0DC4
:10128000711D811D911D0E94812D2FE632E143E8E1
:101290005EE30E94372E20E030E04AE754E40E94EB
:1012A000E82C9B01AC01C801B7010E94372E9B01BD
:1012B000AC016091BC027091BD028091BE02909120
:1012C000BF020E94802C6093BC027093BD02809389
:1012D000BE029093BF02ADCFFF920F931F93CF93A7
:1012E000DF93EB010E943B228FE0F82EFC2289E085
:1012F0008F1518F090E3F90E06C08F2D8A508730B5
:1013000010F487E3F80ECE0104E0959587950A95D1
:10131000E1F7082F0F700A3010F4005D05C0802F30
:101320008A50873008F4095C8D2F992787FD9A959C
:10133000182F1F701A3010F4105D05C0812F8A50CD
:10134000873008F4195CC0E1DC02C12DDD0B1124EB
:10135000CE018F70682F8A3010F4605D04C08A500F
:10136000873008F4695C862F0E943B22812F0E94FF
:101370003B22802F0E943B228F2D0E943B228AE03D
:101380000E943B22DF91CF911F910F91FF90089512
:10139000AF92BF92CF92DF92EF92FF920F931F9383
:1013A0006091BC027091BD028091BE029091BF021B
:1013B00020E030E044E353E40E94372E2BED3FE081
:1013C00049E450E40E94E82C5B016C0160930B122D
:1013D00070930C1280930D1290930E1220E030E067
:1013E00040E05FE30E94372E7B018C016091C002D8
:1013F0007091C102882777FD8095982F0E94832DD8
:1014000020E030E040E05FE30E94372E9B01AC011A
:10141000C801B7010E94802C2091C6023091C702FA
:101420004091C8025091C9020E94802C0E94502D08
:101430007093A3026093A2028091A4029091A502EE
:101440002091B0023091B102821B930B62E070E0F8
:101450000E948930882777FD8095982F0E94832DE0
:1014600060930F12709310128093111290931212C6
:101470008091B2029091B302A091B402B091B502F2
:10148000E090B602F090B702E81AF90A8093B6022B
:101490009093B702A093B802B093B9028091A602CC
:1014A0009091A702A091A802B091A9022091AA024E
:1014B0003091AB028C01021B130B8093AA02909314
:1014C000AB02A093AC02B093AD021092AF021092A7
:1014D000AE021092BB021092BA02C601B5010E9480
:1014E000502D9B01AC0188E4B9010E946C09609108
:1014F0000F127091101280911112909112120E948D
:10150000502D9B01AC0186E5B9010E946C090E0DBE
:101510001F1DB801660F771F660F771F600F711FC1
:1015200083E50E946C093CCF7F928F929F92AF928D
:10153000BF92CF92DF92EF92FF920F931F93DF93B0
:10154000CF9300D0CDB7DEB78091A00080628093AA
:10155000A0008091A0008F7E8093A0008091A000C9
:1015600080688093A0008091A0008F7B8093A00072
:101570000AE710E04CEC842E912C5E010894A11C2B
:10158000B11C7724739438E7C32E31E0D32E26E7BD
:10159000E22E21E0F22E84E00030180710F000E087
:1015A00010E00FB6F8940F921093A9000093A800D2
:1015B0009092AB008092AA000F900FBE60919202B1
:1015C00070919302C5010E943C150E94F32480375C
:1015D00019F40F5F1F4F04C08C3611F401501040F6
:1015E00000D000D00F92EDB7FEB73196ADB7BEB7C1
:1015F00011967C92D282C182148303830E94462971
:101600000F900F90EDB7FEB77182F382E2820E94D5
:1016100046290F5F1F4F0F900F900F90BCCF1F9365
:10162000CF93DF9311E0CBE7D1E00E94F324803722
:1016300031F48091920290919302019607C08C360A
:1016400049F48091920290919302019790939302B2
:101650008093920200D000D00F92EDB7FEB7319682
:10166000ADB7BEB711961C93D283C183809192020D
:1016700090919302948383830E9446290F900F9048
:101680000F900F900F90D1CFAA2797FDA095BA2F5A
:10169000BC01CD010E94832D2EEE3CE74FE45FEBB1
:1016A0000E949A2E9B01AC01CA01B90122E538EDD6
:1016B00048E354E40E94372E0E94502DCB01089538
:1016C000AA2797FDA095BA2FBC01CD010E94832DBA
:1016D0002BE531EB4FE75FEB0E949A2E9B01AC01AB
:1016E000CA01B9012DEC3CE04DEA54E40E94372ECA
:1016F0000E94502DCB0108952F923F924F925F92FE
:101700006F927F928F929F92AF92BF92CF92DF9211
:10171000EF92FF920F931F93DF93CF93CDB7DEB776
:101720002D970FB6F894DEBF0FBECDBF0F2EF0E0A1
:10173000EF2EF0E0FF2EF0E00F2FF0E01F2FF02D46
:1017400057016801EA86FB860C871D87370148012F
:1017500017012801198293C082E00E940C2790E0B3
:101760000E94440BAA2797FDA095BA2FBC01CD017A
:101770000E94832D20E030E040E251E40E94E82CFA
:101780009B01AC01C801B7010E94802C7B018C0138
:1017900083E00E940C2790E00E94600BAA2797FD2F
:1017A000A095BA2FBC01CD010E94832D20E030E02E
:1017B00040E251E40E94E82C9B01AC016A857B85E4
:1017C0008C859D850E94802C6A877B878C879D876E
:1017D00084E00E940C2790E00E94600BAA2797FDEE
:1017E000A095BA2FBC01CD010E94832D20E030E0EE
:1017F00040E251E40E94E82C9B01AC01C601B50116
:101800000E94802C5B016C0185E00E940C2790E017
:101810000E94440BAA2797FDA095BA2FBC01CD01C9
:101820000E94832D20E030E040E251E40E94E82C49
:101830009B01AC01C201B1010E94802C1B012C0153
:1018400086E00E940C2790E00E94440BAA2797FD97
:10185000A095BA2FBC01CD010E94832D20E030E07D
:1018600040E251E40E94E82C9B01AC01C401B301A9
:101870000E94802C3B014C0189818F5F8983998173
:101880009A3008F469CFC801B70120E030E040E2A7
:1018900051E40E947F2C9B01AC010E94372E7B01FA
:1018A0008C01C601B50120E030E040E251E40E9425
:1018B0007F2C9B01AC010E94372E5B016C01C4019F
:1018C000B30120E030E040E251E40E947F2C9B0114
:1018D000AC010E94372E3B014C01C201B10120E056
:1018E00030E040E251E40E947F2C9B01AC010E9459
:1018F000372E6E837F8388879987C801B70120E0E0
:1019000030E040E050E00E94E42C8823A1F060E049
:1019100070E08AE794E4A80197010E94E82C6A83AA
:101920007B838C839D8320E030E044EB52E40E9473
:10193000332E18162CF480E090E0A4EBB2E410C033
:101940006A817B818C819D8120E030E044EB52EC08
:101950000E94E42C882344F480E090E0A4EBB2ECF5
:101960008A839B83AC83BD83C601B50120E030E050
:1019700040E050E00E94E42C882391F060E070E0A9
:101980008AE794E4A60195010E94E82C7B018C0172
:1019900020E030E044EB52E40E94332E18165CF451
:1019A0000F2EF0E0EF2EF0E0FF2EF4EB0F2FF2E41D
:1019B0001F2FF02D14C0C801B70120E030E044EB28
:1019C00052EC0E94E42C882354F40F2EF0E0EF2E0A
:1019D000F0E0FF2EF4EB0F2FF2EC1F2FF02DC401DF
:1019E000B30120E030E040E050E00E94E42C882386
:1019F00091F060E070E08AE794E4A40193010E9412
:101A0000E82C1B012C0120E030E044EB52E40E9462
:101A1000332E18165CF40F2EF0E02F2EF0E03F2E40
:101A2000F4EB4F2EF2E45F2EF02D14C0C201B10191
:101A300020E030E044EB52EC0E94E42C882354F484
:101A40000F2EF0E02F2EF0E03F2EF4EB4F2EF2ECB5
:101A50005F2EF02D6E817F818885998520E030E0B2
:101A600040E050E00E94E42C8823A1F060E070E0A8
:101A70008AE794E42E813F81488559850E94E82CAD
:101A80005B016C0120E030E044EB52E40E94332E15
:101A900018165CF40F2EF0E0AF2EF0E0BF2EF4EB42
:101AA000CF2EF2E4DF2EF02D14C0C601B50120E0E8
:101AB00030E044EB52EC0E94E42C882354F40F2EC7
:101AC000F0E0AF2EF0E0BF2EF4EBCF2EF2ECDF2EE5
:101AD000F02D6A857B858C859D8520E030E040E295
:101AE00051E40E947F2C9B01AC0160E070E080E239
:101AF00092E40E94E82C3B014C016A857B858C8531
:101B00009D8520E030E040E252E40E94E82C0E94F3
:101B1000EA2E20919E0230919F024091A0025091A6
:101B2000A1020E94372E20E030E040E85FE30E94EF
:101B3000802C60939E0270939F028093A0029093EA
:101B4000A102C401B30120E030E040E85FE30E945D
:101B5000E42C882354F40F2EF0E06F2EF0E07F2E5B
:101B6000F0E88F2EFFE39F2EF02DC801B7012A81E8
:101B70003B814C815D810E947F2C7B018C01C601E1
:101B8000B501A20191010E947F2C9B01AC01C8010B
:101B9000B7010E94802C9B01AC01C401B3010E94DB
:101BA000372E6093C6027093C7028093C802909349
:101BB000C90220E030E044EB52E40E94332E1816B4
:101BC00064F480E090E0A4EBB2E48093C6029093CA
:101BD000C702A093C802B093C9026091C602709177
:101BE000C7028091C8029091C90220E030E044EB26
:101BF00052EC0E94E42C87FF0CC080E090E0A4EB44
:101C0000B2EC8093C6029093C702A093C802B0932F
:101C1000C9020F2EF0E0EF2EF0E0FF2EF0E00F2FC4
:101C2000F0E01F2FF02D57016801EA86FB860C8734
:101C30001D87370148011701280119828DCD1F9397
:101C4000182F1F77812F0E9431221A3021F481E052
:101C50008093D20261C08091D202882391F0123524
:101C600031F481E08093CF021092D10207C01D347D
:101C700041F481E08093CE021092D0021092D20201
:101C80007CC08091CF02882311F1812F80538A304C
:101C900010F4182F05C0812F8154863008F4175393
:101CA000812F90E02091CC023091CD0264E0220F90
:101CB000331F6A95E1F7822B932B9093CD0280938B
:101CC000CC028091D1028F5F8093D10225C0809198
:101CD000CE02882309F1812F80538A3010F4182F07
:101CE00005C0812F8154863008F41753812F90E06E
:101CF0002091CA023091CB0254E0220F331F5A9533
:101D0000E1F7822B932B9093CB028093CA028091B0
:101D1000D0028F5F8093D0028091D102843089F409
:101D20008091CC029091CD029093C1028093C00229
:101D30001092CF021092D1021092CD021092CC02DA
:101D40001CC08091D0028430C1F48091CA0290916D
:101D5000CB02AA2797FDA095BA2F8093C202909339
:101D6000C302A093C402B093C5021092CE02109297
:101D7000D0021092CB021092CA021F9108950F93C5
:101D80001F93CF93DF930E94DE2580E040E056E969
:101D900060E070E00E94B82181E040E052EC61E038
:101DA00070E00E94B82182E040E056E960E070E017
:101DB0000E94B82183E040E056E960E070E00E94B4
:101DC000B82181E392E20E9422270E94850382E0EB
:101DD00067EF75E00E94AD2180E064E876E00E9444
:101DE000AD2183E06FE17EE00E94AD212E9800D00E
:101DF0000F9281E0EDB7FEB781838CE991E0938388
:101E000082830E9446290F900F900F9085E00E94D8
:101E1000C41B84E00E94E41B83E00E94F41B83E067
:101E20000E94061C83E00E94181C0E94972685E0F1
:101E30000E94BC2681E00E94C32610E001E0CAE9AE
:101E4000D1E0812F0E940C2700D00F92EDB7FEB792
:101E50000183D383C2830E9446291F5F0F900F9096
:101E60000F90103171F72E9A00D00F92EDB7FEB798
:101E700001838FE791E0938382830E9446290F902C
:101E80000F900F900E947A1B0E94841B0E94911B4E
:101E90000E949C1B0E94A91B0E94B61B0E94550415
:101EA000DF91CF911F910F9108951F93CF93DF93EF
:101EB0000E94BF0E11E0C6E6D1E000D00F92EDB750
:101EC000FEB71183D383C2830E9446290F900F90DF
:101ED0000F90F3CFFC019C012D5F3F4F3283218394
:101EE0008FEF9FEF94838383368325833087278307
:101EF00010820895FC01118610860895CF93DF9318
:101F0000AC01DB01EC0129813A81F90182819381E5
:101F100013969C938E93129789819A8115969C9320
:101F20008E9314970280F381E02D75836483E90119
:101F30007B836A83FA017283618319965C934E9363
:101F4000189780818F5F8083DF91CF910895CF9321
:101F5000DF939C01EB01488159818FEF4F3F580778
:101F600021F4F901A781B08510C0D901139604C0EE
:101F700012960D90BC91A02D1296ED91FC911397A5
:101F8000808191814817590798F71296ED91FC913D
:101F90001397FB83EA83D583C483BD83AC831396F5
:101FA000DC93CE93129739872887F90180818F5F60
:101FB0008083DF91CF910895CF93DF93DC01129658
:101FC000ED91FC91139714968D919C9115979583A3
:101FD00084831496CD91DC911597FB83EA83189640
:101FE000ED91FC911997818192818A179B0711F4D9
:101FF000D283C18319961C921E92189780818150BA
:102000008083DF91CF910895FC010FB6F8940F9271
:10201000828D0F900FBE0895FC01828D0895FC0102
:10202000828D90E0882309F491E0892F0895FC01C6
:10203000928D20E0838D981709F421E0822F089576
:102040000F931F938C01FC01808191810E94791A6A
:10205000C8010E94791A1F910F9108950F931F9341
:10206000CF93DF93EC01FB018A018A8D882381F1F4
:102070004881598141155105A9F08C8D2E813F81F0
:10208000280F311D3F832E838A819B8128173907B2
:1020900010F05F834E834C8D6E817F81CF0150E0C5
:1020A0000E94602C8A8D81508A8F8D8D8F3F69F4BC
:1020B0008885882361F0CE0108960E948E138823BC
:1020C00031F081E0F801808303C08F5F8D8F81E064
:1020D000DF91CF911F910F910895CF93DF93EC0182
:1020E000842F4C8D4423A1F18823B1F48C819D81F0
:1020F00050E00E94602C8C8D2C813D81280F311D79
:102100003D832C838A819B812817390708F18881B8
:1021100099819D838C831CC08E819F8150E00E9499
:10212000602C8C8D90E044275527481B590B8E81DD
:102130009F81840F951F9F838E8328813981821709
:10214000930730F48A819B81840F951F9F838E8330
:102150008A8D8F5F8A8FDF91CF9108950F931F93A0
:10216000CF93DF93EC018A019A8D8B8D981710F035
:1021700080E017C0CE01422F0E946D108E8D8F3FE0
:1021800069F48989882361F0CE0141960E948E13FB
:10219000882331F081E0F801808303C08F5F8E8F48
:1021A00081E0DF91CF911F910F9108950F931F93BD
:1021B000CF93DF93EC010FB6F8940F928C010F5E72
:1021C0001F4F0DC08989882369F0C8010E948E13B2
:1021D000882311F00E948A138E8D81508E8F8E8DF0
:1021E000181684F38FEF8E8F0F900FBE0FB6F894F2
:1021F0000F928E01085F1F4F0DC08885882369F0FC
:10220000C8010E948E13882311F00E948A138D8DBD
:1022100081508D8F8D8D181684F38FEF8D8F0F90D9
:102220000FBEDF91CF911F910F9108957F928F92F2
:102230009F92AF92BF92CF92DF92EF92FF920F9355
:102240001F93DF93CF9300D000D00F92CDB7DEB7AE
:102250008C01962E872E5D834C83722E91E1C92EC0
:10226000D12CC00ED11E20E07E010894E11CF11C8F
:1022700084E0A82EB12CAC0EBD1E01C021E00FB62B
:10228000F8940F92F801828D882309F43EC0E6800D
:10229000F7804081518141155105B1F0848D97013E
:1022A000280F311D378326838281938128173907B0
:1022B00010F057834683F801448D66817781892D1C
:1022C000982D50E00E94602C772071F4F801828DE7
:1022D0008150828F80858823A1F0C80108960E94D2
:1022E0008E13813071F40BC0F801F782E682818988
:1022F000882339F0C6010E948E13882311F00E94B2
:1023000056180F900FBE81E04AC08C819D81892BA9
:1023100019F40F900FBE42C0222319F4C7010E9486
:1023200045130F900FBE0E94E9120FB6F8940F925A
:10233000F801858D8F3F09F4158EF801868D8F3F4A
:1023400009F4168E0F900FBEC701B5010E945013FD
:102350008823F9F40FB6F8940F92F801828D0F904C
:102360000FBE882381F46C817D81C6010E944714D1
:10237000C8010E94D6100E948014882309F07ECFE5
:102380000E9456187BCFC8010E94D6100E9480146C
:1023900075CFC8010E94D6100E94801480E00F9073
:1023A0000F900F900F900F90CF91DF911F910F9191
:1023B000FF90EF90DF90CF90BF90AF909F908F9065
:1023C0007F9008957F928F929F92AF92BF92CF920B
:1023D000DF92EF92FF920F931F93DF93CF9300D082
:1023E00000D00F92CDB7DEB78C016B015D834C83BB
:1023F000722E48E0E42EF12CE80EF91E20E05E017A
:102400000894A11CB11C34E0832E912C8C0E9D1ECF
:1024100001C021E00FB6F8940F92F801928D838DE0
:102420009817A8F4C801B601472D0E946D10F80155
:102430008189882341F0C80141960E948E13813022
:1024400011F40E9456180F900FBE81E04CC08C8191
:102450009D81892B19F40F900FBE44C0222319F4DB
:10246000C5010E9445130F900FBE0E94E9120FB6DE
:10247000F8940F92F801858D8F3F09F4158EF801BD
:10248000868D8F3F09F4168E0F900FBEC501B401E3
:102490000E945013882309F50FB6F8940F92F801A3
:1024A000928D0F900FBEF801838D981781F46C8187
:1024B0007D81C7010E944714C8010E94D6100E9466
:1024C0008014882309F0A5CF0E945618A2CFC80116
:1024D0000E94D6100E9480149CCFC8010E94D61082
:1024E0000E94801480E00F900F900F900F900F903B
:1024F000CF91DF911F910F91FF90EF90DF90CF90E0
:10250000BF90AF909F908F907F9008958F929F92F1
:10251000AF92BF92CF92DF92EF92FF920F931F93F1
:10252000CF93DF93982E862E882309F442C08FE143
:1025300090E00E94891A8C01EC010097E1F1C92C0E
:10254000DD24A82CBB24AC9C7001AD9CF00CBC9C81
:10255000F00C1124C70101960E94891A9C019983ED
:102560008883009719F1E80EF91EFB82EA821A8E21
:102570009D838C830894C108D108CA9CC001CB9C60
:10258000900DDA9C900D1124280F391F3F832E8364
:102590009B8E8C8E8FEF8D8F8E8FC80108960E9438
:1025A0006A0FC80141960E946A0F05C0C8010E94C7
:1025B000791AC0E0D0E0CE01DF91CF911F910F9149
:1025C000FF90EF90DF90CF90BF90AF909F908F9053
:1025D00008958091FB028F5F8093FB0208950FB6F0
:1025E000F8940F922091F9023091FA020F900FBEE9
:1025F000C90108952091F9023091FA02C9010895A4
:102600008091FE0208958091FB02882351F081E0C1
:102610008093F70208958091FC0281508093FC0220
:1026200001C099E0E091FC02E99FF0011124ED5F07
:10263000FC4F8081882379F39091FC0289E0989F78
:10264000D0011124AD5FBC4F1196ED91FC91129712
:102650000280F381E02D1296FC93EE931197CD0149
:102660000396E817F90731F48281938112969C93BF
:102670008E9311971196ED91FC9112978681978117
:102680009093F6028093F5020895FC018091F80280
:1026900080838091F9029091FA0292838183089558
:1026A000FC01DB010FB6F8940F929091F802808143
:1026B000981749F02091F9023091FA0281819281B4
:1026C0002817390718F58091F9029091FA022181B3
:1026D00032814D915C911197821B930B8417950762
:1026E000A8F48091F9029091FA02281B390B240F6B
:1026F000351F2D933C938091F80280838091F902DD
:102700009091FA029283818380E001C081E00F9072
:102710000FBE089581E08093F70208950F931F93F1
:10272000CF93DF93FC018081882319F4C0E0D0E0CF
:1027300005C00580F681E02DC681D7818E01045F3A
:102740001F4FC8010E94DC0F8091FB028823A1F477
:102750008E010E5F1F4FC8010E94DC0F9E89809181
:10276000FC02891710F49093FC0289E0989FC00145
:1027700011248D5F9C4F02C08DE393E0B8010E944D
:102780007E0FE091F502F091F60220E09E898689A5
:10279000981708F021E0822FDF91CF911F910F91C0
:1027A0000895FF920F931F93CF93DF938091FB02C5
:1027B000882309F061C08091F9029091FA02019694
:1027C0009093FA028093F9028091F9029091FA02B3
:1027D000892BE9F58091390390913A0320913B03CD
:1027E00030913C0330933A032093390390933C0398
:1027F00080933B038091F8028F5F8093F80227C09B
:102800002091F9023091FA028A819B8128173907B9
:10281000C0F18E010E5F1F4FC8010E94DC0F8C8932
:102820009D89892B21F0CE010C960E94DC0F9E8998
:102830008091FC02891710F49093FC029F9DC001C7
:1028400011248D5F9C4FB8010E947E0F02C089E069
:10285000F82EE0913903F0913A038081882389F0C2
:10286000E0913903F0913A030580F681E02DC681AD
:10287000D781209729F605C08091FD028F5F809354
:10288000FD02DF91CF911F910F91FF9008950F935B
:102890001F938B016091F5027091F602645F7F4F88
:1028A0000E94A70F8091F5029091F60202960E9475
:1028B000DC0F8091F9029091FA02800F911FE09154
:1028C000F502F091F602938382832091F902309110
:1028D000FA028217930728F480913B0390913C03FE
:1028E00004C08091390390913A036091F502709190
:1028F000F6026E5F7F4F0E94A70F1F910F91089500
:10290000CF92DF92FF920F931F93DF93CF930F929B
:10291000CDB7DEB70FB6F8940F928091FB028150CD
:102920008093FB028091FB02882309F05BC08091B9
:10293000FE02882309F456C0198299E0F92E27C0B7
:10294000C6010C960E94DC0F86010E5F1F4FC80166
:102950000E94DC0FD60156969C918091FC0289174B
:1029600010F49093FC029F9DC00111248D5F9C4F39
:10297000B8010E947E0FE091F502F091F602D601B7
:1029800056969C918689981710F0B1E0B983809192
:102990003D03882349F0E0914203F0914303C68050
:1029A000D780C114D10461F68091FD02882341F4DF
:1029B0000CC00E94D1138091FD0281508093FD02D2
:1029C0008091FD028823A9F707C0E981E13021F059
:1029D0008091F702813031F41092F7020E9456186C
:1029E00081E001C080E00F900FBE0F90CF91DF918A
:1029F0001F910F91FF90DF90CF9008950F931F9339
:102A00009C010097A1F18091FB028F5F8093FB02F4
:102A10000091F9021091FA02020F131F8091F50242
:102A20009091F60202960E94DC0FE091F502F0917F
:102A3000F602138302838091F9029091FA0208173B
:102A4000190728F480913B0390913C0304C08091C6
:102A5000390390913A036091F5027091F6026E5F2E
:102A60007F4F0E94A70F0E948014882311F40E94B8
:102A700056181F910F910895CF93DF93FC01EB013E
:102A80008091FB028F5F8093FB0220813181C20F16
:102A9000D31F8091F9029091FA028217930728F4CC
:102AA000C217D30728F020E00CC0C217D30740F0AC
:102AB0008091F9029091FA0220E08C179D0708F4AA
:102AC00021E0D183C083222329F18091F5029091E6
:102AD000F60202960E94DC0FE091F502F091F602F8
:102AE000D383C2838091F9029091FA02C817D90763
:102AF00028F480913B0390913C0304C080913903FA
:102B000090913A036091F5027091F6026E5F7F4FEB
:102B10000E94A70F0E948014882311F40E94561867
:102B2000DF91CF910895EF92FF920F931F93CF9370
:102B3000DF938C010FB6F8940F928091F50290917B
:102B4000F6020817190719F400E010E003C0011598
:102B5000110529F4C091F502D091F60201C0E801F7
:102B600022E0E22EF12CEC0EFD1EC7010E94DC0FCC
:102B70008C899D89892B21F0CE010C960E94DC0F57
:102B800086E493E0B7010E947E0F809100038F5F7F
:102B900080930003809101038F5F809301030F9066
:102BA0000FBE8091FF02882321F0012B11F40E94B7
:102BB0005618DF91CF911F910F91FF90EF900895DC
:102BC000F8941092FF020E94F71708951F93CF9375
:102BD000DF9380910003882391F18091FB028F5F46
:102BE0008093FB02109146030E948014112339F157
:102BF0000FB6F8940F9280914603882319F4C0E031
:102C0000D0E006C0E0914B03F0914C03C681D78120
:102C1000CE0102960E94DC0F8091FE0281508093CB
:102C2000FE02809100038150809300030F900FBE3D
:102C30008F89988D0E94791ACE010E94791A80910D
:102C40000303823030F20E945618C3CF2F923F9276
:102C50005F926F927F928F929F92AF92BF92CF922C
:102C6000DF92EF92FF920F931F93DF93CF9300D0E9
:102C700000D0CDB7DEB79A8389834B015A01190181
:102C8000502E370181E290E00E94891A8B839C8349
:102C90008B819C81892B89F0C114D10421F4C50159
:102CA0000E94891A6C01EB81FC81D08EC78AC11405
:102CB000D10429F4CF010E94791A8FEFD5C0C60143
:102CC00065EA70E0A5010E94692C0894A108B1088A
:102CD000EB81FC81E788F08CEA0CFB1CCF01499664
:102CE000B40148E050E00E94702CEB81FC8110A2FE
:102CF000052DF3E0F51508F403E0EB81FC81068B6C
:102D000042E0C42ED12CCE0EDF1EC6010E947A0FE7
:102D10008B819C810C960E947A0F8B819C81FC0197
:102D20009187808784E090E0801B91099587848754
:102D3000F38BE28BC70169817A81A1010E9475172B
:102D4000EB81FC81918380836114710421F0CF01B8
:102D5000F301918380830FB6F8940F928091FE0265
:102D60008F5F8093FE028091F5029091F602892B8D
:102D7000B9F5EB81FC81F093F602E093F5028091C6
:102D8000FE028130F1F583E093E00E946A0F8CE04F
:102D900093E00E946A0F85E193E00E946A0F8EE142
:102DA00093E00E946A0F37E2E32E33E0F32EC7016F
:102DB0000E946A0F00E313E0C8010E946A0F8DE3CE
:102DC00093E00E946A0F86E493E00E946A0FF092FB
:102DD0003A03E092390310933C0300933B0311C084
:102DE0008091FF02882369F4E091F502F091F602E8
:102DF0008689581630F08B819C819093F6028093DF
:102E0000F502EB81FC81968980910203891710F409
:102E100090930203809101038F5F80930103EB8104
:102E2000FC8196898091FC02891710F49093FC0232
:102E3000EB81FC81868929E0829FC00111248D5F8E
:102E40009C4FB6010E947E0F0F900FBE8091FF0233
:102E5000882349F0E091F502F091F6028689851504
:102E600010F40E94561881E00F900F900F900F9071
:102E7000CF91DF911F910F91FF90EF90DF90CF9056
:102E8000BF90AF909F908F907F906F905F903F909A
:102E90002F900895AF92BF92CF92DF92EF92FF9260
:102EA0000F9386EE95E164E972E045E550E020E09D
:102EB00030E000E0EE24FF24CC24DD24AA24BB244F
:102EC0000E942616813049F4F8948093FF021092F4
:102ED000FA021092F9020E94BD170F91FF90EF9035
:102EE000DF90CF90BF90AF900895FC0191E1908367
:102EF00022E2229383E3829362937293129280E898
:102F00008293129282E0829383E0829384E08293A0
:102F100085E0829386E0829387E0829388E08293C3
:102F200089E0829380E18293929382E1829383E1AC
:102F3000829384E1829385E1829386E1829387E1A3
:102F4000829388E1829389E1829380E2829381E295
:102F50008293229383E282934293529386E28293F6
:102F600087E2829388E2829389E2829380E382936C
:102F700081E382933197CF0108951092890089EF00
:102F8000809388008BE080938100EFE6F0E0808101
:102F900082608083A091F502B091F602CD91CDBF01
:102FA000DD91DEBFFF91EF91DF91CF91BF91AF91A6
:102FB0009F918F917F916F915F914F913F912F9151
:102FC0001F910F91FF90EF90DF90CF90BF90AF9047
:102FD0009F908F907F906F905F904F903F902F9039
:102FE0001F900F900FBE0F90089581E008950895EF
:102FF0000F920FB6F8940F921F9211242F923F92C6
:103000004F925F926F927F928F929F92AF92BF92F8
:10301000CF92DF92EF92FF920F931F932F933F93E4
:103020004F935F936F937F938F939F93AF93BF93D0
:10303000CF93DF93EF93FF93A091F502B091F60247
:103040000DB60D920EB60D920E94D1130E9403137D
:10305000A091F502B091F602CD91CDBFDD91DEBF1A
:10306000FF91EF91DF91CF91BF91AF919F918F91A0
:103070007F916F915F914F913F912F911F910F9190
:10308000FF90EF90DF90CF90BF90AF909F908F9088
:103090007F906F905F904F903F902F901F900F9078
:1030A0000FBE0F9008950E94F81718950F920FB653
:1030B000F8940F921F9211242F923F924F925F9299
:1030C0006F927F928F929F92AF92BF92CF92DF9238
:1030D000EF92FF920F931F932F933F934F935F9322
:1030E0006F937F938F939F93AF93BF93CF93DF9310
:1030F000EF93FF93A091F502B091F6020DB60D92F9
:103100000EB60D920E940313A091F502B091F60243
:10311000CD91CDBFDD91DEBFFF91EF91DF91CF91DA
:10312000BF91AF919F918F917F916F915F914F91DF
:103130003F912F911F910F91FF90EF90DF90CF90D3
:10314000BF90AF909F908F907F906F905F904F90C7
:103150003F902F901F900F900FBE0F9008950F93E8
:103160001F93CF93DF93FC018081882319F4C0E083
:10317000D0E005C00580F681E02DC681D7818E01A3
:10318000045F1F4FC8010E94DC0F80E893E0B80184
:103190000E947E0F20E0E0914F03F09150039E8942
:1031A0008689981708F021E0822FDF91CF911F9137
:1031B0000F910895FF920F931F93CF93DF9399E0A0
:1031C000F92E28C0F89480918003882319F4C0E078
:1031D000D0E006C0E0918503F0918603C681D781D7
:1031E000CE010C960E94DC0F78948E010E5F1F4F6B
:1031F000C8010E94DC0F9E8980915103891710F449
:10320000909351039F9DC0011124885A9C4FB8018F
:103210000E947E0F809180038823A1F60E94EF1206
:103220002091520330915303821B930B90935503CB
:103230008093540389E0F82E54C00196909357036D
:10324000809356032150304030935503209354030C
:10325000892BC9F520917C0330917D0380917E03F9
:1032600090917F0390937D0380937C0330937F0341
:1032700020937E0328C020915603309157038A8102
:103280009B812817390768F1F8948E010E5F1F4F54
:10329000C8010E94DC0F8C899D89892B21F0CE0109
:1032A0000C960E94DC0F78949E89809151038917B7
:1032B00010F4909351039F9DC0011124885A9C4F94
:1032C000B8010E947E0FE0917C03F0917D03808124
:1032D000882339F00580F681E02DC681D7812097BB
:1032E00051F62091540330915503809156039091EB
:1032F00057032115310509F0A0CF90935303809314
:1033000052039091510329E006C0992319F41092B9
:10331000510332C09150929FD0011124A85ABC4F42
:103320008C91882391F3909351031196ED91FC9128
:1033300012970280F381E02D1296FC93EE93119781
:10334000CD010396E817F90731F482819381129633
:103350009C938E9311971196ED91FC911297068094
:10336000F781E02DF0935003E0934F0320813181EA
:10337000CF016789F9010995DF91CF911F910F91D5
:10338000FF9008950F931F93CF93DF93EB0100916C
:10339000560310915703080F191F80914F03909106
:1033A000500302960E94DC0FE0914F03F09150030E
:1033B000138302838091560390915703BF016E5F80
:1033C0007F4F0817190728F480917E0390917F039F
:1033D00004C080917C0390917D030E94A70F2097E9
:1033E00049F060914F0370915003645F7F4FCE01AD
:1033F0000E94A70FDF91CF911F910F910895AF9277
:10340000BF92CF92DF92EF92FF920F931F93CF93D1
:10341000DF936C01B62EA42E8AE190E00E94891AF7
:10342000EC01009711F48FEF59C080914F039091F8
:103430005003892B21F5D0935003C0934F0388E5A7
:1034400093E00E946A0F81E693E00E946A0F2AE6E9
:10345000E22E23E0F22EC7010E946A0F03E713E079
:10346000C8010E946A0F80E893E00E946A0FF09200
:103470007D03E0927C0310937F0300937E03EB2C8B
:10348000BB2011F0EE24E394198E188EEE8AAF8AD9
:10349000FE01C192D1928F01CF010E947A0FCE011D
:1034A0000C960E947A0FD987C887DB8BCA8B84E081
:1034B00090E08E1991099D878C879E898091510398
:1034C000891710F49093510389E0989FC00111244B
:1034D000885A9C4FB8010E947E0F81E0DF91CF9106
:1034E0001F910F91FF90EF90DF90CF90BF90AF9022
:1034F0000895089510928A0310928903089528EB85
:103500003BE08091890390918A03281B390BC90104
:1035100008950F931F93CF93DF938C010E94E912BC
:103520008091890390918A039801280F391F4BE0FD
:10353000283B340758F48217930740F4EC01C55731
:10354000DC4F30938A032093890302C0C0E0D0E0AF
:103550000E948014CE01DF91CF911F910F910895A9
:10356000E82FF0E0E770F070EE0FFF1FE954FE4F18
:1035700025913491C9010895E82FF0E0E770F070CB
:10358000EE0FFF1FED53FE4F25913491C9010895B1
:1035900085B5E82FF0E0E770F070EE0FFF1FE954FB
:1035A000FE4F25913491C901089580918100E82F43
:1035B000F0E0E770F070EE0FFF1FE954FE4F259129
:1035C0003491C90108958091B100E82FF0E0E770CF
:1035D000F070EE0FFF1FED53FE4F25913491C9019E
:1035E000089580919100E82FF0E0E770F070EE0F01
:1035F000FF1FE954FE4F25913491C9010895809130
:10360000A100E82FF0E0E770F070EE0FFF1FE95423
:10361000FE4F25913491C901089580912101E82F31
:10362000F0E0E770F070EE0FFF1FE954FE4F2591B8
:103630003491C901089520912512309126124091AC
:10364000271250912812B901CA0108952091211220
:10365000309122124091231250912412B901CA01D3
:1036600008952091291230912A1240912B125091E5
:103670002C12B901CA0108952091311230913212F1
:103680004091331250913412B901CA01089520912A
:103690001D1230911E1240911F1250912012B9013B
:1036A000CA01089520913512309136124091371297
:1036B00050913812B901CA01089586B50895209134
:1036C000840030918500C90108958091B200089569
:1036D0002091940030919500C90108952091A40093
:1036E0003091A500C9010895209124013091250150
:1036F000C9010895109225121092261210922712D5
:103700001092281216BC08951092211210922212C3
:1037100010922312109224121092850010928400AD
:1037200008951092291210922A1210922B121092C0
:103730002C121092B200089510923112109232128F
:10374000109233121092341210929500109294003D
:10375000089510921D1210921E1210921F121092B4
:1037600020121092A5001092A40008951092351214
:1037700010923612109237121092381210922501C0
:10378000109224010895089585BD81E080936E0014
:1037900010922512109226121092271210922812BF
:1037A00016BC08958093810081E080936F00109291
:1037B00021121092221210922312109224121092AF
:1037C00085001092840008958093B10081E0809379
:1037D00070001092291210922A1210922B1210923D
:1037E0002C121092B20008958093910081E0809392
:1037F0007100109231121092321210923312109204
:103800003412109295001092940008958093A100B4
:1038100081E08093720010921D1210921E1210927D
:103820001F12109220121092A5001092A400089569
:103830008093210181E080937300109235121092E1
:1038400036121092371210923812109225011092EF
:1038500024010895E82FF0E0EE0FFF1FED5BF04F1D
:10386000718360830895E82FF0E0EE0FFF1FED5B9A
:10387000F04F1182108208950197F1F70895AF92E9
:10388000BF92CF92DF92EF92FF920F931F93A0E02F
:10389000B0E0BC01CD010E94812D5B016C0120E0F4
:1038A00030E04AE755E40E94372E7B018C0120E08E
:1038B00030E040E85FE30E94E42C88231CF461E0E0
:1038C00070E024C0C801B70120E03FEF4FE757E4A4
:1038D0000E94332E1816B4F4C601B50120E030E082
:1038E00040E251E40E94372E0E94552D80E991E07C
:1038F00005C0FC013197F1F7615070406115710509
:10390000C1F707C0C801B7010E94552DCB0101972F
:10391000F1F71F910F91FF90EF90DF90CF90BF9044
:10392000AF9008951F920F920FB60F9211242F930C
:103930003F934F935F936F937F938F939F93AF9337
:10394000BF93EF93FF938091251290912612A0913F
:103950002712B09128120196A11DB11D8093251246
:1039600090932612A0932712B093281280912D12C3
:1039700090912E12A0912F12B09130120196A11D9C
:10398000B11D80932D1290932E12A0932F12B093FD
:1039900030128091470F9091480F892B29F0E091C8
:1039A000470FF091480F0995FF91EF91BF91AF91AB
:1039B0009F918F917F916F915F914F913F912F9147
:1039C0000F900FBE0F901F9018951F920F920FB679
:1039D0000F9211242F933F934F935F936F937F9395
:1039E0008F939F93AF93BF93EF93FF938091211297
:1039F00090912212A0912312B09124120196A11D40
:103A0000B11D8093211290932212A0932312B093A0
:103A100024128091510F9091520F892B29F0E0913F
:103A2000510FF091520F0995FF91EF91BF91AF9116
:103A30009F918F917F916F915F914F913F912F91C6
:103A40000F900FBE0F901F9018951F920F920FB6F8
:103A50000F9211242F933F934F935F936F937F9314
:103A60008F939F93AF93BF93EF93FF93809129120E
:103A700090912A12A0912B12B0912C120196A11DA7
:103A8000B11D8093291290932A12A0932B12B09308
:103A90002C128091570F9091580F892B29F0E091AB
:103AA000570FF091580F0995FF91EF91BF91AF918A
:103AB0009F918F917F916F915F914F913F912F9146
:103AC0000F900FBE0F901F9018951F920F920FB678
:103AD0000F9211242F933F934F935F936F937F9394
:103AE0008F939F93AF93BF93EF93FF938091311286
:103AF00090913212A0913312B09134120196A11D0F
:103B0000B11D8093311290933212A0933312B0936F
:103B100034128091610F9091620F892B29F0E0910E
:103B2000610FF091620F0995FF91EF91BF91AF91F5
:103B30009F918F917F916F915F914F913F912F91C5
:103B40000F900FBE0F901F9018951F920F920FB6F7
:103B50000F9211242F933F934F935F936F937F9313
:103B60008F939F93AF93BF93EF93FF9380911D1219
:103B700090911E12A0911F12B09120120196A11DCA
:103B8000B11D80931D1290931E12A0931F12B0932B
:103B9000201280916B0F90916C0F892B29F0E0918E
:103BA0006B0FF0916C0F0995FF91EF91BF91AF9161
:103BB0009F918F917F916F915F914F913F912F9145
:103BC0000F900FBE0F901F9018951F920F920FB677
:103BD0000F9211242F933F934F935F936F937F9393
:103BE0008F939F93AF93BF93EF93FF938091351281
:103BF00090913612A0913712B09138120196A11D02
:103C0000B11D8093351290933612A0933712B09362
:103C100038128091750F9091760F892B29F0E091E1
:103C2000750FF091760F0995FF91EF91BF91AF91CC
:103C30009F918F917F916F915F914F913F912F91C4
:103C40000F900FBE0F901F9018951F920F920FB6F6
:103C50000F9211242F933F934F935F936F937F9312
:103C60008F939F93AF93BF93EF93FF938091430FF5
:103C70009091440F892B29F0E091430FF091440F6C
:103C80000995FF91EF91BF91AF919F918F917F9196
:103C90006F915F914F913F912F910F900FBE0F90B9
:103CA0001F9018951F920F920FB60F9211242F9309
:103CB0003F934F935F936F937F938F939F93AF93B4
:103CC000BF93EF93FF938091450F9091460F892BFF
:103CD00029F0E091450FF091460F0995FF91EF9182
:103CE000BF91AF919F918F917F916F915F914F9114
:103CF0003F912F910F900FBE0F901F9018951F921C
:103D00000F920FB60F9211242F933F934F935F930F
:103D10006F937F938F939F93AF93BF93EF93FF9393
:103D20008091490F90914A0F892B29F0E091490F1A
:103D3000F0914A0F0995FF91EF91BF91AF919F913B
:103D40008F917F916F915F914F913F912F910F9044
:103D50000FBE0F901F9018951F920F920FB60F92E3
:103D600011242F933F934F935F936F937F938F9380
:103D70009F93AF93BF93EF93FF9380914D0F9091DB
:103D80004E0F892B29F0E0914D0FF0914E0F0995C0
:103D9000FF91EF91BF91AF919F918F917F916F9123
:103DA0005F914F913F912F910F900FBE0F901F90F9
:103DB00018951F920F920FB60F9211242F933F93D5
:103DC0004F935F936F937F938F939F93AF93BF9323
:103DD000EF93FF9380914F0F9091500F892B29F013
:103DE000E0914F0FF091500F0995FF91EF91BF9126
:103DF000AF919F918F917F916F915F914F913F9183
:103E00002F910F900FBE0F901F9018951F920F9239
:103E10000FB60F9211242F933F934F935F936F939D
:103E20007F938F939F93AF93BF93EF93FF93809173
:103E3000530F9091540F892B29F0E091530FF0917B
:103E4000540F0995FF91EF91BF91AF919F918F9181
:103E50007F916F915F914F913F912F910F900FBE86
:103E60000F901F9018951F920F920FB60F9211246A
:103E70002F933F934F935F936F937F938F939F9372
:103E8000AF93BF93EF93FF938091550F9091560F8F
:103E9000892B29F0E091550FF091560F0995FF916C
:103EA000EF91BF91AF919F918F917F916F915F91B2
:103EB0004F913F912F910F900FBE0F901F9018952B
:103EC0001F920F920FB60F9211242F933F934F938F
:103ED0005F936F937F938F939F93AF93BF93EF9372
:103EE000FF938091590F90915A0F892B29F0E091FF
:103EF000590FF0915A0F0995FF91EF91BF91AF9132
:103F00009F918F917F916F915F914F913F912F91F1
:103F10000F900FBE0F901F9018951F920F920FB623
:103F20000F9211242F933F934F935F936F937F933F
:103F30008F939F93AF93BF93EF93FF9380915B0F0A
:103F400090915C0F892B29F0E0915B0FF0915C0F51
:103F50000995FF91EF91BF91AF919F918F917F91C3
:103F60006F915F914F913F912F910F900FBE0F90E6
:103F70001F9018951F920F920FB60F9211242F9336
:103F80003F934F935F936F937F938F939F93AF93E1
:103F9000BF93EF93FF9380915D0F90915E0F892BFC
:103FA00029F0E0915D0FF0915E0F0995FF91EF917F
:103FB000BF91AF919F918F917F916F915F914F9141
:103FC0003F912F910F900FBE0F901F9018951F9249
:103FD0000F920FB60F9211242F933F934F935F933D
:103FE0006F937F938F939F93AF93BF93EF93FF93C1
:103FF00080915F0F9091600F892B29F0E0915F0F06
:10400000F091600F0995FF91EF91BF91AF919F9152
:104010008F917F916F915F914F913F912F910F9071
:104020000FBE0F901F9018951F920F920FB60F9210
:1040300011242F933F934F935F936F937F938F93AD
:104040009F93AF93BF93EF93FF938091630F9091F2
:10405000640F892B29F0E091630FF091640F0995AB
:10406000FF91EF91BF91AF919F918F917F916F9150
:104070005F914F913F912F910F900FBE0F901F9026
:1040800018951F920F920FB60F9211242F933F9302
:104090004F935F936F937F938F939F93AF93BF9350
:1040A000EF93FF938091650F9091660F892B29F014
:1040B000E091650FF091660F0995FF91EF91BF9127
:1040C000AF919F918F917F916F915F914F913F91B0
:1040D0002F910F900FBE0F901F9018951F920F9267
:1040E0000FB60F9211242F933F934F935F936F93CB
:1040F0007F938F939F93AF93BF93EF93FF938091A1
:10410000670F9091680F892B29F0E091670FF0916C
:10411000680F0995FF91EF91BF91AF919F918F919A
:104120007F916F915F914F913F912F910F900FBEB3
:104130000F901F9018951F920F920FB60F92112497
:104140002F933F934F935F936F937F938F939F939F
:10415000AF93BF93EF93FF938091690F90916A0F94
:10416000892B29F0E091690FF0916A0F0995FF9171
:10417000EF91BF91AF919F918F917F916F915F91DF
:104180004F913F912F910F900FBE0F901F90189558
:104190001F920F920FB60F9211242F933F934F93BC
:1041A0005F936F937F938F939F93AF93BF93EF939F
:1041B000FF9380916D0F90916E0F892B29F0E09104
:1041C0006D0FF0916E0F0995FF91EF91BF91AF9137
:1041D0009F918F917F916F915F914F913F912F911F
:1041E0000F900FBE0F901F9018951F920F920FB651
:1041F0000F9211242F933F934F935F936F937F936D
:104200008F939F93AF93BF93EF93FF9380916F0F23
:104210009091700F892B29F0E0916F0FF091700F42
:104220000995FF91EF91BF91AF919F918F917F91F0
:104230006F915F914F913F912F910F900FBE0F9013
:104240001F9018951F920F920FB60F9211242F9363
:104250003F934F935F936F937F938F939F93AF930E
:10426000BF93EF93FF938091710F9091720F892B01
:1042700029F0E091710FF091720F0995FF91EF9184
:10428000BF91AF919F918F917F916F915F914F916E
:104290003F912F910F900FBE0F901F9018951F9276
:1042A0000F920FB60F9211242F933F934F935F936A
:1042B0006F937F938F939F93AF93BF93EF93FF93EE
:1042C0008091730F9091740F892B29F0E091730FF7
:1042D000F091740F0995FF91EF91BF91AF919F916C
:1042E0008F917F916F915F914F913F912F910F909F
:1042F0000FBE0F901F9018951F920F920FB60F923E
:1043000011242F933F934F935F936F937F938F93DA
:104310009F93AF93BF93EF93FF9300D00F9281E0F1
:10432000EDB7FEB7818383ED91E0938382830E9492
:1043300046290F900F900F90FF91EF91BF91AF9191
:104340009F918F917F916F915F914F913F912F91AD
:104350000F900FBE0F901F901895843040F4E82FF7
:10436000F0E0EE0FFF1FE954FE4E71836083089565
:104370001F93182F9A01AB01CA01B90160587B47FE
:10438000814E9F4FF3E0660F771F881F991FFA95A4
:10439000D1F7E4E0220F331F441F551FEA95D1F7F0
:1043A0000E949C3021503040133029F42093340176
:1043B0003093350112C0123029F42093D400309389
:1043C000D5000BC0113029F42093CC003093CD00E0
:1043D00004C02093C4003093C5001F910895282F76
:1043E00030E0A3E0220F331FAA95E1F7235C3D4E96
:1043F000C9010895282F30E0B3E0220F331FBA958A
:10440000E1F72F593D4EC9010895E82F833039F463
:104410008091300185FFFCCF6093360118C0823057
:1044200039F48091D00085FFFCCF6093D6000FC097
:10443000813039F48091C80085FFFCCF6093CE00B5
:1044400006C08091C00085FFFCCF6093C600F0E0FD
:10445000E75CFD4E10820895682F80E00E940522DF
:104460000895682F81E00E9405220895682F82E058
:104470000E9405220895682F83E00E940522089576
:1044800020E0E82FF0E083E0EE0FFF1F8A95E1F7D0
:10449000EF5BFD4E80819181892B09F421E0822F11
:1044A0000895CF93DF93833019F4609136010CC0E7
:1044B000823019F46091D60007C0813019F4609100
:1044C000CE0002C06091C600282F30E0E901CC0F79
:1044D000DD1FFE01E954FE4E80819181892B31F070
:1044E0000190F081E02D862F099514C093E0220FF2
:1044F000331F9A95E1F7C901835C9D4E0E945D26AA
:10450000882341F4FE01EF57FD4E80819181019691
:1045100091838083DF91CF9108951F920F920FB600
:104520000F9211242F933F934F935F936F937F9339
:104530008F939F93AF93BF93EF93FF9383E00E947A
:104540005122FF91EF91BF91AF919F918F917F91F8
:104550006F915F914F913F912F910F900FBE0F90F0
:104560001F9018951F920F920FB60F9211242F9340
:104570003F934F935F936F937F938F939F93AF93EB
:10458000BF93EF93FF9382E00E945122FF91EF913E
:10459000BF91AF919F918F917F916F915F914F915B
:1045A0003F912F910F900FBE0F901F9018951F9263
:1045B0000F920FB60F9211242F933F934F935F9357
:1045C0006F937F938F939F93AF93BF93EF93FF93DB
:1045D00081E00E945122FF91EF91BF91AF919F9195
:1045E0008F917F916F915F914F913F912F910F909C
:1045F0000FBE0F901F9018951F920F920FB60F923B
:1046000011242F933F934F935F936F937F938F93D7
:104610009F93AF93BF93EF93FF9380E00E9451224B
:10462000FF91EF91BF91AF919F918F917F916F918A
:104630005F914F913F912F910F900FBE0F901F9060
:1046400018958F929F92AF92BF92CF92DF92EF9286
:10465000FF920F931F93CF93DF93882EDB01C82E19
:10466000DD24F60113E0EE0FFF1F1A95E1F7EB5979
:10467000FD4E20813181240F351FF60173E0EE0FCE
:10468000FF1F7A95E1F7ED59FD4E80819181281742
:10469000390770F54115510559F19C90760163E099
:1046A000EE0CFF1C6A95E1F781E692E1E80EF91E37
:1046B0008D01C0E0D0E05A010894A108B10806C0FD
:1046C000C701F80160810E945D2621960F5F1F4F90
:1046D000CA15DB05A8F38DE592E1C80ED91E8FEF50
:1046E000F6018083882D692D0E9405228FEF01C07D
:1046F00080E0DF91CF911F910F91FF90EF90DF90BD
:10470000CF90BF90AF909F908F90089590E023E05E
:10471000880F991F2A95E1F78F599D4E0E945D26BB
:104720000895682F89E792E10E945D260895682F19
:1047300081E792E10E945D260895682F89E692E163
:104740000E945D260895682F81E692E10E945D2611
:104750000895CF93DF93282FA82FB0E0ED01C35A1F
:10476000DD4E8881882379F1FD0133E0EE0FFF1FD4
:104770003A95E1F7EB59FD4E80819181892B11F13A
:10478000233039F489E792E10E94F42580933601C1
:104790001EC0223039F481E792E10E94F425809313
:1047A000D60015C0213039F489E692E10E94F42543
:1047B0008093CE000CC081E692E10E94F4258093A4
:1047C000C60005C01882A75CBD4E8FEF8C93DF91A9
:1047D000CF9108951F920F920FB60F9211242F932D
:1047E0003F934F935F936F937F938F939F93AF9379
:1047F000BF93EF93FF9383E00E94A923FF91EF9172
:10480000BF91AF919F918F917F916F915F914F91E8
:104810003F912F910F900FBE0F901F9018951F92F0
:104820000F920FB60F9211242F933F934F935F93E4
:104830006F937F938F939F93AF93BF93EF93FF9368
:1048400082E00E94A923FF91EF91BF91AF919F91C8
:104850008F917F916F915F914F913F912F910F9029
:104860000FBE0F901F9018951F920F920FB60F92C8
:1048700011242F933F934F935F936F937F938F9365
:104880009F93AF93BF93EF93FF9381E00E94A9237F
:10489000FF91EF91BF91AF919F918F917F916F9118
:1048A0005F914F913F912F910F900FBE0F901F90EE
:1048B00018951F920F920FB60F9211242F933F93CA
:1048C0004F935F936F937F938F939F93AF93BF9318
:1048D000EF93FF9380E00E94A923FF91EF91BF9196
:1048E000AF919F918F917F916F915F914F913F9188
:1048F0002F910F900FBE0F901F9018951F93182F98
:1049000090E0FC01E35AFD4E2FEF208343E0880F37
:10491000991F4A95E1F78F599D4E0E94F425682F03
:10492000812F0E9405221F910895CF93DF93EB0101
:10493000282F30E0F90173E0EE0FFF1F7A95E1F7C1
:10494000E15CFD4E80819181892BC9F0F90163E022
:10495000EE0FFF1F6A95E1F7EF5BFD4E80819181BD
:10496000892B69F053E0220F331F5A95E1F7C901F3
:10497000835C9D4E0E94F42588838FEF01C080E008
:10498000DF91CF910895DF93CF930F92CDB7DEB72C
:1049900083E0BE016F5F7F4F0E949524882319F446
:1049A0002FEF3FEF03C08981282F30E0C9010F901E
:1049B000CF91DF910895DF93CF930F92CDB7DEB7FC
:1049C00082E0BE016F5F7F4F0E949524882319F417
:1049D0002FEF3FEF03C08981282F30E0C9010F90EE
:1049E000CF91DF910895DF93CF930F92CDB7DEB7CC
:1049F00081E0BE016F5F7F4F0E949524882319F4E8
:104A00002FEF3FEF03C08981282F30E0C9010F90BD
:104A1000CF91DF910895DF93CF930F92CDB7DEB79B
:104A200080E0BE016F5F7F4F0E949524882319F4B8
:104A30002FEF3FEF03C08981282F30E0C9010F908D
:104A4000CF91DF91089590E0E3E0880F991FEA95F8
:104A5000E1F7835C9D4E0E949026089585E592E1E2
:104A600067E271E140E850E00E94E72589E792E1C2
:104A700067EA71E140E150E00E94E72508950E9455
:104A80002E251092BE111092BD1188ED8093310138
:104A900083E040E855E260E070E00E94B8218FEFCB
:104AA00080933C121092601210928812109287121A
:104AB000789408958DE492E167E970E140E850E070
:104AC0000E94E72581E792E167E171E140E150E072
:104AD0000E94E72508950E945A251092BC11109259
:104AE000BB1188ED8093D10082E040E855E260E0A0
:104AF00070E00E94B8218FEF80933B1210925F12FA
:104B000010928612109285127894089585E492E1AD
:104B100067E070E140E850E00E94E72589E692E115
:104B200067E870E140E150E00E94E72508950E94A7
:104B300086251092BA111092B91188ED8093C900A0
:104B400081E040E855E260E070E00E94B8218FEF1C
:104B500080933A1210925E12109284121092831275
:104B6000789408958DE392E167E77FE040E850E0B4
:104B70000E94E72581E692E167EF7FE040E150E0A7
:104B80000E94E72508950E94B2251092B811109254
:104B9000B71188ED8093C10080E040E855E260E005
:104BA00070E00E94B8218FEF8093391210925D124D
:104BB0001092821210928112789408950E94C32557
:104BC0000E9497250E946B250E943F250895FC01B5
:104BD0008FB7F89471836083538342831782168260
:104BE000158214828FBF0895DC014FB7F894149694
:104BF0008D919C911597892B11F4E0E025C01696B4
:104C00008D919C911797ED91FC911197E80FF91FE9
:104C1000E081019617969C938E93169712962D918C
:104C20003C9113978217930730F0821B930B1796D2
:104C30009C938E93169714968D919C91159701973E
:104C400015969C938E9314974FBF8E2F0895FC0159
:104C50004FB7F8948481958168177907B0F48681FD
:104C60009781860F971F97838683228133818217CE
:104C7000930720F0821B930B978386838481958111
:104C8000861B970B9583848302C0158214824FBFC5
:104C90000895FC01CB012FB7F8942FBF26813781EF
:104CA00062817381820F931F0E9475300190F081A1
:104CB000E02DE80FF91F808108951F93CF93DF93B4
:104CC000EC01162F4FB7F8942C813D816A817B81CE
:104CD0002617370798F48E819F81820F931F0E94B9
:104CE0007530E881F981E80FF91F10838C819D816F
:104CF00001969D838C834FBF8FEF02C04FBF80E032
:104D0000DF91CF911F910895FC018FB7F8948FBF69
:104D10002281338184819581281B390BC901089533
:104D2000FC018FB7F894158214828FBF0895AAE70B
:104D3000B0E08C9180688C938C918F7D8C938C915A
:104D4000887F86608C93ECE7F0E080818F738064CD
:104D5000808380818F7D80838C9188608C9310927A
:104D6000891278940895EAE7F0E08081877F808354
:104D700080818F7780830895EAE7F0E09081987FC3
:104D8000982B90830895ECE7F0E090818295880F4E
:104D9000880F807C9F73982B90830895ECE7F0E058
:104DA00090818F71907E892B80830895EAE7F0E0EF
:104DB0008081806180838081806480830895809178
:104DC0007A0080740895982F10928912883020F00C
:104DD00080917B00886003C080917B00877F8093F7
:104DE0007B0080917C009770887F892B80937C006A
:104DF00080917A00806180937A0080917A0080644B
:104E000080937A0080917A0086FDFCCF2091780013
:104E100030917900C90108950E94E32696958795FF
:104E20009695879508951F920F920FB60F921124B1
:104E30008F938FEF809389128F910F900FBE0F90F9
:104E40001F9018959093C0118093BF1108951F93E0
:104E5000182F8A3031F4E091BF11F091C0118DE02C
:104E60000995E091BF11F091C011812F09951F9113
:104E70000895CF93DF93EC01009721F406C02196AB
:104E80000E94272788818823D1F7DF91CF91089549
:104E9000EF92FF920F931F93CF93DF938C017A01D0
:104EA0000097E9F020E030E02617370738F4F801E2
:104EB00081918F012F5F3F4F8823B1F7C0E0D0E091
:104EC0000BC0F8018081882319F00F5F1F4F01C0CC
:104ED00080E20E9427272196CE15DF0590F3DF910F
:104EE000CF911F910F91FF90EF900895CF93DF9393
:104EF000EC01009719F407C00E942727FE012196B4
:104F000084918823C9F7DF91CF9108958AE00E94A8
:104F100027270895E82FF0E0EF70F070EC51FE4F76
:104F2000E4918E2F0E94272708951F93182F8295B2
:104F30008F700E948A27812F0E948A271F910895CF
:104F40001F93182F892F0E949527812F0E94952744
:104F50001F910895EF92FF920F931F937B018C0195
:104F6000C801AA27BB270E94A027C7010E94A0272B
:104F70001F910F91FF90EF9008952F923F924F92C3
:104F80005F926F927F928F929F92AF92BF92CF92D9
:104F9000DF92EF92FF920F931F93DF93CF93CDB7E2
:104FA000DEB7A3970FB6F894DEBF0FBECDBF6AA3DE
:104FB000242E2BA337014801442351F017FF08C0CA
:104FC000EE24FF248701E618F7080809190902C032
:104FD000840173012AA1215090E0211091E0291B46
:104FE00029A318A2A82EBB24CC24DD24C801B70114
:104FF000A60195010E949C30FB01EF70F070EC510E
:10500000FE4F64916F8FC801B701A60195010E9400
:105010009C30C901DA017C018D019EE1492E512CA1
:105020004C0E5D1E39A025C0E114F10401051105E7
:10503000C9F0C801B701A60195010E949C30FB018F
:10504000EF70F070EC51FE4F6491F2016083C80183
:10505000B701A60195010E949C30C901DA017C01CB
:105060008D0103C02BA1F20120833A9408944108DA
:1050700051083320C9F6CE014F968C01E9A10E1BD1
:1050800011092220F1F097FE05C08DE2F80182930C
:105090008F0117C0C8010197611471048104910444
:1050A00019F08C018BE202C08C0180E2F801808350
:1050B00008C0F80181918F010E942727FAA1F150C1
:1050C000FAA32AA12223A9F7A3960FB6F894DEBF6C
:1050D0000FBECDBFCF91DF911F910F91FF90EF9049
:1050E000DF90CF90BF90AF909F908F907F906F9008
:1050F0005F904F903F902F9008954F925F926F92E4
:105100007F928F929F92AF92BF92CF92DF92EF9257
:10511000FF920F931F93CF93DF93482E5A016B0199
:10512000CB01BA0120E030E040E050E00E94332E95
:1051300018161CF43501460106C03501460197FAE0
:10514000909497F890940F2EF0E0EF2EF0E0FF2E61
:10515000F0E80F2FFFE31F2FF02D5524C401B301FA
:10516000A80197010E94E82C20E030E040E251E4E1
:105170000E94E42C87FD0EC0C801B70120E030E09A
:1051800040E251E40E94372E7B018C0153948FE062
:10519000581621F7C601B50120E030E040E050E0AC
:1051A0000E94E42C882314F48DE201C08BE20E945B
:1051B0002727DD24AA2456C0C401B301A801970102
:1051C0000E94E82C0E94552DB62ED62ACD2DD0E077
:1051D000CC24DD24C801B70120E030E040E85FE3E3
:1051E0000E94E42C882319F421E0C22ED12CCC2972
:1051F000DD29CD2B39F08B2D805D0E942727DD2402
:10520000DA9404C080E20E942727DD24C801B70198
:1052100020E030E040E85FE30E94E42C882319F4AA
:105220008EE20E9427276B2D70E0882777FD8095FE
:10523000982F0E94832DA80197010E94372E9B0171
:10524000AC01C401B3010E947F2C3B014C01C80199
:10525000B70120E030E040E251E40E94E82C7B01FD
:105260008C01A394A41408F4A7CFDF91CF911F91D0
:105270000F91FF90EF90DF90CF90BF90AF909F90F5
:105280008F907F906F905F904F9008957F928F9254
:105290009F92AF92BF92CF92DF92EF92FF920F93C5
:1052A0001F93DF93CF93CDB7DEB77888C988DA88AC
:1052B00063E1E62EF12CEC0EFD1E14C0882381F470
:1052C00080E090E0CF91DF911F910F91FF90EF90E0
:1052D000DF90CF90BF90AF909F908F907F90089578
:1052E0000E94272796012F5F3F4F772021F0F6017C
:1052F0006901849103C0F601808169018532F1F66C
:105300002F5F3F4F772021F0F6016901849103C0A0
:10531000F60180816901843629F0883781F083366F
:10532000F9F606C000E117E25AE0A52EB12C0CC038
:10533000F701808122E030E0E20EF31ED1CF00E0E1
:1053400010E140E1A42EB12C32E0832E912C8E0C82
:105350009F1CF701E080F1808436B1F4F7FE11C0A4
:10536000F094E194F108F3948DE20E94272709C09C
:10537000C8016AE070E00E9475308B0162307105EF
:1053800018F0E016F106A0F3C701B8010E947530CD
:10539000862F0E948A27C701B8010E9475307C01C0
:1053A000C801B5010E9475308B016115710561F767
:1053B000740198CF2091B9002E7F2093B9002091DD
:1053C000B9002D7F2093B9009C0140E050E060E8D7
:1053D0007EE380E090E00E94BE30203130F0822FEA
:1053E00090E0409795958795282F2093B8000895D1
:1053F000589A599A109208121092071210920A1293
:105400001092091284E690E00E94DA29ECEBF0E0B9
:105410008081846080831092C1118081816080834B
:105420008081806480837894089590E0611191E098
:105430008E7F982B9093BA000895909308128093D2
:105440000712089590930A12809309120895ECEBC5
:10545000F0E080818F70806A80830895ECEBF0E04B
:1054600080818F70806D808308958091BC0087FF5C
:10547000FCCF08958093BB00ECEBF0E080818F704F
:10548000806880830895882329F08091BC008F7004
:10549000806C04C08091BC008F7080688093BC00D9
:1054A00008958091BB0008958091B9000895982FC8
:1054B0008091C1118823E1F782E08093C1119E7F22
:1054C0009093C211A3ECB1E1FA0102C081918D93D6
:1054D0008E2F841B8617D0F31092E3116093E41192
:1054E0008091BC008F70806A8093BC000895982FD3
:1054F0008091C1118823E1F783E08093C11191600D
:105500009093C21110920512609306128091BC0014
:105510008F70806A8093BC008091C1118823E1F76D
:10552000A5EEB1E1FA0102C08D9181938E2F841B0B
:105530008617D0F30895982FFA018091BC008E7FD2
:105540008093BC008091BC008F70806A8093BC0007
:105550008091BC0087FFFCCF9E7F9093BB00809121
:10556000BC008F7080688093BC008091BC0087FF76
:10557000FCCF8091B900883189F091E012C0808120
:105580008093BB008091BC008F7080688093BC00CA
:105590008091BC0087FFFCCF31966150662379F77C
:1055A00090E08091BC008F70806D8093BC008091F2
:1055B000BC0084FFFCCF8091BC0081608093BC0064
:1055C000892F0895982FFA018091BC008E7F8093D7
:1055D000BC008091BC008F70806A8093BC00809179
:1055E000BC0087FFFCCF91609093BB008091BC0012
:1055F0008F7080688093BC008091BC0087FFFCCFD7
:105600008091B900803481F091E01EC08091BC008F
:105610008F70806C8093BC008091BC0087FFFCCFB2
:105620008091BB0081936150623080F78091BC0013
:105630008F7080688093BC008091BC0087FFFCCF96
:105640008091BB00808390E08091BC008F70806D62
:105650008093BC008091BC0081608093BC00892F46
:1056600008951F920F920FB60F9211242F933F931C
:105670004F935F936F937F938F939F93AF93BF935A
:10568000EF93FF938091B900887F803609F4A0C022
:10569000813670F5883209F45FC0893298F4803120
:1056A00009F457C0813138F4882309F4EAC08830FE
:1056B00009F0EFC04EC0883109F44EC0803209F0C5
:1056C000E8C0DFC0803409F477C0813438F4803317
:1056D00009F4D7C0883309F0DCC05DC0803509F417
:1056E0005FC0883509F44AC0883409F0D2C0C9C007
:1056F000883909F4BAC08939B0F4883709F468C028
:10570000893738F4883609F463C0803709F0C1C09E
:105710005FC0883809F4A9C0803909F45FC08038B7
:1057200009F0B7C05BC0803B09F479C0813B38F415
:10573000803A09F462C0883A09F0ABC070C0803C7E
:1057400009F49AC0883C09F497C0883B09F0A1C0CD
:1057500077C08091C2110FC09091E3118091E41144
:10576000981708F08EC0E92FF0E0ED53FE4E8081CF
:105770009F5F9093E3118093BB0077C080910512E7
:105780009091BB00E82FF0E0EB51FE4E90838F5FCD
:105790008093051276C08091BC008F70806875C0C0
:1057A000809105129091BB00E82FF0E0EB51FE4E86
:1057B00090838F5F809305122091051230E08091D5
:1057C000061290E00197281739070CF04EC048C028
:1057D00085E08093C1111092051242C0809105129C
:1057E0009091BB00E82FF0E0EB51FE4E90838F5F6D
:1057F000809305128032C8F533C08091BC008F7051
:10580000806C8093BC00E0910712F09108123097F1
:10581000F1F18091051265EE71E1099538C084E0DF
:105820008093C111E0910912F0910A12309731F082
:1058300080E263EC71E109958093E4111092E31129
:105840009091E311E92FF0E0ED53FE4E80818093BB
:10585000BB009F5F9093E3118091E411981728F4A7
:105860008091BC008F70806C04C08091BC008F70F0
:1058700080688093BC000DC08091BC008F70806CEC
:1058800004C08091BC008F70806D8093BC0010922A
:10589000C111FF91EF91BF91AF919F918F917F9136
:1058A0006F915F914F913F912F910F900FBE0F908D
:1058B0001F9018958091C1110895F8940C94D930D7
:1058C000FB01DC0102C001900D9241505040D8F71D
:1058D0000895DC0101C06D9341505040E0F70895F8
:1058E000FB01DC014150504048F001900D92002036
:1058F000C9F701C01D9241505040E0F7089550583B
:10590000BB27AA270ED075C166D130F06BD120F02D
:1059100031F49F3F11F41EF45BC10EF4E095E7FBF8
:1059200051C1E92F77D180F3BA1762077307840753
:10593000950718F071F49EF58FC10EF4E0950B2ECB
:10594000BA2FA02D0B01B90190010C01CA01A001D1
:105950001124FF27591B99F0593F50F4503E68F12C
:105960001A16F040A22F232F342F4427585FF3CF6D
:10597000469537952795A795F0405395C9F77EF43E
:105980001F16BA0B620B730B840BBAF09150A1F087
:10599000FF0FBB1F661F771F881FC2F70EC0BA0F0D
:1059A000621F731F841F48F4879577956795B79595
:1059B000F7959E3F08F0B3CF9395880F08F099278D
:1059C000EE0F979587950895D9D008F481E0089552
:1059D0000CD00FC107D140F0FED030F021F45F3F72
:1059E00019F0F0C0511139C1F3C014D198F39923C3
:1059F000C9F35523B1F3951B550BBB27AA27621793
:105A00007307840738F09F5F5F4F220F331F441FD7
:105A1000AA1FA9F333D00E2E3AF0E0E830D091500F
:105A20005040E695001CCAF729D0FE2F27D0660FFC
:105A3000771F881FBB1F261737074807AB07B0E83B
:105A400009F0BB0B802DBF01FF2793585F4F2AF051
:105A50009E3F510568F0B6C000C15F3FECF3983E31
:105A6000DCF3869577956795B795F7959F5FC9F7AE
:105A7000880F911D9695879597F90895E1E0660F37
:105A8000771F881FBB1F621773078407BA0720F0B0
:105A9000621B730B840BBA0BEE1F88F7E095089519
:105AA00004D06894B111D9C00895BCD088F09F5734
:105AB00090F0B92F9927B751A0F0D1F0660F771F5A
:105AC000881F991F1AF0BA95C9F712C0B13081F03A
:105AD000C3D0B1E00895C0C0672F782F8827B85F82
