:100000000C94D4000C94F1000C94F1000C94F100C9
:100010000C94F1000C94F1000C94F1000C94F1009C
:100020000C94F1000C94F1000C94F1000C94F1008C
:100030000C94F1000C9437150C9464150C94561321
:100040000C94B0140C94840E0C94DD140C940A15CA
:100050000C9416130C9456140C9483140C94C31221
:100060000C94F1000C942D190C94F1000C948A1A44
:100070000C94F1000C94441D0C94F1000C94911517
:100080000C94BE150C94EB150C9418160C94961346
:100090000C9408190C94F1000C94651A0C946221CC
:1000A0000C94F1000C9445160C9472160C949F1647
:1000B0000C94CC160C94D6130C94F9160C942617A9
:1000C0000C9453170C9480170C9416140C94E3188A
:1000D0000C94F1000C94401A0C94BE180C94F1008E
:1000E0000C941B1A0A5363616E20656E640A0A0041
:1000F0002564005363616E2073746172740A005347
:1001000074617274696E672070726F6772616D2EB0
:100110000A00496E697469616C697A6174696F6E0D
:1001200020436F6D706C657465200D0A002E000D04
:100130000A53797374656D205761726D656420553B
:1001400070000000010008004000000100040000F1
:10015000010008002000400080000001000442412E
:10016000445F766563742063616C6C656421003064
:10017000313233343536373839414243444546000D
:10018000256420002044697374616E6365733A20AE
:1001900000204D6F746F722053706565643A2000C3
:1001A000496E6465783A200011241FBECFEFD1E27A
:1001B000DEBFCDBF12E0A0E0B2E0E4EBFFE402C09E
:1001C00005900D92A839B107D9F713E1A8E9B2E07B
:1001D00001C01D92AB32B107E1F70E9412050C94E9
:1001E0003C250C94AD17893049F4809180008260E1
:1001F00080938000809180008E7F0EC08A3021F431
:1002000080918000826003C0809180008D7F809308
:1002100080008091800081608093800010928B002C
:1002200010928A000895893049F48091B00082606C
:100230008093B0008091B0008E7F0EC08A3021F490
:100240008091B000826003C08091B0008D7F809368
:10025000B0008091B00081608093B0001092B40033
:100260000895893049F480919000826080939000D5
:10027000809190008E7F0EC08A3021F48091900092
:10028000826003C0809190008D7F80939000809168
:1002900090008160809390001092990010929800D5
:1002A0000895893049F48091910082608093910093
:1002B000809191008E7F0EC08A3021F48091910050
:1002C000826003C0809191008D7F80939100809126
:1002D000910081608093910010929B0010929A008F
:1002E0000895893049F48091920082608093920051
:1002F000809192008E7F0EC08A3021F4809192000E
:10030000826003C0809192008D7F809392008091E3
:10031000920081608093920010929D0010929C0048
:100320000895893049F48091A00082608093A000F4
:100330008091A0008E7F0EC08A3021F48091A000B1
:10034000826003C08091A0008D7F8093A000809187
:10035000A00081608093A0001092A9001092A800D4
:100360000895893049F48091A10082608093A100B2
:100370008091A1008E7F0EC08A3021F48091A1006F
:10038000826003C08091A1008D7F8093A100809145
:10039000A10081608093A1001092AB001092AA008E
:1003A0000895893049F48091A00082608093A00074
:1003B0008091A0008E7F0EC08A3021F48091A00031
:1003C000826003C08091A0008D7F8093A000809107
:1003D000A00081608093A0001092AD001092AC004C
:1003E0000895E0E8F0E020812E7F208320812260C4
:1003F0002083E1E8F0E020812860208320812061D3
:100400002083909387008093860010928900109239
:10041000880010928B0010928A0010928D0010922A
:100420008C000895E0E9F0E020812E7F2083208178
:1004300022602083E1E9F0E0208128602083208190
:1004400020612083909397008093960010929900EA
:100450001092980010929B0010929A0010929D00AA
:1004600010929C000895E0EAF0E020812E7F208326
:10047000208122602083E1EAF0E02081286020834F
:100480002081206120839093A7008093A600109282
:10049000A9001092A8001092AB001092AA0010922E
:1004A000AD001092AC000895E0E8F0E08081806239
:1004B000808380818F7E80830895E0EBF0E08081EF
:1004C0008062808380818F7E80830895E0E9F0E000
:1004D00080818068808380818F7B80830895E0E9BC
:1004E000F0E080818062808380818F7E80830895A8
:1004F000E0E9F0E080818860808380818B7F808369
:100500000895E0EAF0E080818068808380818F7BBD
:1005100080830895E0EAF0E08081806280838081BA
:100520008F7E80830895E0EAF0E080818860808398
:1005300080818B7F80830895E0E8F0E080818F7D6B
:10054000808380818F7E80830895E0EBF0E080815E
:100550008F7D808380818F7E80830895E0E9F0E045
:1005600080818F77808380818F7B80830895E0E90D
:10057000F0E080818F7D808380818F7E80830895ED
:10058000E0E9F0E08081877F808380818B7F8083BA
:100590000895E0EAF0E080818F77808380818F7B0F
:1005A00080830895E0EAF0E080818F7D8083808100
:1005B0008F7E80830895E0EAF0E08081877F8083EA
:1005C00080818B7F80830895E0E8F0E080818D7FDB
:1005D000808380818E7F808380818F7D80838081F6
:1005E0008F7E80830895E0EBF0E080818D7F8083B3
:1005F00080818E7F808380818F7D808380818F7ECC
:1006000080830895E0E9F0E080818D7F80838081A0
:100610008E7F808380818F77808380818F7B8083B2
:1006200080818F7D808380818F7E80838081877FA2
:10063000808380818B7F80830895E0EAF0E0808171
:100640008D7F808380818E7F808380818F77808380
:1006500080818F7B808380818F7D808380818F7E6E
:1006600080838081877F808380818B7F80830895D2
:1006700090938B0080938A0008958093B40008952E
:100680009093990080939800089590939B00809395
:100690009A00089590939D0080939C0008959093F4
:1006A000A9008093A80008959093AB008093AA00BE
:1006B00008959093AD008093AC00089510BA11BADC
:1006C00010920701109208019FEF91B980E484B95C
:1006D00097B9589A599A83EF8AB98EEF8DB9A59A2E
:1006E0009D988093010180930401089508952E9AA6
:1006F00008952E98089522B330E085E03695279529
:100700008A95E1F72095309521703070C9010895E0
:1007100097FD10C025E030E040E050E00E94BD278A
:10072000DA01C901880F991F80509E4FFC0120817A
:10073000318117C025E030E040E050E00E94BD2745
:10074000DA01C901885B9F4FAF4FBF4F880F991FD8
:1007500080509E4FFC018081918122273327281BE6
:10076000390BC90108956A5570408040904097FD4B
:1007700010C025E030E040E050E00E94BD27DA01E3
:10078000C901880F991F80509E4FFC012081318143
:1007900017C025E030E040E050E00E94BD27DA01BC
:1007A000C901885B9F4FAF4FBF4F880F991F805083
:1007B0009E4FFC018081918122273327281B390B12
:1007C000C9010895CF92DF92EF92FF920F931F938A
:1007D0006B017C018AE5C816D104E104F104A1F1A2
:1007E00086EAC8168FEFD8068FEFE8068FEFF80677
:1007F00059F18EE0C81681E0D80680E0E80680E076
:10080000F80611F182EFC8168EEFD8068FEFE806D2
:100810008FEFF806C9F0C701B6010E94B3038C013F
:10082000C701B6010E948803BC01C8010E94882745
:10083000CB019B0173E0220F331F7A95E1F7880FFC
:10084000991F280F391F02C020E030E0C9011F9115
:100850000F91FF90EF90DF90CF90089508952F9221
:100860003F924F925F926F927F928F929F92AF9240
:10087000BF92CF92DF92EF92FF920F931F93062FBA
:10088000F72EE82ED92EC22EB32EA42E952E172F7A
:10089000360125018AEF0E945D18802F0E945D18A5
:1008A0008F2D0E945D188E2D0E945D188D2D0E9447
:1008B0005D188C2D0E945D188B2D0E945D188A2D6D
:1008C0000E945D18892D0E945D18100F1E0D170DD6
:1008D000160D150D140D812F890D0E945D181F91A5
:1008E0000F91FF90EF90DF90CF90BF90AF909F90CF
:1008F0008F907F906F905F904F903F902F900895D2
:100900000F931F93CF93DF930E940F1C80E040E072
:1009100056E960E070E00E94E91781E040E052ECA7
:1009200061E070E00E94E91782E040E056E960E093
:1009300070E00E94E91783E040E052EC61E070E073
:100940000E94E91782E698E10E94531D0E945E030F
:1009500080E06EE274E00E94DE1783E069E972E2F3
:100960000E94DE172E9800D00F9281E0EDB7FEB7FF
:1009700081838FE291E0938382830E94771F0F909F
:100980000F900F9085E00E94F51183E00E94031202
:1009900087E00E94151283E00E94251283E00E94E6
:1009A000371283E00E9449120E94C81C85E00E9411
:1009B000ED1C81E00E94F41C10E001E0CDE2D1E0EA
:1009C000812F0E943D1D00D00F92EDB7FEB701832D
:1009D000D383C2830E94771F1F5F0F900F900F90E9
:1009E000103171F72E9A00D00F92EDB7FEB7018348
:1009F00082E191E0938382830E94771F0F900F9092
:100A00000F900E94AB110E94B5110E94C2110E946A
:100A1000CD110E94DA110E94E711DF91CF911F9151
:100A20000F9108954F925F926F927F928F929F9253
:100A3000AF92BF92CF92DF92EF92FF920F931F93EC
:100A4000DF93CF93CDB7DEB7C05DD2400FB6F89439
:100A5000DEBF0FBECDBF0E948E220E94800400D058
:100A60000F9281E0ADB7BEB711968C9311978FEFBF
:100A700090E013969C938E9312970E94771F0F908D
:100A80000F900F9055245394B3EF6B2EB0E07B2E54
:100A90007E010894E11CF11CA0EF8A2EA0E09A2EA2
:100AA000F1EDAF2EF2E0BF2EAC0EBD1E44244394F8
:100AB000E4EECE2EE0E0DE2E00D00F92EDB7FEB7D2
:100AC0005182738262820E94771F0F900F900F9065
:100AD000C7010E940325870100D000D00F92EDB717
:100AE000FEB73196ADB7BEB711965C929282818205
:100AF000D8018D919D918D01948383830E94771FEE
:100B00000F900F900F900F900F900E94B71D0A1535
:100B10001B0511F700D00F92EDB7FEB74182D382CB
:100B2000C2820E94771F0F900F900F9088EE93E083
:100B30000E947012C1CFFC019C012D5F3F4F328398
:100B400021838FEF9FEF94838383368325833087C0
:100B5000278310820895FC01118610860895CF9393
:100B6000DF93AC01DB01EC0129813A81F90182813B
:100B7000938113969C938E93129789819A811596EF
:100B80009C938E9314970280F381E02D7583648388
:100B9000E9017B836A83FA017283618319965C930E
:100BA0004E93189780818F5F8083DF91CF91089556
:100BB000CF93DF939C01EB01488159818FEF4F3F29
:100BC000580721F4F901A781B08510C0D901139607
:100BD00004C012960D90BC91A02D1296ED91FC913F
:100BE0001397808191814817590798F71296ED91D4
:100BF000FC911397FB83EA83D583C483BD83AC83C5
:100C00001396DC93CE93129739872887F901808158
:100C10008F5F8083DF91CF910895CF93DF93DC01C5
:100C20001296ED91FC91139714968D919C911597C6
:100C3000958384831496CD91DC911597FB83EA8389
:100C40001896ED91FC911997818192818A179B07E3
:100C500011F4D283C18319961C921E921897808139
:100C600081508083DF91CF910895FC010FB6F894F5
:100C70000F92828D0F900FBE0895FC01828D089512
:100C8000FC01828D90E0882309F491E0892F08957A
:100C9000FC01928D20E0838D981709F421E0822FCA
:100CA00008950F931F938C01FC01808191810E9414
:100CB000AA10C8010E94AA101F910F9108950F93C6
:100CC0001F93CF93DF93EC01FB018A018A8D882368
:100CD00081F14881598141155105A9F08C8D2E81F2
:100CE0003F81280F311D3F832E838A819B812817E6
:100CF000390710F05F834E834C8D6E817F81CF0169
:100D000050E00E943F258A8D81508A8F8D8D8F3FC4
:100D100069F48885882361F0CE0108960E94BF0996
:100D2000882331F081E0F801808303C08F5F8D8FCD
:100D300081E0DF91CF911F910F910895CF93DF93C1
:100D4000EC01842F4C8D4423A1F18823B1F48C81D4
:100D50009D8150E00E943F258C8D2C813D81280F84
:100D6000311D3D832C838A819B812817390708F127
:100D7000888199819D838C831CC08E819F8150E0E6
:100D80000E943F258C8D90E044275527481B590B26
:100D90008E819F81840F951F9F838E832881398147
:100DA0008217930730F48A819B81840F951F9F835C
:100DB0008E838A8D8F5F8A8FDF91CF9108950F93F5
:100DC0001F93CF93DF93EC018A019A8D8B8D981737
:100DD00010F080E017C0CE01422F0E949E068E8D3B
:100DE0008F3F69F48989882361F0CE0141960E9482
:100DF000BF09882331F081E0F801808303C08F5F51
:100E00008E8F81E0DF91CF911F910F9108950F9305
:100E10001F93CF93DF93EC010FB6F8940F928C01E0
:100E20000F5E1F4F0DC08989882369F0C8010E9499
:100E3000BF09882311F00E94BB098E8D81508E8FCF
:100E40008E8D181684F38FEF8E8F0F900FBE0FB616
:100E5000F8940F928E01085F1F4F0DC0888588237C
:100E600069F0C8010E94BF09882311F00E94BB09E4
:100E70008D8D81508D8F8D8D181684F38FEF8D8F12
:100E80000F900FBEDF91CF911F910F9108957F9228
:100E90008F929F92AF92BF92CF92DF92EF92FF928A
:100EA0000F931F93DF93CF9300D000D00F92CDB755
:100EB000DEB78C01962E872E5D834C83722E91E1D6
:100EC000C92ED12CC00ED11E20E07E010894E11C59
:100ED000F11C84E0A82EB12CAC0EBD1E01C021E097
:100EE0000FB6F8940F92F801828D882309F43EC062
:100EF000E680F7804081518141155105B1F0848D24
:100F00009701280F311D378326838281938128170B
:100F1000390710F057834683F801448D6681778145
:100F2000892D982D50E00E943F25772071F4F8011B
:100F3000828D8150828F80858823A1F0C801089618
:100F40000E94BF09813071F40BC0F801F782E6827C
:100F50008189882339F0C6010E94BF09882311F0D6
:100F60000E94870E0F900FBE81E04AC08C819D8148
:100F7000892B19F40F900FBE42C0222319F4C70128
:100F80000E9476090F900FBE0E941A090FB6F894BE
:100F90000F92F801858D8F3F09F4158EF801868D2B
:100FA0008F3F09F4168E0F900FBEC701B5010E9446
:100FB00081098823F9F40FB6F8940F92F801828D15
:100FC0000F900FBE882381F46C817D81C6010E9441
:100FD000780AC8010E9407070E94B10A882309F015
:100FE0007ECF0E94870E7BCFC8010E9407070E9418
:100FF000B10A75CFC8010E9407070E94B10A80E0BC
:101000000F900F900F900F900F90CF91DF911F9145
:101010000F91FF90EF90DF90CF90BF90AF909F9097
:101020008F907F9008957F928F929F92AF92BF9200
:10103000CF92DF92EF92FF920F931F93DF93CF93A4
:1010400000D000D00F92CDB7DEB78C016B015D836D
:101050004C83722E48E0E42EF12CE80EF91E20E0BD
:101060005E010894A11CB11C34E0832E912C8C0EDF
:101070009D1E01C021E00FB6F8940F92F801928DE9
:10108000838D9817A8F4C801B601472D0E949E06CB
:10109000F8018189882341F0C80141960E94BF0967
:1010A000813011F40E94870E0F900FBE81E04CC07A
:1010B0008C819D81892B19F40F900FBE44C022238F
:1010C00019F4C5010E9476090F900FBE0E941A09FB
:1010D0000FB6F8940F92F801858D8F3F09F4158EA5
:1010E000F801868D8F3F09F4168E0F900FBEC50153
:1010F000B4010E948109882309F50FB6F8940F9274
:10110000F801928D0F900FBEF801838D981781F42E
:101110006C817D81C7010E94780AC8010E9407077F
:101120000E94B10A882309F0A5CF0E94870EA2CFA2
:10113000C8010E9407070E94B10A9CCFC8010E9403
:1011400007070E94B10A80E00F900F900F900F9058
:101150000F90CF91DF911F910F91FF90EF90DF9053
:10116000CF90BF90AF909F908F907F9008958F9277
:101170009F92AF92BF92CF92DF92EF92FF920F9326
:101180001F93CF93DF93982E862E882309F442C0B5
:101190008FE190E00E94BA108C01EC010097E1F120
:1011A000C92CDD24A82CBB24AC9C7001AD9CF00C98
:1011B000BC9CF00C1124C70101960E94BA109C013E
:1011C00099838883009719F1E80EF91EFB82EA8261
:1011D0001A8E9D838C830894C108D108CA9CC001D3
:1011E000CB9C900DDA9C900D1124280F391F3F8362
:1011F0002E839B8E8C8E8FEF8D8F8E8FC8010896DD
:101200000E949B05C80141960E949B0505C0C8012C
:101210000E94AA10C0E0D0E0CE01DF91CF911F91D3
:101220000F91FF90EF90DF90CF90BF90AF909F9085
:101230008F90089580919E028F5F80939E02089503
:101240000FB6F8940F9220919C0230919D020F905E
:101250000FBEC901089520919C0230919D02C901E1
:1012600008958091A102089580919E02882351F0F3
:1012700081E080939A02089580919F02815080932B
:101280009F0201C099E0E0919F02E99FF0011124C3
:10129000EA55FD4F8081882379F390919F0289E080
:1012A000989FD0011124AA55BD4F1196ED91FC9144
:1012B00012970280F381E02D1296FC93EE93119722
:1012C000CD010396E817F90731F4828193811296D4
:1012D0009C938E9311971196ED91FC9112978681B4
:1012E000978190939902809398020895FC018091D0
:1012F0009B02808380919C0290919D0292838183C6
:101300000895FC01DB010FB6F8940F9290919B02B7
:101310008081981749F020919C0230919D02818133
:1013200092812817390718F580919C0290919D02AF
:10133000218132814D915C911197821B930B84170F
:101340009507A8F480919C0290919D02281B390B6F
:10135000240F351F2D933C9380919B0280838091B5
:101360009C0290919D029283818380E001C081E084
:101370000F900FBE089581E080939A0208950F9315
:101380001F93CF93DF93FC018081882319F4C0E081
:10139000D0E005C00580F681E02DC681D7818E01A1
:1013A000045F1F4FC8010E940D0680919E02882392
:1013B000A1F48E010E5F1F4FC8010E940D069E8989
:1013C00080919F02891710F490939F0289E0989F63
:1013D000C00111248A559D4F02C080EE92E0B801F1
:1013E0000E94AF05E0919802F091990220E09E8959
:1013F0008689981708F021E0822FDF91CF911F9105
:101400000F910895FF920F931F93CF93DF938091D5
:101410009E02882309F061C080919C0290919D02F8
:10142000019690939D0280939C0280919C029091E2
:101430009D02892BE9F58091DC029091DD022091DB
:10144000DE023091DF023093DD022093DC029093C4
:10145000DF028093DE0280919B028F5F80939B026C
:1014600027C020919C0230919D028A819B81281780
:101470003907C0F18E010E5F1F4FC8010E940D0693
:101480008C899D89892B21F0CE010C960E940D0636
:101490009E8980919F02891710F490939F029F9DCF
:1014A000C00111248A559D4FB8010E94AF0502C0AA
:1014B00089E0F82EE091DC02F091DD028081882342
:1014C00089F0E091DC02F091DD020580F681E02DEB
:1014D000C681D781209729F605C08091A0028F5F31
:1014E0008093A002DF91CF911F910F91FF900895FB
:1014F0000F931F938B016091980270919902645F22
:101500007F4F0E94D805809198029091990202968F
:101510000E940D0680919C0290919D02800F911F68
:10152000E0919802F09199029383828320919C022A
:1015300030919D028217930728F48091DE029091EA
:10154000DF0204C08091DC029091DD02609198027C
:10155000709199026E5F7F4F0E94D8051F910F9185
:101560000895CF92DF92FF920F931F93DF93CF9353
:101570000F92CDB7DEB70FB6F8940F9280919E020E
:10158000815080939E0280919E02882309F05BC067
:101590008091A102882309F456C0198299E0F92E9E
:1015A00027C0C6010C960E940D0686010E5F1F4FD4
:1015B000C8010E940D06D60156969C9180919F020B
:1015C000891710F490939F029F9DC00111248A55A2
:1015D0009D4FB8010E94AF05E0919802F0919902E9
:1015E000D60156969C918689981710F0B1E0B98380
:1015F0008091E002882349F0E091E502F091E60253
:10160000C680D780C114D10461F68091A0028823DE
:1016100041F40CC00E94020A8091A0028150809384
:10162000A0028091A0028823A9F707C0E981E130D8
:1016300021F080919A02813031F410929A020E9436
:10164000870E81E001C080E00F900FBE0F90CF9118
:10165000DF911F910F91FF90DF90CF9008950F932E
:101660001F939C010097A1F180919E028F5F809350
:101670009E0200919C0210919D02020F131F809107
:1016800098029091990202960E940D06E0919802AC
:10169000F09199021383028380919C0290919D02A4
:1016A0000817190728F48091DE029091DF0204C028
:1016B0008091DC029091DD02609198027091990214
:1016C0006E5F7F4F0E94D8050E94B10A882311F4F3
:1016D0000E94870E1F910F910895CF93DF93FC0115
:1016E000EB0180919E028F5F80939E022081318169
:1016F000C20FD31F80919C0290919D028217930785
:1017000028F4C217D30728F020E00CC0C217D30773
:1017100040F080919C0290919D0220E08C179D07E3
:1017200008F421E0D183C083222329F1809198021B
:101730009091990202960E940D06E0919802F09114
:101740009902D383C28380919C0290919D02C81715
:10175000D90728F48091DE029091DF0204C08091C5
:10176000DC029091DD0260919802709199026E5FA7
:101770007F4F0E94D8050E94B10A882311F40E946D
:10178000870EDF91CF910895EF92FF920F931F93F1
:10179000CF93DF938C010FB6F8940F92809198024B
:1017A000909199020817190719F400E010E003C09E
:1017B0000115110529F4C0919802D091990201C038
:1017C000E80122E0E22EF12CEC0EFD1EC7010E9482
:1017D0000D068C899D89892B21F0CE010C960E94E3
:1017E0000D0689EE92E0B7010E94AF058091A30239
:1017F0008F5F8093A3028091A4028F5F8093A402E5
:101800000F900FBE8091A202882321F0012B11F4CA
:101810000E94870EDF91CF911F910F91FF90EF9063
:101820000895F8941092A2020E94280E08951F9322
:10183000CF93DF938091A302882391F180919E0240
:101840008F5F80939E021091E9020E94B10A1123DA
:1018500039F10FB6F8940F928091E902882319F4B8
:10186000C0E0D0E006C0E091EE02F091EF02C68148
:10187000D781CE0102960E940D068091A10281506F
:101880008093A1028091A30281508093A3020F90C4
:101890000FBE8F89988D0E94AA10CE010E94AA10B7
:1018A0008091A602823030F20E94870EC3CF2F9221
:1018B0003F925F926F927F928F929F92AF92BF9270
:1018C000CF92DF92EF92FF920F931F93DF93CF930C
:1018D00000D000D0CDB7DEB79A8389834B015A017F
:1018E0001901502E370181E290E00E94BA108B83DB
:1018F0009C838B819C81892B89F0C114D10421F4B4
:10190000C5010E94BA106C01EB81FC81D08EC78AA0
:10191000C114D10429F4CF010E94AA108FEFD5C0C1
:10192000C60165EA70E0A5010E9448250894A10857
:10193000B108EB81FC81E788F08CEA0CFB1CCF013D
:101940004996B40148E050E00E944F25EB81FC81AC
:1019500010A2052DF3E0F51508F403E0EB81FC81FE
:10196000068B42E0C42ED12CCE0EDF1EC6010E9493
:10197000AB058B819C810C960E94AB058B819C8171
:10198000FC019187808784E090E0801B9109958716
:101990008487F38BE28BC70169817A81A1010E9460
:1019A000A60DEB81FC81918380836114710421F089
:1019B000CF01F301918380830FB6F8940F92809149
:1019C000A1028F5F8093A102809198029091990269
:1019D000892BB9F5EB81FC81F0939902E093980291
:1019E0008091A1028130F1F586EA92E00E949B0588
:1019F0008FEA92E00E949B0588EB92E00E949B0593
:101A000081EC92E00E949B053AECE32E32E0F32E4B
:101A1000C7010E949B0503ED12E0C8010E949B05CF
:101A200080EE92E00E949B0589EE92E00E949B0569
:101A3000F092DD02E092DC021093DF020093DE02FE
:101A400011C08091A202882369F4E0919802F0917C
:101A500099028689581630F08B819C819093990267
:101A600080939802EB81FC8196898091A502891769
:101A700010F49093A5028091A4028F5F8093A4023A
:101A8000EB81FC81968980919F02891710F49093D5
:101A90009F02EB81FC81868929E0829FC00111248D
:101AA0008A559D4FB6010E94AF050F900FBE8091E1
:101AB000A202882349F0E0919802F0919902868968
:101AC000851510F40E94870E81E00F900F900F9003
:101AD0000F90CF91DF911F910F91FF90EF90DF90CA
:101AE000CF90BF90AF909F908F907F906F905F90BE
:101AF0003F902F900895AF92BF92CF92DF92EF92D6
:101B0000FF920F9387E19CE062E972E045E550E0C7
:101B100020E030E000E0EE24FF24CC24DD24AA24E1
:101B2000BB240E94570C813049F4F8948093A202A0
:101B300010929D0210929C020E94EE0D0F91FF9058
:101B4000EF90DF90CF90BF90AF900895FC0191E1AE
:101B5000908322E2229383E38293629372931292A0
:101B600080E88293129282E0829383E0829384E001
:101B7000829385E0829386E0829387E0829388E077
:101B8000829389E0829380E18293929382E18293AF
:101B900083E1829384E1829385E1829386E182935B
:101BA00087E1829388E1829389E1829380E2829344
:101BB00081E28293229383E282934293529386E25C
:101BC000829387E2829388E2829389E2829380E320
:101BD000829381E382933197CF0108951092890017
:101BE00089EF809388008BE080938100EFE6F0E03E
:101BF000808182608083A0919802B0919902CD91FA
:101C0000CDBFDD91DEBFFF91EF91DF91CF91BF910D
:101C1000AF919F918F917F916F915F914F913F9184
:101C20002F911F910F91FF90EF90DF90CF90BF9079
:101C3000AF909F908F907F906F905F904F903F906C
:101C40002F901F900F900FBE0F90089581E0089580
:101C500008950F920FB6F8940F921F9211242F92AD
:101C60003F924F925F926F927F928F929F92AF922C
:101C7000BF92CF92DF92EF92FF920F931F932F9319
:101C80003F934F935F936F937F938F939F93AF9304
:101C9000BF93CF93DF93EF93FF93A0919802B091FE
:101CA00099020DB60D920EB60D920E94020A0E9484
:101CB0003409A0919802B0919902CD91CDBFDD91E8
:101CC000DEBFFF91EF91DF91CF91BF91AF919F91D7
:101CD0008F917F916F915F914F913F912F911F91C4
:101CE0000F91FF90EF90DF90CF90BF90AF909F90BB
:101CF0008F907F906F905F904F903F902F901F90AC
:101D00000F900FBE0F9008950E94290E18950F9204
:101D10000FB6F8940F921F9211242F923F924F9278
:101D20005F926F927F928F929F92AF92BF92CF926B
:101D3000DF92EF92FF920F931F932F933F934F9356
:101D40005F936F937F938F939F93AF93BF93CF9343
:101D5000DF93EF93FF93A0919802B09199020DB693
:101D60000D920EB60D920E943409A0919802B09186
:101D70009902CD91CDBFDD91DEBFFF91EF91DF9153
:101D8000CF91BF91AF919F918F917F916F915F9113
:101D90004F913F912F911F910F91FF90EF90DF9006
:101DA000CF90BF90AF909F908F907F906F905F90FB
:101DB0004F903F902F901F900F900FBE0F9008955F
:101DC0000F931F93CF93DF93FC018081882319F435
:101DD000C0E0D0E005C00580F681E02DC681D78146
:101DE0008E01045F1F4FC8010E940D0683E293E03D
:101DF000B8010E94AF0520E0E091F202F091F302F9
:101E00009E898689981708F021E0822FDF91CF9173
:101E10001F910F910895FF920F931F93CF93DF931C
:101E200099E0F92E28C0F89480912303882319F4AF
:101E3000C0E0D0E006C0E0912803F0912903C681FC
:101E4000D781CE010C960E940D0678948E010E5F0C
:101E50001F4FC8010E940D069E898091F4028917C8
:101E600010F49093F4029F9DC001112485509D4F62
:101E7000B8010E94AF05809123038823A1F60E9438
:101E800020092091F5023091F602821B930B90936A
:101E9000F8028093F70289E0F82E54C001969093DF
:101EA000FA028093F902215030403093F8022093D7
:101EB000F702892BC9F520911F03309120038091EF
:101EC0002103909122039093200380931F0330936A
:101ED00022032093210328C02091F9023091FA02B5
:101EE0008A819B812817390768F1F8948E010E5F6B
:101EF0001F4FC8010E940D068C899D89892B21F0F6
:101F0000CE010C960E940D0678949E898091F40271
:101F1000891710F49093F4029F9DC00111248550FD
:101F20009D4FB8010E94AF05E0911F03F09120037F
:101F30008081882339F00580F681E02DC681D78124
:101F4000209751F62091F7023091F8028091F90222
:101F50009091FA022115310509F0A0CF9093F60275
:101F60008093F5029091F40229E006C0992319F4B8
:101F70001092F40232C09150929FD0011124A550CA
:101F8000BD4F8C91882391F39093F4021196ED91BB
:101F9000FC9112970280F381E02D1296FC93EE9350
:101FA0001197CD010396E817F90731F482819381E7
:101FB00012969C938E9311971196ED91FC91129726
:101FC0000680F781E02DF093F302E093F202208186
:101FD0003181CF016789F9010995DF91CF911F9177
:101FE0000F91FF9008950F931F93CF93DF93EB0111
:101FF0000091F9021091FA02080F191F8091F20264
:102000009091F30202960E940D06E091F202F09187
:10201000F302138302838091F9029091FA02BF01C7
:102020006E5F7F4F0817190728F480912103909164
:10203000220304C080911F03909120030E94D805C1
:10204000209749F06091F2027091F302645F7F4F34
:10205000CE010E94D805DF91CF911F910F91089575
:10206000AF92BF92CF92DF92EF92FF920F931F93A6
:10207000CF93DF936C01B62EA42E8AE190E00E94EC
:10208000BA10EC01009711F48FEF59C08091F20261
:102090009091F302892B21F5D093F302C093F202C1
:1020A0008BEF92E00E949B0584E093E00E949B05E9
:1020B0002DE0E22E23E0F22EC7010E949B0506E1EF
:1020C00013E0C8010E949B0583E293E00E949B05F8
:1020D000F0922003E0921F03109322030093210348
:1020E000EB2CBB2011F0EE24E394198E188EEE8AAF
:1020F000AF8AFE01C192D1928F01CF010E94AB0540
:10210000CE010C960E94AB05D987C887DB8BCA8BA2
:1021100084E090E08E1991099D878C879E8980913B
:10212000F402891710F49093F40289E0989FC0019B
:10213000112485509D4FB8010E94AF0581E0DF91C9
:10214000CF911F910F91FF90EF90DF90CF90BF90B4
:10215000AF900895089510922D0310922C030895C6
:1021600028EB3BE080912C0390912D03281B390B29
:10217000C90108950F931F93CF93DF938C010E94A1
:102180001A0980912C0390912D039801280F391F73
:102190004BE0283B340758F48217930740F4EC01D6
:1021A000C25DDC4F30932D0320932C0302C0C0E0AE
:1021B000D0E00E94B10ACE01DF91CF911F910F9123
:1021C0000895E82FF0E0E770F070EE0FFF1FEE5B70
:1021D000FE4F25913491C9010895E82FF0E0E77092
:1021E000F070EE0FFF1FE25BFE4F25913491C901A5
:1021F000089585B5E82FF0E0E770F070EE0FFF1F4F
:10220000EE5BFE4F25913491C901089580918100C4
:10221000E82FF0E0E770F070EE0FFF1FEE5BFE4F6F
:1022200025913491C90108958091B100E82FF0E023
:10223000E770F070EE0FFF1FE25BFE4F25913491C7
:10224000C901089580919100E82FF0E0E770F070E7
:10225000EE0FFF1FEE5BFE4F25913491C9010895EB
:102260008091A100E82FF0E0E770F070EE0FFF1F03
:10227000EE5BFE4F25913491C901089580912101B3
:10228000E82FF0E0E770F070EE0FFF1FEE5BFE4FFF
:1022900025913491C90108952091C6113091C7113B
:1022A0004091C8115091C911B901CA0108952091F6
:1022B000C2113091C3114091C4115091C511B9019F
:1022C000CA0108952091CA113091CB114091CC11CF
:1022D0005091CD11B901CA0108952091D2113091C8
:1022E000D3114091D4115091D511B901CA0108956B
:1022F0002091BE113091BF114091C0115091C11178
:10230000B901CA0108952091D6113091D711409199
:10231000D8115091D911B901CA01089586B508950F
:102320002091840030918500C90108958091B20008
:1023300008952091940030919500C901089520914D
:10234000A4003091A500C901089520912401309185
:102350002501C90108951092C6111092C71110925B
:10236000C8111092C91116BC08951092C211109292
:10237000C3111092C4111092C511109285001092D1
:10238000840008951092CA111092CB111092CC11B2
:102390001092CD111092B20008951092D2111092A5
:1023A000D3111092D4111092D51110929500109261
:1023B000940008951092BE111092BF111092C01196
:1023C0001092C1111092A5001092A40008951092CD
:1023D000D6111092D7111092D8111092D9111092D3
:1023E0002501109224010895089585BD81E0809310
:1023F0006E001092C6111092C7111092C81110925F
:10240000C91116BC08958093810081E080936F000C
:102410001092C2111092C3111092C4111092C511E2
:10242000109285001092840008958093B10081E09D
:10243000809370001092CA111092CB111092CC119F
:102440001092CD111092B20008958093910081E016
:10245000809371001092D2111092D3111092D41166
:102460001092D511109295001092940008958093C7
:10247000A10081E0809372001092BE111092BF11F2
:102480001092C0111092C1111092A5001092A400D8
:1024900008958093210181E0809373001092D611FA
:1024A0001092D7111092D8111092D91110922501C3
:1024B000109224010895E82FF0E0EE0FFF1FEA517B
:1024C000F14F718360830895E82FF0E0EE0FFF1F56
:1024D000EA51F14F1182108208950197F1F70895A2
:1024E000AF92BF92CF92DF92EF92FF920F931F9322
:1024F000A0E0B0E0BC01CD010E945B265B016C0155
:1025000020E030E04AE755E40E9411277B018C016E
:1025100020E030E040E85FE30E94C32588231CF4FC
:1025200061E070E024C0C801B70120E03FEF4FE751
:1025300057E40E940D271816B4F4C601B50120E037
:1025400030E040E251E40E9411270E942F2680E9EA
:1025500091E005C0FC013197F1F7615070406115C1
:102560007105C1F707C0C801B7010E942F26CB0132
:102570000197F1F71F910F91FF90EF90DF90CF90AF
:10258000BF90AF9008951F920F920FB60F92112433
:102590002F933F934F935F936F937F938F939F936B
:1025A000AF93BF93EF93FF938091C6119091C711A2
:1025B000A091C811B091C9110196A11DB11D8093C0
:1025C000C6119093C711A093C811B093C9118091FF
:1025D000CE119091CF11A091D011B091D11101964F
:1025E000A11DB11D8093CE119093CF11A093D01156
:1025F000B093D1118091EA0E9091EB0E892B29F0C6
:10260000E091EA0EF091EB0E0995FF91EF91BF91E9
:10261000AF919F918F917F916F915F914F913F917A
:102620002F910F900FBE0F901F9018951F920F9231
:102630000FB60F9211242F933F934F935F936F9395
:102640007F938F939F93AF93BF93EF93FF9380916B
:10265000C2119091C311A091C411B091C5110196FE
:10266000A11DB11D8093C2119093C311A093C411F9
:10267000B093C5118091F40E9091F50E892B29F03D
:10268000E091F40EF091F50E0995FF91EF91BF9155
:10269000AF919F918F917F916F915F914F913F91FA
:1026A0002F910F900FBE0F901F9018951F920F92B1
:1026B0000FB60F9211242F933F934F935F936F9315
:1026C0007F938F939F93AF93BF93EF93FF938091EB
:1026D000CA119091CB11A091CC11B091CD1101965E
:1026E000A11DB11D8093CA119093CB11A093CC1161
:1026F000B093CD118091FA0E9091FB0E892B29F0A9
:10270000E091FA0EF091FB0E0995FF91EF91BF91C8
:10271000AF919F918F917F916F915F914F913F9179
:102720002F910F900FBE0F901F9018951F920F9230
:102730000FB60F9211242F933F934F935F936F9394
:102740007F938F939F93AF93BF93EF93FF9380916A
:10275000D2119091D311A091D411B091D5110196BD
:10276000A11DB11D8093D2119093D311A093D411C8
:10277000B093D5118091040F9091050F892B29F00A
:10278000E091040FF091050F0995FF91EF91BF9132
:10279000AF919F918F917F916F915F914F913F91F9
:1027A0002F910F900FBE0F901F9018951F920F92B0
:1027B0000FB60F9211242F933F934F935F936F9314
:1027C0007F938F939F93AF93BF93EF93FF938091EA
:1027D000BE119091BF11A091C011B091C11101968D
:1027E000A11DB11D8093BE119093BF11A093C01184
:1027F000B093C11180910E0F90910F0F892B29F08A
:10280000E0910E0FF0910F0F0995FF91EF91BF919D
:10281000AF919F918F917F916F915F914F913F9178
:102820002F910F900FBE0F901F9018951F920F922F
:102830000FB60F9211242F933F934F935F936F9393
:102840007F938F939F93AF93BF93EF93FF93809169
:10285000D6119091D711A091D811B091D9110196AC
:10286000A11DB11D8093D6119093D711A093D811BB
:10287000B093D9118091180F9091190F892B29F0DD
:10288000E091180FF091190F0995FF91EF91BF9109
:10289000AF919F918F917F916F915F914F913F91F8
:1028A0002F910F900FBE0F901F9018951F920F92AF
:1028B0000FB60F9211242F933F934F935F936F9313
:1028C0007F938F939F93AF93BF93EF93FF938091E9
:1028D000E60E9091E70E892B29F0E091E60EF0913B
:1028E000E70E0995FF91EF91BF91AF919F918F9165
:1028F0007F916F915F914F913F912F910F900FBEFC
:102900000F901F9018951F920F920FB60F921124DF
:102910002F933F934F935F936F937F938F939F93E7
:10292000AF93BF93EF93FF938091E80E9091E90EE0
:10293000892B29F0E091E80EF091E90E0995FF91BD
:10294000EF91BF91AF919F918F917F916F915F9127
:102950004F913F912F910F900FBE0F901F901895A0
:102960001F920F920FB60F9211242F933F934F9304
:102970005F936F937F938F939F93AF93BF93EF93E7
:10298000FF938091EC0E9091ED0E892B29F0E09150
:10299000EC0EF091ED0E0995FF91EF91BF91AF9183
:1029A0009F918F917F916F915F914F913F912F9167
:1029B0000F900FBE0F901F9018951F920F920FB699
:1029C0000F9211242F933F934F935F936F937F93B5
:1029D0008F939F93AF93BF93EF93FF938091F00EEC
:1029E0009091F10E892B29F0E091F00EF091F10E0B
:1029F0000995FF91EF91BF91AF919F918F917F9139
:102A00006F915F914F913F912F910F900FBE0F905B
:102A10001F9018951F920F920FB60F9211242F93AB
:102A20003F934F935F936F937F938F939F93AF9356
:102A3000BF93EF93FF938091F20E9091F30E892B49
:102A400029F0E091F20EF091F30E0995FF91EF91CC
:102A5000BF91AF919F918F917F916F915F914F91B6
:102A60003F912F910F900FBE0F901F9018951F92BE
:102A70000F920FB60F9211242F933F934F935F93B2
:102A80006F937F938F939F93AF93BF93EF93FF9336
:102A90008091F60E9091F70E892B29F0E091F60EB9
:102AA000F091F70E0995FF91EF91BF91AF919F9132
:102AB0008F917F916F915F914F913F912F910F90E7
:102AC0000FBE0F901F9018951F920F920FB60F9286
:102AD00011242F933F934F935F936F937F938F9323
:102AE0009F93AF93BF93EF93FF938091F80E9091D4
:102AF000F90E892B29F0E091F80EF091F90E099565
:102B0000FF91EF91BF91AF919F918F917F916F91C5
:102B10005F914F913F912F910F900FBE0F901F909B
:102B200018951F920F920FB60F9211242F933F9377
:102B30004F935F936F937F938F939F93AF93BF93C5
:102B4000EF93FF938091FC0E9091FD0E892B29F05D
:102B5000E091FC0EF091FD0E0995FF91EF91BF9170
:102B6000AF919F918F917F916F915F914F913F9125
:102B70002F910F900FBE0F901F9018951F920F92DC
:102B80000FB60F9211242F933F934F935F936F9340
:102B90007F938F939F93AF93BF93EF93FF93809116
:102BA000FE0E9091FF0E892B29F0E091FE0EF09120
:102BB000FF0E0995FF91EF91BF91AF919F918F917A
:102BC0007F916F915F914F913F912F910F900FBE29
:102BD0000F901F9018951F920F920FB60F9211240D
:102BE0002F933F934F935F936F937F938F939F9315
:102BF000AF93BF93EF93FF938091000F9091010FDC
:102C0000892B29F0E091000FF091010F0995FF91B8
:102C1000EF91BF91AF919F918F917F916F915F9154
:102C20004F913F912F910F900FBE0F901F901895CD
:102C30001F920F920FB60F9211242F933F934F9331
:102C40005F936F937F938F939F93AF93BF93EF9314
:102C5000FF938091020F9091030F892B29F0E0914F
:102C6000020FF091030F0995FF91EF91BF91AF9182
:102C70009F918F917F916F915F914F913F912F9194
:102C80000F900FBE0F901F9018951F920F920FB6C6
:102C90000F9211242F933F934F935F936F937F93E2
:102CA0008F939F93AF93BF93EF93FF938091060F02
:102CB0009091070F892B29F0E091060FF091070FF3
:102CC0000995FF91EF91BF91AF919F918F917F9166
:102CD0006F915F914F913F912F910F900FBE0F9089
:102CE0001F9018951F920F920FB60F9211242F93D9
:102CF0003F934F935F936F937F938F939F93AF9384
:102D0000BF93EF93FF938091080F9091090F892B48
:102D100029F0E091080FF091090F0995FF91EF91CB
:102D2000BF91AF919F918F917F916F915F914F91E3
:102D30003F912F910F900FBE0F901F9018951F92EB
:102D40000F920FB60F9211242F933F934F935F93DF
:102D50006F937F938F939F93AF93BF93EF93FF9363
:102D600080910A0F90910B0F892B29F0E0910A0FA7
:102D7000F0910B0F0995FF91EF91BF91AF919F914A
:102D80008F917F916F915F914F913F912F910F9014
:102D90000FBE0F901F9018951F920F920FB60F92B3
:102DA00011242F933F934F935F936F937F938F9350
:102DB0009F93AF93BF93EF93FF9380910C0F9091EC
:102DC0000D0F892B29F0E0910C0FF0910D0F099553
:102DD000FF91EF91BF91AF919F918F917F916F91F3
:102DE0005F914F913F912F910F900FBE0F901F90C9
:102DF00018951F920F920FB60F9211242F933F93A5
:102E00004F935F936F937F938F939F93AF93BF93F2
:102E1000EF93FF938091100F9091110F892B29F060
:102E2000E091100FF091110F0995FF91EF91BF9173
:102E3000AF919F918F917F916F915F914F913F9152
:102E40002F910F900FBE0F901F9018951F920F9209
:102E50000FB60F9211242F933F934F935F936F936D
:102E60007F938F939F93AF93BF93EF93FF93809143
:102E7000120F9091130F892B29F0E091120FF0910E
:102E8000130F0995FF91EF91BF91AF919F918F9192
:102E90007F916F915F914F913F912F910F900FBE56
:102EA0000F901F9018951F920F920FB60F9211243A
:102EB0002F933F934F935F936F937F938F939F9342
:102EC000AF93BF93EF93FF938091140F9091150FE1
:102ED000892B29F0E091140FF091150F0995FF91BE
:102EE000EF91BF91AF919F918F917F916F915F9182
:102EF0004F913F912F910F900FBE0F901F901895FB
:102F00001F920F920FB60F9211242F933F934F935E
:102F10005F936F937F938F939F93AF93BF93EF9341
:102F2000FF938091160F9091170F892B29F0E09154
:102F3000160FF091170F0995FF91EF91BF91AF9187
:102F40009F918F917F916F915F914F913F912F91C1
:102F50000F900FBE0F901F9018951F920F920FB6F3
:102F60000F9211242F933F934F935F936F937F930F
:102F70008F939F93AF93BF93EF93FF9300D00F92E4
:102F800081E0EDB7FEB781838EE591E09383828384
:102F90000E94771F0F900F900F90FF91EF91BF91BC
:102FA000AF919F918F917F916F915F914F913F91E1
:102FB0002F910F900FBE0F901F901895843040F402
:102FC000E82FF0E0EE0FFF1FE65AFE4E718360839C
:102FD00008951F93182F9A01AB01CA01B9016058D7
:102FE0007B47814E9F4FF3E0660F771F881F991F25
:102FF000FA95D1F7E4E0220F331F441F551FEA95DD
:10300000D1F70E949B2721503040133029F42093A0
:1030100034013093350112C0123029F42093D400CA
:103020003093D5000BC0113029F42093CC0030939D
:10303000CD0004C02093C4003093C5001F910895B3
:10304000282F30E0A3E0220F331FAA95E1F7225288
:103050003E4EC9010895282F30E0B3E0220F331F00
:10306000BA95E1F72E5F3D4EC9010895E82F8330F0
:1030700039F48091300185FFFCCF6093360118C090
:10308000823039F48091D00085FFFCCF6093D60068
:103090000FC0813039F48091C80085FFFCCF609368
:1030A000CE0006C08091C00085FFFCCF6093C600B3
:1030B000F0E0E652FE4E10820895682F80E00E94F4
:1030C00036180895682F81E00E9436180895682FF9
:1030D00082E00E9436180895682F83E00E94361817
:1030E000089520E0E82FF0E083E0EE0FFF1F8A95BF
:1030F000E1F7EE51FE4E80819181892B09F421E0A8
:10310000822F0895CF93DF93833019F460913601B5
:103110000CC0823019F46091D60007C0813019F4D8
:103120006091CE0002C06091C600282F30E0E90116
:10313000CC0FDD1FFE01E65AFE4E80819181892B66
:1031400031F00190F081E02D862F099514C093E0B5
:10315000220F331F9A95E1F7C90182529E4E0E94B9
:103160008E1C882341F4FE01EE5DFD4E808191812D
:10317000019691838083DF91CF9108951F920F92E2
:103180000FB60F9211242F933F934F935F936F933A
:103190007F938F939F93AF93BF93EF93FF9383E0BE
:1031A0000E948218FF91EF91BF91AF919F918F91F3
:1031B0007F916F915F914F913F912F910F900FBE33
:1031C0000F901F9018951F920F920FB60F92112417
:1031D0002F933F934F935F936F937F938F939F931F
:1031E000AF93BF93EF93FF9382E00E948218FF9109
:1031F000EF91BF91AF919F918F917F916F915F916F
:103200004F913F912F910F900FBE0F901F901895E7
:103210001F920F920FB60F9211242F933F934F934B
:103220005F936F937F938F939F93AF93BF93EF932E
:10323000FF9381E00E948218FF91EF91BF91AF91BF
:103240009F918F917F916F915F914F913F912F91BE
:103250000F900FBE0F901F9018951F920F920FB6F0
:103260000F9211242F933F934F935F936F937F930C
:103270008F939F93AF93BF93EF93FF9380E00E9450
:103280008218FF91EF91BF91AF919F918F917F91A4
:103290006F915F914F913F912F910F900FBE0F90C3
:1032A0001F9018958F929F92AF92BF92CF92DF920C
:1032B000EF92FF920F931F93CF93DF93882EDB0142
:1032C000C82EDD24F60113E0EE0FFF1F1A95E1F77B
:1032D000EA5FFD4E20813181240F351FF60173E036
:1032E000EE0FFF1F7A95E1F7EC5FFD4E8081918133
:1032F0002817390770F54115510559F19C90760151
:1033000063E0EE0CFF1C6A95E1F782E092E1E80EC3
:10331000F91E8D01C0E0D0E05A010894A108B1085F
:1033200006C0C701F80160810E948E1C21960F5FC4
:103330001F4FCA15DB05A8F38EEF91E1C80ED91E09
:103340008FEFF6018083882D692D0E9436188FEF4C
:1033500001C080E0DF91CF911F910F91FF90EF901E
:10336000DF90CF90BF90AF909F908F90089590E0A6
:1033700023E0880F991F2A95E1F78E5F9D4E0E94EA
:103380008E1C0895682F8AE192E10E948E1C089598
:10339000682F82E192E10E948E1C0895682F8AE0D6
:1033A00092E10E948E1C0895682F82E092E10E94B3
:1033B0008E1C0895CF93DF93282FA82FB0E0ED0146
:1033C000C250DE4E8881882379F1FD0133E0EE0F93
:1033D000FF1F3A95E1F7EA5FFD4E80819181892BCD
:1033E00011F1233039F48AE192E10E94251C809387
:1033F00036011EC0223039F482E192E10E94251C80
:103400008093D60015C0213039F48AE092E10E9401
:10341000251C8093CE000CC082E092E10E94251C06
:103420008093C60005C01882A652BE4E8FEF8C93C3
:10343000DF91CF9108951F920F920FB60F92112432
:103440002F933F934F935F936F937F938F939F93AC
:10345000AF93BF93EF93FF9383E00E94DA19FF913C
:10346000EF91BF91AF919F918F917F916F915F91FC
:103470004F913F912F910F900FBE0F901F90189575
:103480001F920F920FB60F9211242F933F934F93D9
:103490005F936F937F938F939F93AF93BF93EF93BC
:1034A000FF9382E00E94DA19FF91EF91BF91AF91F3
:1034B0009F918F917F916F915F914F913F912F914C
:1034C0000F900FBE0F901F9018951F920F920FB67E
:1034D0000F9211242F933F934F935F936F937F939A
:1034E0008F939F93AF93BF93EF93FF9381E00E94DD
:1034F000DA19FF91EF91BF91AF919F918F917F91D9
:103500006F915F914F913F912F910F900FBE0F9050
:103510001F9018951F920F920FB60F9211242F93A0
:103520003F934F935F936F937F938F939F93AF934B
:10353000BF93EF93FF9380E00E94DA19FF91EF9120
:10354000BF91AF919F918F917F916F915F914F91BB
:103550003F912F910F900FBE0F901F9018951F93C2
:10356000182F90E0FC01E250FE4E2FEF208343E045
:10357000880F991F4A95E1F78E5F9D4E0E94251C8A
:10358000682F812F0E9436181F910895CF93DF93E3
:10359000EB01282F30E0F90173E0EE0FFF1F7A9561
:1035A000E1F7E052FE4E80819181892BC9F0F9014B
:1035B00063E0EE0FFF1F6A95E1F7EE51FE4E80814A
:1035C0009181892B69F053E0220F331F5A95E1F75F
:1035D000C90182529E4E0E94251C88838FEF01C034
:1035E00080E0DF91CF910895DF93CF930F92CDB715
:1035F000DEB783E0BE016F5F7F4F0E94C61A88234B
:1036000019F42FEF3FEF03C08981282F30E0C90163
:103610000F90CF91DF910895DF93CF930F92CDB7A5
:10362000DEB782E0BE016F5F7F4F0E94C61A88231B
:1036300019F42FEF3FEF03C08981282F30E0C90133
:103640000F90CF91DF910895DF93CF930F92CDB775
:10365000DEB781E0BE016F5F7F4F0E94C61A8823EC
:1036600019F42FEF3FEF03C08981282F30E0C90103
:103670000F90CF91DF910895DF93CF930F92CDB745
:10368000DEB780E0BE016F5F7F4F0E94C61A8823BD
:1036900019F42FEF3FEF03C08981282F30E0C901D3
:1036A0000F90CF91DF91089590E0E3E0880F991F8C
:1036B000EA95E1F782529E4E0E94C11C089586EF62
:1036C00091E16AEC70E140E850E00E94181C8AE148
:1036D00092E16AE471E140E150E00E94181C089513
:1036E0000E945F1B109261111092601188ED80930F
:1036F000310183E040E855E260E070E00E94E917A4
:103700008FEF8093DD111092011210922912109206
:103710002812789408958EEE91E16AE370E140E812
:1037200050E00E94181C82E192E16AEB70E140E1F6
:1037300050E00E94181C08950E948B1B10925F118C
:1037400010925E1188ED8093D10082E040E855E24E
:1037500060E070E00E94E9178FEF8093DC11109217
:10376000001210922712109226127894089586EE75
:1037700091E16AEA7FE040E850E00E94181C8AE08C
:1037800092E16AE270E140E150E00E94181C089565
:103790000E94B71B10925D1110925C1188ED80930E
:1037A000C90081E040E855E260E070E00E94E9175E
:1037B0008FEF8093DB111092FF111092251210925F
:1037C0002412789408958EED91E16AE17FE040E85B
:1037D00050E00E94181C82E092E16AE97FE040E13B
:1037E00050E00E94181C08950E94E31B10925B1188
:1037F00010925A1188ED8093C10080E040E855E2B4
:1038000060E070E00E94E9178FEF8093DA11109268
:10381000FE111092231210922212789408950E94A1
:10382000F41B0E94C81B0E949C1B0E94701B0895E1
:10383000FC018FB7F89471836083538342831782AE
:103840001682158214828FBF0895DC014FB7F89459
:1038500014968D919C911597892B11F4E0E025C069
:1038600016968D919C911797ED91FC911197E80F09
:10387000F91FE081019617969C938E9316971296E6
:103880002D913C9113978217930730F0821B930B75
:1038900017969C938E93169714968D919C911597DD
:1038A000019715969C938E9314974FBF8E2F089572
:1038B000FC014FB7F8948481958168177907B0F4BB
:1038C00086819781860F971F978386832281338114
:1038D0008217930720F0821B930B97838683848142
:1038E0009581861B970B9583848302C01582148271
:1038F0004FBF0895FC01CB012FB7F8942FBF26814D
:10390000378162817381820F931F0E947427019017
:10391000F081E02DE80FF91F808108951F93CF9368
:10392000DF93EC01162F4FB7F8942C813D816A810B
:103930007B812617370798F48E819F81820F931F12
:103940000E947427E881F981E80FF91F10838C81A8
:103950009D8101969D838C834FBF8FEF02C04FBF27
:1039600080E0DF91CF911F910895FC018FB7F8940B
:103970008FBF2281338184819581281B390BC90136
:103980000895FC018FB7F894158214828FBF0895B3
:10399000AAE7B0E08C9180688C938C918F7D8C939A
:1039A0008C91887F86608C93ECE7F0E080818F7348
:1039B0008064808380818F7D80838C9188608C93EC
:1039C00010922A1278940895EAE7F0E08081877FC8
:1039D000808380818F7780830895EAE7F0E090818B
:1039E000987F982B90830895ECE7F0E09081829582
:1039F000880F880F807C9F73982B90830895ECE745
:103A0000F0E090818F71907E892B80830895EAE7A2
:103A1000F0E080818061808380818064808308956C
:103A200080917A0080740895982F10922A1288301D
:103A300020F080917B00886003C080917B00877FAD
:103A400080937B0080917C009770887F892B809386
:103A50007C0080917A00806180937A0080917A0066
:103A6000806480937A0080917A0086FDFCCF20915B
:103A7000780030917900C90108950E94141D96952F
:103A800087959695879508951F920F920FB60F927E
:103A900011248F938FEF80932A128F910F900FBE76
:103AA0000F901F9018959093631180936211089561
:103AB0001F93182F8A3031F4E0916211F091631155
:103AC0008DE00995E0916211F0916311812F0995C4
:103AD0001F910895CF93DF93EC01009721F406C066
:103AE00021960E94581D88818823D1F7DF91CF91BC
:103AF0000895EF92FF920F931F93CF93DF938C0162
:103B00007A010097E9F020E030E02617370738F413
:103B1000F80181918F012F5F3F4F8823B1F7C0E0FB
:103B2000D0E00BC0F8018081882319F00F5F1F4F90
:103B300001C080E20E94581D2196CE15DF0590F34A
:103B4000DF91CF911F910F91FF90EF900895CF9348
:103B5000DF93EC01009719F407C00E94581DFE0185
:103B6000219684918823C9F7DF91CF9108958AE047
:103B70000E94581D0895E82FF0E0EF70F070E159B1
:103B8000FE4FE4918E2F0E94581D08951F93182F09
:103B900082958F700E94BB1D812F0E94BB1D1F91BB
:103BA00008951F93182F892F0E94C61D812F0E94F0
:103BB000C61D1F910895EF92FF920F931F937B01F3
:103BC0008C01C801AA27BB270E94D11DC7010E94F2
:103BD000D11D1F910F91FF90EF9008952F923F926A
:103BE0004F925F926F927F928F929F92AF92BF920D
:103BF000CF92DF92EF92FF920F931F93DF93CF93B9
:103C0000CDB7DEB7A3970FB6F894DEBF0FBECDBF1A
:103C10006AA3242E2BA337014801442351F017FF38
:103C200008C0EE24FF248701E618F70808091909DF
:103C300002C0840173012AA1215090E0211091E07B
:103C4000291B29A318A2A82EBB24CC24DD24C8013B
:103C5000B701A60195010E949B27FB01EF70F07050
:103C6000E159FE4F64916F8FC801B701A60195011C
:103C70000E949B27C901DA017C018D019EE1492E3A
:103C8000512C4C0E5D1E39A025C0E114F104010534
:103C90001105C9F0C801B701A60195010E949B2733
:103CA000FB01EF70F070E159FE4F6491F201608307
:103CB000C801B701A60195010E949B27C901DA013D
:103CC0007C018D0103C02BA1F20120833A9408945A
:103CD000410851083320C9F6CE014F968C01E9A165
:103CE0000E1B11092220F1F097FE05C08DE2F801AC
:103CF00082938F0117C0C801019761147104810478
:103D0000910419F08C018BE202C08C0180E2F80171
:103D1000808308C0F80181918F010E94581DFAA18B
:103D2000F150FAA32AA12223A9F7A3960FB6F8947B
:103D3000DEBF0FBECDBFCF91DF911F910F91FF90DE
:103D4000EF90DF90CF90BF90AF909F908F907F903B
:103D50006F905F904F903F902F9008954F925F9299
:103D60006F927F928F929F92AF92BF92CF92DF928B
:103D7000EF92FF920F931F93CF93DF93482E5A0138
:103D80006B01CB01BA0120E030E040E050E00E943E
:103D90000D2718161CF43501460106C035014601F1
:103DA00097FA909497F890940F2EF0E0EF2EF0E0B1
:103DB000FF2EF0E80F2FFFE31F2FF02D5524C40135
:103DC000B301A80197010E94C72520E030E040E23E
:103DD00051E40E94C32587FD0EC0C801B70120E051
:103DE00030E040E251E40E9411277B018C015394A2
:103DF0008FE0581621F7C601B50120E030E040E021
:103E000050E00E94C325882314F48DE201C08BE2A8
:103E10000E94581DDD24AA2456C0C401B301A80184
:103E200097010E94C7250E942F26B62ED62ACD2D97
:103E3000D0E0CC24DD24C801B70120E030E040E828
:103E40005FE30E94C325882319F421E0C22ED12C00
:103E5000CC29DD29CD2B39F08B2D805D0E94581D9A
:103E6000DD24DA9404C080E20E94581DDD24C801DC
:103E7000B70120E030E040E85FE30E94C3258823DB
:103E800019F48EE20E94581D6B2D70E0882777FD93
:103E90008095982F0E945D26A80197010E94112706
:103EA0009B01AC01C401B3010E945E253B014C01A2
:103EB000C801B70120E030E040E251E40E94C7258C
:103EC0007B018C01A394A41408F4A7CFDF91CF91B8
:103ED0001F910F91FF90EF90DF90CF90BF90AF9028
:103EE0009F908F907F906F905F904F9008957F92FA
:103EF0008F929F92AF92BF92CF92DF92EF92FF92FA
:103F00000F931F93DF93CF93CDB7DEB77888C9881F
:103F1000DA8863E1E62EF12CEC0EFD1E14C0882336
:103F200081F480E090E0CF91DF911F910F91FF909D
:103F3000EF90DF90CF90BF90AF909F908F907F9049
:103F400008950E94581D96012F5F3F4F772021F062
:103F5000F6016901849103C0F6018081690185320F
:103F6000F1F62F5F3F4F772021F0F6016901849130
:103F700003C0F60180816901843629F0883781F019
:103F80008336F9F606C000E117E25AE0A52EB12CFF
:103F90000CC0F701808122E030E0E20EF31ED1CFA9
:103FA00000E010E140E1A42EB12C32E0832E912CF0
:103FB0008E0C9F1CF701E080F1808436B1F4F7FE8F
:103FC00011C0F094E194F108F3948DE20E94581D21
:103FD00009C0C8016AE070E00E9474278B0162305A
:103FE000710518F0E016F106A0F3C701B8010E94B0
:103FF0007427862F0E94BB1DC701B8010E94742739
:104000007C01C801B5010E9474278B0161157105FF
:1040100061F7740198CF2091B9002E7F2093B900E9
:104020002091B9002D7F2093B9009C0140E050E021
:1040300060E87EE380E090E00E94BD27203130F010
:10404000822F90E0409795958795282F2093B80070
:104050000895589A599A1092AB111092AA11109281
:10406000AD111092AC1184E690E00E940B20ECEBB5
:10407000F0E080818460808310926411808181608F
:1040800080838081806480837894089590E06111BA
:1040900091E08E7F982B9093BA0008959093AB1186
:1040A0008093AA1108959093AD118093AC11089557
:1040B000ECEBF0E080818F70806A80830895ECEBF8
:1040C000F0E080818F70806D808308958091BC00C6
:1040D00087FFFCCF08958093BB00ECEBF0E080817C
:1040E0008F70806880830895882329F08091BC00B8
:1040F0008F70806C04C08091BC008F70806880934A
:10410000BC0008958091BB0008958091B900089586
:10411000982F809164118823E1F782E080936411E5
:104120009E7F90936511A6E6B1E1FA0102C08191EC
:104130008D938E2F841B8617D0F310928611609377
:1041400087118091BC008F70806A8093BC000895B5
:10415000982F809164118823E1F783E080936411A4
:104160009160909365111092A8116093A9118091AC
:10417000BC008F70806A8093BC008091641188239A
:10418000E1F7A8E8B1E1FA0102C08D9181938E2F89
:10419000841B8617D0F30895982FFA018091BC00F4
:1041A0008E7F8093BC008091BC008F70806A80936A
:1041B000BC008091BC0087FFFCCF9E7F9093BB002A
:1041C0008091BC008F7080688093BC008091BC009F
:1041D00087FFFCCF8091B900883189F091E012C04F
:1041E00080818093BB008091BC008F708068809339
:1041F000BC008091BC0087FFFCCF319661506623E4
:1042000079F790E08091BC008F70806D8093BC0046
:104210008091BC0084FFFCCF8091BC0081608093C2
:10422000BC00892F0895982FFA018091BC008E7FE1
:104230008093BC008091BC008F70806A8093BC002A
:104240008091BC0087FFFCCF91609093BB00809170
:10425000BC008F7080688093BC008091BC0087FF99
:10426000FCCF8091B900803481F091E01EC0809134
:10427000BC008F70806C8093BC008091BC0087FF75
:10428000FCCF8091BB0081936150623080F78091B8
:10429000BC008F7080688093BC008091BC0087FF59
:1042A000FCCF8091BB00808390E08091BC008F7038
:1042B000806D8093BC008091BC0081608093BC00C5
:1042C000892F08951F920F920FB60F9211242F93EA
:1042D0003F934F935F936F937F938F939F93AF938E
:1042E000BF93EF93FF938091B900887F803609F4E4
:1042F000A0C0813670F5883209F45FC0893298F425
:10430000803109F457C0813138F4882309F4EAC0B8
:10431000883009F0EFC04EC0883109F44EC08032B9
:1043200009F0E8C0DFC0803409F477C0813438F484
:10433000803309F4D7C0883309F0DCC05DC0803514
:1043400009F45FC0883509F44AC0883409F0D2C046
:10435000C9C0883909F4BAC08939B0F4883709F47A
:1043600068C0893738F4883609F463C0803709F0AB
:10437000C1C05FC0883809F4A9C0803909F45FC0A2
:10438000803809F0B7C05BC0803B09F479C0813B3D
:1043900038F4803A09F462C0883A09F0ABC070C0C2
:1043A000803C09F49AC0883C09F497C0883B09F026
:1043B000A1C077C0809165110FC090918611809146
:1043C0008711981708F08EC0E92FF0E0EA59FE4EE9
:1043D00080819F5F909386118093BB0077C080910E
:1043E000A8119091BB00E82FF0E0E857FE4E9083B3
:1043F0008F5F8093A81176C08091BC008F70806819
:1044000075C08091A8119091BB00E82FF0E0E857AB
:10441000FE4E90838F5F8093A8112091A81130E009
:104420008091A91190E00197281739070CF04EC030
:1044300048C085E0809364111092A81142C0809119
:10444000A8119091BB00E82FF0E0E857FE4E908352
:104450008F5F8093A8118032C8F533C08091BC0073
:104460008F70806C8093BC00E091AA11F091AB1129
:104470003097F1F18091A81168E871E1099538C091
:1044800084E080936411E091AC11F091AD1130970C
:1044900031F080E266E671E1099580938711109210
:1044A000861190918611E92FF0E0EA59FE4E808145
:1044B0008093BB009F5F909386118091871198171E
:1044C00028F48091BC008F70806C04C08091BC0087
:1044D0008F7080688093BC000DC08091BC008F708D
:1044E000806C04C08091BC008F70806D8093BC0094
:1044F00010926411FF91EF91BF91AF919F918F91B5
:104500007F916F915F914F913F912F910F900FBECF
:104510000F901F9018958091641108958BE292E19D
:104520009093B1118093B0119093AF118093AE111D
:1045300008958F3FB9F0E091AE11F091AF118083F3
:104540008091AE119091AF1101969093AF1180932D
:10455000AE118B52934130F08BE292E19093AF1108
:104560008093AE1108950F931F93CF93DF93EC01C7
:104570008B0120E030E040E050E060E070E0220F8E
:10458000331F441F551FFE01E60FF71F80819181E5
:10459000A0E0B0E0280F391F4A1F5B1F6E5F7F4FFE
:1045A0006431710561F7C9019F776FE056954795B2
:1045B000379527956A95D1F7820F931F20E09F7753
:1045C0008017910709F421E0822FDF91CF911F918D
:1045D0000F910895CF93DF93EC0120E0E881F0E0A4
:1045E000E05AF040EE0FFF1FEE0FFF1FDF01AA0F92
:1045F000BB1FA60FB71F8B859C858D939C93DF01F6
:104600001196AA0FBB1FA60FB71F8D859E858D9390
:104610009C933296DF01AA0FBB1FA60FB71F8F8591
:1046200098898D939C933196EE0FFF1FE60FF71F2D
:1046300089899A89918380832F5F6D962A3571F6D7
:10464000DF91CF910895EF92FF920F931F93DF9325
:10465000CF93CDB7DEB7E9840A851B8500D00F92D2
:10466000FF24F394ADB7BEB71196FC92119780EA80
:1046700091E013969C938E9312970E94771F0F9050
:104680000F900F908E2D0E94C61D00D00F92EDB797
:10469000FEB7F18281E991E0938382830E94771FC4
:1046A0000F900F900F90C8010E94D11D00D00F9263
:1046B000ADB7BEB71196FC92119784E891E01396BE
:1046C0009C938E9312970E94771F00D0EDB7FEB790
:1046D0003196ADB7BEB71196FC9200E811E0128397
:1046E00001838C899D89948383830E94771FEDB712
:1046F000FEB73196ADB7BEB71196FC921283018317
:104700008E899F89948383830E94771FEDB7FEB7BC
:104710003196ADB7BEB71196FC9212830183888D96
:10472000998D948383830E94771FEDB7FEB73196EE
:10473000ADB7BEB71196FC92128301838A8D9B8D13
:10474000948383830E94771F0F900F900F900F9098
:104750000F900E94B71DCF91DF911F910F91FF9095
:10476000EF90089504C08AE090E00E94F411E09177
:10477000B011F091B1118091AE119091AF11E81785
:10478000F90789F32191F093B111E093B011EB5245
:10479000F34130F08BE292E19093B1118093B0112C
:1047A000822F08952F923F924F925F926F927F9245
:1047B0008F929F92AF92BF92CF92DF92EF92FF9231
:1047C0000F931F93DF93CF93CDB7DEB76A970FB6E2
:1047D000F894DEBF0FBECDBF2C010E94B2238A3FEA
:1047E00009F0ACC00E94B223282FF2018083805AC6
:1047F0008A3508F0A3C0922F80E086509F4F9E8399
:104800008D830E94B223182F0E94B223382F20E0FC
:10481000210F311DF2013283218338872F8332012A
:1048200009E0802E912C8C0E9D1E620115E0212E38
:10483000312C2C0E3D1EAE01475E5F4F5A8F498FC3
:1048400046C00E94B223F80181938F01E215F3055F
:10485000C1F74A81942F9078F3019383842F807459
:104860008783992321F0F601148613860CC0842FC8
:1048700090E08F739070982F88272981820F911D67
:10488000F60194878387BC80AA248B819501280F29
:10489000311DF601348B238BF42EEE248981A70180
:1048A000480F511DF401518340833383228342E03A
:1048B00050E0C40ED51E84E090E0880E991E089446
:1048C000611C711CE98DFA8D8E169F0621F08E01F8
:1048D0000F5F1F4FB6CF0E94B223182F0E94B22342
:1048E000382F20E0B901610F711DF201748F638FC1
:1048F000F10120E030E040E050E0220F331F441F80
:10490000551F81919191A0E0B0E0280F391F4A1FF7
:104910005B1FE815F90589F7C9019F77EFE0569508
:10492000479537952795EA95D1F7820F931F20E099
:104930009F778617970719F421E001C020E0822FA6
:104940006A960FB6F894DEBF0FBECDBFCF91DF9150
:104950001F910F91FF90EF90DF90CF90BF90AF909D
:104960009F908F907F906F905F904F903F902F908F
:104970000895AF92BF92CF92DF92EF92FF921F9372
:10498000DF93CF93CDB7DEB76D970FB6F894DEBF48
:104990000FBECDBF7B01DB01FC018DE101900D92CB
:1049A0008150E1F711E06E010894C11CD11C8DE12A
:1049B000A82EB12CC6010E94D2238823D9F3812FBF
:1049C00090E08A9DF0018B9DF00D9A9DF00D1124D1
:1049D000EE0DFF1DD6018DE10D9001928150E1F7A2
:1049E0001F5F1A3538F36D960FB6F894DEBF0FBE11
:1049F000CDBFCF91DF911F91FF90EF90DF90CF90CF
:104A0000BF90AF900895CF92DF92EF92FF920F93F5
:104A10001F93DF93CF93CDB7DEB7CF54DA400FB6F5
:104A2000F894DEBF0FBECDBF6C017E010894E11C7F
:104A3000F11CC7010E94D2238823D9F38981803ACF
:104A4000C1F78E01025E1F4FC701B8010E94B92451
:104A5000C801B6010E94EA22C15BD54F0FB6F89497
:104A6000DEBF0FBECDBFCF91DF911F910F91FF90A1
:104A7000EF90DF90CF900895F8940C94D827FB0125
:104A8000DC0102C001900D9241505040D8F70895CA
:104A9000DC0101C06D9341505040E0F70895FB01E7
:104AA000DC014150504048F001900D920020C9F7C0
:104AB00001C01D9241505040E0F708955058BB2767
:104AC000AA270ED070C161D130F066D120F031F448
:104AD0009F3F11F41EF456C10EF4E095E7FB4CC164
:104AE000E92F72D180F3BA1762077307840795071D
:104AF00018F071F49EF58AC10EF4E0950B2EBA2FD2
:104B0000A02D0B01B90190010C01CA01A0011124D3
:104B1000FF27591B99F0593F50F4503E68F11A167F
:104B2000F040A22F232F342F4427585FF3CF469510
:104B300037952795A795F0405395C9F77EF41F1632
:104B4000BA0B620B730B840BBAF09150A1F0FF0FFC
:104B5000BB1F661F771F881FC2F70EC0BA0F621FE8
:104B6000731F841F48F4879577956795B795F795D8
:104B70009E3F08F0B3CF9395880F08F09927EE0F6A
:104B8000979587950895D4D008F481E008950CD0C6
:104B90000AC102D140F0F9D030F021F45F3F19F0A2
:104BA000EBC0511134C1EEC00FD198F39923C9F372
:104BB0005523B1F3951B550BBB27AA276217730723
:104BC000840738F09F5F5F4F220F331F441FAA1FD7
:104BD000A9F333D00E2E3AF0E0E830D09150504097
:104BE000E695001CCAF729D0FE2F27D0660F771F45
:104BF000881FBB1F261737074807AB07B0E809F027
:104C0000BB0B802DBF01FF2793585F4F2AF09E3FBB
:104C1000510568F0B1C0FBC05F3FECF3983EDCF398
:104C2000869577956795B795F7959F5FC9F7880F34
:104C3000911D9695879597F90895E1E0660F771F86
:104C4000881FBB1F621773078407BA0720F0621B17
:104C5000730B840BBA0BEE1F88F7E0950895BCD058
:104C600088F09F5790F0B92F9927B751A0F0D1F055
:104C7000660F771F881F991F1AF0BA95C9F712C0DF
:104C8000B13081F0C3D0B1E00895C0C0672F782F54
:104C90008827B85F39F0B93FCCF38695779567954B
:104CA000B395D9F73EF490958095709561957F4FB7
:104CB0008F4F9F4F0895E89409C097FB3EF490955D
:104CC0008095709561957F4F8F4F9F4F9923A9F0E5
:104CD000F92F96E9BB279395F69587957795679574
:104CE000B795F111F8CFFAF4BB0F11F460FF1BC0B8
:104CF0006F5F7F4F8F4F9F4F16C0882311F096E94B
:104D000011C0772321F09EE8872F762F05C06623F8
:104D100071F096E8862F70E060E02AF09A95660FB1
:104D2000771F881FDAF7880F9695879597F908956A
:104D3000990F0008550FAA0BE0E8FEEF16161706AC
:104D4000E807F907C0F012161306E407F50798F014
:104D5000621B730B840B950B39F40A2661F0232B2D
:104D6000242B252B21F408950A2609F4A140A695A9
:104D70008FEF811D811D089597F99F6780E870E08E
:104D800060E008959FEF80EC089500240A941616C1
:104D9000170618060906089500240A941216130629
:104DA000140605060895092E0394000C11F48823B7
:104DB00052F0BB0F40F4BF2B11F460FF04C06F5FD3
:104DC0007F4F8F4F9F4F089557FD9058440F551FA9
:104DD00059F05F3F71F04795880F97FB991F61F07D
:104DE0009F3F79F087950895121613061406551FF4
:104DF000F2CF4695F1DF08C0161617061806991F60
:104E0000F1CF86957105610508940895E894BB2754
:104E100066277727CB0197F908958ADF08F48FEF8B
:104E200008950BD0C0CFB1DF28F0B6DF18F095237E
:104E300009F0A2CFA7CF1124EACFC6DFA0F3959F38
:104E4000D1F3950F50E0551F629FF001729FBB2771
:104E5000F00DB11D639FAA27F00DB11DAA1F649F1D
:104E60006627B00DA11D661F829F2227B00DA11DD0
:104E7000621F739FB00DA11D621F839FA00D611D56
:104E8000221F749F3327A00D611D231F849F600D77
:104E9000211D822F762F6A2F11249F5750408AF0B0
:104EA000E1F088234AF0EE0FFF1FBB1F661F771F3C
:104EB000881F91505040A9F79E3F510570F05CCF7C
:104EC000A6CF5F3FECF3983EDCF386957795679528
:104ED000B795F795E7959F5FC1F7FE2B880F911D5A
:104EE0009695879597F90895AA1BBB1B51E107C0BA
:104EF000AA1FBB1FA617B70710F0A61BB70B881F6A
:104F0000991F5A95A9F780959095BC01CD010895F8
:104F100097FB092E07260AD077FD04D0E5DF06D0DF
:104F200000201AF4709561957F4F0895F6F79095DB
:104F300081959F4F0895A1E21A2EAA1BBB1BFD016C
:104F40000DC0AA1FBB1FEE1FFF1FA217B307E40768
:104F5000F50720F0A21BB30BE40BF50B661F771FC0
:104F6000881F991F1A9469F76095709580959095A0
:104F70009B01AC01BD01CF01089597FB092E0526C9
:104F80000ED057FD04D0D7DF0AD0001C38F450955E
:104F90004095309521953F4F4F4F5F4F0895F6F75D
:104FA00090958095709561957F4F8F4F9F4F089595
:044FB000F894FFCFA3
:104FB40064006400620061005E005B005700520000
:104FC4004D0047004000390032002A0022001A0038
:104FD400110009000000F7FFEFFFE6FFDEFFD6FF38
:104FE400CEFFC7FFC0FFB9FFB3FFAEFFA9FFA5FF08
:104FF400A2FF9FFF9EFF9CFF9CFF9CFF9EFF9FFFC5
:10500400A2FFA5FFA9FFAEFFB3FFB9FFC0FFC7FF13
:10501400CEFFD6FFDEFFE6FFEFFFF7FF000009003B
:1050240011001A0022002A00320039004000470013
:105034004D00520057005B005E0061006200640096
:08504400640049444C450000E2
:00000001FF
