:100000000C9433010C9450010C9450010C94500149
:100010000C9450010C9450010C9450010C9450011C
:100020000C9450010C9450010C9450010C9450010C
:100030000C9450010C94560E0C94830E0C94750C79
:100040000C94CF0D0C9450010C94FC0D0C94290EC3
:100050000C94350C0C94750D0C94A20D0C94E20BC1
:100060000C9450010C944C120C9450010C94A91354
:100070000C9450010C94B3150C9450010C94B00ED8
:100080000C94DD0E0C940A0F0C94370F0C94B50CE5
:100090000C9427120C9450010C9484130C94D119D5
:1000A0000C9450010C94640F0C94910F0C94BE0F9F
:1000B0000C94EB0F0C94F50C0C9418100C94451048
:1000C0000C9472100C949F100C94350D0C94021229
:1000D0000C9450010C945F130C94DD110C9450019E
:1000E0000C943A13084AD73B3BCE016E84BCBFFD4B
:1000F000C12F3D6C74319ABD56833DDA3D00C77FF8
:1001000011BED9E4BB4C3E916BAAAABE0000008090
:100110003F05A84CCDB2D44EB93836A9020C50B91F
:10012000918688083CA6AAAA2ABE000000803F0843
:10013000000000BE922449123EABAAAA2ABECDCC32
:10014000CC4C3E00000080BEABAAAAAA3E00000034
:1001500000BF000000803F0000000000084178D38D
:10016000BB4387D1133D190E3CC3BD4282AD2B3E2C
:1001700068EC8276BED98FE1A93E4C80EFFFBE01CC
:10018000C4FF7F3F000000000007634236B79BD8E2
:10019000A71A39685618AEBAAB558C1D3CB7CC5768
:1001A00063BD6DEDFD753EF6177231BF0000008036
:1001B0003F5374617274696E672070726F67726109
:1001C0006D2E0A003530302C20003430302C2000C9
:1001D000496E697469616C697A6174696F6E2043F4
:1001E0006F6D706C657465200D0A002E000D0A534A
:1001F000797374656D205761726D65642055700068
:10020000000001000800400000010004000001009F
:100210000800200040008000000100044241445FCB
:10022000766563742063616C6C65642100303132E3
:100230003334353637383941424344454600256426
:1002400020002044697374616E6365733A20002056
:100250004D6F746F722053706565643A2000496E6B
:100260006465783A200011241FBECFEFD1E2DEBFD3
:10027000CDBF12E0A0E0B2E0EEEAF6E402C00590E5
:100280000D92A23DB107D9F717E0A2EDB2E001C08F
:100290001D92A134B107E1F70E94C0060C945B1EC9
:1002A0000C94CC10893049F4809180008260809356
:1002B0008000809180008E7F0EC08A3021F4809172
:1002C0008000826003C0809180008D7F80938000D9
:1002D0008091800081608093800010928B0010924A
:1002E0008A000895893049F48091B000826080933B
:1002F000B0008091B0008E7F0EC08A3021F48091D2
:10030000B000826003C08091B0008D7F8093B00008
:100310008091B00081608093B0001092B400089585
:10032000893049F4809190008260809390008091A0
:1003300090008E7F0EC08A3021F480919000826000
:1003400003C0809190008D7F8093900080919000F9
:100350008160809390001092990010929800089507
:10036000893049F48091910082608093910080915E
:1003700091008E7F0EC08A3021F4809191008260BE
:1003800003C0809191008D7F8093910080919100B6
:1003900081608093910010929B0010929A000895C2
:1003A000893049F48091920082608093920080911C
:1003B00092008E7F0EC08A3021F48091920082607C
:1003C00003C0809192008D7F809392008091920073
:1003D00081608093920010929D0010929C0008957D
:1003E000893049F48091A00082608093A0008091C0
:1003F000A0008E7F0EC08A3021F48091A000826020
:1004000003C08091A0008D7F8093A0008091A00008
:1004100081608093A0001092A9001092A800089516
:10042000893049F48091A10082608093A10080917D
:10043000A1008E7F0EC08A3021F48091A1008260DD
:1004400003C08091A1008D7F8093A1008091A100C5
:1004500081608093A1001092AB001092AA000895D1
:10046000893049F48091A00082608093A00080913F
:10047000A0008E7F0EC08A3021F48091A00082609F
:1004800003C08091A0008D7F8093A0008091A00088
:1004900081608093A0001092AD001092AC0008958E
:1004A000E0E8F0E020812E7F2083208122602083FD
:1004B000E1E8F0E020812860208320812061208312
:1004C0009093870080938600109289001092880094
:1004D00010928B0010928A0010928D0010928C0066
:1004E0000895E0E9F0E020812E7F208320812260C2
:1004F0002083E1E9F0E020812860208320812061D1
:100500002083909397008093960010929900109208
:10051000980010929B0010929A0010929D001092E9
:100520009C000895E0EAF0E020812E7F2083208166
:1005300022602083E1EAF0E020812860208320818E
:10054000206120839093A7008093A6001092A900B9
:100550001092A8001092AB001092AA001092AD0069
:100560001092AC000895E0E8F0E080818062808322
:1005700080818F7E80830895E0EBF0E0808180624F
:10058000808380818F7E80830895E0E9F0E0808120
:100590008068808380818F7B80830895E0E9F0E02C
:1005A00080818062808380818F7E80830895E0E9EE
:1005B000F0E080818860808380818B7F80830895D4
:1005C000E0EAF0E080818068808380818F7B808397
:1005D0000895E0EAF0E080818062808380818F7EF0
:1005E00080830895E0EAF0E08081886080838081E4
:1005F0008B7F80830895E0E8F0E080818F7D8083A9
:1006000080818F7E80830895E0EBF0E080818F7D94
:10061000808380818F7E80830895E0E9F0E080818F
:100620008F77808380818F7B80830895E0E9F0E07D
:1006300080818F7D808380818F7E80830895E0E933
:10064000F0E08081877F808380818B7F8083089525
:10065000E0EAF0E080818F77808380818F7B8083E8
:100660000895E0EAF0E080818F7D808380818F7E35
:1006700080830895E0EAF0E08081877F8083808135
:100680008B7F80830895E0E8F0E080818D7F808318
:1006900080818E7F808380818F7D808380818F7E2B
:1006A00080830895E0EBF0E080818D7F80838081FE
:1006B0008E7F808380818F7D808380818F7E808309
:1006C0000895E0E9F0E080818D7F808380818E7FD6
:1006D000808380818F77808380818F7B80838081FE
:1006E0008F7D808380818F7E80838081877F8083E0
:1006F00080818B7F80830895E0EAF0E080818D7FA8
:10070000808380818E7F808380818F7780838081CA
:100710008F7B808380818F7D808380818F7E8083AB
:100720008081877F808380818B7F808308959093F1
:100730008B0080938A0008958093B400089590936D
:10074000990080939800089590939B0080939A005D
:10075000089590939D0080939C0008959093A90024
:100760008093A80008959093AB008093AA00089509
:100770009093AD008093AC00089510BA11BA109216
:100780000701109208019FEF91B980E484B997B9ED
:10079000589A599A83EF8AB98EEF8DB9A59A9D9888
:1007A0008093010180930401089508952E9A08957D
:1007B0002E98089522B330E085E0369527958A95E6
:1007C000E1F72095309521703070C901089597FDAB
:1007D00010C025E030E040E050E00E943A23DA010A
:1007E000C901880F991F805C9D4FFC0120813181D8
:1007F00017C025E030E040E050E00E943A23DA01E3
:10080000C901885B9F4FAF4FBF4F880F991F805C16
:100810009D4FFC018081918122273327281B390BB2
:10082000C90108956A5570408040904097FD10C0FE
:1008300025E030E040E050E00E943A23DA01C901AF
:10084000880F991F805C9D4FFC012081318117C06A
:1008500025E030E040E050E00E943A23DA01C9018F
:10086000885B9F4FAF4FBF4F880F991F805C9D4F94
:10087000FC018081918122273327281B390BC90174
:100880000895CF92DF92EF92FF920F931F936B0127
:100890007C018AE5C816D104E104F104A1F186EADD
:1008A000C8168FEFD8068FEFE8068FEFF80659F1DC
:1008B0008EE0C81681E0D80680E0E80680E0F80601
:1008C00011F182EFC8168EEFD8068FEFE8068FEF92
:1008D000F806C9F0C701B6010E9412048C01C701D5
:1008E000B6010E94E703BC01C8010E940523CB01A9
:1008F0009B0173E0220F331F7A95E1F7880F991F50
:10090000280F391F02C020E030E0C9011F910F916C
:10091000FF90EF90DF90CF90089508952F923F922F
:100920004F925F926F927F928F929F92AF92BF92FF
:10093000CF92DF92EF92FF920F931F93062FF72E25
:10094000E82ED92EC22EB32EA42E952E172F3601A7
:1009500025018AEF0E947C11802F0E947C118F2D2F
:100960000E947C118E2D0E947C118D2D0E947C1185
:100970008C2D0E947C118B2D0E947C118A2D0E944F
:100980007C11892D0E947C11100F1E0D170D160D64
:10099000150D140D812F890D0E947C111F910F914F
:1009A000FF90EF90DF90CF90BF90AF909F908F908F
:1009B0007F906F905F904F903F902F9008952F926F
:1009C0003F924F925F926F927F928F929F92AF92DF
:1009D000BF92CF92DF92EF92FF920F931F93DF931C
:1009E000CF9300D000D0CDB7DEB75C01ACEC8A2E3F
:1009F000912C880E991ECC240F2EF0E0EF2EF0E003
:100A0000FF2EF0E00F2FF0E01F2FF02DDD24F4017A
:100A1000608171816739710568F080E090E00E9423
:100A2000C01F9B01AC01C801B7010E945F1E7B0182
:100A30008C01C394D39482E090E0880E991E95E0D7
:100A4000D91629F7CC2071F06C2D70E080E090E091
:100A50000E94C01F9B01AC01C801B7010E942C1F5E
:100A60007B018C01C801B70120E030E048EC52E482
:100A70000E942C1F20E030E040EA50E40E945E1EFD
:100A80009B01AC0160E070E080E090E40E948C216A
:100A9000AC01CB01DA0189839A83AB83BC83F0E795
:100AA000CF2EF2E0DF2ECA0CDB1CAA240F2EF0E0C2
:100AB000EF2EF0E0FF2EF0E00F2FF0E01F2FF02DD3
:100AC000E8E38E2EE1E09E2EF601608171816739A8
:100AD000710568F080E090E00E94C01F9B01AC01AE
:100AE000C801B7010E945F1E7B018C01A39408948A
:100AF000811C911C82E090E0C80ED91E9DE38916EE
:100B000091E0990609F7AA2071F06A2D70E080E063
:100B100090E00E94C01F9B01AC01C801B7010E9478
:100B20002C1F7B018C01C801B70120E030E046E6B4
:100B300053E40E945E1E3B014C010E942C2220E0E7
:100B400030E040E85FE30E945F1E0E94E2211B014B
:100B50002C0169817A818B819C8120E030E040EF1B
:100B600051E40E9429217B018C0169817A818B816A
:100B70009C8120E030E040E850E40E945F1E9B0131
:100B8000AC01C801B7010E942C1F20E030E048EC06
:100B900052E40E9429215B016C01C401B3012AE9DE
:100BA00039E949E95EEB0E942921A20191010E94E5
:100BB0002C1F20E030E048EC52E40E9429217B0108
:100BC0008C01B501C6019701A8010E948E0400D0D6
:100BD0000F9299249394EDB7FEB791828AEC91E03D
:100BE000938382830E94E6170F900F900F9085E009
:100BF0004E2D5F2D602F712F0E941D170E9426160B
:100C000000D00F92EDB7FEB7918284EC91E0938310
:100C100082830E94E6170F900F900F9085E04A2D77
:100C20005B2D6C2D7D2D0E941D170E9426160F90A6
:100C30000F900F900F90CF91DF911F910F91FF9028
:100C4000EF90DF90CF90BF90AF909F908F907F906C
:100C50006F905F904F903F902F9008950F931F9348
:100C6000CF93DF930E942E1580E040E056E960E0CC
:100C700070E00E94081181E040E052EC61E070E019
:100C80000E94081182E040E052EC61E070E00E94B6
:100C9000081183E040E052EC61E070E00E9408112E
:100CA00081E891E10E94C2150E94BD0380E06DE8D9
:100CB00074E00E94FD1083E068E07BE10E94FD107B
:100CC0002E9800D00F9281E0EDB7FEB781838DEEB4
:100CD00091E0938382830E94E6170F900F900F900C
:100CE00085E00E94140B83E00E94220B87E00E94A3
:100CF000340B83E00E94440B83E00E94560B83E098
:100D00000E94680B0E94371585E00E945C1581E007
:100D10000E94631510E001E0CBEED1E0812F0E942C
:100D2000AC1500D00F92EDB7FEB70183D383C28319
:100D30000E94E6171F5F0F900F900F90103171F710
:100D40002E9A00D00F92EDB7FEB7018380ED91E0AF
:100D5000938382830E94E6170F900F900F900E945A
:100D6000CA0A0E94D40A0E94E10A0E94EC0A0E9468
:100D7000F90A0E94060BDF91CF911F910F91089500
:100D80000F931F93DF93CF93CDB7DEB7C05DD240F3
:100D90000FB6F894DEBF0FBECDBF0E94FD1A0E94B1
:100DA0002E0600D00F9281E0EDB7FEB7818381EB74
:100DB00091E0938382830E94E6170F900F900F902B
:100DC0008E010F5F1F4FC8010E94721D60E070E02E
:100DD00080EF91E420E030E040E050E00E948E049B
:100DE00084E690E00E948F0BEECFEF92FF920F937C
:100DF0001F938091D2029091D3028756914009F0BF
:100E0000A5C06091D4027091D50280E090E00E946C
:100E1000C01F7B018C016091E8027091E902809112
:100E2000EA029091EB02A80197010E942C1F20E09A
:100E300030E040E251E40E9429216093F80270936F
:100E4000F9028093FA029093FB0283E0B801A701B4
:100E50000E941D178091D4029091D502059760F4ED
:100E600080E090E0A0E2B1EC8093F8029093F90268
:100E7000A093FA02B093FB026091F0027091F1022C
:100E80008091F2029091F3022091EC023091ED02F8
:100E90004091EE025091EF020E942C1F9B01AC0189
:100EA0006091F4027091F5028091F6029091F70240
:100EB0000E945F1E6093F4027093F5028093F60225
:100EC0009093F70280E092E00E94D9154091F402DD
:100ED0005091F5026091F6027091F70284E00E9451
:100EE0001D1789E00E94C7154091F8025091F90240
:100EF0006091FA027091FB0284E00E941D178AE063
:100F00000E94C71580E292E00E94D9154091E80244
:100F10005091E9026091EA027091EB0284E00E9434
:100F20001D1789E00E94C7154091F0025091F1020F
:100F30006091F2027091F30284E00E941D178AE032
:100F40000E94C71580E092E00E94D9151F910F9171
:100F5000FF90EF9008952F923F924F925F926F9281
:100F60007F928F929F92AF92BF92CF92DF92EF9239
:100F7000FF920F931F93DF93CF93CDB7DEB72C97DC
:100F80000FB6F894DEBF0FBECDBF7B018C013901D7
:100F90004A018091D2029091D3028856914008F480
:100FA00040C01092D3021092D2021092D502109239
:100FB000D4021092D7021092D60280E090E0A0E016
:100FC000B0E08093E0029093E102A093E202B0933C
:100FD000E3028093E4029093E502A093E602B093CB
:100FE000E7028093E8029093E902A093EA02B093AB
:100FF000EB028093EC029093ED02A093EE02B0938B
:10100000EF028093F0029093F102A093F202B0936A
:10101000F3028093F4029093F502A093F602B0934A
:10102000F7028091D2029091D30201969093D3025D
:101030008093D202C401B30120E030E040EA50E4E2
:101040000E94D92018160CF0C2C1C801B7012BEDBF
:101050003FE049E450E40E94D92018161CF05701E3
:1010600068010AC0C801B7012BED3FE049EC50E42C
:101070000E945E1E5B016C01C601B5010E94291F22
:1010800069877A878B879C87C401B30120E030E0B1
:1010900046E153E40E945E1E20E030E040E850E468
:1010A0000E9429217B018C01C401B30120E030E0C2
:1010B00046E953E40E945F1E9B01AC01C801B701E1
:1010C0000E942C1F1B012C0169857A858B859C85CC
:1010D000A20191010E94292120E030E040E450E487
:1010E0000E948C217B018C016091EC027091ED02D9
:1010F0008091EE029091EF02A80197010E945F1E7D
:101100006093EC027093ED028093EE029093EF02F5
:10111000C801B701A60195010E9429219B01AC01DC
:101120006091F0027091F1028091F2029091F302CD
:101130000E945F1E6093F0027093F1028093F202AE
:101140009093F302C601B5019F772BED3FE049EC88
:101150005EE30E94251F8823ECF48091D4029091D5
:10116000D50201969093D5028093D4026091E80253
:101170007091E9028091EA029091EB02A201910143
:101180000E945F1E6093E8027093E9028093EA0276
:101190009093EB02C401B30120E030E046E953E450
:1011A0000E94251F87FD03C020E030E04DC08091E4
:1011B000D6029091D70201969093D7028093D602DF
:1011C0008091D8029091D902A091DA02B091DB020D
:1011D0008093E0029093E102A093E202B093E302D5
:1011E0008091DC029091DD02A091DE02B091DF02DD
:1011F0008093E4029093E502A093E602B093E702A5
:10120000C601B5010E94D8219B01AC01C401B30104
:101210000E9429216093D8027093D9028093DA0248
:101220009093DB02C401B30129853A854B855C8527
:101230000E9429216093DC027093DD028093DE021C
:101240009093DF0221E030E08091D6029091D702A6
:10125000892B09F4BCC0232B09F4B9C08091E002AA
:101260009091E102A091E202B091E3028D839E830E
:10127000AF83B8878091D8029091D902A091DA0209
:10128000B091DB0289839A83AB83BC836D817E81BD
:101290008F81988529813A814B815C810E945E1EF5
:1012A0009B01AC010E9429217B018C012090E4026A
:1012B0003090E5024090E6025090E7026090DC0238
:1012C0007090DD028090DE029090DF02C201B101D9
:1012D000A40193010E945E1E9B01AC010E94292182
:1012E0009B01AC01C801B7010E945F1E0E94E22170
:1012F0007B018C0120E030E040E252E40E942C1F90
:101300000E94E9205B016C01C801B70120E030E0D8
:1013100040E252EC0E942C1F20E030E040E85FE306
:101320000E945F1E0E94E9209B01AC01C601B5012D
:101330000E945E1E20E030E048EC52E40E94D9207A
:1013400018160CF044C06D817E818F8198852981AB
:101350003A814B815C810E945F1E20E030E040E0DA
:101360005FE30E9429217B018C01C201B101A4012C
:1013700093010E945F1E20E030E040E05FE30E94A6
:1013800029219B01AC01C801B7010E94D21E209106
:10139000F4023091F5024091F6025091F7020E945A
:1013A0005F1E9B01AC01CB01DA018093F4029093A4
:1013B000F502A093F602B093F70284E0E32FF42F36
:1013C000A52F422F5E2F6F2F7A2F0E941D172C966C
:1013D0000FB6F894DEBF0FBECDBFCF91DF911F9146
:1013E0000F91FF90EF90DF90CF90BF90AF909F90C4
:1013F0008F907F906F905F904F903F902F900895C7
:10140000E82FF0E0E770F070EE0FFF1FE050FE4FA6
:1014100025913491C9010895E82FF0E0E770F0704C
:10142000EE0FFF1FE45FFD4F25913491C901089530
:1014300085B5E82FF0E0E770F070EE0FFF1FE05089
:10144000FE4F25913491C901089580918100E82FC4
:10145000F0E0E770F070EE0FFF1FE050FE4F2591B7
:101460003491C90108958091B100E82FF0E0E77050
:10147000F070EE0FFF1FE45FFD4F25913491C9011D
:10148000089580919100E82FF0E0E770F070EE0F82
:10149000FF1FE050FE4F25913491C90108958091BE
:1014A000A100E82FF0E0E770F070EE0FFF1FE050B2
:1014B000FE4F25913491C901089580912101E82FB3
:1014C000F0E0E770F070EE0FFF1FE050FE4F259147
:1014D0003491C90108952091DC053091DD054091DA
:1014E000DE055091DF05B901CA0108952091D805A4
:1014F0003091D9054091DA055091DB05B901CA0157
:1015000008952091E0053091E1054091E205509168
:10151000E305B901CA0108952091E8053091E90574
:101520004091EA055091EB05B901CA010895209157
:10153000D4053091D5054091D6055091D705B90114
:10154000CA0108952091EC053091ED054091EE051A
:101550005091EF05B901CA01089586B5089520910B
:10156000840030918500C90108958091B2000895EA
:101570002091940030919500C90108952091A40014
:101580003091A500C90108952091240130912501D1
:10159000C90108951092DC051092DD051092DE0558
:1015A0001092DF0516BC08951092D8051092D90547
:1015B0001092DA051092DB051092850010928400DB
:1015C00008951092E0051092E1051092E205109244
:1015D000E3051092B20008951092E8051092E90513
:1015E0001092EA051092EB0510929500109294006B
:1015F00008951092D4051092D5051092D605109238
:10160000D7051092A5001092A40008951092EC0541
:101610001092ED051092EE051092EF051092250143
:10162000109224010895089585BD81E080936E0095
:101630001092DC051092DD051092DE051092DF0598
:1016400016BC08958093810081E080936F00109212
:10165000D8051092D9051092DA051092DB05109288
:1016600085001092840008958093B10081E08093FA
:1016700070001092E0051092E1051092E2051092C0
:10168000E3051092B20008958093910081E0809369
:1016900071001092E8051092E9051092EA05109287
:1016A000EB05109295001092940008958093A1008C
:1016B00081E0809372001092D4051092D5051092AB
:1016C000D6051092D7051092A5001092A400089597
:1016D0008093210181E0809373001092EC051092B9
:1016E000ED051092EE051092EF0510922501109273
:1016F00024010895E82FF0E0EE0FFF1FE450FD4FA6
:10170000718360830895E82FF0E0EE0FFF1FE4502F
:10171000FD4F1182108208950197F1F70895AF925D
:10172000BF92CF92DF92EF92FF920F931F93A0E0B0
:10173000B0E0BC01CD010E94C01F5B016C0120E044
:1017400030E04AE755E40E9429217B018C0120E02A
:1017500030E040E85FE30E94251F88231CF461E02D
:1017600070E024C0C801B70120E03FEF4FE757E425
:101770000E94D9201816B4F4C601B50120E030E06B
:1017800040E251E40E9429210E94941F80E991E0E7
:1017900005C0FC013197F1F761507040611571058A
:1017A000C1F707C0C801B7010E94941FCB01019780
:1017B000F1F71F910F91FF90EF90DF90CF90BF90C6
:1017C000AF9008951F920F920FB60F9211242F938E
:1017D0003F934F935F936F937F938F939F93AF93B9
:1017E000BF93EF93FF938091DC059091DD05A0916D
:1017F000DE05B091DF050196A11DB11D8093DC05CA
:101800009093DD05A093DE05B093DF058091E4059C
:101810009091E505A091E605B091E7050196A11D1F
:10182000B11D8093E4059093E505A093E605B09380
:10183000E7058091000390910103892B29F0E09145
:101840000003F09101030995FF91EF91BF91AF91D2
:101850009F918F917F916F915F914F913F912F91C8
:101860000F900FBE0F901F9018951F920F920FB6FA
:101870000F9211242F933F934F935F936F937F9316
:101880008F939F93AF93BF93EF93FF938091D8056E
:101890009091D905A091DA05B091DB050196A11DC3
:1018A000B11D8093D8059093D905A093DA05B09324
:1018B000DB0580910A0390910B03892B29F0E091BD
:1018C0000A03F0910B030995FF91EF91BF91AF913E
:1018D0009F918F917F916F915F914F913F912F9148
:1018E0000F900FBE0F901F9018951F920F920FB67A
:1018F0000F9211242F933F934F935F936F937F9396
:101900008F939F93AF93BF93EF93FF938091E005E5
:101910009091E105A091E205B091E3050196A11D2A
:10192000B11D8093E0059093E105A093E205B0938B
:10193000E3058091100390911103892B29F0E09128
:101940001003F09111030995FF91EF91BF91AF91B1
:101950009F918F917F916F915F914F913F912F91C7
:101960000F900FBE0F901F9018951F920F920FB6F9
:101970000F9211242F933F934F935F936F937F9315
:101980008F939F93AF93BF93EF93FF938091E8055D
:101990009091E905A091EA05B091EB050196A11D92
:1019A000B11D8093E8059093E905A093EA05B093F3
:1019B000EB0580911A0390911B03892B29F0E0918C
:1019C0001A03F0911B030995FF91EF91BF91AF911D
:1019D0009F918F917F916F915F914F913F912F9147
:1019E0000F900FBE0F901F9018951F920F920FB679
:1019F0000F9211242F933F934F935F936F937F9395
:101A00008F939F93AF93BF93EF93FF938091D405F0
:101A10009091D505A091D605B091D7050196A11D4D
:101A2000B11D8093D4059093D505A093D605B093AE
:101A3000D7058091240390912503892B29F0E0910B
:101A40002403F09125030995FF91EF91BF91AF9188
:101A50009F918F917F916F915F914F913F912F91C6
:101A60000F900FBE0F901F9018951F920F920FB6F8
:101A70000F9211242F933F934F935F936F937F9314
:101A80008F939F93AF93BF93EF93FF938091EC0558
:101A90009091ED05A091EE05B091EF050196A11D85
:101AA000B11D8093EC059093ED05A093EE05B093E6
:101AB000EF0580912E0390912F03892B29F0E0915F
:101AC0002E03F0912F030995FF91EF91BF91AF91F4
:101AD0009F918F917F916F915F914F913F912F9146
:101AE0000F900FBE0F901F9018951F920F920FB678
:101AF0000F9211242F933F934F935F936F937F9394
:101B00008F939F93AF93BF93EF93FF938091FC02CA
:101B10009091FD02892B29F0E091FC02F091FD02E9
:101B20000995FF91EF91BF91AF919F918F917F9117
:101B30006F915F914F913F912F910F900FBE0F903A
:101B40001F9018951F920F920FB60F9211242F938A
:101B50003F934F935F936F937F938F939F93AF9335
:101B6000BF93EF93FF938091FE029091FF02892B28
:101B700029F0E091FE02F091FF020995FF91EF91AB
:101B8000BF91AF919F918F917F916F915F914F9195
:101B90003F912F910F900FBE0F901F9018951F929D
:101BA0000F920FB60F9211242F933F934F935F9391
:101BB0006F937F938F939F93AF93BF93EF93FF9315
:101BC0008091020390910303892B29F0E091020395
:101BD000F09103030995FF91EF91BF91AF919F9110
:101BE0008F917F916F915F914F913F912F910F90C6
:101BF0000FBE0F901F9018951F920F920FB60F9265
:101C000011242F933F934F935F936F937F938F9301
:101C10009F93AF93BF93EF93FF93809106039091AF
:101C20000703892B29F0E0910603F091070309953A
:101C3000FF91EF91BF91AF919F918F917F916F91A4
:101C40005F914F913F912F910F900FBE0F901F907A
:101C500018951F920F920FB60F9211242F933F9356
:101C60004F935F936F937F938F939F93AF93BF93A4
:101C7000EF93FF938091080390910903892B29F03A
:101C8000E0910803F09109030995FF91EF91BF914D
:101C9000AF919F918F917F916F915F914F913F9104
:101CA0002F910F900FBE0F901F9018951F920F92BB
:101CB0000FB60F9211242F933F934F935F936F931F
:101CC0007F938F939F93AF93BF93EF93FF938091F5
:101CD0000C0390910D03892B29F0E0910C03F091F6
:101CE0000D030995FF91EF91BF91AF919F918F9156
:101CF0007F916F915F914F913F912F910F900FBE08
:101D00000F901F9018951F920F920FB60F921124EB
:101D10002F933F934F935F936F937F938F939F93F3
:101D2000AF93BF93EF93FF9380910E0390910F03B6
:101D3000892B29F0E0910E03F0910F030995FF9193
:101D4000EF91BF91AF919F918F917F916F915F9133
:101D50004F913F912F910F900FBE0F901F901895AC
:101D60001F920F920FB60F9211242F933F934F9310
:101D70005F936F937F938F939F93AF93BF93EF93F3
:101D8000FF938091120390911303892B29F0E09126
:101D90001203F09113030995FF91EF91BF91AF9159
:101DA0009F918F917F916F915F914F913F912F9173
:101DB0000F900FBE0F901F9018951F920F920FB6A5
:101DC0000F9211242F933F934F935F936F937F93C1
:101DD0008F939F93AF93BF93EF93FF9380911403DF
:101DE00090911503892B29F0E0911403F0911503CC
:101DF0000995FF91EF91BF91AF919F918F917F9145
:101E00006F915F914F913F912F910F900FBE0F9067
:101E10001F9018951F920F920FB60F9211242F93B7
:101E20003F934F935F936F937F938F939F93AF9362
:101E3000BF93EF93FF938091160390911703892B23
:101E400029F0E0911603F09117030995FF91EF91A6
:101E5000BF91AF919F918F917F916F915F914F91C2
:101E60003F912F910F900FBE0F901F9018951F92CA
:101E70000F920FB60F9211242F933F934F935F93BE
:101E80006F937F938F939F93AF93BF93EF93FF9342
:101E90008091180390911903892B29F0E091180380
:101EA000F09119030995FF91EF91BF91AF919F9127
:101EB0008F917F916F915F914F913F912F910F90F3
:101EC0000FBE0F901F9018951F920F920FB60F9292
:101ED00011242F933F934F935F936F937F938F932F
:101EE0009F93AF93BF93EF93FF9380911C039091C7
:101EF0001D03892B29F0E0911C03F0911D03099526
:101F0000FF91EF91BF91AF919F918F917F916F91D1
:101F10005F914F913F912F910F900FBE0F901F90A7
:101F200018951F920F920FB60F9211242F933F9383
:101F30004F935F936F937F938F939F93AF93BF93D1
:101F4000EF93FF9380911E0390911F03892B29F03B
:101F5000E0911E03F0911F030995FF91EF91BF914E
:101F6000AF919F918F917F916F915F914F913F9131
:101F70002F910F900FBE0F901F9018951F920F92E8
:101F80000FB60F9211242F933F934F935F936F934C
:101F90007F938F939F93AF93BF93EF93FF93809122
:101FA000200390912103892B29F0E0912003F091E7
:101FB00021030995FF91EF91BF91AF919F918F916F
:101FC0007F916F915F914F913F912F910F900FBE35
:101FD0000F901F9018951F920F920FB60F92112419
:101FE0002F933F934F935F936F937F938F939F9321
:101FF000AF93BF93EF93FF938091220390912303BC
:10200000892B29F0E0912203F09123030995FF9198
:10201000EF91BF91AF919F918F917F916F915F9160
:102020004F913F912F910F900FBE0F901F901895D9
:102030001F920F920FB60F9211242F933F934F933D
:102040005F936F937F938F939F93AF93BF93EF9320
:10205000FF938091260390912703892B29F0E0912B
:102060002603F09127030995FF91EF91BF91AF915E
:102070009F918F917F916F915F914F913F912F91A0
:102080000F900FBE0F901F9018951F920F920FB6D2
:102090000F9211242F933F934F935F936F937F93EE
:1020A0008F939F93AF93BF93EF93FF9380912803F8
:1020B00090912903892B29F0E0912803F0912903BD
:1020C0000995FF91EF91BF91AF919F918F917F9172
:1020D0006F915F914F913F912F910F900FBE0F9095
:1020E0001F9018951F920F920FB60F9211242F93E5
:1020F0003F934F935F936F937F938F939F93AF9390
:10210000BF93EF93FF9380912A0390912B03892B28
:1021100029F0E0912A03F0912B030995FF91EF91AB
:10212000BF91AF919F918F917F916F915F914F91EF
:102130003F912F910F900FBE0F901F9018951F92F7
:102140000F920FB60F9211242F933F934F935F93EB
:102150006F937F938F939F93AF93BF93EF93FF936F
:1021600080912C0390912D03892B29F0E0912C0371
:10217000F0912D030995FF91EF91BF91AF919F9140
:102180008F917F916F915F914F913F912F910F9020
:102190000FBE0F901F9018951F920F920FB60F92BF
:1021A00011242F933F934F935F936F937F938F935C
:1021B0009F93AF93BF93EF93FF9300D00F9281E073
:1021C000EDB7FEB781838CE192E0938382830E9416
:1021D000E6170F900F900F90FF91EF91BF91AF9185
:1021E0009F918F917F916F915F914F913F912F912F
:1021F0000F900FBE0F901F901895843040F4E82F79
:10220000F0E0EE0FFF1FE059FA4F718360830895ED
:102210001F93182F9A01AB01CA01B90160587B477F
:10222000814E9F4FF3E0660F771F881F991FFA9525
:10223000D1F7E4E0220F331F441F551FEA95D1F771
:102240000E94182321503040133029F42093340188
:102250003093350112C0123029F42093D40030930A
:10226000D5000BC0113029F42093CC003093CD0061
:1022700004C02093C4003093C5001F910895282FF7
:1022800030E0A3E0220F331FAA95E1F72C503A4F1C
:10229000C9010895282F30E0B3E0220F331FBA950B
:1022A000E1F7285E394FC9010895E82F833039F4EA
:1022B0008091300185FFFCCF6093360118C08230D9
:1022C00039F48091D00085FFFCCF6093D6000FC019
:1022D000813039F48091C80085FFFCCF6093CE0037
:1022E00006C08091C00085FFFCCF6093C600F0E07F
:1022F000E051FA4F10820895682F80E00E94551136
:102300000895682F81E00E9455110895682F82E09A
:102310000E9455110895682F83E00E945511089579
:1023200020E0E82FF0E083E0EE0FFF1F8A95E1F751
:10233000E850FA4F80819181892B09F421E0822FA6
:102340000895CF93DF93833019F4609136010CC068
:10235000823019F46091D60007C0813019F4609181
:10236000CE0002C06091C600282F30E0E901CC0FFA
:10237000DD1FFE01E059FA4F80819181892B31F0F8
:102380000190F081E02D862F099514C093E0220F73
:10239000331F9A95E1F7C9018C509A4F0E94211E74
:1023A000882341F4FE01E85CF94F80819181019618
:1023B00091838083DF91CF9108951F920F920FB682
:1023C0000F9211242F933F934F935F936F937F93BB
:1023D0008F939F93AF93BF93EF93FF9383E00E94FC
:1023E000A111FF91EF91BF91AF919F918F917F913B
:1023F0006F915F914F913F912F910F900FBE0F9072
:102400001F9018951F920F920FB60F9211242F93C1
:102410003F934F935F936F937F938F939F93AF936C
:10242000BF93EF93FF9382E00E94A111FF91EF9180
:10243000BF91AF919F918F917F916F915F914F91DC
:102440003F912F910F900FBE0F901F9018951F92E4
:102450000F920FB60F9211242F933F934F935F93D8
:102460006F937F938F939F93AF93BF93EF93FF935C
:1024700081E00E94A111FF91EF91BF91AF919F91D7
:102480008F917F916F915F914F913F912F910F901D
:102490000FBE0F901F9018951F920F920FB60F92BC
:1024A00011242F933F934F935F936F937F938F9359
:1024B0009F93AF93BF93EF93FF9380E00E94A1118E
:1024C000FF91EF91BF91AF919F918F917F916F910C
:1024D0005F914F913F912F910F900FBE0F901F90E2
:1024E00018958F929F92AF92BF92CF92DF92EF9208
:1024F000FF920F931F93CF93DF93882EDB01C82E9B
:10250000DD24F60113E0EE0FFF1F1A95E1F7E45EFC
:10251000F94F20813181240F351FF60173E0EE0F52
:10252000FF1F7A95E1F7E65EF94F808191812817C8
:10253000390770F54115510559F19C90760163E01A
:10254000EE0CFF1C6A95E1F788E196E0E80EF91EB3
:102550008D01C0E0D0E05A010894A108B10806C07E
:10256000C701F80160810E94211E21960F5F1F4F55
:10257000CA15DB05A8F384E196E0C80ED91E8FEFDB
:10258000F6018083882D692D0E9455118FEF01C0BF
:1025900080E0DF91CF911F910F91FF90EF90DF903E
:1025A000CF90BF90AF909F908F90089590E023E0E0
:1025B000880F991F2A95E1F7885E994F0E94211E86
:1025C0000895682F80E396E00E94211E0895682FE9
:1025D00088E296E00E94211E0895682F80E296E02E
:1025E0000E94211E0895682F88E196E00E94211E16
:1025F0000895CF93DF93282FA82FB0E0ED01CC5E94
:10260000D94F8881882379F1FD0133E0EE0FFF1F58
:102610003A95E1F7E45EF94F80819181892B11F1C0
:10262000233039F480E396E00E94B81D8093360190
:102630001EC0223039F488E296E00E94B81D8093D3
:10264000D60015C0213039F480E296E00E94B81D12
:102650008093CE000CC088E196E00E94B81D809364
:10266000C60005C01882A051BA4F8FEF8C93DF913E
:10267000CF9108951F920F920FB60F9211242F93AE
:102680003F934F935F936F937F938F939F93AF93FA
:10269000BF93EF93FF9383E00E94F912FF91EF91B4
:1026A000BF91AF919F918F917F916F915F914F916A
:1026B0003F912F910F900FBE0F901F9018951F9272
:1026C0000F920FB60F9211242F933F934F935F9366
:1026D0006F937F938F939F93AF93BF93EF93FF93EA
:1026E00082E00E94F912FF91EF91BF91AF919F910B
:1026F0008F917F916F915F914F913F912F910F90AB
:102700000FBE0F901F9018951F920F920FB60F9249
:1027100011242F933F934F935F936F937F938F93E6
:102720009F93AF93BF93EF93FF9381E00E94F912C1
:10273000FF91EF91BF91AF919F918F917F916F9199
:102740005F914F913F912F910F900FBE0F901F906F
:1027500018951F920F920FB60F9211242F933F934B
:102760004F935F936F937F938F939F93AF93BF9399
:10277000EF93FF9380E00E94F912FF91EF91BF91D8
:10278000AF919F918F917F916F915F914F913F9109
:102790002F910F900FBE0F901F9018951F93182F19
:1027A00090E0FC01EC5EF94F2FEF208343E0880FAF
:1027B000991F4A95E1F7885E994F0E94B81D682FCE
:1027C000812F0E9455111F910895CF93DF93EB0144
:1027D000282F30E0F90173E0EE0FFF1F7A95E1F743
:1027E000EA50FA4F80819181892BC9F0F90163E0A9
:1027F000EE0FFF1F6A95E1F7E850FA4F8081918153
:10280000892B69F053E0220F331F5A95E1F7C90174
:102810008C509A4F0E94B81D88838FEF01C080E0D2
:10282000DF91CF910895DF93CF930F92CDB7DEB7AD
:1028300083E0BE016F5F7F4F0E94E513882319F488
:102840002FEF3FEF03C08981282F30E0C9010F909F
:10285000CF91DF910895DF93CF930F92CDB7DEB77D
:1028600082E0BE016F5F7F4F0E94E513882319F459
:102870002FEF3FEF03C08981282F30E0C9010F906F
:10288000CF91DF910895DF93CF930F92CDB7DEB74D
:1028900081E0BE016F5F7F4F0E94E513882319F42A
:1028A0002FEF3FEF03C08981282F30E0C9010F903F
:1028B000CF91DF910895DF93CF930F92CDB7DEB71D
:1028C00080E0BE016F5F7F4F0E94E513882319F4FB
:1028D0002FEF3FEF03C08981282F30E0C9010F900F
:1028E000CF91DF91089590E0E3E0880F991FEA957A
:1028F000E1F78C509A4F0E94541E08958CE096E0A8
:1029000060EE74E040E850E00E94AB1D80E396E08A
:1029100060E675E040E150E00E94AB1D08950E9422
:102920007E14109277051092760588ED8093310120
:1029300083E040E855E260E070E00E9408118FEF0C
:102940008093F3051092170610923F0610923E06F0
:102950007894089584E096E060E574E040E850E003
:102960000E94AB1D88E296E060ED74E040E150E02B
:102970000E94AB1D08950E94AA1410927505109232
:10298000740588ED8093D10082E040E855E260E074
:1029900070E00E9408118FEF8093F20510921606E6
:1029A00010923D0610923C06789408958CEF95E0C5
:1029B00060EC73E040E850E00E94AB1D80E296E0DE
:1029C00060E474E040E150E00E94AB1D08950E9475
:1029D000D614109273051092720588ED8093C90089
:1029E00081E040E855E260E070E00E9408118FEF5E
:1029F0008093F1051092150610923B0610923A064C
:102A00007894089584EF95E060E373E040E850E047
:102A10000E94AB1D88E196E060EB73E040E150E07E
:102A20000E94AB1D08950E9402151092710510922C
:102A3000700588ED8093C10080E040E855E260E0D9
:102A400070E00E9408118FEF8093F0051092140639
:102A50001092390610923806789408950E94131542
:102A60000E94E7140E94BB140E948F140895AAE7E5
:102A7000B0E08C9180688C938C918F7D8C938C913D
:102A8000887F86608C93ECE7F0E080818F738064B0
:102A9000808380818F7D80838C9188608C9310925D
:102AA000400678940895EAE7F0E08081877F80838C
:102AB00080818F7780830895EAE7F0E09081987FA6
:102AC000982B90830895ECE7F0E090818295880F31
:102AD000880F807C9F73982B90830895ECE7F0E03B
:102AE00090818F71907E892B80830895EAE7F0E0D2
:102AF000808180618083808180648083089580915B
:102B00007A0080740895982F10924006883020F043
:102B100080917B00886003C080917B00877F8093D9
:102B20007B0080917C009770887F892B80937C004C
:102B300080917A00806180937A0080917A0080642D
:102B400080937A0080917A0086FDFCCF20917800F6
:102B500030917900C90108950E9483159695879553
:102B60009695879508951F920F920FB60F92112494
:102B70008F938FEF809340068F910F900FBE0F9031
:102B80001F901895909379058093780508951F9369
:102B9000182F8A3031F4E0917805F09179058DE0B5
:102BA0000995E0917805F0917905812F09951F919C
:102BB0000895CF93DF93EC01009721F406C021968E
:102BC0000E94C71588818823D1F7DF91CF9108959E
:102BD000EF92FF920F931F93CF93DF938C017A01B3
:102BE0000097E9F020E030E02617370738F4F801C5
:102BF00081918F012F5F3F4F8823B1F7C0E0D0E074
:102C00000BC0F8018081882319F00F5F1F4F01C0AE
:102C100080E20E94C7152196CE15DF0590F3DF9163
:102C2000CF911F910F91FF90EF900895CF93DF9375
:102C3000EC01009719F407C00E94C715FE01219608
:102C400084918823C9F7DF91CF9108958AE00E948B
:102C5000C7150895E82FF0E0EF70F070E35DFD4FC9
:102C6000E4918E2F0E94C71508951F93182F829507
:102C70008F700E942A16812F0E942A161F91089594
:102C80001F93182F892F0E943516812F0E94351609
:102C90001F910895EF92FF920F931F937B018C0178
:102CA000C801AA27BB270E944016C7010E944016F0
:102CB0001F910F91FF90EF9008952F923F924F92A6
:102CC0005F926F927F928F929F92AF92BF92CF92BC
:102CD000DF92EF92FF920F931F93DF93CF93CDB7C5
:102CE000DEB7A3970FB6F894DEBF0FBECDBF6AA3C1
:102CF000242E2BA337014801442351F017FF08C0AD
:102D0000EE24FF248701E618F7080809190902C014
:102D1000840173012AA1215090E0211091E0291B28
:102D200029A318A2A82EBB24CC24DD24C801B701F6
:102D3000A60195010E941823FB01EF70F070E35D7E
:102D4000FD4F64916F8FC801B701A60195010E94E4
:102D50001823C901DA017C018D019EE1492E512C15
:102D60004C0E5D1E39A025C0E114F10401051105CA
:102D7000C9F0C801B701A60195010E941823FB0103
:102D8000EF70F070E35DFD4F6491F2016083C80164
:102D9000B701A60195010E941823C901DA017C013F
:102DA0008D0103C02BA1F20120833A9408944108BD
:102DB00051083320C9F6CE014F968C01E9A10E1BB4
:102DC00011092220F1F097FE05C08DE2F8018293EF
:102DD0008F0117C0C8010197611471048104910427
:102DE00019F08C018BE202C08C0180E2F801808333
:102DF00008C0F80181918F010E94C715FAA1F15016
:102E0000FAA32AA12223A9F7A3960FB6F894DEBF4E
:102E10000FBECDBFCF91DF911F910F91FF90EF902B
:102E2000DF90CF90BF90AF909F908F907F906F90EA
:102E30005F904F903F902F9008954F925F926F92C6
:102E40007F928F929F92AF92BF92CF92DF92EF923A
:102E5000FF920F931F93CF93DF93482E5A016B017C
:102E6000CB01BA0120E030E040E050E00E94D920E0
:102E700018161CF43501460106C03501460197FAC3
:102E8000909497F890940F2EF0E0EF2EF0E0FF2E44
:102E9000F0E80F2FFFE31F2FF02D5524C401B301DD
:102EA000A80197010E942C1F20E030E040E251E48D
:102EB0000E94251F87FD0EC0C801B70120E030E049
:102EC00040E251E40E9429217B018C0153948FE060
:102ED000581621F7C601B50120E030E040E050E08F
:102EE0000E94251F882314F48DE201C08BE20E940A
:102EF000C715DD24AA2456C0C401B301A801970157
:102F00000E942C1F0E94941FB62ED62ACD2DD0E0F1
:102F1000CC24DD24C801B70120E030E040E85FE3C5
:102F20000E94251F882319F421E0C22ED12CCC2920
:102F3000DD29CD2B39F08B2D805D0E94C715DD2456
:102F4000DA9404C080E20E94C715DD24C801B701ED
:102F500020E030E040E85FE30E94251F882319F459
:102F60008EE20E94C7156B2D70E0882777FD809553
:102F7000982F0E94C21FA80197010E9429219B013E
:102F8000AC01C401B3010E945E1E3B014C01C801AB
:102F9000B70120E030E040E251E40E942C1F7B01A9
:102FA0008C01A394A41408F4A7CFDF91CF911F91B3
:102FB0000F91FF90EF90DF90CF90BF90AF909F90D8
:102FC0008F907F906F905F904F9008957F928F9237
:102FD0009F92AF92BF92CF92DF92EF92FF920F93A8
:102FE0001F93DF93CF93CDB7DEB77888C988DA888F
:102FF00063E1E62EF12CEC0EFD1E14C0882381F453
:1030000080E090E0CF91DF911F910F91FF90EF90C2
:10301000DF90CF90BF90AF909F908F907F9008955A
:103020000E94C71596012F5F3F4F772021F0F601D0
:103030006901849103C0F601808169018532F1F64E
:103040002F5F3F4F772021F0F6016901849103C083
:10305000F60180816901843629F0883781F0833652
:10306000F9F606C000E117E25AE0A52EB12C0CC01B
:10307000F701808122E030E0E20EF31ED1CF00E0C4
:1030800010E140E1A42EB12C32E0832E912C8E0C65
:103090009F1CF701E080F1808436B1F4F7FE11C087
:1030A000F094E194F108F3948DE20E94C71509C0F1
:1030B000C8016AE070E00E94F1228B016230710564
:1030C00018F0E016F106A0F3C701B8010E94F12242
:1030D000862F0E942A16C701B8010E94F1227C01A6
:1030E000C801B5010E94F1228B016115710561F7DC
:1030F000740198CF2091B9002E7F2093B9002091C0
:10310000B9002D7F2093B9009C0140E050E060E8B9
:103110007EE380E090E00E943A23203130F0822F5D
:1031200090E0409795958795282F2093B8000895B3
:10313000589A599A1092C1051092C0051092C30571
:103140001092C20584E690E00E947A18ECEBF0E061
:1031500080818460808310927A0580818160808381
:103160008081806480837894089590E0611191E07B
:103170008E7F982B9093BA0008959093C105809309
:10318000C00508959093C3058093C2050895ECEBA4
:10319000F0E080818F70806A80830895ECEBF0E02E
:1031A00080818F70806D808308958091BC0087FF3F
:1031B000FCCF08958093BB00ECEBF0E080818F7032
:1031C000806880830895882329F08091BC008F70E7
:1031D000806C04C08091BC008F7080688093BC00BC
:1031E00008958091BB0008958091B9000895982FAB
:1031F00080917A058823E1F782E080937A059E7FAB
:1032000090937B05ACE7B5E0FA0102C081918D9304
:103210008E2F841B8617D0F310929C0560939D051A
:103220008091BC008F70806A8093BC000895982FB5
:1032300080917A058823E1F783E080937A05916095
:1032400090937B051092BE056093BF058091BC00F2
:103250008F70806A8093BC0080917A058823E1F7A3
:10326000AEE9B5E0FA0102C08D9181938E2F841BE7
:103270008617D0F30895982FFA018091BC008E7FB5
:103280008093BC008091BC008F70806A8093BC00EA
:103290008091BC0087FFFCCF9E7F9093BB00809104
:1032A000BC008F7080688093BC008091BC0087FF59
:1032B000FCCF8091B900883189F091E012C0808103
:1032C0008093BB008091BC008F7080688093BC00AD
:1032D0008091BC0087FFFCCF31966150662379F75F
:1032E00090E08091BC008F70806D8093BC008091D5
:1032F000BC0084FFFCCF8091BC0081608093BC0047
:10330000892F0895982FFA018091BC008E7F8093B9
:10331000BC008091BC008F70806A8093BC0080915B
:10332000BC0087FFFCCF91609093BB008091BC00F4
:103330008F7080688093BC008091BC0087FFFCCFB9
:103340008091B900803481F091E01EC08091BC0072
:103350008F70806C8093BC008091BC0087FFFCCF95
:103360008091BB0081936150623080F78091BC00F6
:103370008F7080688093BC008091BC0087FFFCCF79
:103380008091BB00808390E08091BC008F70806D45
:103390008093BC008091BC0081608093BC00892F29
:1033A00008951F920F920FB60F9211242F933F93FF
:1033B0004F935F936F937F938F939F93AF93BF933D
:1033C000EF93FF938091B900887F803609F4A0C005
:1033D000813670F5883209F45FC0893298F4803103
:1033E00009F457C0813138F4882309F4EAC08830E1
:1033F00009F0EFC04EC0883109F44EC0803209F0A8
:10340000E8C0DFC0803409F477C0813438F48033F9
:1034100009F4D7C0883309F0DCC05DC0803509F4F9
:103420005FC0883509F44AC0883409F0D2C0C9C0E9
:10343000883909F4BAC08939B0F4883709F468C00A
:10344000893738F4883609F463C0803709F0C1C081
:103450005FC0883809F4A9C0803909F45FC080389A
:1034600009F0B7C05BC0803B09F479C0813B38F4F8
:10347000803A09F462C0883A09F0ABC070C0803C61
:1034800009F49AC0883C09F497C0883B09F0A1C0B0
:1034900077C080917B050FC090919C0580919D0520
:1034A000981708F08EC0E92FF0E0E458FA4F8081B9
:1034B0009F5F90939C058093BB0077C08091BE0571
:1034C0009091BB00E82FF0E0E256FA4F90838F5FB7
:1034D0008093BE0576C08091BC008F70806875C0F7
:1034E0008091BE059091BB00E82FF0E0E256FA4FC4
:1034F00090838F5F8093BE052091BE0530E0809160
:10350000BF0590E00197281739070CF04EC048C05E
:1035100085E080937A051092BE0542C08091BE0579
:103520009091BB00E82FF0E0E256FA4F90838F5F56
:103530008093BE058032C8F533C08091BC008F7087
:10354000806C8093BC00E091C005F091C10530977C
:10355000F1F18091BE056EE975E0099538C084E00F
:1035600080937A05E091C205F091C305309731F060
:1035700080E26CE775E0099580939D0510929C05AB
:1035800090919C05E92FF0E0E458FA4F80818093F8
:10359000BB009F5F90939C0580919D05981728F430
:1035A0008091BC008F70806C04C08091BC008F70D3
:1035B00080688093BC000DC08091BC008F70806CCF
:1035C00004C08091BC008F70806D8093BC0010920D
:1035D0007A05FF91EF91BF91AF919F918F917F916C
:1035E0006F915F914F913F912F910F900FBE0F9070
:1035F0001F90189580917A05089581E496E0909344
:10360000C7058093C6059093C5058093C4050895AA
:103610008F3FB9F0E091C405F091C505808380919A
:10362000C4059091C50501969093C5058093C40586
:103630008154974030F081E496E09093C5058093E3
:10364000C40508950F931F93CF93DF93EC018B0173
:1036500020E030E040E050E060E070E0220F331FF7
:10366000441F551FFE01E60FF71F80819181A0E0E6
:10367000B0E0280F391F4A1F5B1F6E5F7F4F643118
:10368000710561F7C9019F776FE0569547953795AA
:1036900027956A95D1F7820F931F20E09F778017B7
:1036A000910709F421E0822FDF91CF911F910F91B3
:1036B0000895CF93DF93EC0120E0E881F0E0E05A39
:1036C000F040EE0FFF1FEE0FFF1FDF01AA0FBB1F21
:1036D000A60FB71F8B859C858D939C93DF01119658
:1036E000AA0FBB1FA60FB71F8D859E858D939C9338
:1036F0003296DF01AA0FBB1FA60FB71F8F859889CF
:103700008D939C933196EE0FFF1FE60FF71F89896B
:103710009A89918380832F5F6D962A3571F6DF91A8
:10372000CF910895EF92FF920F931F93DF93CF9362
:10373000CDB7DEB7E9840A851B8500D00F92FF2440
:10374000F394ADB7BEB71196FC9211978EE592E057
:1037500013969C938E9312970E94E6170F900F90EA
:103760000F908E2D0E94351600D00F92EDB7FEB748
:10377000F1828FE492E0938382830E94E6170F9098
:103780000F900F90C8010E94401600D00F92ADB765
:10379000BEB71196FC92119782E492E013969C9327
:1037A0008E9312970E94E61700D0EDB7FEB73196C0
:1037B000ADB7BEB71196FC920EE312E012830183FF
:1037C0008C899D89948383830E94E617EDB7FEB7A9
:1037D0003196ADB7BEB71196FC92128301838E89E4
:1037E0009F89948383830E94E617EDB7FEB73196D5
:1037F000ADB7BEB71196FC9212830183888D998D67
:10380000948383830E94E617EDB7FEB73196ADB778
:10381000BEB71196FC92128301838A8D9B8D94838F
:1038200083830E94E6170F900F900F900F900F90D8
:103830000E942616CF91DF911F910F91FF90EF907C
:10384000089504C08AE090E00E94130BE091C60541
:10385000F091C7058091C4059091C505E817F90757
:1038600089F32191F093C705E093C605E154F74031
:1038700030F081E496E09093C7058093C605822FCF
:1038800008952F923F924F925F926F927F928F9204
:103890009F92AF92BF92CF92DF92EF92FF920F93DF
:1038A0001F93DF93CF93CDB7DEB76A970FB6F89427
:1038B000DEBF0FBECDBF2C010E94211C8A3F09F044
:1038C000ACC00E94211C282FF2018083805A8A35C7
:1038D00008F0A3C0922F80E086509F4F9E838D8377
:1038E0000E94211C182F0E94211C382F20E0210F3C
:1038F000311DF2013283218338872F83320109E0A1
:10390000802E912C8C0E9D1E620115E0212E312CF3
:103910002C0E3D1EAE01475E5F4F5A8F498F46C049
:103920000E94211CF80181938F01E215F305C1F774
:103930004A81942F9078F3019383842F8074878336
:10394000992321F0F601148613860CC0842F90E091
:103950008F739070982F88272981820F911DF6010F
:1039600094878387BC80AA248B819501280F311D01
:10397000F601348B238BF42EEE248981A701480FA6
:10398000511DF401518340833383228342E050E090
:10399000C40ED51E84E090E0880E991E0894611C28
:1039A000711CE98DFA8D8E169F0621F08E010F5F36
:1039B0001F4FB6CF0E94211C182F0E94211C382FA8
:1039C00020E0B901610F711DF201748F638FF10165
:1039D00020E030E040E050E0220F331F441F551F2D
:1039E00081919191A0E0B0E0280F391F4A1F5B1F21
:1039F000E815F90589F7C9019F77EFE056954795D6
:103A000037952795EA95D1F7820F931F20E09F778E
:103A10008617970719F421E001C020E0822F6A96EB
:103A20000FB6F894DEBF0FBECDBFCF91DF911F91CF
:103A30000F91FF90EF90DF90CF90BF90AF909F904D
:103A40008F907F906F905F904F903F902F90089550
:103A5000AF92BF92CF92DF92EF92FF921F93DF93CC
:103A6000CF93CDB7DEB76D970FB6F894DEBF0FBE1C
:103A7000CDBF7B01DB01FC018DE101900D928150F6
:103A8000E1F711E06E010894C11CD11C8DE1A82E54
:103A9000B12CC6010E94411C8823D9F3812F90E0EC
:103AA0008A9DF0018B9DF00D9A9DF00D1124EE0D75
:103AB000FF1DD6018DE10D9001928150E1F71F5F4E
:103AC0001A3538F36D960FB6F894DEBF0FBECDBF32
:103AD000CF91DF911F91FF90EF90DF90CF90BF903B
:103AE000AF900895CF92DF92EF92FF920F931F93C2
:103AF000DF93CF93CDB7DEB7CF54DA400FB6F8944B
:103B0000DEBF0FBECDBF6C017E010894E11CF11C2D
:103B1000C7010E94411C8823D9F38981803AC1F7EB
:103B20008E01025E1F4FC701B8010E94281DC80107
:103B3000B6010E94591BC15BD54F0FB6F894DEBF8A
:103B40000FBECDBFCF91DF911F910F91FF90EF90EE
:103B5000DF90CF900895FC018FB7F8947183608354
:103B60005383428317821682158214828FBF089571
:103B7000DC014FB7F89414968D919C911597892B81
:103B800011F4E0E025C016968D919C911797ED9168
:103B9000FC911197E80FF91FE081019617969C930D
:103BA0008E93169712962D913C9113978217930737
:103BB00030F0821B930B17969C938E931697149656
:103BC0008D919C911597019715969C938E931497C0
:103BD0004FBF8E2F0895FC014FB7F89484819581D3
:103BE00068177907B0F486819781860F971F9783AE
:103BF0008683228133818217930720F0821B930BE7
:103C00009783868384819581861B970B9583848314
:103C100002C0158214824FBF0895FC01CB012FB75B
:103C2000F8942FBF2681378162817381820F931FA1
:103C30000E94F1220190F081E02DE80FF91F8081B0
:103C400008951F93CF93DF93EC01162F4FB7F8948D
:103C50002C813D816A817B812617370798F48E81FC
:103C60009F81820F931F0E94F122E881F981E80F62
:103C7000F91F10838C819D8101969D838C834FBF9A
:103C80008FEF02C04FBF80E0DF91CF911F91089569
:103C9000FC018FB7F8948FBF228133818481958195
:103CA000281B390BC9010895FC018FB7F8941582C0
:103CB00014828FBF0895F8940C9455235058BB2755
:103CC000AA270ED02BC2EBD130F0F0D120F031F486
:103CD0009F3F11F41EF4BBC10EF4E095E7FBB1C1A8
:103CE000E92F3ED280F3BA1762077307840795075E
:103CF00018F071F49EF556C20EF4E0950B2EBA2F13
:103D0000A02D0B01B90190010C01CA01A0011124E1
:103D1000FF27591B99F0593F50F4503E68F11A168D
:103D2000F040A22F232F342F4427585FF3CF46951E
:103D300037952795A795F0405395C9F77EF41F1640
:103D4000BA0B620B730B840BBAF09150A1F0FF0F0A
:103D5000BB1F661F771F881FC2F70EC0BA0F621FF6
:103D6000731F841F48F4879577956795B795F795E6
:103D70009E3F08F0B3CF9395880F08F09927EE0F78
:103D80009795879508958BD158F080E891E009F4D4
:103D90009EEF8CD128F040E851E059F45EEF09C065
:103DA00056C100C2E92FE078DBD168F3092E052A5D
:103DB000C1F3261737074807590738F00E2E07F8C2
:103DC000E02569F0E025E0640AC0EF6307F800949D
:103DD00007FADB01B9019D01DC01CA01AD01EF93D6
:103DE0004AD09CD10AD05F91552331F02BED3FE0B2
:103DF00049E450FD49EC63CF0895DF93DD27B92FE7
:103E0000BF7740E85FE31616170648075B0710F414
:103E1000D92FD3D19F938F937F936F931DD3E4EECC
:103E2000F0E018D17BD12F913F914F915F911DD23E
:103E3000DD2349F09058A2EA2AED3FE049EC5FE328
:103E4000D0785D274DDFDF9169C1D7D008F481E0DC
:103E5000089534D1E39573C10CD060C127D140F0EF
:103E60001ED130F021F45F3F19F0EBC051119BC11E
:103E7000EEC076D198F39923C9F35523B1F3951B7E
:103E8000550BBB27AA2762177307840738F09F5F7B
:103E90005F4F220F331F441FAA1FA9F333D00E2EEA
:103EA0003AF0E0E830D091505040E695001CCAF757
:103EB00029D0FE2F27D0660F771F881FBB1F26171C
:103EC00037074807AB07B0E809F0BB0B802DBF01EF
:103ED000FF2793585F4F2AF09E3F510568F0B1C00D
:103EE00062C15F3FECF3983EDCF38695779567956A
:103EF000B795F7959F5FC9F7880F911D96958795A0
:103F000097F90895E1E0660F771F881FBB1F6217BE
:103F100073078407BA0720F0621B730B840BBA0B7C
:103F2000EE1F88F7E095089523D188F09F5790F011
:103F3000B92F9927B751A0F0D1F0660F771F881FCE
:103F4000991F1AF0BA95C9F712C0B13081F02AD181
:103F5000B1E0089527C1672F782F8827B85F39F01F
:103F6000B93FCCF3869577956795B395D9F73EF42D
:103F700090958095709561957F4F8F4F9F4F0895D5
:103F8000E89409C097FB3EF49095809570956195F3
:103F90007F4F8F4F9F4F9923A9F0F92F96E9BB27A9
:103FA0009395F695879577956795B795F111F8CF25
:103FB000FAF4BB0F11F460FF1BC06F5F7F4F8F4F90
:103FC0009F4F16C0882311F096E911C0772321F086
:103FD0009EE8872F762F05C0662371F096E8862F1E
:103FE00070E060E02AF09A95660F771F881FDAF775
:103FF000880F9695879597F90895990F0008550FA2
:10400000AA0BE0E8FEEF16161706E807F907C0F05E
:1040100012161306E407F50798F0621B730B840B66
:10402000950B39F40A2661F0232B242B252B21F440
:1040300008950A2609F4A140A6958FEF811D811DE0
:10404000089597F99F6780E870E060E008959FEF1A
:1040500080EC0895DF93CF931F930F93FF92EF921D
:10406000DF927B018C01689405C0DA2EEF01FDD050
:10407000FE01E894A5912591359145915591AEF3B6
:10408000EF012EDEFE019701A801DA9479F7DF90A7
:10409000EF90FF900F911F91CF91DF910895002431
:1040A0000A941616170618060906089500240A949D
:1040B00012161306140605060895C9CF59D0E8F361
:1040C000E894EFEFBB273FE048EC5FE76B3D7307F9
:1040D0008407950708F1FF279F57B25A6A4D7F4022
:1040E000894CF04032F4BE556542704F8643FF4F15
:1040F0000894EE1F915030F0BB0F661F771F881F8A
:10410000FF1FEBCF9EE7882332F0BB0F661F771FA0
:10411000881F9A95C1F79395E095D2C1092E039413
:10412000000C11F4882352F0BB0F40F4BF2B11F4A4
:1041300060FF04C06F5F7F4F8F4F9F4F0895EF93D5
:10414000E0FF06C0A2EA2AED3FE049EC5FEBC8DDE4
:10415000E5DF0F90039401FC9058E1E1F1E0C7C165
:1041600057FD9058440F551F59F05F3F71F0479528
:10417000880F97FB991F61F09F3F79F0879508950D
:10418000121613061406551FF2CF4695F1DF08C02C
:10419000161617061806991FF1CF86957105610549
:1041A00008940895E894BB2766277727CB0197F9F1
:1041B000089523DF08F48FEF08959B01AC0160E0C0
:1041C00070E080E89FE348CE0EF07AC140CF68945B
:1041D00038CFCEDFC8F39923D1F3C6F3DF93CF9363
:1041E0001F930F93FF92C92FDD2788232AF0219771
:1041F000660F771F881FDAF720E030E040E85FEBBA
:104200009FE3883920F0803E30F021968F7757DD8C
:10421000EFE2F1E003C053DDECE5F1E01BDF8B01E1
:10422000BE01EC01FB2E6F5771097595771F880B46
:10423000990BA8DE28E132E741E35FE316D0AF2D0A
:104240009801AE01FF900F911F91CF91DF9148DD52
:1042500065CF0BD063CF23DF28F028DF18F095233C
:1042600009F0EFCEF4CE11249ECF7ADFA0F3959F14
:10427000D1F3950F50E0551F629FF001729FBB274D
:10428000F00DB11D639FAA27F00DB11DAA1F649FF9
:104290006627B00DA11D661F829F2227B00DA11DAC
:1042A000621F739FB00DA11D621F839FA00D611D32
:1042B000221F749F3327A00D611D231F849F600D53
:1042C000211D822F762F6A2F11249F5750408AF08C
:1042D000E1F088234AF0EE0FFF1FBB1F661F771F18
:1042E000881F91505040A9F79E3F510570F0A9CE0C
:1042F0005ACF5F3FECF3983EDCF386957795679550
:10430000B795F795E7959F5FC1F7FE2B880F911D35
:104310009695879597F90895FA01EE0FFF1F30964D
:104320002105310599F16115710561F48038BFE30C
:104330009B0749F168949038810561F08038BFEFA0
:104340009B0741F0992342F5FF3FE1053105210527
:1043500011F1E8940894E795D901AA2329F4AB2F29
:10436000BE2FF85FD0F310C0FF5F70F4A695E0F7A2
:10437000F73950F019F0FF3A38F49F779F930CD03B
:104380000F9007FC905808953EF061CE60E070E019
:1043900080E89FE308954FE79F775F934F933F93A4
:1043A0002F9317DF2F913F914F915F9152DF5CC0A8
:1043B0009F9384DE0F9007FCEE5FC1CE11F40EF4E4
:1043C00046CE7EC0D5DED0F39923D9F3CEF39F57E6
:1043D000550B87FF85D056959795B0E020F4660F72
:1043E000771F881FBB1F1F930F9300249001A0010C
:1043F0008001F001A0E80E0F1F1F0A1E511D601B57
:10440000710B8009B50B48F4600F711F801DB51F3B
:104410000E1B1F0B0A0A510907C02E0F3F1F4A1F10
:104420000E0F1F1F0A1E511D660F771F881FBB1F0F
:10443000A695F795E795F8F60617170708065B07A0
:10444000211D311D411D0F911F91B901842F9158DC
:10445000880F9695879508959B01AC01FACE19F4C3
:104460000EF0EFCD9FCEF3CD83DEC8F39638C0F7C4
:1044700007F80F92E8942BE33AEA48EB5FE7F7DEA0
:104480000F920F920F924DB75EB70F9277D0E9E877
:10449000F1E0E0DD4F915F91EF91FF91E595EE1F27
:1044A000FF1F49F0FE57E0684427EE0F441FFA95BE
:1044B000E1F74195550B2ED00F9007FE7ECE089563
:1044C0009F3F49F0915028F4869577956795B79569
:1044D0009F5F80389F4F880F9695879597F908952D
:1044E00091505040660F771F881FD2F708959F9311
:1044F0008F937F936F93FF93EF939B01AC01A9DEA2
:10450000EF91FF91A7DD2F913F914F915F91A1CE48
:1045100098CDD6CF2DDEE8F39923D9F3940F511D12
:10452000BBF39150504094F059F0882332F0660F5D
:10453000771F881F91505040C1F79E3F510544F7A7
:10454000880F911D9695879597F908955F3FACF078
:10455000983E9CF0BB27869577956795B79508F4AC
:10456000B1609395C1F7BB0F58F711F460FFE8CF26
:104570006F5F7F4F8F4F9F4FE3CF15CEFA01DC0166
:10458000AA0FBB1F9B01AC01BF5728F4222733277A
:10459000442750781FC0B75188F4AB2F00244695AC
:1045A00037952795011CA395D2F3002069F0220FBF
:1045B000331F441FB395DAF30DD080CB6130710502
:1045C000A0E88A07B94630F49B01AC01662777273B
:1045D00088279078309621F020833183428353835B
:1045E0000895AA1BBB1B51E107C0AA1FBB1FA6173A
:1045F000B70710F0A61BB70B881F991F5A95A9F78C
:1046000080959095BC01CD01089597FB092E072652
:104610000AD077FD04D0E5DF06D000201AF47095AB
:1046200061957F4F0895F6F7909581959F4F089576
:10463000A1E21A2EAA1BBB1BFD010DC0AA1FBB1FA6
:10464000EE1FFF1FA217B307E407F50720F0A21B18
:10465000B30BE40BF50B661F771F881F991F1A9485
:1046600069F760957095809590959B01AC01BD01AF
:10467000CF01089597FB092E05260ED057FD04D0D3
:10468000D7DF0AD0001C38F450954095309521951D
:104690003F4F4F4F5F4F0895F6F790958095709577
:0E46A00061957F4F8F4F9F4F0895F894FFCF85
:1046AE003D3D3D3D3D3D3D3D3D3D3D3D3D3D3D3D2C
:1046BE003D3D3D3D3D3D3D3D3D3D3D3D3D3D0A008C
:1046CE002D2D2D2D2D2D2D2D2D2D2D2D2D2D2D2D0C
:1046DE002D2D2D2D2D2D2D2D2D2D2D2D2D2D0A004C
:1046EE0064006400620061005E005B0057005200CF
:1046FE004D0047004000390032002A0022001A0007
:10470E00110009000000F7FFEFFFE6FFDEFFD6FF06
:10471E00CEFFC7FFC0FFB9FFB3FFAEFFA9FFA5FFD6
:10472E00A2FF9FFF9EFF9CFF9CFF9CFF9EFF9FFF93
:10473E00A2FFA5FFA9FFAEFFB3FFB9FFC0FFC7FFE2
:10474E00CEFFD6FFDEFFE6FFEFFFF7FF000009000A
:10475E0011001A0022002A003200390040004700E2
:10476E004D00520057005B005E0061006200640065
:02477E006400D5
:00000001FF
